{
	"FlipFlopSwap.sol": {
		"FlipFlopSwap": {
			"abi": [
				{
					"inputs": [
						{
							"internalType": "address",
							"name": "_router",
							"type": "address"
						},
						{
							"internalType": "address",
							"name": "_usdc",
							"type": "address"
						}
					],
					"stateMutability": "nonpayable",
					"type": "constructor"
				},
				{
					"anonymous": false,
					"inputs": [
						{
							"indexed": false,
							"internalType": "uint8",
							"name": "swapType",
							"type": "uint8"
						},
						{
							"indexed": false,
							"internalType": "uint256",
							"name": "amountIn",
							"type": "uint256"
						},
						{
							"indexed": false,
							"internalType": "uint256",
							"name": "amountOut",
							"type": "uint256"
						}
					],
					"name": "SwapExecuted",
					"type": "event"
				},
				{
					"inputs": [],
					"name": "DEADLINE_OFFSET",
					"outputs": [
						{
							"internalType": "uint256",
							"name": "",
							"type": "uint256"
						}
					],
					"stateMutability": "view",
					"type": "function"
				},
				{
					"inputs": [],
					"name": "owner",
					"outputs": [
						{
							"internalType": "address",
							"name": "",
							"type": "address"
						}
					],
					"stateMutability": "view",
					"type": "function"
				},
				{
					"inputs": [
						{
							"internalType": "address",
							"name": "token",
							"type": "address"
						},
						{
							"internalType": "uint256",
							"name": "amount",
							"type": "uint256"
						}
					],
					"name": "rescueERC20",
					"outputs": [],
					"stateMutability": "nonpayable",
					"type": "function"
				},
				{
					"inputs": [],
					"name": "router",
					"outputs": [
						{
							"internalType": "contract IUniswapV2Router02",
							"name": "",
							"type": "address"
						}
					],
					"stateMutability": "view",
					"type": "function"
				},
				{
					"inputs": [
						{
							"internalType": "uint256",
							"name": "ethAmount",
							"type": "uint256"
						},
						{
							"internalType": "uint256",
							"name": "amountOutMin",
							"type": "uint256"
						}
					],
					"name": "swapETHToUSDC",
					"outputs": [],
					"stateMutability": "nonpayable",
					"type": "function"
				},
				{
					"inputs": [
						{
							"internalType": "uint256",
							"name": "usdcAmount",
							"type": "uint256"
						},
						{
							"internalType": "uint256",
							"name": "amountOutMin",
							"type": "uint256"
						}
					],
					"name": "swapUSDCToETH",
					"outputs": [],
					"stateMutability": "nonpayable",
					"type": "function"
				},
				{
					"inputs": [],
					"name": "usdc",
					"outputs": [
						{
							"internalType": "contract IERC20",
							"name": "",
							"type": "address"
						}
					],
					"stateMutability": "view",
					"type": "function"
				},
				{
					"inputs": [
						{
							"internalType": "uint256",
							"name": "amount",
							"type": "uint256"
						}
					],
					"name": "withdrawETH",
					"outputs": [],
					"stateMutability": "nonpayable",
					"type": "function"
				},
				{
					"stateMutability": "payable",
					"type": "receive"
				}
			],
			"devdoc": {
				"details": "Main Swap Contracto with slippage is manually enforced by the caller via amountOutMin",
				"kind": "dev",
				"methods": {
					"swapETHToUSDC(uint256,uint256)": {
						"details": "Slippage is manually controlled via amountOutMin"
					},
					"swapUSDCToETH(uint256,uint256)": {
						"details": "Requires prior token approval to the router"
					},
					"withdrawETH(uint256)": {
						"details": "USDC has no withdrawal function; emergency rescue only"
					}
				},
				"version": 1
			},
			"evm": {
				"assembly": "    /* \"FlipFlopSwap.sol\":848:4121  contract FlipFlopSwap {... */\n  mstore(0x40, 0xe0)\n    /* \"FlipFlopSwap.sol\":1498:1760  constructor(address _router, address _usdc) {... */\n  callvalue\n  dup1\n  iszero\n  tag_1\n  jumpi\n  revert(0x00, 0x00)\ntag_1:\n  pop\n  mload(0x40)\n  sub(codesize, bytecodeSize)\n  dup1\n  bytecodeSize\n  dup4\n  codecopy\n  dup2\n  dup2\n  add\n  0x40\n  mstore\n  dup2\n  add\n  swap1\n  tag_2\n  swap2\n  swap1\n  tag_3\n  jump\t// in\ntag_2:\n    /* \"FlipFlopSwap.sol\":1561:1571  msg.sender */\n  caller\n    /* \"FlipFlopSwap.sol\":1553:1571  owner = msg.sender */\n  0xffffffffffffffffffffffffffffffffffffffff\n  and\n  0x80\n  dup2\n  0xffffffffffffffffffffffffffffffffffffffff\n  and\n  dup2\n  mstore\n  pop\n  pop\n    /* \"FlipFlopSwap.sol\":1610:1617  _router */\n  dup2\n    /* \"FlipFlopSwap.sol\":1582:1618  router = IUniswapV2Router02(_router) */\n  0xffffffffffffffffffffffffffffffffffffffff\n  and\n  0xa0\n  dup2\n  0xffffffffffffffffffffffffffffffffffffffff\n  and\n  dup2\n  mstore\n  pop\n  pop\n    /* \"FlipFlopSwap.sol\":1672:1677  _usdc */\n  dup1\n    /* \"FlipFlopSwap.sol\":1658:1678  usdc = IERC20(_usdc) */\n  0xffffffffffffffffffffffffffffffffffffffff\n  and\n  0xc0\n  dup2\n  0xffffffffffffffffffffffffffffffffffffffff\n  and\n  dup2\n  mstore\n  pop\n  pop\n    /* \"FlipFlopSwap.sol\":1712:1716  usdc */\n  mload(0xc0)\n    /* \"FlipFlopSwap.sol\":1712:1724  usdc.approve */\n  0xffffffffffffffffffffffffffffffffffffffff\n  and\n  0x095ea7b3\n    /* \"FlipFlopSwap.sol\":1725:1732  _router */\n  dup4\n    /* \"FlipFlopSwap.sol\":1734:1751  type(uint256).max */\n  0xffffffffffffffffffffffffffffffffffffffffffffffffffffffffffffffff\n    /* \"FlipFlopSwap.sol\":1712:1752  usdc.approve(_router, type(uint256).max) */\n  mload(0x40)\n  dup4\n  0xffffffff\n  and\n  0xe0\n  shl\n  dup2\n  mstore\n  0x04\n  add\n  tag_6\n  swap3\n  swap2\n  swap1\n  tag_7\n  jump\t// in\ntag_6:\n  0x20\n  mload(0x40)\n  dup1\n  dup4\n  sub\n  dup2\n  0x00\n  dup8\n  gas\n  call\n  iszero\n  dup1\n  iszero\n  tag_9\n  jumpi\n  returndatacopy(0x00, 0x00, returndatasize)\n  revert(0x00, returndatasize)\ntag_9:\n  pop\n  pop\n  pop\n  pop\n  mload(0x40)\n  returndatasize\n  not(0x1f)\n  0x1f\n  dup3\n  add\n  and\n  dup3\n  add\n  dup1\n  0x40\n  mstore\n  pop\n  dup2\n  add\n  swap1\n  tag_10\n  swap2\n  swap1\n  tag_11\n  jump\t// in\ntag_10:\n  pop\n    /* \"FlipFlopSwap.sol\":1498:1760  constructor(address _router, address _usdc) {... */\n  pop\n  pop\n    /* \"FlipFlopSwap.sol\":848:4121  contract FlipFlopSwap {... */\n  jump(tag_12)\n    /* \"#utility.yul\":88:205   */\ntag_14:\n    /* \"#utility.yul\":197:198   */\n  0x00\n    /* \"#utility.yul\":194:195   */\n  0x00\n    /* \"#utility.yul\":187:199   */\n  revert\n    /* \"#utility.yul\":334:460   */\ntag_16:\n    /* \"#utility.yul\":371:378   */\n  0x00\n    /* \"#utility.yul\":411:453   */\n  0xffffffffffffffffffffffffffffffffffffffff\n    /* \"#utility.yul\":404:409   */\n  dup3\n    /* \"#utility.yul\":400:454   */\n  and\n    /* \"#utility.yul\":389:454   */\n  swap1\n  pop\n    /* \"#utility.yul\":334:460   */\n  swap2\n  swap1\n  pop\n  jump\t// out\n    /* \"#utility.yul\":466:562   */\ntag_17:\n    /* \"#utility.yul\":503:510   */\n  0x00\n    /* \"#utility.yul\":532:556   */\n  tag_32\n    /* \"#utility.yul\":550:555   */\n  dup3\n    /* \"#utility.yul\":532:556   */\n  tag_16\n  jump\t// in\ntag_32:\n    /* \"#utility.yul\":521:556   */\n  swap1\n  pop\n    /* \"#utility.yul\":466:562   */\n  swap2\n  swap1\n  pop\n  jump\t// out\n    /* \"#utility.yul\":568:690   */\ntag_18:\n    /* \"#utility.yul\":641:665   */\n  tag_34\n    /* \"#utility.yul\":659:664   */\n  dup2\n    /* \"#utility.yul\":641:665   */\n  tag_17\n  jump\t// in\ntag_34:\n    /* \"#utility.yul\":634:639   */\n  dup2\n    /* \"#utility.yul\":631:666   */\n  eq\n    /* \"#utility.yul\":621:684   */\n  tag_35\n  jumpi\n    /* \"#utility.yul\":680:681   */\n  0x00\n    /* \"#utility.yul\":677:678   */\n  0x00\n    /* \"#utility.yul\":670:682   */\n  revert\n    /* \"#utility.yul\":621:684   */\ntag_35:\n    /* \"#utility.yul\":568:690   */\n  pop\n  jump\t// out\n    /* \"#utility.yul\":696:839   */\ntag_19:\n    /* \"#utility.yul\":753:758   */\n  0x00\n    /* \"#utility.yul\":784:790   */\n  dup2\n    /* \"#utility.yul\":778:791   */\n  mload\n    /* \"#utility.yul\":769:791   */\n  swap1\n  pop\n    /* \"#utility.yul\":800:833   */\n  tag_37\n    /* \"#utility.yul\":827:832   */\n  dup2\n    /* \"#utility.yul\":800:833   */\n  tag_18\n  jump\t// in\ntag_37:\n    /* \"#utility.yul\":696:839   */\n  swap3\n  swap2\n  pop\n  pop\n  jump\t// out\n    /* \"#utility.yul\":845:1352   */\ntag_3:\n    /* \"#utility.yul\":924:930   */\n  0x00\n    /* \"#utility.yul\":932:938   */\n  0x00\n    /* \"#utility.yul\":981:983   */\n  0x40\n    /* \"#utility.yul\":969:978   */\n  dup4\n    /* \"#utility.yul\":960:967   */\n  dup6\n    /* \"#utility.yul\":956:979   */\n  sub\n    /* \"#utility.yul\":952:984   */\n  slt\n    /* \"#utility.yul\":949:1068   */\n  iszero\n  tag_39\n  jumpi\n    /* \"#utility.yul\":987:1066   */\n  tag_40\n  tag_14\n  jump\t// in\ntag_40:\n    /* \"#utility.yul\":949:1068   */\ntag_39:\n    /* \"#utility.yul\":1107:1108   */\n  0x00\n    /* \"#utility.yul\":1132:1196   */\n  tag_41\n    /* \"#utility.yul\":1188:1195   */\n  dup6\n    /* \"#utility.yul\":1179:1185   */\n  dup3\n    /* \"#utility.yul\":1168:1177   */\n  dup7\n    /* \"#utility.yul\":1164:1186   */\n  add\n    /* \"#utility.yul\":1132:1196   */\n  tag_19\n  jump\t// in\ntag_41:\n    /* \"#utility.yul\":1122:1196   */\n  swap3\n  pop\n    /* \"#utility.yul\":1078:1206   */\n  pop\n    /* \"#utility.yul\":1245:1247   */\n  0x20\n    /* \"#utility.yul\":1271:1335   */\n  tag_42\n    /* \"#utility.yul\":1327:1334   */\n  dup6\n    /* \"#utility.yul\":1318:1324   */\n  dup3\n    /* \"#utility.yul\":1307:1316   */\n  dup7\n    /* \"#utility.yul\":1303:1325   */\n  add\n    /* \"#utility.yul\":1271:1335   */\n  tag_19\n  jump\t// in\ntag_42:\n    /* \"#utility.yul\":1261:1335   */\n  swap2\n  pop\n    /* \"#utility.yul\":1216:1345   */\n  pop\n    /* \"#utility.yul\":845:1352   */\n  swap3\n  pop\n  swap3\n  swap1\n  pop\n  jump\t// out\n    /* \"#utility.yul\":1358:1476   */\ntag_20:\n    /* \"#utility.yul\":1445:1469   */\n  tag_44\n    /* \"#utility.yul\":1463:1468   */\n  dup2\n    /* \"#utility.yul\":1445:1469   */\n  tag_17\n  jump\t// in\ntag_44:\n    /* \"#utility.yul\":1440:1443   */\n  dup3\n    /* \"#utility.yul\":1433:1470   */\n  mstore\n    /* \"#utility.yul\":1358:1476   */\n  pop\n  pop\n  jump\t// out\n    /* \"#utility.yul\":1482:1559   */\ntag_21:\n    /* \"#utility.yul\":1519:1526   */\n  0x00\n    /* \"#utility.yul\":1548:1553   */\n  dup2\n    /* \"#utility.yul\":1537:1553   */\n  swap1\n  pop\n    /* \"#utility.yul\":1482:1559   */\n  swap2\n  swap1\n  pop\n  jump\t// out\n    /* \"#utility.yul\":1565:1683   */\ntag_22:\n    /* \"#utility.yul\":1652:1676   */\n  tag_47\n    /* \"#utility.yul\":1670:1675   */\n  dup2\n    /* \"#utility.yul\":1652:1676   */\n  tag_21\n  jump\t// in\ntag_47:\n    /* \"#utility.yul\":1647:1650   */\n  dup3\n    /* \"#utility.yul\":1640:1677   */\n  mstore\n    /* \"#utility.yul\":1565:1683   */\n  pop\n  pop\n  jump\t// out\n    /* \"#utility.yul\":1689:2021   */\ntag_7:\n    /* \"#utility.yul\":1810:1814   */\n  0x00\n    /* \"#utility.yul\":1848:1850   */\n  0x40\n    /* \"#utility.yul\":1837:1846   */\n  dup3\n    /* \"#utility.yul\":1833:1851   */\n  add\n    /* \"#utility.yul\":1825:1851   */\n  swap1\n  pop\n    /* \"#utility.yul\":1861:1932   */\n  tag_49\n    /* \"#utility.yul\":1929:1930   */\n  0x00\n    /* \"#utility.yul\":1918:1927   */\n  dup4\n    /* \"#utility.yul\":1914:1931   */\n  add\n    /* \"#utility.yul\":1905:1911   */\n  dup6\n    /* \"#utility.yul\":1861:1932   */\n  tag_20\n  jump\t// in\ntag_49:\n    /* \"#utility.yul\":1942:2014   */\n  tag_50\n    /* \"#utility.yul\":2010:2012   */\n  0x20\n    /* \"#utility.yul\":1999:2008   */\n  dup4\n    /* \"#utility.yul\":1995:2013   */\n  add\n    /* \"#utility.yul\":1986:1992   */\n  dup5\n    /* \"#utility.yul\":1942:2014   */\n  tag_22\n  jump\t// in\ntag_50:\n    /* \"#utility.yul\":1689:2021   */\n  swap4\n  swap3\n  pop\n  pop\n  pop\n  jump\t// out\n    /* \"#utility.yul\":2027:2117   */\ntag_23:\n    /* \"#utility.yul\":2061:2068   */\n  0x00\n    /* \"#utility.yul\":2104:2109   */\n  dup2\n    /* \"#utility.yul\":2097:2110   */\n  iszero\n    /* \"#utility.yul\":2090:2111   */\n  iszero\n    /* \"#utility.yul\":2079:2111   */\n  swap1\n  pop\n    /* \"#utility.yul\":2027:2117   */\n  swap2\n  swap1\n  pop\n  jump\t// out\n    /* \"#utility.yul\":2123:2239   */\ntag_24:\n    /* \"#utility.yul\":2193:2214   */\n  tag_53\n    /* \"#utility.yul\":2208:2213   */\n  dup2\n    /* \"#utility.yul\":2193:2214   */\n  tag_23\n  jump\t// in\ntag_53:\n    /* \"#utility.yul\":2186:2191   */\n  dup2\n    /* \"#utility.yul\":2183:2215   */\n  eq\n    /* \"#utility.yul\":2173:2233   */\n  tag_54\n  jumpi\n    /* \"#utility.yul\":2229:2230   */\n  0x00\n    /* \"#utility.yul\":2226:2227   */\n  0x00\n    /* \"#utility.yul\":2219:2231   */\n  revert\n    /* \"#utility.yul\":2173:2233   */\ntag_54:\n    /* \"#utility.yul\":2123:2239   */\n  pop\n  jump\t// out\n    /* \"#utility.yul\":2245:2382   */\ntag_25:\n    /* \"#utility.yul\":2299:2304   */\n  0x00\n    /* \"#utility.yul\":2330:2336   */\n  dup2\n    /* \"#utility.yul\":2324:2337   */\n  mload\n    /* \"#utility.yul\":2315:2337   */\n  swap1\n  pop\n    /* \"#utility.yul\":2346:2376   */\n  tag_56\n    /* \"#utility.yul\":2370:2375   */\n  dup2\n    /* \"#utility.yul\":2346:2376   */\n  tag_24\n  jump\t// in\ntag_56:\n    /* \"#utility.yul\":2245:2382   */\n  swap3\n  swap2\n  pop\n  pop\n  jump\t// out\n    /* \"#utility.yul\":2388:2733   */\ntag_11:\n    /* \"#utility.yul\":2455:2461   */\n  0x00\n    /* \"#utility.yul\":2504:2506   */\n  0x20\n    /* \"#utility.yul\":2492:2501   */\n  dup3\n    /* \"#utility.yul\":2483:2490   */\n  dup5\n    /* \"#utility.yul\":2479:2502   */\n  sub\n    /* \"#utility.yul\":2475:2507   */\n  slt\n    /* \"#utility.yul\":2472:2591   */\n  iszero\n  tag_58\n  jumpi\n    /* \"#utility.yul\":2510:2589   */\n  tag_59\n  tag_14\n  jump\t// in\ntag_59:\n    /* \"#utility.yul\":2472:2591   */\ntag_58:\n    /* \"#utility.yul\":2630:2631   */\n  0x00\n    /* \"#utility.yul\":2655:2716   */\n  tag_60\n    /* \"#utility.yul\":2708:2715   */\n  dup5\n    /* \"#utility.yul\":2699:2705   */\n  dup3\n    /* \"#utility.yul\":2688:2697   */\n  dup6\n    /* \"#utility.yul\":2684:2706   */\n  add\n    /* \"#utility.yul\":2655:2716   */\n  tag_25\n  jump\t// in\ntag_60:\n    /* \"#utility.yul\":2645:2716   */\n  swap2\n  pop\n    /* \"#utility.yul\":2601:2726   */\n  pop\n    /* \"#utility.yul\":2388:2733   */\n  swap3\n  swap2\n  pop\n  pop\n  jump\t// out\n    /* \"FlipFlopSwap.sol\":848:4121  contract FlipFlopSwap {... */\ntag_12:\n  mload(0x80)\n  mload(0xa0)\n  mload(0xc0)\n  codecopy(0x00, dataOffset(sub_0), dataSize(sub_0))\n  0x00\n  assignImmutable(\"0x24036ccf201a67256250eabe66d3f9fd72f9c4d022f225a8ee964be060dcb993\")\n  0x00\n  assignImmutable(\"0x631897788617bc63fb0292c44f57a6c3824e4264bc88fb4e3c08b910f3f417fc\")\n  0x00\n  assignImmutable(\"0x9af6e0c6f9b8f572459f1957d56f01ba73ab5558fbad6cdb8b94d4ee7705c26c\")\n  return(0x00, dataSize(sub_0))\nstop\n\nsub_0: assembly {\n        /* \"FlipFlopSwap.sol\":848:4121  contract FlipFlopSwap {... */\n      mstore(0x40, 0x80)\n      jumpi(tag_1, lt(calldatasize, 0x04))\n      shr(0xe0, calldataload(0x00))\n      dup1\n      0x8da5cb5b\n      gt\n      tag_11\n      jumpi\n      dup1\n      0x8da5cb5b\n      eq\n      tag_7\n      jumpi\n      dup1\n      0x8e0e155a\n      eq\n      tag_8\n      jumpi\n      dup1\n      0xf14210a6\n      eq\n      tag_9\n      jumpi\n      dup1\n      0xf887ea40\n      eq\n      tag_10\n      jumpi\n      jump(tag_2)\n    tag_11:\n      dup1\n      0x37c0cb16\n      eq\n      tag_3\n      jumpi\n      dup1\n      0x3e413bee\n      eq\n      tag_4\n      jumpi\n      dup1\n      0x7c9aa53a\n      eq\n      tag_5\n      jumpi\n      dup1\n      0x8cd4426d\n      eq\n      tag_6\n      jumpi\n      jump(tag_2)\n    tag_1:\n      jumpi(tag_2, calldatasize)\n      stop\n    tag_2:\n      revert(0x00, 0x00)\n        /* \"FlipFlopSwap.sol\":1988:2621  function swapETHToUSDC(... */\n    tag_3:\n      callvalue\n      dup1\n      iszero\n      tag_14\n      jumpi\n      revert(0x00, 0x00)\n    tag_14:\n      pop\n      tag_15\n      0x04\n      dup1\n      calldatasize\n      sub\n      dup2\n      add\n      swap1\n      tag_16\n      swap2\n      swap1\n      tag_17\n      jump\t// in\n    tag_16:\n      tag_18\n      jump\t// in\n    tag_15:\n      stop\n        /* \"FlipFlopSwap.sol\":963:991  IERC20 public immutable usdc */\n    tag_4:\n      callvalue\n      dup1\n      iszero\n      tag_19\n      jumpi\n      revert(0x00, 0x00)\n    tag_19:\n      pop\n      tag_20\n      tag_21\n      jump\t// in\n    tag_20:\n      mload(0x40)\n      tag_22\n      swap2\n      swap1\n      tag_23\n      jump\t// in\n    tag_22:\n      mload(0x40)\n      dup1\n      swap2\n      sub\n      swap1\n      return\n        /* \"FlipFlopSwap.sol\":998:1042  uint256 public constant DEADLINE_OFFSET = 60 */\n    tag_5:\n      callvalue\n      dup1\n      iszero\n      tag_24\n      jumpi\n      revert(0x00, 0x00)\n    tag_24:\n      pop\n      tag_25\n      tag_26\n      jump\t// in\n    tag_25:\n      mload(0x40)\n      tag_27\n      swap2\n      swap1\n      tag_28\n      jump\t// in\n    tag_27:\n      mload(0x40)\n      dup1\n      swap2\n      sub\n      swap1\n      return\n        /* \"FlipFlopSwap.sol\":3994:4118  function rescueERC20(address token, uint amount) external onlyOwner {... */\n    tag_6:\n      callvalue\n      dup1\n      iszero\n      tag_29\n      jumpi\n      revert(0x00, 0x00)\n    tag_29:\n      pop\n      tag_30\n      0x04\n      dup1\n      calldatasize\n      sub\n      dup2\n      add\n      swap1\n      tag_31\n      swap2\n      swap1\n      tag_32\n      jump\t// in\n    tag_31:\n      tag_33\n      jump\t// in\n    tag_30:\n      stop\n        /* \"FlipFlopSwap.sol\":877:907  address public immutable owner */\n    tag_7:\n      callvalue\n      dup1\n      iszero\n      tag_34\n      jumpi\n      revert(0x00, 0x00)\n    tag_34:\n      pop\n      tag_35\n      tag_36\n      jump\t// in\n    tag_35:\n      mload(0x40)\n      tag_37\n      swap2\n      swap1\n      tag_38\n      jump\t// in\n    tag_37:\n      mload(0x40)\n      dup1\n      swap2\n      sub\n      swap1\n      return\n        /* \"FlipFlopSwap.sol\":2723:3379  function swapUSDCToETH(... */\n    tag_8:\n      callvalue\n      dup1\n      iszero\n      tag_39\n      jumpi\n      revert(0x00, 0x00)\n    tag_39:\n      pop\n      tag_40\n      0x04\n      dup1\n      calldatasize\n      sub\n      dup2\n      add\n      swap1\n      tag_41\n      swap2\n      swap1\n      tag_17\n      jump\t// in\n    tag_41:\n      tag_42\n      jump\t// in\n    tag_40:\n      stop\n        /* \"FlipFlopSwap.sol\":3596:3889  function withdrawETH(uint amount) external onlyOwner {... */\n    tag_9:\n      callvalue\n      dup1\n      iszero\n      tag_43\n      jumpi\n      revert(0x00, 0x00)\n    tag_43:\n      pop\n      tag_44\n      0x04\n      dup1\n      calldatasize\n      sub\n      dup2\n      add\n      swap1\n      tag_45\n      swap2\n      swap1\n      tag_46\n      jump\t// in\n    tag_45:\n      tag_47\n      jump\t// in\n    tag_44:\n      stop\n        /* \"FlipFlopSwap.sol\":914:956  IUniswapV2Router02 public immutable router */\n    tag_10:\n      callvalue\n      dup1\n      iszero\n      tag_48\n      jumpi\n      revert(0x00, 0x00)\n    tag_48:\n      pop\n      tag_49\n      tag_50\n      jump\t// in\n    tag_49:\n      mload(0x40)\n      tag_51\n      swap2\n      swap1\n      tag_52\n      jump\t// in\n    tag_51:\n      mload(0x40)\n      dup1\n      swap2\n      sub\n      swap1\n      return\n        /* \"FlipFlopSwap.sol\":1988:2621  function swapETHToUSDC(... */\n    tag_18:\n        /* \"FlipFlopSwap.sol\":1451:1456  owner */\n      immutable(\"0x9af6e0c6f9b8f572459f1957d56f01ba73ab5558fbad6cdb8b94d4ee7705c26c\")\n        /* \"FlipFlopSwap.sol\":1437:1456  msg.sender == owner */\n      0xffffffffffffffffffffffffffffffffffffffff\n      and\n        /* \"FlipFlopSwap.sol\":1437:1447  msg.sender */\n      caller\n        /* \"FlipFlopSwap.sol\":1437:1456  msg.sender == owner */\n      0xffffffffffffffffffffffffffffffffffffffff\n      and\n      eq\n        /* \"FlipFlopSwap.sol\":1429:1470  require(msg.sender == owner, \"not owner\") */\n      tag_54\n      jumpi\n      mload(0x40)\n      0x08c379a000000000000000000000000000000000000000000000000000000000\n      dup2\n      mstore\n      0x04\n      add\n      tag_55\n      swap1\n      tag_56\n      jump\t// in\n    tag_55:\n      mload(0x40)\n      dup1\n      swap2\n      sub\n      swap1\n      revert\n    tag_54:\n        /* \"FlipFlopSwap.sol\":2121:2122  0 */\n      0x00\n        /* \"FlipFlopSwap.sol\":2109:2118  ethAmount */\n      dup3\n        /* \"FlipFlopSwap.sol\":2109:2122  ethAmount > 0 */\n      gt\n        /* \"FlipFlopSwap.sol\":2101:2128  require(ethAmount > 0, \"0\") */\n      tag_58\n      jumpi\n      mload(0x40)\n      0x08c379a000000000000000000000000000000000000000000000000000000000\n      dup2\n      mstore\n      0x04\n      add\n      tag_59\n      swap1\n      tag_60\n      jump\t// in\n    tag_59:\n      mload(0x40)\n      dup1\n      swap2\n      sub\n      swap1\n      revert\n    tag_58:\n        /* \"FlipFlopSwap.sol\":2172:2181  ethAmount */\n      dup2\n        /* \"FlipFlopSwap.sol\":2147:2168  address(this).balance */\n      selfbalance\n        /* \"FlipFlopSwap.sol\":2147:2181  address(this).balance >= ethAmount */\n      lt\n      iszero\n        /* \"FlipFlopSwap.sol\":2139:2187  require(address(this).balance >= ethAmount, \"0\") */\n      tag_61\n      jumpi\n      mload(0x40)\n      0x08c379a000000000000000000000000000000000000000000000000000000000\n      dup2\n      mstore\n      0x04\n      add\n      tag_62\n      swap1\n      tag_60\n      jump\t// in\n    tag_62:\n      mload(0x40)\n      dup1\n      swap2\n      sub\n      swap1\n      revert\n    tag_61:\n        /* \"FlipFlopSwap.sol\":2200:2221  address[] memory path */\n      0x00\n        /* \"FlipFlopSwap.sol\":2238:2239  2 */\n      0x02\n        /* \"FlipFlopSwap.sol\":2224:2240  new address[](2) */\n      0xffffffffffffffff\n      dup2\n      gt\n      iszero\n      tag_63\n      jumpi\n      tag_64\n      tag_65\n      jump\t// in\n    tag_64:\n    tag_63:\n      mload(0x40)\n      swap1\n      dup1\n      dup3\n      mstore\n      dup1\n      0x20\n      mul\n      0x20\n      add\n      dup3\n      add\n      0x40\n      mstore\n      dup1\n      iszero\n      tag_66\n      jumpi\n      dup2\n      0x20\n      add\n      0x20\n      dup3\n      mul\n      dup1\n      calldatasize\n      dup4\n      calldatacopy\n      dup1\n      dup3\n      add\n      swap2\n      pop\n      pop\n      swap1\n      pop\n    tag_66:\n      pop\n        /* \"FlipFlopSwap.sol\":2200:2240  address[] memory path = new address[](2) */\n      swap1\n      pop\n        /* \"FlipFlopSwap.sol\":2261:2267  router */\n      immutable(\"0x631897788617bc63fb0292c44f57a6c3824e4264bc88fb4e3c08b910f3f417fc\")\n        /* \"FlipFlopSwap.sol\":2261:2272  router.WETH */\n      0xffffffffffffffffffffffffffffffffffffffff\n      and\n      0xad5c4648\n        /* \"FlipFlopSwap.sol\":2261:2274  router.WETH() */\n      mload(0x40)\n      dup2\n      0xffffffff\n      and\n      0xe0\n      shl\n      dup2\n      mstore\n      0x04\n      add\n      0x20\n      mload(0x40)\n      dup1\n      dup4\n      sub\n      dup2\n      dup7\n      gas\n      staticcall\n      iszero\n      dup1\n      iszero\n      tag_68\n      jumpi\n      returndatacopy(0x00, 0x00, returndatasize)\n      revert(0x00, returndatasize)\n    tag_68:\n      pop\n      pop\n      pop\n      pop\n      mload(0x40)\n      returndatasize\n      not(0x1f)\n      0x1f\n      dup3\n      add\n      and\n      dup3\n      add\n      dup1\n      0x40\n      mstore\n      pop\n      dup2\n      add\n      swap1\n      tag_69\n      swap2\n      swap1\n      tag_70\n      jump\t// in\n    tag_69:\n        /* \"FlipFlopSwap.sol\":2251:2255  path */\n      dup2\n        /* \"FlipFlopSwap.sol\":2256:2257  0 */\n      0x00\n        /* \"FlipFlopSwap.sol\":2251:2258  path[0] */\n      dup2\n      mload\n      dup2\n      lt\n      tag_71\n      jumpi\n      tag_72\n      tag_73\n      jump\t// in\n    tag_72:\n    tag_71:\n      0x20\n      mul\n      0x20\n      add\n      add\n        /* \"FlipFlopSwap.sol\":2251:2274  path[0] = router.WETH() */\n      swap1\n      0xffffffffffffffffffffffffffffffffffffffff\n      and\n      swap1\n      dup2\n      0xffffffffffffffffffffffffffffffffffffffff\n      and\n      dup2\n      mstore\n      pop\n      pop\n        /* \"FlipFlopSwap.sol\":2303:2307  usdc */\n      immutable(\"0x24036ccf201a67256250eabe66d3f9fd72f9c4d022f225a8ee964be060dcb993\")\n        /* \"FlipFlopSwap.sol\":2285:2289  path */\n      dup2\n        /* \"FlipFlopSwap.sol\":2290:2291  1 */\n      0x01\n        /* \"FlipFlopSwap.sol\":2285:2292  path[1] */\n      dup2\n      mload\n      dup2\n      lt\n      tag_74\n      jumpi\n      tag_75\n      tag_73\n      jump\t// in\n    tag_75:\n    tag_74:\n      0x20\n      mul\n      0x20\n      add\n      add\n        /* \"FlipFlopSwap.sol\":2285:2308  path[1] = address(usdc) */\n      swap1\n      0xffffffffffffffffffffffffffffffffffffffff\n      and\n      swap1\n      dup2\n      0xffffffffffffffffffffffffffffffffffffffff\n      and\n      dup2\n      mstore\n      pop\n      pop\n        /* \"FlipFlopSwap.sol\":2321:2342  uint[] memory amounts */\n      0x00\n        /* \"FlipFlopSwap.sol\":2358:2364  router */\n      immutable(\"0x631897788617bc63fb0292c44f57a6c3824e4264bc88fb4e3c08b910f3f417fc\")\n        /* \"FlipFlopSwap.sol\":2358:2386  router.swapExactETHForTokens */\n      0xffffffffffffffffffffffffffffffffffffffff\n      and\n      0x7ff36ab5\n        /* \"FlipFlopSwap.sol\":2394:2403  ethAmount */\n      dup6\n        /* \"FlipFlopSwap.sol\":2423:2435  amountOutMin */\n      dup6\n        /* \"FlipFlopSwap.sol\":2454:2458  path */\n      dup6\n        /* \"FlipFlopSwap.sol\":2485:2489  this */\n      address\n        /* \"FlipFlopSwap.sol\":1040:1042  60 */\n      0x3c\n        /* \"FlipFlopSwap.sol\":2509:2524  block.timestamp */\n      timestamp\n        /* \"FlipFlopSwap.sol\":2509:2542  block.timestamp + DEADLINE_OFFSET */\n      tag_76\n      swap2\n      swap1\n      tag_77\n      jump\t// in\n    tag_76:\n        /* \"FlipFlopSwap.sol\":2358:2557  router.swapExactETHForTokens{value: ethAmount}(... */\n      mload(0x40)\n      dup7\n      0xffffffff\n      and\n      0xe0\n      shl\n      dup2\n      mstore\n      0x04\n      add\n      tag_78\n      swap5\n      swap4\n      swap3\n      swap2\n      swap1\n      tag_79\n      jump\t// in\n    tag_78:\n      0x00\n      mload(0x40)\n      dup1\n      dup4\n      sub\n      dup2\n      dup6\n      dup9\n      gas\n      call\n      iszero\n      dup1\n      iszero\n      tag_81\n      jumpi\n      returndatacopy(0x00, 0x00, returndatasize)\n      revert(0x00, returndatasize)\n    tag_81:\n      pop\n      pop\n      pop\n      pop\n      pop\n      mload(0x40)\n      returndatasize\n      0x00\n      dup3\n      returndatacopy\n      returndatasize\n      not(0x1f)\n      0x1f\n      dup3\n      add\n      and\n      dup3\n      add\n      dup1\n      0x40\n      mstore\n      pop\n      dup2\n      add\n      swap1\n      tag_82\n      swap2\n      swap1\n      tag_83\n      jump\t// in\n    tag_82:\n        /* \"FlipFlopSwap.sol\":2321:2557  uint[] memory amounts =... */\n      swap1\n      pop\n        /* \"FlipFlopSwap.sol\":2575:2613  SwapExecuted(0, ethAmount, amounts[1]) */\n      0xcee23d1f117220edb4cb718a7bbb402a5213b9e17c5e1505fc3a4e410deb4a60\n        /* \"FlipFlopSwap.sol\":2588:2589  0 */\n      0x00\n        /* \"FlipFlopSwap.sol\":2591:2600  ethAmount */\n      dup6\n        /* \"FlipFlopSwap.sol\":2602:2609  amounts */\n      dup4\n        /* \"FlipFlopSwap.sol\":2610:2611  1 */\n      0x01\n        /* \"FlipFlopSwap.sol\":2602:2612  amounts[1] */\n      dup2\n      mload\n      dup2\n      lt\n      tag_84\n      jumpi\n      tag_85\n      tag_73\n      jump\t// in\n    tag_85:\n    tag_84:\n      0x20\n      mul\n      0x20\n      add\n      add\n      mload\n        /* \"FlipFlopSwap.sol\":2575:2613  SwapExecuted(0, ethAmount, amounts[1]) */\n      mload(0x40)\n      tag_86\n      swap4\n      swap3\n      swap2\n      swap1\n      tag_87\n      jump\t// in\n    tag_86:\n      mload(0x40)\n      dup1\n      swap2\n      sub\n      swap1\n      log1\n        /* \"FlipFlopSwap.sol\":2090:2621  {... */\n      pop\n      pop\n        /* \"FlipFlopSwap.sol\":1988:2621  function swapETHToUSDC(... */\n      pop\n      pop\n      jump\t// out\n        /* \"FlipFlopSwap.sol\":963:991  IERC20 public immutable usdc */\n    tag_21:\n      immutable(\"0x24036ccf201a67256250eabe66d3f9fd72f9c4d022f225a8ee964be060dcb993\")\n      dup2\n      jump\t// out\n        /* \"FlipFlopSwap.sol\":998:1042  uint256 public constant DEADLINE_OFFSET = 60 */\n    tag_26:\n        /* \"FlipFlopSwap.sol\":1040:1042  60 */\n      0x3c\n        /* \"FlipFlopSwap.sol\":998:1042  uint256 public constant DEADLINE_OFFSET = 60 */\n      dup2\n      jump\t// out\n        /* \"FlipFlopSwap.sol\":3994:4118  function rescueERC20(address token, uint amount) external onlyOwner {... */\n    tag_33:\n        /* \"FlipFlopSwap.sol\":1451:1456  owner */\n      immutable(\"0x9af6e0c6f9b8f572459f1957d56f01ba73ab5558fbad6cdb8b94d4ee7705c26c\")\n        /* \"FlipFlopSwap.sol\":1437:1456  msg.sender == owner */\n      0xffffffffffffffffffffffffffffffffffffffff\n      and\n        /* \"FlipFlopSwap.sol\":1437:1447  msg.sender */\n      caller\n        /* \"FlipFlopSwap.sol\":1437:1456  msg.sender == owner */\n      0xffffffffffffffffffffffffffffffffffffffff\n      and\n      eq\n        /* \"FlipFlopSwap.sol\":1429:1470  require(msg.sender == owner, \"not owner\") */\n      tag_89\n      jumpi\n      mload(0x40)\n      0x08c379a000000000000000000000000000000000000000000000000000000000\n      dup2\n      mstore\n      0x04\n      add\n      tag_90\n      swap1\n      tag_56\n      jump\t// in\n    tag_90:\n      mload(0x40)\n      dup1\n      swap2\n      sub\n      swap1\n      revert\n    tag_89:\n        /* \"FlipFlopSwap.sol\":4080:4085  token */\n      dup2\n        /* \"FlipFlopSwap.sol\":4073:4095  IERC20(token).transfer */\n      0xffffffffffffffffffffffffffffffffffffffff\n      and\n      0xa9059cbb\n        /* \"FlipFlopSwap.sol\":4096:4101  owner */\n      immutable(\"0x9af6e0c6f9b8f572459f1957d56f01ba73ab5558fbad6cdb8b94d4ee7705c26c\")\n        /* \"FlipFlopSwap.sol\":4103:4109  amount */\n      dup4\n        /* \"FlipFlopSwap.sol\":4073:4110  IERC20(token).transfer(owner, amount) */\n      mload(0x40)\n      dup4\n      0xffffffff\n      and\n      0xe0\n      shl\n      dup2\n      mstore\n      0x04\n      add\n      tag_92\n      swap3\n      swap2\n      swap1\n      tag_93\n      jump\t// in\n    tag_92:\n      0x20\n      mload(0x40)\n      dup1\n      dup4\n      sub\n      dup2\n      0x00\n      dup8\n      gas\n      call\n      iszero\n      dup1\n      iszero\n      tag_95\n      jumpi\n      returndatacopy(0x00, 0x00, returndatasize)\n      revert(0x00, returndatasize)\n    tag_95:\n      pop\n      pop\n      pop\n      pop\n      mload(0x40)\n      returndatasize\n      not(0x1f)\n      0x1f\n      dup3\n      add\n      and\n      dup3\n      add\n      dup1\n      0x40\n      mstore\n      pop\n      dup2\n      add\n      swap1\n      tag_96\n      swap2\n      swap1\n      tag_97\n      jump\t// in\n    tag_96:\n      pop\n        /* \"FlipFlopSwap.sol\":3994:4118  function rescueERC20(address token, uint amount) external onlyOwner {... */\n      pop\n      pop\n      jump\t// out\n        /* \"FlipFlopSwap.sol\":877:907  address public immutable owner */\n    tag_36:\n      immutable(\"0x9af6e0c6f9b8f572459f1957d56f01ba73ab5558fbad6cdb8b94d4ee7705c26c\")\n      dup2\n      jump\t// out\n        /* \"FlipFlopSwap.sol\":2723:3379  function swapUSDCToETH(... */\n    tag_42:\n        /* \"FlipFlopSwap.sol\":1451:1456  owner */\n      immutable(\"0x9af6e0c6f9b8f572459f1957d56f01ba73ab5558fbad6cdb8b94d4ee7705c26c\")\n        /* \"FlipFlopSwap.sol\":1437:1456  msg.sender == owner */\n      0xffffffffffffffffffffffffffffffffffffffff\n      and\n        /* \"FlipFlopSwap.sol\":1437:1447  msg.sender */\n      caller\n        /* \"FlipFlopSwap.sol\":1437:1456  msg.sender == owner */\n      0xffffffffffffffffffffffffffffffffffffffff\n      and\n      eq\n        /* \"FlipFlopSwap.sol\":1429:1470  require(msg.sender == owner, \"not owner\") */\n      tag_99\n      jumpi\n      mload(0x40)\n      0x08c379a000000000000000000000000000000000000000000000000000000000\n      dup2\n      mstore\n      0x04\n      add\n      tag_100\n      swap1\n      tag_56\n      jump\t// in\n    tag_100:\n      mload(0x40)\n      dup1\n      swap2\n      sub\n      swap1\n      revert\n    tag_99:\n        /* \"FlipFlopSwap.sol\":2858:2859  0 */\n      0x00\n        /* \"FlipFlopSwap.sol\":2845:2855  usdcAmount */\n      dup3\n        /* \"FlipFlopSwap.sol\":2845:2859  usdcAmount > 0 */\n      gt\n        /* \"FlipFlopSwap.sol\":2837:2865  require(usdcAmount > 0, \"0\") */\n      tag_102\n      jumpi\n      mload(0x40)\n      0x08c379a000000000000000000000000000000000000000000000000000000000\n      dup2\n      mstore\n      0x04\n      add\n      tag_103\n      swap1\n      tag_60\n      jump\t// in\n    tag_103:\n      mload(0x40)\n      dup1\n      swap2\n      sub\n      swap1\n      revert\n    tag_102:\n        /* \"FlipFlopSwap.sol\":2917:2927  usdcAmount */\n      dup2\n        /* \"FlipFlopSwap.sol\":2884:2888  usdc */\n      immutable(\"0x24036ccf201a67256250eabe66d3f9fd72f9c4d022f225a8ee964be060dcb993\")\n        /* \"FlipFlopSwap.sol\":2884:2898  usdc.balanceOf */\n      0xffffffffffffffffffffffffffffffffffffffff\n      and\n      0x70a08231\n        /* \"FlipFlopSwap.sol\":2907:2911  this */\n      address\n        /* \"FlipFlopSwap.sol\":2884:2913  usdc.balanceOf(address(this)) */\n      mload(0x40)\n      dup3\n      0xffffffff\n      and\n      0xe0\n      shl\n      dup2\n      mstore\n      0x04\n      add\n      tag_104\n      swap2\n      swap1\n      tag_38\n      jump\t// in\n    tag_104:\n      0x20\n      mload(0x40)\n      dup1\n      dup4\n      sub\n      dup2\n      dup7\n      gas\n      staticcall\n      iszero\n      dup1\n      iszero\n      tag_106\n      jumpi\n      returndatacopy(0x00, 0x00, returndatasize)\n      revert(0x00, returndatasize)\n    tag_106:\n      pop\n      pop\n      pop\n      pop\n      mload(0x40)\n      returndatasize\n      not(0x1f)\n      0x1f\n      dup3\n      add\n      and\n      dup3\n      add\n      dup1\n      0x40\n      mstore\n      pop\n      dup2\n      add\n      swap1\n      tag_107\n      swap2\n      swap1\n      tag_108\n      jump\t// in\n    tag_107:\n        /* \"FlipFlopSwap.sol\":2884:2927  usdc.balanceOf(address(this)) >= usdcAmount */\n      lt\n      iszero\n        /* \"FlipFlopSwap.sol\":2876:2933  require(usdc.balanceOf(address(this)) >= usdcAmount, \"0\") */\n      tag_109\n      jumpi\n      mload(0x40)\n      0x08c379a000000000000000000000000000000000000000000000000000000000\n      dup2\n      mstore\n      0x04\n      add\n      tag_110\n      swap1\n      tag_60\n      jump\t// in\n    tag_110:\n      mload(0x40)\n      dup1\n      swap2\n      sub\n      swap1\n      revert\n    tag_109:\n        /* \"FlipFlopSwap.sol\":2946:2967  address[] memory path */\n      0x00\n        /* \"FlipFlopSwap.sol\":2984:2985  2 */\n      0x02\n        /* \"FlipFlopSwap.sol\":2970:2986  new address[](2) */\n      0xffffffffffffffff\n      dup2\n      gt\n      iszero\n      tag_111\n      jumpi\n      tag_112\n      tag_65\n      jump\t// in\n    tag_112:\n    tag_111:\n      mload(0x40)\n      swap1\n      dup1\n      dup3\n      mstore\n      dup1\n      0x20\n      mul\n      0x20\n      add\n      dup3\n      add\n      0x40\n      mstore\n      dup1\n      iszero\n      tag_113\n      jumpi\n      dup2\n      0x20\n      add\n      0x20\n      dup3\n      mul\n      dup1\n      calldatasize\n      dup4\n      calldatacopy\n      dup1\n      dup3\n      add\n      swap2\n      pop\n      pop\n      swap1\n      pop\n    tag_113:\n      pop\n        /* \"FlipFlopSwap.sol\":2946:2986  address[] memory path = new address[](2) */\n      swap1\n      pop\n        /* \"FlipFlopSwap.sol\":3015:3019  usdc */\n      immutable(\"0x24036ccf201a67256250eabe66d3f9fd72f9c4d022f225a8ee964be060dcb993\")\n        /* \"FlipFlopSwap.sol\":2997:3001  path */\n      dup2\n        /* \"FlipFlopSwap.sol\":3002:3003  0 */\n      0x00\n        /* \"FlipFlopSwap.sol\":2997:3004  path[0] */\n      dup2\n      mload\n      dup2\n      lt\n      tag_114\n      jumpi\n      tag_115\n      tag_73\n      jump\t// in\n    tag_115:\n    tag_114:\n      0x20\n      mul\n      0x20\n      add\n      add\n        /* \"FlipFlopSwap.sol\":2997:3020  path[0] = address(usdc) */\n      swap1\n      0xffffffffffffffffffffffffffffffffffffffff\n      and\n      swap1\n      dup2\n      0xffffffffffffffffffffffffffffffffffffffff\n      and\n      dup2\n      mstore\n      pop\n      pop\n        /* \"FlipFlopSwap.sol\":3041:3047  router */\n      immutable(\"0x631897788617bc63fb0292c44f57a6c3824e4264bc88fb4e3c08b910f3f417fc\")\n        /* \"FlipFlopSwap.sol\":3041:3052  router.WETH */\n      0xffffffffffffffffffffffffffffffffffffffff\n      and\n      0xad5c4648\n        /* \"FlipFlopSwap.sol\":3041:3054  router.WETH() */\n      mload(0x40)\n      dup2\n      0xffffffff\n      and\n      0xe0\n      shl\n      dup2\n      mstore\n      0x04\n      add\n      0x20\n      mload(0x40)\n      dup1\n      dup4\n      sub\n      dup2\n      dup7\n      gas\n      staticcall\n      iszero\n      dup1\n      iszero\n      tag_117\n      jumpi\n      returndatacopy(0x00, 0x00, returndatasize)\n      revert(0x00, returndatasize)\n    tag_117:\n      pop\n      pop\n      pop\n      pop\n      mload(0x40)\n      returndatasize\n      not(0x1f)\n      0x1f\n      dup3\n      add\n      and\n      dup3\n      add\n      dup1\n      0x40\n      mstore\n      pop\n      dup2\n      add\n      swap1\n      tag_118\n      swap2\n      swap1\n      tag_70\n      jump\t// in\n    tag_118:\n        /* \"FlipFlopSwap.sol\":3031:3035  path */\n      dup2\n        /* \"FlipFlopSwap.sol\":3036:3037  1 */\n      0x01\n        /* \"FlipFlopSwap.sol\":3031:3038  path[1] */\n      dup2\n      mload\n      dup2\n      lt\n      tag_119\n      jumpi\n      tag_120\n      tag_73\n      jump\t// in\n    tag_120:\n    tag_119:\n      0x20\n      mul\n      0x20\n      add\n      add\n        /* \"FlipFlopSwap.sol\":3031:3054  path[1] = router.WETH() */\n      swap1\n      0xffffffffffffffffffffffffffffffffffffffff\n      and\n      swap1\n      dup2\n      0xffffffffffffffffffffffffffffffffffffffff\n      and\n      dup2\n      mstore\n      pop\n      pop\n        /* \"FlipFlopSwap.sol\":3067:3088  uint[] memory amounts */\n      0x00\n        /* \"FlipFlopSwap.sol\":3104:3110  router */\n      immutable(\"0x631897788617bc63fb0292c44f57a6c3824e4264bc88fb4e3c08b910f3f417fc\")\n        /* \"FlipFlopSwap.sol\":3104:3132  router.swapExactTokensForETH */\n      0xffffffffffffffffffffffffffffffffffffffff\n      and\n      0x18cbafe5\n        /* \"FlipFlopSwap.sol\":3151:3161  usdcAmount */\n      dup6\n        /* \"FlipFlopSwap.sol\":3180:3192  amountOutMin */\n      dup6\n        /* \"FlipFlopSwap.sol\":3211:3215  path */\n      dup6\n        /* \"FlipFlopSwap.sol\":3242:3246  this */\n      address\n        /* \"FlipFlopSwap.sol\":1040:1042  60 */\n      0x3c\n        /* \"FlipFlopSwap.sol\":3266:3281  block.timestamp */\n      timestamp\n        /* \"FlipFlopSwap.sol\":3266:3299  block.timestamp + DEADLINE_OFFSET */\n      tag_121\n      swap2\n      swap1\n      tag_77\n      jump\t// in\n    tag_121:\n        /* \"FlipFlopSwap.sol\":3104:3314  router.swapExactTokensForETH(... */\n      mload(0x40)\n      dup7\n      0xffffffff\n      and\n      0xe0\n      shl\n      dup2\n      mstore\n      0x04\n      add\n      tag_122\n      swap6\n      swap5\n      swap4\n      swap3\n      swap2\n      swap1\n      tag_123\n      jump\t// in\n    tag_122:\n      0x00\n      mload(0x40)\n      dup1\n      dup4\n      sub\n      dup2\n      0x00\n      dup8\n      gas\n      call\n      iszero\n      dup1\n      iszero\n      tag_125\n      jumpi\n      returndatacopy(0x00, 0x00, returndatasize)\n      revert(0x00, returndatasize)\n    tag_125:\n      pop\n      pop\n      pop\n      pop\n      mload(0x40)\n      returndatasize\n      0x00\n      dup3\n      returndatacopy\n      returndatasize\n      not(0x1f)\n      0x1f\n      dup3\n      add\n      and\n      dup3\n      add\n      dup1\n      0x40\n      mstore\n      pop\n      dup2\n      add\n      swap1\n      tag_126\n      swap2\n      swap1\n      tag_83\n      jump\t// in\n    tag_126:\n        /* \"FlipFlopSwap.sol\":3067:3314  uint[] memory amounts =... */\n      swap1\n      pop\n        /* \"FlipFlopSwap.sol\":3332:3371  SwapExecuted(1, usdcAmount, amounts[1]) */\n      0xcee23d1f117220edb4cb718a7bbb402a5213b9e17c5e1505fc3a4e410deb4a60\n        /* \"FlipFlopSwap.sol\":3345:3346  1 */\n      0x01\n        /* \"FlipFlopSwap.sol\":3348:3358  usdcAmount */\n      dup6\n        /* \"FlipFlopSwap.sol\":3360:3367  amounts */\n      dup4\n        /* \"FlipFlopSwap.sol\":3368:3369  1 */\n      0x01\n        /* \"FlipFlopSwap.sol\":3360:3370  amounts[1] */\n      dup2\n      mload\n      dup2\n      lt\n      tag_127\n      jumpi\n      tag_128\n      tag_73\n      jump\t// in\n    tag_128:\n    tag_127:\n      0x20\n      mul\n      0x20\n      add\n      add\n      mload\n        /* \"FlipFlopSwap.sol\":3332:3371  SwapExecuted(1, usdcAmount, amounts[1]) */\n      mload(0x40)\n      tag_129\n      swap4\n      swap3\n      swap2\n      swap1\n      tag_130\n      jump\t// in\n    tag_129:\n      mload(0x40)\n      dup1\n      swap2\n      sub\n      swap1\n      log1\n        /* \"FlipFlopSwap.sol\":2826:3379  {... */\n      pop\n      pop\n        /* \"FlipFlopSwap.sol\":2723:3379  function swapUSDCToETH(... */\n      pop\n      pop\n      jump\t// out\n        /* \"FlipFlopSwap.sol\":3596:3889  function withdrawETH(uint amount) external onlyOwner {... */\n    tag_47:\n        /* \"FlipFlopSwap.sol\":1451:1456  owner */\n      immutable(\"0x9af6e0c6f9b8f572459f1957d56f01ba73ab5558fbad6cdb8b94d4ee7705c26c\")\n        /* \"FlipFlopSwap.sol\":1437:1456  msg.sender == owner */\n      0xffffffffffffffffffffffffffffffffffffffff\n      and\n        /* \"FlipFlopSwap.sol\":1437:1447  msg.sender */\n      caller\n        /* \"FlipFlopSwap.sol\":1437:1456  msg.sender == owner */\n      0xffffffffffffffffffffffffffffffffffffffff\n      and\n      eq\n        /* \"FlipFlopSwap.sol\":1429:1470  require(msg.sender == owner, \"not owner\") */\n      tag_132\n      jumpi\n      mload(0x40)\n      0x08c379a000000000000000000000000000000000000000000000000000000000\n      dup2\n      mstore\n      0x04\n      add\n      tag_133\n      swap1\n      tag_56\n      jump\t// in\n    tag_133:\n      mload(0x40)\n      dup1\n      swap2\n      sub\n      swap1\n      revert\n    tag_132:\n        /* \"FlipFlopSwap.sol\":3677:3678  0 */\n      0x00\n        /* \"FlipFlopSwap.sol\":3668:3674  amount */\n      dup2\n        /* \"FlipFlopSwap.sol\":3668:3678  amount > 0 */\n      gt\n        /* \"FlipFlopSwap.sol\":3660:3693  require(amount > 0, \"amount = 0\") */\n      tag_135\n      jumpi\n      mload(0x40)\n      0x08c379a000000000000000000000000000000000000000000000000000000000\n      dup2\n      mstore\n      0x04\n      add\n      tag_136\n      swap1\n      tag_137\n      jump\t// in\n    tag_136:\n      mload(0x40)\n      dup1\n      swap2\n      sub\n      swap1\n      revert\n    tag_135:\n        /* \"FlipFlopSwap.sol\":3737:3743  amount */\n      dup1\n        /* \"FlipFlopSwap.sol\":3712:3733  address(this).balance */\n      selfbalance\n        /* \"FlipFlopSwap.sol\":3712:3743  address(this).balance >= amount */\n      lt\n      iszero\n        /* \"FlipFlopSwap.sol\":3704:3761  require(address(this).balance >= amount, \"no ETH enough\") */\n      tag_138\n      jumpi\n      mload(0x40)\n      0x08c379a000000000000000000000000000000000000000000000000000000000\n      dup2\n      mstore\n      0x04\n      add\n      tag_139\n      swap1\n      tag_140\n      jump\t// in\n    tag_139:\n      mload(0x40)\n      dup1\n      swap2\n      sub\n      swap1\n      revert\n    tag_138:\n        /* \"FlipFlopSwap.sol\":3775:3787  bool success */\n      0x00\n        /* \"FlipFlopSwap.sol\":3801:3806  owner */\n      immutable(\"0x9af6e0c6f9b8f572459f1957d56f01ba73ab5558fbad6cdb8b94d4ee7705c26c\")\n        /* \"FlipFlopSwap.sol\":3793:3812  payable(owner).call */\n      0xffffffffffffffffffffffffffffffffffffffff\n      and\n        /* \"FlipFlopSwap.sol\":3820:3826  amount */\n      dup3\n        /* \"FlipFlopSwap.sol\":3793:3831  payable(owner).call{value: amount}(\"\") */\n      mload(0x40)\n      tag_141\n      swap1\n      tag_142\n      jump\t// in\n    tag_141:\n      0x00\n      mload(0x40)\n      dup1\n      dup4\n      sub\n      dup2\n      dup6\n      dup8\n      gas\n      call\n      swap3\n      pop\n      pop\n      pop\n      returndatasize\n      dup1\n      0x00\n      dup2\n      eq\n      tag_145\n      jumpi\n      mload(0x40)\n      swap2\n      pop\n      and(add(returndatasize, 0x3f), not(0x1f))\n      dup3\n      add\n      0x40\n      mstore\n      returndatasize\n      dup3\n      mstore\n      returndatasize\n      0x00\n      0x20\n      dup5\n      add\n      returndatacopy\n      jump(tag_144)\n    tag_145:\n      0x60\n      swap2\n      pop\n    tag_144:\n      pop\n        /* \"FlipFlopSwap.sol\":3774:3831  (bool success, ) = payable(owner).call{value: amount}(\"\") */\n      pop\n      swap1\n      pop\n        /* \"FlipFlopSwap.sol\":3850:3857  success */\n      dup1\n        /* \"FlipFlopSwap.sol\":3842:3881  require(success, \"ETH transfer failed\") */\n      tag_146\n      jumpi\n      mload(0x40)\n      0x08c379a000000000000000000000000000000000000000000000000000000000\n      dup2\n      mstore\n      0x04\n      add\n      tag_147\n      swap1\n      tag_148\n      jump\t// in\n    tag_147:\n      mload(0x40)\n      dup1\n      swap2\n      sub\n      swap1\n      revert\n    tag_146:\n        /* \"FlipFlopSwap.sol\":3649:3889  {... */\n      pop\n        /* \"FlipFlopSwap.sol\":3596:3889  function withdrawETH(uint amount) external onlyOwner {... */\n      pop\n      jump\t// out\n        /* \"FlipFlopSwap.sol\":914:956  IUniswapV2Router02 public immutable router */\n    tag_50:\n      immutable(\"0x631897788617bc63fb0292c44f57a6c3824e4264bc88fb4e3c08b910f3f417fc\")\n      dup2\n      jump\t// out\n        /* \"#utility.yul\":7:82   */\n    tag_149:\n        /* \"#utility.yul\":40:46   */\n      0x00\n        /* \"#utility.yul\":73:75   */\n      0x40\n        /* \"#utility.yul\":67:76   */\n      mload\n        /* \"#utility.yul\":57:76   */\n      swap1\n      pop\n        /* \"#utility.yul\":7:82   */\n      swap1\n      jump\t// out\n        /* \"#utility.yul\":88:205   */\n    tag_150:\n        /* \"#utility.yul\":197:198   */\n      0x00\n        /* \"#utility.yul\":194:195   */\n      0x00\n        /* \"#utility.yul\":187:199   */\n      revert\n        /* \"#utility.yul\":211:328   */\n    tag_151:\n        /* \"#utility.yul\":320:321   */\n      0x00\n        /* \"#utility.yul\":317:318   */\n      0x00\n        /* \"#utility.yul\":310:322   */\n      revert\n        /* \"#utility.yul\":334:411   */\n    tag_152:\n        /* \"#utility.yul\":371:378   */\n      0x00\n        /* \"#utility.yul\":400:405   */\n      dup2\n        /* \"#utility.yul\":389:405   */\n      swap1\n      pop\n        /* \"#utility.yul\":334:411   */\n      swap2\n      swap1\n      pop\n      jump\t// out\n        /* \"#utility.yul\":417:539   */\n    tag_153:\n        /* \"#utility.yul\":490:514   */\n      tag_216\n        /* \"#utility.yul\":508:513   */\n      dup2\n        /* \"#utility.yul\":490:514   */\n      tag_152\n      jump\t// in\n    tag_216:\n        /* \"#utility.yul\":483:488   */\n      dup2\n        /* \"#utility.yul\":480:515   */\n      eq\n        /* \"#utility.yul\":470:533   */\n      tag_217\n      jumpi\n        /* \"#utility.yul\":529:530   */\n      0x00\n        /* \"#utility.yul\":526:527   */\n      0x00\n        /* \"#utility.yul\":519:531   */\n      revert\n        /* \"#utility.yul\":470:533   */\n    tag_217:\n        /* \"#utility.yul\":417:539   */\n      pop\n      jump\t// out\n        /* \"#utility.yul\":545:684   */\n    tag_154:\n        /* \"#utility.yul\":591:596   */\n      0x00\n        /* \"#utility.yul\":629:635   */\n      dup2\n        /* \"#utility.yul\":616:636   */\n      calldataload\n        /* \"#utility.yul\":607:636   */\n      swap1\n      pop\n        /* \"#utility.yul\":645:678   */\n      tag_219\n        /* \"#utility.yul\":672:677   */\n      dup2\n        /* \"#utility.yul\":645:678   */\n      tag_153\n      jump\t// in\n    tag_219:\n        /* \"#utility.yul\":545:684   */\n      swap3\n      swap2\n      pop\n      pop\n      jump\t// out\n        /* \"#utility.yul\":690:1164   */\n    tag_17:\n        /* \"#utility.yul\":758:764   */\n      0x00\n        /* \"#utility.yul\":766:772   */\n      0x00\n        /* \"#utility.yul\":815:817   */\n      0x40\n        /* \"#utility.yul\":803:812   */\n      dup4\n        /* \"#utility.yul\":794:801   */\n      dup6\n        /* \"#utility.yul\":790:813   */\n      sub\n        /* \"#utility.yul\":786:818   */\n      slt\n        /* \"#utility.yul\":783:902   */\n      iszero\n      tag_221\n      jumpi\n        /* \"#utility.yul\":821:900   */\n      tag_222\n      tag_150\n      jump\t// in\n    tag_222:\n        /* \"#utility.yul\":783:902   */\n    tag_221:\n        /* \"#utility.yul\":941:942   */\n      0x00\n        /* \"#utility.yul\":966:1019   */\n      tag_223\n        /* \"#utility.yul\":1011:1018   */\n      dup6\n        /* \"#utility.yul\":1002:1008   */\n      dup3\n        /* \"#utility.yul\":991:1000   */\n      dup7\n        /* \"#utility.yul\":987:1009   */\n      add\n        /* \"#utility.yul\":966:1019   */\n      tag_154\n      jump\t// in\n    tag_223:\n        /* \"#utility.yul\":956:1019   */\n      swap3\n      pop\n        /* \"#utility.yul\":912:1029   */\n      pop\n        /* \"#utility.yul\":1068:1070   */\n      0x20\n        /* \"#utility.yul\":1094:1147   */\n      tag_224\n        /* \"#utility.yul\":1139:1146   */\n      dup6\n        /* \"#utility.yul\":1130:1136   */\n      dup3\n        /* \"#utility.yul\":1119:1128   */\n      dup7\n        /* \"#utility.yul\":1115:1137   */\n      add\n        /* \"#utility.yul\":1094:1147   */\n      tag_154\n      jump\t// in\n    tag_224:\n        /* \"#utility.yul\":1084:1147   */\n      swap2\n      pop\n        /* \"#utility.yul\":1039:1157   */\n      pop\n        /* \"#utility.yul\":690:1164   */\n      swap3\n      pop\n      swap3\n      swap1\n      pop\n      jump\t// out\n        /* \"#utility.yul\":1170:1296   */\n    tag_155:\n        /* \"#utility.yul\":1207:1214   */\n      0x00\n        /* \"#utility.yul\":1247:1289   */\n      0xffffffffffffffffffffffffffffffffffffffff\n        /* \"#utility.yul\":1240:1245   */\n      dup3\n        /* \"#utility.yul\":1236:1290   */\n      and\n        /* \"#utility.yul\":1225:1290   */\n      swap1\n      pop\n        /* \"#utility.yul\":1170:1296   */\n      swap2\n      swap1\n      pop\n      jump\t// out\n        /* \"#utility.yul\":1302:1362   */\n    tag_156:\n        /* \"#utility.yul\":1330:1333   */\n      0x00\n        /* \"#utility.yul\":1351:1356   */\n      dup2\n        /* \"#utility.yul\":1344:1356   */\n      swap1\n      pop\n        /* \"#utility.yul\":1302:1362   */\n      swap2\n      swap1\n      pop\n      jump\t// out\n        /* \"#utility.yul\":1368:1510   */\n    tag_157:\n        /* \"#utility.yul\":1418:1427   */\n      0x00\n        /* \"#utility.yul\":1451:1504   */\n      tag_228\n        /* \"#utility.yul\":1469:1503   */\n      tag_229\n        /* \"#utility.yul\":1478:1502   */\n      tag_230\n        /* \"#utility.yul\":1496:1501   */\n      dup5\n        /* \"#utility.yul\":1478:1502   */\n      tag_155\n      jump\t// in\n    tag_230:\n        /* \"#utility.yul\":1469:1503   */\n      tag_156\n      jump\t// in\n    tag_229:\n        /* \"#utility.yul\":1451:1504   */\n      tag_155\n      jump\t// in\n    tag_228:\n        /* \"#utility.yul\":1438:1504   */\n      swap1\n      pop\n        /* \"#utility.yul\":1368:1510   */\n      swap2\n      swap1\n      pop\n      jump\t// out\n        /* \"#utility.yul\":1516:1642   */\n    tag_158:\n        /* \"#utility.yul\":1566:1575   */\n      0x00\n        /* \"#utility.yul\":1599:1636   */\n      tag_232\n        /* \"#utility.yul\":1630:1635   */\n      dup3\n        /* \"#utility.yul\":1599:1636   */\n      tag_157\n      jump\t// in\n    tag_232:\n        /* \"#utility.yul\":1586:1636   */\n      swap1\n      pop\n        /* \"#utility.yul\":1516:1642   */\n      swap2\n      swap1\n      pop\n      jump\t// out\n        /* \"#utility.yul\":1648:1787   */\n    tag_159:\n        /* \"#utility.yul\":1711:1720   */\n      0x00\n        /* \"#utility.yul\":1744:1781   */\n      tag_234\n        /* \"#utility.yul\":1775:1780   */\n      dup3\n        /* \"#utility.yul\":1744:1781   */\n      tag_158\n      jump\t// in\n    tag_234:\n        /* \"#utility.yul\":1731:1781   */\n      swap1\n      pop\n        /* \"#utility.yul\":1648:1787   */\n      swap2\n      swap1\n      pop\n      jump\t// out\n        /* \"#utility.yul\":1793:1950   */\n    tag_160:\n        /* \"#utility.yul\":1893:1943   */\n      tag_236\n        /* \"#utility.yul\":1937:1942   */\n      dup2\n        /* \"#utility.yul\":1893:1943   */\n      tag_159\n      jump\t// in\n    tag_236:\n        /* \"#utility.yul\":1888:1891   */\n      dup3\n        /* \"#utility.yul\":1881:1944   */\n      mstore\n        /* \"#utility.yul\":1793:1950   */\n      pop\n      pop\n      jump\t// out\n        /* \"#utility.yul\":1956:2204   */\n    tag_23:\n        /* \"#utility.yul\":2062:2066   */\n      0x00\n        /* \"#utility.yul\":2100:2102   */\n      0x20\n        /* \"#utility.yul\":2089:2098   */\n      dup3\n        /* \"#utility.yul\":2085:2103   */\n      add\n        /* \"#utility.yul\":2077:2103   */\n      swap1\n      pop\n        /* \"#utility.yul\":2113:2197   */\n      tag_238\n        /* \"#utility.yul\":2194:2195   */\n      0x00\n        /* \"#utility.yul\":2183:2192   */\n      dup4\n        /* \"#utility.yul\":2179:2196   */\n      add\n        /* \"#utility.yul\":2170:2176   */\n      dup5\n        /* \"#utility.yul\":2113:2197   */\n      tag_160\n      jump\t// in\n    tag_238:\n        /* \"#utility.yul\":1956:2204   */\n      swap3\n      swap2\n      pop\n      pop\n      jump\t// out\n        /* \"#utility.yul\":2210:2328   */\n    tag_161:\n        /* \"#utility.yul\":2297:2321   */\n      tag_240\n        /* \"#utility.yul\":2315:2320   */\n      dup2\n        /* \"#utility.yul\":2297:2321   */\n      tag_152\n      jump\t// in\n    tag_240:\n        /* \"#utility.yul\":2292:2295   */\n      dup3\n        /* \"#utility.yul\":2285:2322   */\n      mstore\n        /* \"#utility.yul\":2210:2328   */\n      pop\n      pop\n      jump\t// out\n        /* \"#utility.yul\":2334:2556   */\n    tag_28:\n        /* \"#utility.yul\":2427:2431   */\n      0x00\n        /* \"#utility.yul\":2465:2467   */\n      0x20\n        /* \"#utility.yul\":2454:2463   */\n      dup3\n        /* \"#utility.yul\":2450:2468   */\n      add\n        /* \"#utility.yul\":2442:2468   */\n      swap1\n      pop\n        /* \"#utility.yul\":2478:2549   */\n      tag_242\n        /* \"#utility.yul\":2546:2547   */\n      0x00\n        /* \"#utility.yul\":2535:2544   */\n      dup4\n        /* \"#utility.yul\":2531:2548   */\n      add\n        /* \"#utility.yul\":2522:2528   */\n      dup5\n        /* \"#utility.yul\":2478:2549   */\n      tag_161\n      jump\t// in\n    tag_242:\n        /* \"#utility.yul\":2334:2556   */\n      swap3\n      swap2\n      pop\n      pop\n      jump\t// out\n        /* \"#utility.yul\":2562:2658   */\n    tag_162:\n        /* \"#utility.yul\":2599:2606   */\n      0x00\n        /* \"#utility.yul\":2628:2652   */\n      tag_244\n        /* \"#utility.yul\":2646:2651   */\n      dup3\n        /* \"#utility.yul\":2628:2652   */\n      tag_155\n      jump\t// in\n    tag_244:\n        /* \"#utility.yul\":2617:2652   */\n      swap1\n      pop\n        /* \"#utility.yul\":2562:2658   */\n      swap2\n      swap1\n      pop\n      jump\t// out\n        /* \"#utility.yul\":2664:2786   */\n    tag_163:\n        /* \"#utility.yul\":2737:2761   */\n      tag_246\n        /* \"#utility.yul\":2755:2760   */\n      dup2\n        /* \"#utility.yul\":2737:2761   */\n      tag_162\n      jump\t// in\n    tag_246:\n        /* \"#utility.yul\":2730:2735   */\n      dup2\n        /* \"#utility.yul\":2727:2762   */\n      eq\n        /* \"#utility.yul\":2717:2780   */\n      tag_247\n      jumpi\n        /* \"#utility.yul\":2776:2777   */\n      0x00\n        /* \"#utility.yul\":2773:2774   */\n      0x00\n        /* \"#utility.yul\":2766:2778   */\n      revert\n        /* \"#utility.yul\":2717:2780   */\n    tag_247:\n        /* \"#utility.yul\":2664:2786   */\n      pop\n      jump\t// out\n        /* \"#utility.yul\":2792:2931   */\n    tag_164:\n        /* \"#utility.yul\":2838:2843   */\n      0x00\n        /* \"#utility.yul\":2876:2882   */\n      dup2\n        /* \"#utility.yul\":2863:2883   */\n      calldataload\n        /* \"#utility.yul\":2854:2883   */\n      swap1\n      pop\n        /* \"#utility.yul\":2892:2925   */\n      tag_249\n        /* \"#utility.yul\":2919:2924   */\n      dup2\n        /* \"#utility.yul\":2892:2925   */\n      tag_163\n      jump\t// in\n    tag_249:\n        /* \"#utility.yul\":2792:2931   */\n      swap3\n      swap2\n      pop\n      pop\n      jump\t// out\n        /* \"#utility.yul\":2937:3411   */\n    tag_32:\n        /* \"#utility.yul\":3005:3011   */\n      0x00\n        /* \"#utility.yul\":3013:3019   */\n      0x00\n        /* \"#utility.yul\":3062:3064   */\n      0x40\n        /* \"#utility.yul\":3050:3059   */\n      dup4\n        /* \"#utility.yul\":3041:3048   */\n      dup6\n        /* \"#utility.yul\":3037:3060   */\n      sub\n        /* \"#utility.yul\":3033:3065   */\n      slt\n        /* \"#utility.yul\":3030:3149   */\n      iszero\n      tag_251\n      jumpi\n        /* \"#utility.yul\":3068:3147   */\n      tag_252\n      tag_150\n      jump\t// in\n    tag_252:\n        /* \"#utility.yul\":3030:3149   */\n    tag_251:\n        /* \"#utility.yul\":3188:3189   */\n      0x00\n        /* \"#utility.yul\":3213:3266   */\n      tag_253\n        /* \"#utility.yul\":3258:3265   */\n      dup6\n        /* \"#utility.yul\":3249:3255   */\n      dup3\n        /* \"#utility.yul\":3238:3247   */\n      dup7\n        /* \"#utility.yul\":3234:3256   */\n      add\n        /* \"#utility.yul\":3213:3266   */\n      tag_164\n      jump\t// in\n    tag_253:\n        /* \"#utility.yul\":3203:3266   */\n      swap3\n      pop\n        /* \"#utility.yul\":3159:3276   */\n      pop\n        /* \"#utility.yul\":3315:3317   */\n      0x20\n        /* \"#utility.yul\":3341:3394   */\n      tag_254\n        /* \"#utility.yul\":3386:3393   */\n      dup6\n        /* \"#utility.yul\":3377:3383   */\n      dup3\n        /* \"#utility.yul\":3366:3375   */\n      dup7\n        /* \"#utility.yul\":3362:3384   */\n      add\n        /* \"#utility.yul\":3341:3394   */\n      tag_154\n      jump\t// in\n    tag_254:\n        /* \"#utility.yul\":3331:3394   */\n      swap2\n      pop\n        /* \"#utility.yul\":3286:3404   */\n      pop\n        /* \"#utility.yul\":2937:3411   */\n      swap3\n      pop\n      swap3\n      swap1\n      pop\n      jump\t// out\n        /* \"#utility.yul\":3417:3535   */\n    tag_165:\n        /* \"#utility.yul\":3504:3528   */\n      tag_256\n        /* \"#utility.yul\":3522:3527   */\n      dup2\n        /* \"#utility.yul\":3504:3528   */\n      tag_162\n      jump\t// in\n    tag_256:\n        /* \"#utility.yul\":3499:3502   */\n      dup3\n        /* \"#utility.yul\":3492:3529   */\n      mstore\n        /* \"#utility.yul\":3417:3535   */\n      pop\n      pop\n      jump\t// out\n        /* \"#utility.yul\":3541:3763   */\n    tag_38:\n        /* \"#utility.yul\":3634:3638   */\n      0x00\n        /* \"#utility.yul\":3672:3674   */\n      0x20\n        /* \"#utility.yul\":3661:3670   */\n      dup3\n        /* \"#utility.yul\":3657:3675   */\n      add\n        /* \"#utility.yul\":3649:3675   */\n      swap1\n      pop\n        /* \"#utility.yul\":3685:3756   */\n      tag_258\n        /* \"#utility.yul\":3753:3754   */\n      0x00\n        /* \"#utility.yul\":3742:3751   */\n      dup4\n        /* \"#utility.yul\":3738:3755   */\n      add\n        /* \"#utility.yul\":3729:3735   */\n      dup5\n        /* \"#utility.yul\":3685:3756   */\n      tag_165\n      jump\t// in\n    tag_258:\n        /* \"#utility.yul\":3541:3763   */\n      swap3\n      swap2\n      pop\n      pop\n      jump\t// out\n        /* \"#utility.yul\":3769:4098   */\n    tag_46:\n        /* \"#utility.yul\":3828:3834   */\n      0x00\n        /* \"#utility.yul\":3877:3879   */\n      0x20\n        /* \"#utility.yul\":3865:3874   */\n      dup3\n        /* \"#utility.yul\":3856:3863   */\n      dup5\n        /* \"#utility.yul\":3852:3875   */\n      sub\n        /* \"#utility.yul\":3848:3880   */\n      slt\n        /* \"#utility.yul\":3845:3964   */\n      iszero\n      tag_260\n      jumpi\n        /* \"#utility.yul\":3883:3962   */\n      tag_261\n      tag_150\n      jump\t// in\n    tag_261:\n        /* \"#utility.yul\":3845:3964   */\n    tag_260:\n        /* \"#utility.yul\":4003:4004   */\n      0x00\n        /* \"#utility.yul\":4028:4081   */\n      tag_262\n        /* \"#utility.yul\":4073:4080   */\n      dup5\n        /* \"#utility.yul\":4064:4070   */\n      dup3\n        /* \"#utility.yul\":4053:4062   */\n      dup6\n        /* \"#utility.yul\":4049:4071   */\n      add\n        /* \"#utility.yul\":4028:4081   */\n      tag_154\n      jump\t// in\n    tag_262:\n        /* \"#utility.yul\":4018:4081   */\n      swap2\n      pop\n        /* \"#utility.yul\":3974:4091   */\n      pop\n        /* \"#utility.yul\":3769:4098   */\n      swap3\n      swap2\n      pop\n      pop\n      jump\t// out\n        /* \"#utility.yul\":4104:4256   */\n    tag_166:\n        /* \"#utility.yul\":4180:4189   */\n      0x00\n        /* \"#utility.yul\":4213:4250   */\n      tag_264\n        /* \"#utility.yul\":4244:4249   */\n      dup3\n        /* \"#utility.yul\":4213:4250   */\n      tag_158\n      jump\t// in\n    tag_264:\n        /* \"#utility.yul\":4200:4250   */\n      swap1\n      pop\n        /* \"#utility.yul\":4104:4256   */\n      swap2\n      swap1\n      pop\n      jump\t// out\n        /* \"#utility.yul\":4262:4445   */\n    tag_167:\n        /* \"#utility.yul\":4375:4438   */\n      tag_266\n        /* \"#utility.yul\":4432:4437   */\n      dup2\n        /* \"#utility.yul\":4375:4438   */\n      tag_166\n      jump\t// in\n    tag_266:\n        /* \"#utility.yul\":4370:4373   */\n      dup3\n        /* \"#utility.yul\":4363:4439   */\n      mstore\n        /* \"#utility.yul\":4262:4445   */\n      pop\n      pop\n      jump\t// out\n        /* \"#utility.yul\":4451:4725   */\n    tag_52:\n        /* \"#utility.yul\":4570:4574   */\n      0x00\n        /* \"#utility.yul\":4608:4610   */\n      0x20\n        /* \"#utility.yul\":4597:4606   */\n      dup3\n        /* \"#utility.yul\":4593:4611   */\n      add\n        /* \"#utility.yul\":4585:4611   */\n      swap1\n      pop\n        /* \"#utility.yul\":4621:4718   */\n      tag_268\n        /* \"#utility.yul\":4715:4716   */\n      0x00\n        /* \"#utility.yul\":4704:4713   */\n      dup4\n        /* \"#utility.yul\":4700:4717   */\n      add\n        /* \"#utility.yul\":4691:4697   */\n      dup5\n        /* \"#utility.yul\":4621:4718   */\n      tag_167\n      jump\t// in\n    tag_268:\n        /* \"#utility.yul\":4451:4725   */\n      swap3\n      swap2\n      pop\n      pop\n      jump\t// out\n        /* \"#utility.yul\":4731:4900   */\n    tag_168:\n        /* \"#utility.yul\":4815:4826   */\n      0x00\n        /* \"#utility.yul\":4849:4855   */\n      dup3\n        /* \"#utility.yul\":4844:4847   */\n      dup3\n        /* \"#utility.yul\":4837:4856   */\n      mstore\n        /* \"#utility.yul\":4889:4893   */\n      0x20\n        /* \"#utility.yul\":4884:4887   */\n      dup3\n        /* \"#utility.yul\":4880:4894   */\n      add\n        /* \"#utility.yul\":4865:4894   */\n      swap1\n      pop\n        /* \"#utility.yul\":4731:4900   */\n      swap3\n      swap2\n      pop\n      pop\n      jump\t// out\n        /* \"#utility.yul\":4906:5065   */\n    tag_169:\n        /* \"#utility.yul\":5046:5057   */\n      0x6e6f74206f776e65720000000000000000000000000000000000000000000000\n        /* \"#utility.yul\":5042:5043   */\n      0x00\n        /* \"#utility.yul\":5034:5040   */\n      dup3\n        /* \"#utility.yul\":5030:5044   */\n      add\n        /* \"#utility.yul\":5023:5058   */\n      mstore\n        /* \"#utility.yul\":4906:5065   */\n      pop\n      jump\t// out\n        /* \"#utility.yul\":5071:5436   */\n    tag_170:\n        /* \"#utility.yul\":5213:5216   */\n      0x00\n        /* \"#utility.yul\":5234:5300   */\n      tag_272\n        /* \"#utility.yul\":5298:5299   */\n      0x09\n        /* \"#utility.yul\":5293:5296   */\n      dup4\n        /* \"#utility.yul\":5234:5300   */\n      tag_168\n      jump\t// in\n    tag_272:\n        /* \"#utility.yul\":5227:5300   */\n      swap2\n      pop\n        /* \"#utility.yul\":5309:5402   */\n      tag_273\n        /* \"#utility.yul\":5398:5401   */\n      dup3\n        /* \"#utility.yul\":5309:5402   */\n      tag_169\n      jump\t// in\n    tag_273:\n        /* \"#utility.yul\":5427:5429   */\n      0x20\n        /* \"#utility.yul\":5422:5425   */\n      dup3\n        /* \"#utility.yul\":5418:5430   */\n      add\n        /* \"#utility.yul\":5411:5430   */\n      swap1\n      pop\n        /* \"#utility.yul\":5071:5436   */\n      swap2\n      swap1\n      pop\n      jump\t// out\n        /* \"#utility.yul\":5442:5861   */\n    tag_56:\n        /* \"#utility.yul\":5608:5612   */\n      0x00\n        /* \"#utility.yul\":5646:5648   */\n      0x20\n        /* \"#utility.yul\":5635:5644   */\n      dup3\n        /* \"#utility.yul\":5631:5649   */\n      add\n        /* \"#utility.yul\":5623:5649   */\n      swap1\n      pop\n        /* \"#utility.yul\":5695:5704   */\n      dup2\n        /* \"#utility.yul\":5689:5693   */\n      dup2\n        /* \"#utility.yul\":5685:5705   */\n      sub\n        /* \"#utility.yul\":5681:5682   */\n      0x00\n        /* \"#utility.yul\":5670:5679   */\n      dup4\n        /* \"#utility.yul\":5666:5683   */\n      add\n        /* \"#utility.yul\":5659:5706   */\n      mstore\n        /* \"#utility.yul\":5723:5854   */\n      tag_275\n        /* \"#utility.yul\":5849:5853   */\n      dup2\n        /* \"#utility.yul\":5723:5854   */\n      tag_170\n      jump\t// in\n    tag_275:\n        /* \"#utility.yul\":5715:5854   */\n      swap1\n      pop\n        /* \"#utility.yul\":5442:5861   */\n      swap2\n      swap1\n      pop\n      jump\t// out\n        /* \"#utility.yul\":5867:6018   */\n    tag_171:\n        /* \"#utility.yul\":6007:6010   */\n      0x3000000000000000000000000000000000000000000000000000000000000000\n        /* \"#utility.yul\":6003:6004   */\n      0x00\n        /* \"#utility.yul\":5995:6001   */\n      dup3\n        /* \"#utility.yul\":5991:6005   */\n      add\n        /* \"#utility.yul\":5984:6011   */\n      mstore\n        /* \"#utility.yul\":5867:6018   */\n      pop\n      jump\t// out\n        /* \"#utility.yul\":6024:6389   */\n    tag_172:\n        /* \"#utility.yul\":6166:6169   */\n      0x00\n        /* \"#utility.yul\":6187:6253   */\n      tag_278\n        /* \"#utility.yul\":6251:6252   */\n      0x01\n        /* \"#utility.yul\":6246:6249   */\n      dup4\n        /* \"#utility.yul\":6187:6253   */\n      tag_168\n      jump\t// in\n    tag_278:\n        /* \"#utility.yul\":6180:6253   */\n      swap2\n      pop\n        /* \"#utility.yul\":6262:6355   */\n      tag_279\n        /* \"#utility.yul\":6351:6354   */\n      dup3\n        /* \"#utility.yul\":6262:6355   */\n      tag_171\n      jump\t// in\n    tag_279:\n        /* \"#utility.yul\":6380:6382   */\n      0x20\n        /* \"#utility.yul\":6375:6378   */\n      dup3\n        /* \"#utility.yul\":6371:6383   */\n      add\n        /* \"#utility.yul\":6364:6383   */\n      swap1\n      pop\n        /* \"#utility.yul\":6024:6389   */\n      swap2\n      swap1\n      pop\n      jump\t// out\n        /* \"#utility.yul\":6395:6814   */\n    tag_60:\n        /* \"#utility.yul\":6561:6565   */\n      0x00\n        /* \"#utility.yul\":6599:6601   */\n      0x20\n        /* \"#utility.yul\":6588:6597   */\n      dup3\n        /* \"#utility.yul\":6584:6602   */\n      add\n        /* \"#utility.yul\":6576:6602   */\n      swap1\n      pop\n        /* \"#utility.yul\":6648:6657   */\n      dup2\n        /* \"#utility.yul\":6642:6646   */\n      dup2\n        /* \"#utility.yul\":6638:6658   */\n      sub\n        /* \"#utility.yul\":6634:6635   */\n      0x00\n        /* \"#utility.yul\":6623:6632   */\n      dup4\n        /* \"#utility.yul\":6619:6636   */\n      add\n        /* \"#utility.yul\":6612:6659   */\n      mstore\n        /* \"#utility.yul\":6676:6807   */\n      tag_281\n        /* \"#utility.yul\":6802:6806   */\n      dup2\n        /* \"#utility.yul\":6676:6807   */\n      tag_172\n      jump\t// in\n    tag_281:\n        /* \"#utility.yul\":6668:6807   */\n      swap1\n      pop\n        /* \"#utility.yul\":6395:6814   */\n      swap2\n      swap1\n      pop\n      jump\t// out\n        /* \"#utility.yul\":6820:7000   */\n    tag_65:\n        /* \"#utility.yul\":6868:6945   */\n      0x4e487b7100000000000000000000000000000000000000000000000000000000\n        /* \"#utility.yul\":6865:6866   */\n      0x00\n        /* \"#utility.yul\":6858:6946   */\n      mstore\n        /* \"#utility.yul\":6965:6969   */\n      0x41\n        /* \"#utility.yul\":6962:6963   */\n      0x04\n        /* \"#utility.yul\":6955:6970   */\n      mstore\n        /* \"#utility.yul\":6989:6993   */\n      0x24\n        /* \"#utility.yul\":6986:6987   */\n      0x00\n        /* \"#utility.yul\":6979:6994   */\n      revert\n        /* \"#utility.yul\":7006:7149   */\n    tag_173:\n        /* \"#utility.yul\":7063:7068   */\n      0x00\n        /* \"#utility.yul\":7094:7100   */\n      dup2\n        /* \"#utility.yul\":7088:7101   */\n      mload\n        /* \"#utility.yul\":7079:7101   */\n      swap1\n      pop\n        /* \"#utility.yul\":7110:7143   */\n      tag_284\n        /* \"#utility.yul\":7137:7142   */\n      dup2\n        /* \"#utility.yul\":7110:7143   */\n      tag_163\n      jump\t// in\n    tag_284:\n        /* \"#utility.yul\":7006:7149   */\n      swap3\n      swap2\n      pop\n      pop\n      jump\t// out\n        /* \"#utility.yul\":7155:7506   */\n    tag_70:\n        /* \"#utility.yul\":7225:7231   */\n      0x00\n        /* \"#utility.yul\":7274:7276   */\n      0x20\n        /* \"#utility.yul\":7262:7271   */\n      dup3\n        /* \"#utility.yul\":7253:7260   */\n      dup5\n        /* \"#utility.yul\":7249:7272   */\n      sub\n        /* \"#utility.yul\":7245:7277   */\n      slt\n        /* \"#utility.yul\":7242:7361   */\n      iszero\n      tag_286\n      jumpi\n        /* \"#utility.yul\":7280:7359   */\n      tag_287\n      tag_150\n      jump\t// in\n    tag_287:\n        /* \"#utility.yul\":7242:7361   */\n    tag_286:\n        /* \"#utility.yul\":7400:7401   */\n      0x00\n        /* \"#utility.yul\":7425:7489   */\n      tag_288\n        /* \"#utility.yul\":7481:7488   */\n      dup5\n        /* \"#utility.yul\":7472:7478   */\n      dup3\n        /* \"#utility.yul\":7461:7470   */\n      dup6\n        /* \"#utility.yul\":7457:7479   */\n      add\n        /* \"#utility.yul\":7425:7489   */\n      tag_173\n      jump\t// in\n    tag_288:\n        /* \"#utility.yul\":7415:7489   */\n      swap2\n      pop\n        /* \"#utility.yul\":7371:7499   */\n      pop\n        /* \"#utility.yul\":7155:7506   */\n      swap3\n      swap2\n      pop\n      pop\n      jump\t// out\n        /* \"#utility.yul\":7512:7692   */\n    tag_73:\n        /* \"#utility.yul\":7560:7637   */\n      0x4e487b7100000000000000000000000000000000000000000000000000000000\n        /* \"#utility.yul\":7557:7558   */\n      0x00\n        /* \"#utility.yul\":7550:7638   */\n      mstore\n        /* \"#utility.yul\":7657:7661   */\n      0x32\n        /* \"#utility.yul\":7654:7655   */\n      0x04\n        /* \"#utility.yul\":7647:7662   */\n      mstore\n        /* \"#utility.yul\":7681:7685   */\n      0x24\n        /* \"#utility.yul\":7678:7679   */\n      0x00\n        /* \"#utility.yul\":7671:7686   */\n      revert\n        /* \"#utility.yul\":7698:7878   */\n    tag_174:\n        /* \"#utility.yul\":7746:7823   */\n      0x4e487b7100000000000000000000000000000000000000000000000000000000\n        /* \"#utility.yul\":7743:7744   */\n      0x00\n        /* \"#utility.yul\":7736:7824   */\n      mstore\n        /* \"#utility.yul\":7843:7847   */\n      0x11\n        /* \"#utility.yul\":7840:7841   */\n      0x04\n        /* \"#utility.yul\":7833:7848   */\n      mstore\n        /* \"#utility.yul\":7867:7871   */\n      0x24\n        /* \"#utility.yul\":7864:7865   */\n      0x00\n        /* \"#utility.yul\":7857:7872   */\n      revert\n        /* \"#utility.yul\":7884:8075   */\n    tag_77:\n        /* \"#utility.yul\":7924:7927   */\n      0x00\n        /* \"#utility.yul\":7943:7963   */\n      tag_292\n        /* \"#utility.yul\":7961:7962   */\n      dup3\n        /* \"#utility.yul\":7943:7963   */\n      tag_152\n      jump\t// in\n    tag_292:\n        /* \"#utility.yul\":7938:7963   */\n      swap2\n      pop\n        /* \"#utility.yul\":7977:7997   */\n      tag_293\n        /* \"#utility.yul\":7995:7996   */\n      dup4\n        /* \"#utility.yul\":7977:7997   */\n      tag_152\n      jump\t// in\n    tag_293:\n        /* \"#utility.yul\":7972:7997   */\n      swap3\n      pop\n        /* \"#utility.yul\":8020:8021   */\n      dup3\n        /* \"#utility.yul\":8017:8018   */\n      dup3\n        /* \"#utility.yul\":8013:8022   */\n      add\n        /* \"#utility.yul\":8006:8022   */\n      swap1\n      pop\n        /* \"#utility.yul\":8041:8044   */\n      dup1\n        /* \"#utility.yul\":8038:8039   */\n      dup3\n        /* \"#utility.yul\":8035:8045   */\n      gt\n        /* \"#utility.yul\":8032:8068   */\n      iszero\n      tag_294\n      jumpi\n        /* \"#utility.yul\":8048:8066   */\n      tag_295\n      tag_174\n      jump\t// in\n    tag_295:\n        /* \"#utility.yul\":8032:8068   */\n    tag_294:\n        /* \"#utility.yul\":7884:8075   */\n      swap3\n      swap2\n      pop\n      pop\n      jump\t// out\n        /* \"#utility.yul\":8081:8195   */\n    tag_175:\n        /* \"#utility.yul\":8148:8154   */\n      0x00\n        /* \"#utility.yul\":8182:8187   */\n      dup2\n        /* \"#utility.yul\":8176:8188   */\n      mload\n        /* \"#utility.yul\":8166:8188   */\n      swap1\n      pop\n        /* \"#utility.yul\":8081:8195   */\n      swap2\n      swap1\n      pop\n      jump\t// out\n        /* \"#utility.yul\":8201:8385   */\n    tag_176:\n        /* \"#utility.yul\":8300:8311   */\n      0x00\n        /* \"#utility.yul\":8334:8340   */\n      dup3\n        /* \"#utility.yul\":8329:8332   */\n      dup3\n        /* \"#utility.yul\":8322:8341   */\n      mstore\n        /* \"#utility.yul\":8374:8378   */\n      0x20\n        /* \"#utility.yul\":8369:8372   */\n      dup3\n        /* \"#utility.yul\":8365:8379   */\n      add\n        /* \"#utility.yul\":8350:8379   */\n      swap1\n      pop\n        /* \"#utility.yul\":8201:8385   */\n      swap3\n      swap2\n      pop\n      pop\n      jump\t// out\n        /* \"#utility.yul\":8391:8523   */\n    tag_177:\n        /* \"#utility.yul\":8458:8462   */\n      0x00\n        /* \"#utility.yul\":8481:8484   */\n      dup2\n        /* \"#utility.yul\":8473:8484   */\n      swap1\n      pop\n        /* \"#utility.yul\":8511:8515   */\n      0x20\n        /* \"#utility.yul\":8506:8509   */\n      dup3\n        /* \"#utility.yul\":8502:8516   */\n      add\n        /* \"#utility.yul\":8494:8516   */\n      swap1\n      pop\n        /* \"#utility.yul\":8391:8523   */\n      swap2\n      swap1\n      pop\n      jump\t// out\n        /* \"#utility.yul\":8529:8637   */\n    tag_178:\n        /* \"#utility.yul\":8606:8630   */\n      tag_300\n        /* \"#utility.yul\":8624:8629   */\n      dup2\n        /* \"#utility.yul\":8606:8630   */\n      tag_162\n      jump\t// in\n    tag_300:\n        /* \"#utility.yul\":8601:8604   */\n      dup3\n        /* \"#utility.yul\":8594:8631   */\n      mstore\n        /* \"#utility.yul\":8529:8637   */\n      pop\n      pop\n      jump\t// out\n        /* \"#utility.yul\":8643:8822   */\n    tag_179:\n        /* \"#utility.yul\":8712:8722   */\n      0x00\n        /* \"#utility.yul\":8733:8779   */\n      tag_302\n        /* \"#utility.yul\":8775:8778   */\n      dup4\n        /* \"#utility.yul\":8767:8773   */\n      dup4\n        /* \"#utility.yul\":8733:8779   */\n      tag_178\n      jump\t// in\n    tag_302:\n        /* \"#utility.yul\":8811:8815   */\n      0x20\n        /* \"#utility.yul\":8806:8809   */\n      dup4\n        /* \"#utility.yul\":8802:8816   */\n      add\n        /* \"#utility.yul\":8788:8816   */\n      swap1\n      pop\n        /* \"#utility.yul\":8643:8822   */\n      swap3\n      swap2\n      pop\n      pop\n      jump\t// out\n        /* \"#utility.yul\":8828:8941   */\n    tag_180:\n        /* \"#utility.yul\":8898:8902   */\n      0x00\n        /* \"#utility.yul\":8930:8934   */\n      0x20\n        /* \"#utility.yul\":8925:8928   */\n      dup3\n        /* \"#utility.yul\":8921:8935   */\n      add\n        /* \"#utility.yul\":8913:8935   */\n      swap1\n      pop\n        /* \"#utility.yul\":8828:8941   */\n      swap2\n      swap1\n      pop\n      jump\t// out\n        /* \"#utility.yul\":8977:9709   */\n    tag_181:\n        /* \"#utility.yul\":9096:9099   */\n      0x00\n        /* \"#utility.yul\":9125:9179   */\n      tag_305\n        /* \"#utility.yul\":9173:9178   */\n      dup3\n        /* \"#utility.yul\":9125:9179   */\n      tag_175\n      jump\t// in\n    tag_305:\n        /* \"#utility.yul\":9195:9281   */\n      tag_306\n        /* \"#utility.yul\":9274:9280   */\n      dup2\n        /* \"#utility.yul\":9269:9272   */\n      dup6\n        /* \"#utility.yul\":9195:9281   */\n      tag_176\n      jump\t// in\n    tag_306:\n        /* \"#utility.yul\":9188:9281   */\n      swap4\n      pop\n        /* \"#utility.yul\":9305:9361   */\n      tag_307\n        /* \"#utility.yul\":9355:9360   */\n      dup4\n        /* \"#utility.yul\":9305:9361   */\n      tag_177\n      jump\t// in\n    tag_307:\n        /* \"#utility.yul\":9384:9391   */\n      dup1\n        /* \"#utility.yul\":9415:9416   */\n      0x00\n        /* \"#utility.yul\":9400:9684   */\n    tag_308:\n        /* \"#utility.yul\":9425:9431   */\n      dup4\n        /* \"#utility.yul\":9422:9423   */\n      dup2\n        /* \"#utility.yul\":9419:9432   */\n      lt\n        /* \"#utility.yul\":9400:9684   */\n      iszero\n      tag_310\n      jumpi\n        /* \"#utility.yul\":9501:9507   */\n      dup2\n        /* \"#utility.yul\":9495:9508   */\n      mload\n        /* \"#utility.yul\":9528:9591   */\n      tag_311\n        /* \"#utility.yul\":9587:9590   */\n      dup9\n        /* \"#utility.yul\":9572:9585   */\n      dup3\n        /* \"#utility.yul\":9528:9591   */\n      tag_179\n      jump\t// in\n    tag_311:\n        /* \"#utility.yul\":9521:9591   */\n      swap8\n      pop\n        /* \"#utility.yul\":9614:9674   */\n      tag_312\n        /* \"#utility.yul\":9667:9673   */\n      dup4\n        /* \"#utility.yul\":9614:9674   */\n      tag_180\n      jump\t// in\n    tag_312:\n        /* \"#utility.yul\":9604:9674   */\n      swap3\n      pop\n        /* \"#utility.yul\":9460:9684   */\n      pop\n        /* \"#utility.yul\":9447:9448   */\n      0x01\n        /* \"#utility.yul\":9444:9445   */\n      dup2\n        /* \"#utility.yul\":9440:9449   */\n      add\n        /* \"#utility.yul\":9435:9449   */\n      swap1\n      pop\n        /* \"#utility.yul\":9400:9684   */\n      jump(tag_308)\n    tag_310:\n        /* \"#utility.yul\":9404:9418   */\n      pop\n        /* \"#utility.yul\":9700:9703   */\n      dup6\n        /* \"#utility.yul\":9693:9703   */\n      swap4\n      pop\n        /* \"#utility.yul\":9101:9709   */\n      pop\n      pop\n      pop\n        /* \"#utility.yul\":8977:9709   */\n      swap3\n      swap2\n      pop\n      pop\n      jump\t// out\n        /* \"#utility.yul\":9715:10419   */\n    tag_79:\n        /* \"#utility.yul\":9942:9946   */\n      0x00\n        /* \"#utility.yul\":9980:9983   */\n      0x80\n        /* \"#utility.yul\":9969:9978   */\n      dup3\n        /* \"#utility.yul\":9965:9984   */\n      add\n        /* \"#utility.yul\":9957:9984   */\n      swap1\n      pop\n        /* \"#utility.yul\":9994:10065   */\n      tag_314\n        /* \"#utility.yul\":10062:10063   */\n      0x00\n        /* \"#utility.yul\":10051:10060   */\n      dup4\n        /* \"#utility.yul\":10047:10064   */\n      add\n        /* \"#utility.yul\":10038:10044   */\n      dup8\n        /* \"#utility.yul\":9994:10065   */\n      tag_161\n      jump\t// in\n    tag_314:\n        /* \"#utility.yul\":10112:10121   */\n      dup2\n        /* \"#utility.yul\":10106:10110   */\n      dup2\n        /* \"#utility.yul\":10102:10122   */\n      sub\n        /* \"#utility.yul\":10097:10099   */\n      0x20\n        /* \"#utility.yul\":10086:10095   */\n      dup4\n        /* \"#utility.yul\":10082:10100   */\n      add\n        /* \"#utility.yul\":10075:10123   */\n      mstore\n        /* \"#utility.yul\":10140:10248   */\n      tag_315\n        /* \"#utility.yul\":10243:10247   */\n      dup2\n        /* \"#utility.yul\":10234:10240   */\n      dup7\n        /* \"#utility.yul\":10140:10248   */\n      tag_181\n      jump\t// in\n    tag_315:\n        /* \"#utility.yul\":10132:10248   */\n      swap1\n      pop\n        /* \"#utility.yul\":10258:10330   */\n      tag_316\n        /* \"#utility.yul\":10326:10328   */\n      0x40\n        /* \"#utility.yul\":10315:10324   */\n      dup4\n        /* \"#utility.yul\":10311:10329   */\n      add\n        /* \"#utility.yul\":10302:10308   */\n      dup6\n        /* \"#utility.yul\":10258:10330   */\n      tag_165\n      jump\t// in\n    tag_316:\n        /* \"#utility.yul\":10340:10412   */\n      tag_317\n        /* \"#utility.yul\":10408:10410   */\n      0x60\n        /* \"#utility.yul\":10397:10406   */\n      dup4\n        /* \"#utility.yul\":10393:10411   */\n      add\n        /* \"#utility.yul\":10384:10390   */\n      dup5\n        /* \"#utility.yul\":10340:10412   */\n      tag_161\n      jump\t// in\n    tag_317:\n        /* \"#utility.yul\":9715:10419   */\n      swap6\n      swap5\n      pop\n      pop\n      pop\n      pop\n      pop\n      jump\t// out\n        /* \"#utility.yul\":10425:10542   */\n    tag_182:\n        /* \"#utility.yul\":10534:10535   */\n      0x00\n        /* \"#utility.yul\":10531:10532   */\n      0x00\n        /* \"#utility.yul\":10524:10536   */\n      revert\n        /* \"#utility.yul\":10548:10650   */\n    tag_183:\n        /* \"#utility.yul\":10589:10595   */\n      0x00\n        /* \"#utility.yul\":10640:10642   */\n      0x1f\n        /* \"#utility.yul\":10636:10643   */\n      not\n        /* \"#utility.yul\":10631:10633   */\n      0x1f\n        /* \"#utility.yul\":10624:10629   */\n      dup4\n        /* \"#utility.yul\":10620:10634   */\n      add\n        /* \"#utility.yul\":10616:10644   */\n      and\n        /* \"#utility.yul\":10606:10644   */\n      swap1\n      pop\n        /* \"#utility.yul\":10548:10650   */\n      swap2\n      swap1\n      pop\n      jump\t// out\n        /* \"#utility.yul\":10656:10937   */\n    tag_184:\n        /* \"#utility.yul\":10739:10766   */\n      tag_321\n        /* \"#utility.yul\":10761:10765   */\n      dup3\n        /* \"#utility.yul\":10739:10766   */\n      tag_183\n      jump\t// in\n    tag_321:\n        /* \"#utility.yul\":10731:10737   */\n      dup2\n        /* \"#utility.yul\":10727:10767   */\n      add\n        /* \"#utility.yul\":10869:10875   */\n      dup2\n        /* \"#utility.yul\":10857:10867   */\n      dup2\n        /* \"#utility.yul\":10854:10876   */\n      lt\n        /* \"#utility.yul\":10833:10851   */\n      0xffffffffffffffff\n        /* \"#utility.yul\":10821:10831   */\n      dup3\n        /* \"#utility.yul\":10818:10852   */\n      gt\n        /* \"#utility.yul\":10815:10877   */\n      or\n        /* \"#utility.yul\":10812:10900   */\n      iszero\n      tag_322\n      jumpi\n        /* \"#utility.yul\":10880:10898   */\n      tag_323\n      tag_65\n      jump\t// in\n    tag_323:\n        /* \"#utility.yul\":10812:10900   */\n    tag_322:\n        /* \"#utility.yul\":10920:10930   */\n      dup1\n        /* \"#utility.yul\":10916:10918   */\n      0x40\n        /* \"#utility.yul\":10909:10931   */\n      mstore\n        /* \"#utility.yul\":10699:10937   */\n      pop\n        /* \"#utility.yul\":10656:10937   */\n      pop\n      pop\n      jump\t// out\n        /* \"#utility.yul\":10943:11072   */\n    tag_185:\n        /* \"#utility.yul\":10977:10983   */\n      0x00\n        /* \"#utility.yul\":11004:11024   */\n      tag_325\n      tag_149\n      jump\t// in\n    tag_325:\n        /* \"#utility.yul\":10994:11024   */\n      swap1\n      pop\n        /* \"#utility.yul\":11033:11066   */\n      tag_326\n        /* \"#utility.yul\":11061:11065   */\n      dup3\n        /* \"#utility.yul\":11053:11059   */\n      dup3\n        /* \"#utility.yul\":11033:11066   */\n      tag_184\n      jump\t// in\n    tag_326:\n        /* \"#utility.yul\":10943:11072   */\n      swap2\n      swap1\n      pop\n      jump\t// out\n        /* \"#utility.yul\":11078:11389   */\n    tag_186:\n        /* \"#utility.yul\":11155:11159   */\n      0x00\n        /* \"#utility.yul\":11245:11263   */\n      0xffffffffffffffff\n        /* \"#utility.yul\":11237:11243   */\n      dup3\n        /* \"#utility.yul\":11234:11264   */\n      gt\n        /* \"#utility.yul\":11231:11287   */\n      iszero\n      tag_328\n      jumpi\n        /* \"#utility.yul\":11267:11285   */\n      tag_329\n      tag_65\n      jump\t// in\n    tag_329:\n        /* \"#utility.yul\":11231:11287   */\n    tag_328:\n        /* \"#utility.yul\":11317:11321   */\n      0x20\n        /* \"#utility.yul\":11309:11315   */\n      dup3\n        /* \"#utility.yul\":11305:11322   */\n      mul\n        /* \"#utility.yul\":11297:11322   */\n      swap1\n      pop\n        /* \"#utility.yul\":11377:11381   */\n      0x20\n        /* \"#utility.yul\":11371:11375   */\n      dup2\n        /* \"#utility.yul\":11367:11382   */\n      add\n        /* \"#utility.yul\":11359:11382   */\n      swap1\n      pop\n        /* \"#utility.yul\":11078:11389   */\n      swap2\n      swap1\n      pop\n      jump\t// out\n        /* \"#utility.yul\":11395:11512   */\n    tag_187:\n        /* \"#utility.yul\":11504:11505   */\n      0x00\n        /* \"#utility.yul\":11501:11502   */\n      0x00\n        /* \"#utility.yul\":11494:11506   */\n      revert\n        /* \"#utility.yul\":11518:11661   */\n    tag_188:\n        /* \"#utility.yul\":11575:11580   */\n      0x00\n        /* \"#utility.yul\":11606:11612   */\n      dup2\n        /* \"#utility.yul\":11600:11613   */\n      mload\n        /* \"#utility.yul\":11591:11613   */\n      swap1\n      pop\n        /* \"#utility.yul\":11622:11655   */\n      tag_332\n        /* \"#utility.yul\":11649:11654   */\n      dup2\n        /* \"#utility.yul\":11622:11655   */\n      tag_153\n      jump\t// in\n    tag_332:\n        /* \"#utility.yul\":11518:11661   */\n      swap3\n      swap2\n      pop\n      pop\n      jump\t// out\n        /* \"#utility.yul\":11684:12416   */\n    tag_189:\n        /* \"#utility.yul\":11791:11796   */\n      0x00\n        /* \"#utility.yul\":11816:11897   */\n      tag_334\n        /* \"#utility.yul\":11832:11896   */\n      tag_335\n        /* \"#utility.yul\":11889:11895   */\n      dup5\n        /* \"#utility.yul\":11832:11896   */\n      tag_186\n      jump\t// in\n    tag_335:\n        /* \"#utility.yul\":11816:11897   */\n      tag_185\n      jump\t// in\n    tag_334:\n        /* \"#utility.yul\":11807:11897   */\n      swap1\n      pop\n        /* \"#utility.yul\":11917:11922   */\n      dup1\n        /* \"#utility.yul\":11946:11952   */\n      dup4\n        /* \"#utility.yul\":11939:11944   */\n      dup3\n        /* \"#utility.yul\":11932:11953   */\n      mstore\n        /* \"#utility.yul\":11980:11984   */\n      0x20\n        /* \"#utility.yul\":11973:11978   */\n      dup3\n        /* \"#utility.yul\":11969:11985   */\n      add\n        /* \"#utility.yul\":11962:11985   */\n      swap1\n      pop\n        /* \"#utility.yul\":12033:12037   */\n      0x20\n        /* \"#utility.yul\":12025:12031   */\n      dup5\n        /* \"#utility.yul\":12021:12038   */\n      mul\n        /* \"#utility.yul\":12013:12019   */\n      dup4\n        /* \"#utility.yul\":12009:12039   */\n      add\n        /* \"#utility.yul\":12062:12065   */\n      dup6\n        /* \"#utility.yul\":12054:12060   */\n      dup2\n        /* \"#utility.yul\":12051:12066   */\n      gt\n        /* \"#utility.yul\":12048:12170   */\n      iszero\n      tag_336\n      jumpi\n        /* \"#utility.yul\":12081:12160   */\n      tag_337\n      tag_187\n      jump\t// in\n    tag_337:\n        /* \"#utility.yul\":12048:12170   */\n    tag_336:\n        /* \"#utility.yul\":12196:12202   */\n      dup4\n        /* \"#utility.yul\":12179:12410   */\n    tag_338:\n        /* \"#utility.yul\":12213:12219   */\n      dup2\n        /* \"#utility.yul\":12208:12211   */\n      dup2\n        /* \"#utility.yul\":12205:12220   */\n      lt\n        /* \"#utility.yul\":12179:12410   */\n      iszero\n      tag_340\n      jumpi\n        /* \"#utility.yul\":12288:12291   */\n      dup1\n        /* \"#utility.yul\":12317:12365   */\n      tag_341\n        /* \"#utility.yul\":12361:12364   */\n      dup9\n        /* \"#utility.yul\":12349:12359   */\n      dup3\n        /* \"#utility.yul\":12317:12365   */\n      tag_188\n      jump\t// in\n    tag_341:\n        /* \"#utility.yul\":12312:12315   */\n      dup5\n        /* \"#utility.yul\":12305:12366   */\n      mstore\n        /* \"#utility.yul\":12395:12399   */\n      0x20\n        /* \"#utility.yul\":12390:12393   */\n      dup5\n        /* \"#utility.yul\":12386:12400   */\n      add\n        /* \"#utility.yul\":12379:12400   */\n      swap4\n      pop\n        /* \"#utility.yul\":12255:12410   */\n      pop\n        /* \"#utility.yul\":12239:12243   */\n      0x20\n        /* \"#utility.yul\":12234:12237   */\n      dup2\n        /* \"#utility.yul\":12230:12244   */\n      add\n        /* \"#utility.yul\":12223:12244   */\n      swap1\n      pop\n        /* \"#utility.yul\":12179:12410   */\n      jump(tag_338)\n    tag_340:\n        /* \"#utility.yul\":12183:12204   */\n      pop\n        /* \"#utility.yul\":11797:12416   */\n      pop\n      pop\n        /* \"#utility.yul\":11684:12416   */\n      swap4\n      swap3\n      pop\n      pop\n      pop\n      jump\t// out\n        /* \"#utility.yul\":12439:12824   */\n    tag_190:\n        /* \"#utility.yul\":12521:12526   */\n      0x00\n        /* \"#utility.yul\":12570:12573   */\n      dup3\n        /* \"#utility.yul\":12563:12567   */\n      0x1f\n        /* \"#utility.yul\":12555:12561   */\n      dup4\n        /* \"#utility.yul\":12551:12568   */\n      add\n        /* \"#utility.yul\":12547:12574   */\n      slt\n        /* \"#utility.yul\":12537:12659   */\n      tag_343\n      jumpi\n        /* \"#utility.yul\":12578:12657   */\n      tag_344\n      tag_182\n      jump\t// in\n    tag_344:\n        /* \"#utility.yul\":12537:12659   */\n    tag_343:\n        /* \"#utility.yul\":12688:12694   */\n      dup2\n        /* \"#utility.yul\":12682:12695   */\n      mload\n        /* \"#utility.yul\":12713:12818   */\n      tag_345\n        /* \"#utility.yul\":12814:12817   */\n      dup5\n        /* \"#utility.yul\":12806:12812   */\n      dup3\n        /* \"#utility.yul\":12799:12803   */\n      0x20\n        /* \"#utility.yul\":12791:12797   */\n      dup7\n        /* \"#utility.yul\":12787:12804   */\n      add\n        /* \"#utility.yul\":12713:12818   */\n      tag_189\n      jump\t// in\n    tag_345:\n        /* \"#utility.yul\":12704:12818   */\n      swap2\n      pop\n        /* \"#utility.yul\":12527:12824   */\n      pop\n        /* \"#utility.yul\":12439:12824   */\n      swap3\n      swap2\n      pop\n      pop\n      jump\t// out\n        /* \"#utility.yul\":12830:13384   */\n    tag_83:\n        /* \"#utility.yul\":12925:12931   */\n      0x00\n        /* \"#utility.yul\":12974:12976   */\n      0x20\n        /* \"#utility.yul\":12962:12971   */\n      dup3\n        /* \"#utility.yul\":12953:12960   */\n      dup5\n        /* \"#utility.yul\":12949:12972   */\n      sub\n        /* \"#utility.yul\":12945:12977   */\n      slt\n        /* \"#utility.yul\":12942:13061   */\n      iszero\n      tag_347\n      jumpi\n        /* \"#utility.yul\":12980:13059   */\n      tag_348\n      tag_150\n      jump\t// in\n    tag_348:\n        /* \"#utility.yul\":12942:13061   */\n    tag_347:\n        /* \"#utility.yul\":13121:13122   */\n      0x00\n        /* \"#utility.yul\":13110:13119   */\n      dup3\n        /* \"#utility.yul\":13106:13123   */\n      add\n        /* \"#utility.yul\":13100:13124   */\n      mload\n        /* \"#utility.yul\":13151:13169   */\n      0xffffffffffffffff\n        /* \"#utility.yul\":13143:13149   */\n      dup2\n        /* \"#utility.yul\":13140:13170   */\n      gt\n        /* \"#utility.yul\":13137:13254   */\n      iszero\n      tag_349\n      jumpi\n        /* \"#utility.yul\":13173:13252   */\n      tag_350\n      tag_151\n      jump\t// in\n    tag_350:\n        /* \"#utility.yul\":13137:13254   */\n    tag_349:\n        /* \"#utility.yul\":13278:13367   */\n      tag_351\n        /* \"#utility.yul\":13359:13366   */\n      dup5\n        /* \"#utility.yul\":13350:13356   */\n      dup3\n        /* \"#utility.yul\":13339:13348   */\n      dup6\n        /* \"#utility.yul\":13335:13357   */\n      add\n        /* \"#utility.yul\":13278:13367   */\n      tag_190\n      jump\t// in\n    tag_351:\n        /* \"#utility.yul\":13268:13367   */\n      swap2\n      pop\n        /* \"#utility.yul\":13071:13377   */\n      pop\n        /* \"#utility.yul\":12830:13384   */\n      swap3\n      swap2\n      pop\n      pop\n      jump\t// out\n        /* \"#utility.yul\":13390:13475   */\n    tag_191:\n        /* \"#utility.yul\":13435:13442   */\n      0x00\n        /* \"#utility.yul\":13464:13469   */\n      dup2\n        /* \"#utility.yul\":13453:13469   */\n      swap1\n      pop\n        /* \"#utility.yul\":13390:13475   */\n      swap2\n      swap1\n      pop\n      jump\t// out\n        /* \"#utility.yul\":13481:13567   */\n    tag_192:\n        /* \"#utility.yul\":13516:13523   */\n      0x00\n        /* \"#utility.yul\":13556:13560   */\n      0xff\n        /* \"#utility.yul\":13549:13554   */\n      dup3\n        /* \"#utility.yul\":13545:13561   */\n      and\n        /* \"#utility.yul\":13534:13561   */\n      swap1\n      pop\n        /* \"#utility.yul\":13481:13567   */\n      swap2\n      swap1\n      pop\n      jump\t// out\n        /* \"#utility.yul\":13573:13727   */\n    tag_193:\n        /* \"#utility.yul\":13629:13638   */\n      0x00\n        /* \"#utility.yul\":13662:13721   */\n      tag_355\n        /* \"#utility.yul\":13678:13720   */\n      tag_356\n        /* \"#utility.yul\":13687:13719   */\n      tag_357\n        /* \"#utility.yul\":13713:13718   */\n      dup5\n        /* \"#utility.yul\":13687:13719   */\n      tag_191\n      jump\t// in\n    tag_357:\n        /* \"#utility.yul\":13678:13720   */\n      tag_156\n      jump\t// in\n    tag_356:\n        /* \"#utility.yul\":13662:13721   */\n      tag_192\n      jump\t// in\n    tag_355:\n        /* \"#utility.yul\":13649:13721   */\n      swap1\n      pop\n        /* \"#utility.yul\":13573:13727   */\n      swap2\n      swap1\n      pop\n      jump\t// out\n        /* \"#utility.yul\":13733:13876   */\n    tag_194:\n        /* \"#utility.yul\":13826:13869   */\n      tag_359\n        /* \"#utility.yul\":13863:13868   */\n      dup2\n        /* \"#utility.yul\":13826:13869   */\n      tag_193\n      jump\t// in\n    tag_359:\n        /* \"#utility.yul\":13821:13824   */\n      dup3\n        /* \"#utility.yul\":13814:13870   */\n      mstore\n        /* \"#utility.yul\":13733:13876   */\n      pop\n      pop\n      jump\t// out\n        /* \"#utility.yul\":13882:14336   */\n    tag_87:\n        /* \"#utility.yul\":14037:14041   */\n      0x00\n        /* \"#utility.yul\":14075:14077   */\n      0x60\n        /* \"#utility.yul\":14064:14073   */\n      dup3\n        /* \"#utility.yul\":14060:14078   */\n      add\n        /* \"#utility.yul\":14052:14078   */\n      swap1\n      pop\n        /* \"#utility.yul\":14088:14165   */\n      tag_361\n        /* \"#utility.yul\":14162:14163   */\n      0x00\n        /* \"#utility.yul\":14151:14160   */\n      dup4\n        /* \"#utility.yul\":14147:14164   */\n      add\n        /* \"#utility.yul\":14138:14144   */\n      dup7\n        /* \"#utility.yul\":14088:14165   */\n      tag_194\n      jump\t// in\n    tag_361:\n        /* \"#utility.yul\":14175:14247   */\n      tag_362\n        /* \"#utility.yul\":14243:14245   */\n      0x20\n        /* \"#utility.yul\":14232:14241   */\n      dup4\n        /* \"#utility.yul\":14228:14246   */\n      add\n        /* \"#utility.yul\":14219:14225   */\n      dup6\n        /* \"#utility.yul\":14175:14247   */\n      tag_161\n      jump\t// in\n    tag_362:\n        /* \"#utility.yul\":14257:14329   */\n      tag_363\n        /* \"#utility.yul\":14325:14327   */\n      0x40\n        /* \"#utility.yul\":14314:14323   */\n      dup4\n        /* \"#utility.yul\":14310:14328   */\n      add\n        /* \"#utility.yul\":14301:14307   */\n      dup5\n        /* \"#utility.yul\":14257:14329   */\n      tag_161\n      jump\t// in\n    tag_363:\n        /* \"#utility.yul\":13882:14336   */\n      swap5\n      swap4\n      pop\n      pop\n      pop\n      pop\n      jump\t// out\n        /* \"#utility.yul\":14342:14674   */\n    tag_93:\n        /* \"#utility.yul\":14463:14467   */\n      0x00\n        /* \"#utility.yul\":14501:14503   */\n      0x40\n        /* \"#utility.yul\":14490:14499   */\n      dup3\n        /* \"#utility.yul\":14486:14504   */\n      add\n        /* \"#utility.yul\":14478:14504   */\n      swap1\n      pop\n        /* \"#utility.yul\":14514:14585   */\n      tag_365\n        /* \"#utility.yul\":14582:14583   */\n      0x00\n        /* \"#utility.yul\":14571:14580   */\n      dup4\n        /* \"#utility.yul\":14567:14584   */\n      add\n        /* \"#utility.yul\":14558:14564   */\n      dup6\n        /* \"#utility.yul\":14514:14585   */\n      tag_165\n      jump\t// in\n    tag_365:\n        /* \"#utility.yul\":14595:14667   */\n      tag_366\n        /* \"#utility.yul\":14663:14665   */\n      0x20\n        /* \"#utility.yul\":14652:14661   */\n      dup4\n        /* \"#utility.yul\":14648:14666   */\n      add\n        /* \"#utility.yul\":14639:14645   */\n      dup5\n        /* \"#utility.yul\":14595:14667   */\n      tag_161\n      jump\t// in\n    tag_366:\n        /* \"#utility.yul\":14342:14674   */\n      swap4\n      swap3\n      pop\n      pop\n      pop\n      jump\t// out\n        /* \"#utility.yul\":14680:14770   */\n    tag_195:\n        /* \"#utility.yul\":14714:14721   */\n      0x00\n        /* \"#utility.yul\":14757:14762   */\n      dup2\n        /* \"#utility.yul\":14750:14763   */\n      iszero\n        /* \"#utility.yul\":14743:14764   */\n      iszero\n        /* \"#utility.yul\":14732:14764   */\n      swap1\n      pop\n        /* \"#utility.yul\":14680:14770   */\n      swap2\n      swap1\n      pop\n      jump\t// out\n        /* \"#utility.yul\":14776:14892   */\n    tag_196:\n        /* \"#utility.yul\":14846:14867   */\n      tag_369\n        /* \"#utility.yul\":14861:14866   */\n      dup2\n        /* \"#utility.yul\":14846:14867   */\n      tag_195\n      jump\t// in\n    tag_369:\n        /* \"#utility.yul\":14839:14844   */\n      dup2\n        /* \"#utility.yul\":14836:14868   */\n      eq\n        /* \"#utility.yul\":14826:14886   */\n      tag_370\n      jumpi\n        /* \"#utility.yul\":14882:14883   */\n      0x00\n        /* \"#utility.yul\":14879:14880   */\n      0x00\n        /* \"#utility.yul\":14872:14884   */\n      revert\n        /* \"#utility.yul\":14826:14886   */\n    tag_370:\n        /* \"#utility.yul\":14776:14892   */\n      pop\n      jump\t// out\n        /* \"#utility.yul\":14898:15035   */\n    tag_197:\n        /* \"#utility.yul\":14952:14957   */\n      0x00\n        /* \"#utility.yul\":14983:14989   */\n      dup2\n        /* \"#utility.yul\":14977:14990   */\n      mload\n        /* \"#utility.yul\":14968:14990   */\n      swap1\n      pop\n        /* \"#utility.yul\":14999:15029   */\n      tag_372\n        /* \"#utility.yul\":15023:15028   */\n      dup2\n        /* \"#utility.yul\":14999:15029   */\n      tag_196\n      jump\t// in\n    tag_372:\n        /* \"#utility.yul\":14898:15035   */\n      swap3\n      swap2\n      pop\n      pop\n      jump\t// out\n        /* \"#utility.yul\":15041:15386   */\n    tag_97:\n        /* \"#utility.yul\":15108:15114   */\n      0x00\n        /* \"#utility.yul\":15157:15159   */\n      0x20\n        /* \"#utility.yul\":15145:15154   */\n      dup3\n        /* \"#utility.yul\":15136:15143   */\n      dup5\n        /* \"#utility.yul\":15132:15155   */\n      sub\n        /* \"#utility.yul\":15128:15160   */\n      slt\n        /* \"#utility.yul\":15125:15244   */\n      iszero\n      tag_374\n      jumpi\n        /* \"#utility.yul\":15163:15242   */\n      tag_375\n      tag_150\n      jump\t// in\n    tag_375:\n        /* \"#utility.yul\":15125:15244   */\n    tag_374:\n        /* \"#utility.yul\":15283:15284   */\n      0x00\n        /* \"#utility.yul\":15308:15369   */\n      tag_376\n        /* \"#utility.yul\":15361:15368   */\n      dup5\n        /* \"#utility.yul\":15352:15358   */\n      dup3\n        /* \"#utility.yul\":15341:15350   */\n      dup6\n        /* \"#utility.yul\":15337:15359   */\n      add\n        /* \"#utility.yul\":15308:15369   */\n      tag_197\n      jump\t// in\n    tag_376:\n        /* \"#utility.yul\":15298:15369   */\n      swap2\n      pop\n        /* \"#utility.yul\":15254:15379   */\n      pop\n        /* \"#utility.yul\":15041:15386   */\n      swap3\n      swap2\n      pop\n      pop\n      jump\t// out\n        /* \"#utility.yul\":15392:15743   */\n    tag_108:\n        /* \"#utility.yul\":15462:15468   */\n      0x00\n        /* \"#utility.yul\":15511:15513   */\n      0x20\n        /* \"#utility.yul\":15499:15508   */\n      dup3\n        /* \"#utility.yul\":15490:15497   */\n      dup5\n        /* \"#utility.yul\":15486:15509   */\n      sub\n        /* \"#utility.yul\":15482:15514   */\n      slt\n        /* \"#utility.yul\":15479:15598   */\n      iszero\n      tag_378\n      jumpi\n        /* \"#utility.yul\":15517:15596   */\n      tag_379\n      tag_150\n      jump\t// in\n    tag_379:\n        /* \"#utility.yul\":15479:15598   */\n    tag_378:\n        /* \"#utility.yul\":15637:15638   */\n      0x00\n        /* \"#utility.yul\":15662:15726   */\n      tag_380\n        /* \"#utility.yul\":15718:15725   */\n      dup5\n        /* \"#utility.yul\":15709:15715   */\n      dup3\n        /* \"#utility.yul\":15698:15707   */\n      dup6\n        /* \"#utility.yul\":15694:15716   */\n      add\n        /* \"#utility.yul\":15662:15726   */\n      tag_188\n      jump\t// in\n    tag_380:\n        /* \"#utility.yul\":15652:15726   */\n      swap2\n      pop\n        /* \"#utility.yul\":15608:15736   */\n      pop\n        /* \"#utility.yul\":15392:15743   */\n      swap3\n      swap2\n      pop\n      pop\n      jump\t// out\n        /* \"#utility.yul\":15749:16564   */\n    tag_123:\n        /* \"#utility.yul\":16004:16008   */\n      0x00\n        /* \"#utility.yul\":16042:16045   */\n      0xa0\n        /* \"#utility.yul\":16031:16040   */\n      dup3\n        /* \"#utility.yul\":16027:16046   */\n      add\n        /* \"#utility.yul\":16019:16046   */\n      swap1\n      pop\n        /* \"#utility.yul\":16056:16127   */\n      tag_382\n        /* \"#utility.yul\":16124:16125   */\n      0x00\n        /* \"#utility.yul\":16113:16122   */\n      dup4\n        /* \"#utility.yul\":16109:16126   */\n      add\n        /* \"#utility.yul\":16100:16106   */\n      dup9\n        /* \"#utility.yul\":16056:16127   */\n      tag_161\n      jump\t// in\n    tag_382:\n        /* \"#utility.yul\":16137:16209   */\n      tag_383\n        /* \"#utility.yul\":16205:16207   */\n      0x20\n        /* \"#utility.yul\":16194:16203   */\n      dup4\n        /* \"#utility.yul\":16190:16208   */\n      add\n        /* \"#utility.yul\":16181:16187   */\n      dup8\n        /* \"#utility.yul\":16137:16209   */\n      tag_161\n      jump\t// in\n    tag_383:\n        /* \"#utility.yul\":16256:16265   */\n      dup2\n        /* \"#utility.yul\":16250:16254   */\n      dup2\n        /* \"#utility.yul\":16246:16266   */\n      sub\n        /* \"#utility.yul\":16241:16243   */\n      0x40\n        /* \"#utility.yul\":16230:16239   */\n      dup4\n        /* \"#utility.yul\":16226:16244   */\n      add\n        /* \"#utility.yul\":16219:16267   */\n      mstore\n        /* \"#utility.yul\":16284:16392   */\n      tag_384\n        /* \"#utility.yul\":16387:16391   */\n      dup2\n        /* \"#utility.yul\":16378:16384   */\n      dup7\n        /* \"#utility.yul\":16284:16392   */\n      tag_181\n      jump\t// in\n    tag_384:\n        /* \"#utility.yul\":16276:16392   */\n      swap1\n      pop\n        /* \"#utility.yul\":16402:16474   */\n      tag_385\n        /* \"#utility.yul\":16470:16472   */\n      0x60\n        /* \"#utility.yul\":16459:16468   */\n      dup4\n        /* \"#utility.yul\":16455:16473   */\n      add\n        /* \"#utility.yul\":16446:16452   */\n      dup6\n        /* \"#utility.yul\":16402:16474   */\n      tag_165\n      jump\t// in\n    tag_385:\n        /* \"#utility.yul\":16484:16557   */\n      tag_386\n        /* \"#utility.yul\":16552:16555   */\n      0x80\n        /* \"#utility.yul\":16541:16550   */\n      dup4\n        /* \"#utility.yul\":16537:16556   */\n      add\n        /* \"#utility.yul\":16528:16534   */\n      dup5\n        /* \"#utility.yul\":16484:16557   */\n      tag_161\n      jump\t// in\n    tag_386:\n        /* \"#utility.yul\":15749:16564   */\n      swap7\n      swap6\n      pop\n      pop\n      pop\n      pop\n      pop\n      pop\n      jump\t// out\n        /* \"#utility.yul\":16570:16655   */\n    tag_198:\n        /* \"#utility.yul\":16615:16622   */\n      0x00\n        /* \"#utility.yul\":16644:16649   */\n      dup2\n        /* \"#utility.yul\":16633:16649   */\n      swap1\n      pop\n        /* \"#utility.yul\":16570:16655   */\n      swap2\n      swap1\n      pop\n      jump\t// out\n        /* \"#utility.yul\":16661:16815   */\n    tag_199:\n        /* \"#utility.yul\":16717:16726   */\n      0x00\n        /* \"#utility.yul\":16750:16809   */\n      tag_389\n        /* \"#utility.yul\":16766:16808   */\n      tag_390\n        /* \"#utility.yul\":16775:16807   */\n      tag_391\n        /* \"#utility.yul\":16801:16806   */\n      dup5\n        /* \"#utility.yul\":16775:16807   */\n      tag_198\n      jump\t// in\n    tag_391:\n        /* \"#utility.yul\":16766:16808   */\n      tag_156\n      jump\t// in\n    tag_390:\n        /* \"#utility.yul\":16750:16809   */\n      tag_192\n      jump\t// in\n    tag_389:\n        /* \"#utility.yul\":16737:16809   */\n      swap1\n      pop\n        /* \"#utility.yul\":16661:16815   */\n      swap2\n      swap1\n      pop\n      jump\t// out\n        /* \"#utility.yul\":16821:16964   */\n    tag_200:\n        /* \"#utility.yul\":16914:16957   */\n      tag_393\n        /* \"#utility.yul\":16951:16956   */\n      dup2\n        /* \"#utility.yul\":16914:16957   */\n      tag_199\n      jump\t// in\n    tag_393:\n        /* \"#utility.yul\":16909:16912   */\n      dup3\n        /* \"#utility.yul\":16902:16958   */\n      mstore\n        /* \"#utility.yul\":16821:16964   */\n      pop\n      pop\n      jump\t// out\n        /* \"#utility.yul\":16970:17424   */\n    tag_130:\n        /* \"#utility.yul\":17125:17129   */\n      0x00\n        /* \"#utility.yul\":17163:17165   */\n      0x60\n        /* \"#utility.yul\":17152:17161   */\n      dup3\n        /* \"#utility.yul\":17148:17166   */\n      add\n        /* \"#utility.yul\":17140:17166   */\n      swap1\n      pop\n        /* \"#utility.yul\":17176:17253   */\n      tag_395\n        /* \"#utility.yul\":17250:17251   */\n      0x00\n        /* \"#utility.yul\":17239:17248   */\n      dup4\n        /* \"#utility.yul\":17235:17252   */\n      add\n        /* \"#utility.yul\":17226:17232   */\n      dup7\n        /* \"#utility.yul\":17176:17253   */\n      tag_200\n      jump\t// in\n    tag_395:\n        /* \"#utility.yul\":17263:17335   */\n      tag_396\n        /* \"#utility.yul\":17331:17333   */\n      0x20\n        /* \"#utility.yul\":17320:17329   */\n      dup4\n        /* \"#utility.yul\":17316:17334   */\n      add\n        /* \"#utility.yul\":17307:17313   */\n      dup6\n        /* \"#utility.yul\":17263:17335   */\n      tag_161\n      jump\t// in\n    tag_396:\n        /* \"#utility.yul\":17345:17417   */\n      tag_397\n        /* \"#utility.yul\":17413:17415   */\n      0x40\n        /* \"#utility.yul\":17402:17411   */\n      dup4\n        /* \"#utility.yul\":17398:17416   */\n      add\n        /* \"#utility.yul\":17389:17395   */\n      dup5\n        /* \"#utility.yul\":17345:17417   */\n      tag_161\n      jump\t// in\n    tag_397:\n        /* \"#utility.yul\":16970:17424   */\n      swap5\n      swap4\n      pop\n      pop\n      pop\n      pop\n      jump\t// out\n        /* \"#utility.yul\":17430:17590   */\n    tag_201:\n        /* \"#utility.yul\":17570:17582   */\n      0x616d6f756e74203d203000000000000000000000000000000000000000000000\n        /* \"#utility.yul\":17566:17567   */\n      0x00\n        /* \"#utility.yul\":17558:17564   */\n      dup3\n        /* \"#utility.yul\":17554:17568   */\n      add\n        /* \"#utility.yul\":17547:17583   */\n      mstore\n        /* \"#utility.yul\":17430:17590   */\n      pop\n      jump\t// out\n        /* \"#utility.yul\":17596:17962   */\n    tag_202:\n        /* \"#utility.yul\":17738:17741   */\n      0x00\n        /* \"#utility.yul\":17759:17826   */\n      tag_400\n        /* \"#utility.yul\":17823:17825   */\n      0x0a\n        /* \"#utility.yul\":17818:17821   */\n      dup4\n        /* \"#utility.yul\":17759:17826   */\n      tag_168\n      jump\t// in\n    tag_400:\n        /* \"#utility.yul\":17752:17826   */\n      swap2\n      pop\n        /* \"#utility.yul\":17835:17928   */\n      tag_401\n        /* \"#utility.yul\":17924:17927   */\n      dup3\n        /* \"#utility.yul\":17835:17928   */\n      tag_201\n      jump\t// in\n    tag_401:\n        /* \"#utility.yul\":17953:17955   */\n      0x20\n        /* \"#utility.yul\":17948:17951   */\n      dup3\n        /* \"#utility.yul\":17944:17956   */\n      add\n        /* \"#utility.yul\":17937:17956   */\n      swap1\n      pop\n        /* \"#utility.yul\":17596:17962   */\n      swap2\n      swap1\n      pop\n      jump\t// out\n        /* \"#utility.yul\":17968:18387   */\n    tag_137:\n        /* \"#utility.yul\":18134:18138   */\n      0x00\n        /* \"#utility.yul\":18172:18174   */\n      0x20\n        /* \"#utility.yul\":18161:18170   */\n      dup3\n        /* \"#utility.yul\":18157:18175   */\n      add\n        /* \"#utility.yul\":18149:18175   */\n      swap1\n      pop\n        /* \"#utility.yul\":18221:18230   */\n      dup2\n        /* \"#utility.yul\":18215:18219   */\n      dup2\n        /* \"#utility.yul\":18211:18231   */\n      sub\n        /* \"#utility.yul\":18207:18208   */\n      0x00\n        /* \"#utility.yul\":18196:18205   */\n      dup4\n        /* \"#utility.yul\":18192:18209   */\n      add\n        /* \"#utility.yul\":18185:18232   */\n      mstore\n        /* \"#utility.yul\":18249:18380   */\n      tag_403\n        /* \"#utility.yul\":18375:18379   */\n      dup2\n        /* \"#utility.yul\":18249:18380   */\n      tag_202\n      jump\t// in\n    tag_403:\n        /* \"#utility.yul\":18241:18380   */\n      swap1\n      pop\n        /* \"#utility.yul\":17968:18387   */\n      swap2\n      swap1\n      pop\n      jump\t// out\n        /* \"#utility.yul\":18393:18556   */\n    tag_203:\n        /* \"#utility.yul\":18533:18548   */\n      0x6e6f2045544820656e6f75676800000000000000000000000000000000000000\n        /* \"#utility.yul\":18529:18530   */\n      0x00\n        /* \"#utility.yul\":18521:18527   */\n      dup3\n        /* \"#utility.yul\":18517:18531   */\n      add\n        /* \"#utility.yul\":18510:18549   */\n      mstore\n        /* \"#utility.yul\":18393:18556   */\n      pop\n      jump\t// out\n        /* \"#utility.yul\":18562:18928   */\n    tag_204:\n        /* \"#utility.yul\":18704:18707   */\n      0x00\n        /* \"#utility.yul\":18725:18792   */\n      tag_406\n        /* \"#utility.yul\":18789:18791   */\n      0x0d\n        /* \"#utility.yul\":18784:18787   */\n      dup4\n        /* \"#utility.yul\":18725:18792   */\n      tag_168\n      jump\t// in\n    tag_406:\n        /* \"#utility.yul\":18718:18792   */\n      swap2\n      pop\n        /* \"#utility.yul\":18801:18894   */\n      tag_407\n        /* \"#utility.yul\":18890:18893   */\n      dup3\n        /* \"#utility.yul\":18801:18894   */\n      tag_203\n      jump\t// in\n    tag_407:\n        /* \"#utility.yul\":18919:18921   */\n      0x20\n        /* \"#utility.yul\":18914:18917   */\n      dup3\n        /* \"#utility.yul\":18910:18922   */\n      add\n        /* \"#utility.yul\":18903:18922   */\n      swap1\n      pop\n        /* \"#utility.yul\":18562:18928   */\n      swap2\n      swap1\n      pop\n      jump\t// out\n        /* \"#utility.yul\":18934:19353   */\n    tag_140:\n        /* \"#utility.yul\":19100:19104   */\n      0x00\n        /* \"#utility.yul\":19138:19140   */\n      0x20\n        /* \"#utility.yul\":19127:19136   */\n      dup3\n        /* \"#utility.yul\":19123:19141   */\n      add\n        /* \"#utility.yul\":19115:19141   */\n      swap1\n      pop\n        /* \"#utility.yul\":19187:19196   */\n      dup2\n        /* \"#utility.yul\":19181:19185   */\n      dup2\n        /* \"#utility.yul\":19177:19197   */\n      sub\n        /* \"#utility.yul\":19173:19174   */\n      0x00\n        /* \"#utility.yul\":19162:19171   */\n      dup4\n        /* \"#utility.yul\":19158:19175   */\n      add\n        /* \"#utility.yul\":19151:19198   */\n      mstore\n        /* \"#utility.yul\":19215:19346   */\n      tag_409\n        /* \"#utility.yul\":19341:19345   */\n      dup2\n        /* \"#utility.yul\":19215:19346   */\n      tag_204\n      jump\t// in\n    tag_409:\n        /* \"#utility.yul\":19207:19346   */\n      swap1\n      pop\n        /* \"#utility.yul\":18934:19353   */\n      swap2\n      swap1\n      pop\n      jump\t// out\n        /* \"#utility.yul\":19359:19506   */\n    tag_205:\n        /* \"#utility.yul\":19460:19471   */\n      0x00\n        /* \"#utility.yul\":19497:19500   */\n      dup2\n        /* \"#utility.yul\":19482:19500   */\n      swap1\n      pop\n        /* \"#utility.yul\":19359:19506   */\n      swap3\n      swap2\n      pop\n      pop\n      jump\t// out\n        /* \"#utility.yul\":19512:19626   */\n    tag_206:\n      pop\n      jump\t// out\n        /* \"#utility.yul\":19632:20030   */\n    tag_207:\n        /* \"#utility.yul\":19791:19794   */\n      0x00\n        /* \"#utility.yul\":19812:19895   */\n      tag_413\n        /* \"#utility.yul\":19893:19894   */\n      0x00\n        /* \"#utility.yul\":19888:19891   */\n      dup4\n        /* \"#utility.yul\":19812:19895   */\n      tag_205\n      jump\t// in\n    tag_413:\n        /* \"#utility.yul\":19805:19895   */\n      swap2\n      pop\n        /* \"#utility.yul\":19904:19997   */\n      tag_414\n        /* \"#utility.yul\":19993:19996   */\n      dup3\n        /* \"#utility.yul\":19904:19997   */\n      tag_206\n      jump\t// in\n    tag_414:\n        /* \"#utility.yul\":20022:20023   */\n      0x00\n        /* \"#utility.yul\":20017:20020   */\n      dup3\n        /* \"#utility.yul\":20013:20024   */\n      add\n        /* \"#utility.yul\":20006:20024   */\n      swap1\n      pop\n        /* \"#utility.yul\":19632:20030   */\n      swap2\n      swap1\n      pop\n      jump\t// out\n        /* \"#utility.yul\":20036:20415   */\n    tag_142:\n        /* \"#utility.yul\":20220:20223   */\n      0x00\n        /* \"#utility.yul\":20242:20389   */\n      tag_416\n        /* \"#utility.yul\":20385:20388   */\n      dup3\n        /* \"#utility.yul\":20242:20389   */\n      tag_207\n      jump\t// in\n    tag_416:\n        /* \"#utility.yul\":20235:20389   */\n      swap2\n      pop\n        /* \"#utility.yul\":20406:20409   */\n      dup2\n        /* \"#utility.yul\":20399:20409   */\n      swap1\n      pop\n        /* \"#utility.yul\":20036:20415   */\n      swap2\n      swap1\n      pop\n      jump\t// out\n        /* \"#utility.yul\":20421:20590   */\n    tag_208:\n        /* \"#utility.yul\":20561:20582   */\n      0x455448207472616e73666572206661696c656400000000000000000000000000\n        /* \"#utility.yul\":20557:20558   */\n      0x00\n        /* \"#utility.yul\":20549:20555   */\n      dup3\n        /* \"#utility.yul\":20545:20559   */\n      add\n        /* \"#utility.yul\":20538:20583   */\n      mstore\n        /* \"#utility.yul\":20421:20590   */\n      pop\n      jump\t// out\n        /* \"#utility.yul\":20596:20962   */\n    tag_209:\n        /* \"#utility.yul\":20738:20741   */\n      0x00\n        /* \"#utility.yul\":20759:20826   */\n      tag_419\n        /* \"#utility.yul\":20823:20825   */\n      0x13\n        /* \"#utility.yul\":20818:20821   */\n      dup4\n        /* \"#utility.yul\":20759:20826   */\n      tag_168\n      jump\t// in\n    tag_419:\n        /* \"#utility.yul\":20752:20826   */\n      swap2\n      pop\n        /* \"#utility.yul\":20835:20928   */\n      tag_420\n        /* \"#utility.yul\":20924:20927   */\n      dup3\n        /* \"#utility.yul\":20835:20928   */\n      tag_208\n      jump\t// in\n    tag_420:\n        /* \"#utility.yul\":20953:20955   */\n      0x20\n        /* \"#utility.yul\":20948:20951   */\n      dup3\n        /* \"#utility.yul\":20944:20956   */\n      add\n        /* \"#utility.yul\":20937:20956   */\n      swap1\n      pop\n        /* \"#utility.yul\":20596:20962   */\n      swap2\n      swap1\n      pop\n      jump\t// out\n        /* \"#utility.yul\":20968:21387   */\n    tag_148:\n        /* \"#utility.yul\":21134:21138   */\n      0x00\n        /* \"#utility.yul\":21172:21174   */\n      0x20\n        /* \"#utility.yul\":21161:21170   */\n      dup3\n        /* \"#utility.yul\":21157:21175   */\n      add\n        /* \"#utility.yul\":21149:21175   */\n      swap1\n      pop\n        /* \"#utility.yul\":21221:21230   */\n      dup2\n        /* \"#utility.yul\":21215:21219   */\n      dup2\n        /* \"#utility.yul\":21211:21231   */\n      sub\n        /* \"#utility.yul\":21207:21208   */\n      0x00\n        /* \"#utility.yul\":21196:21205   */\n      dup4\n        /* \"#utility.yul\":21192:21209   */\n      add\n        /* \"#utility.yul\":21185:21232   */\n      mstore\n        /* \"#utility.yul\":21249:21380   */\n      tag_422\n        /* \"#utility.yul\":21375:21379   */\n      dup2\n        /* \"#utility.yul\":21249:21380   */\n      tag_209\n      jump\t// in\n    tag_422:\n        /* \"#utility.yul\":21241:21380   */\n      swap1\n      pop\n        /* \"#utility.yul\":20968:21387   */\n      swap2\n      swap1\n      pop\n      jump\t// out\n\n    auxdata: 0xa264697066735822122089cada3ed3c9ea2003dee06fa176ef9863011ebbbfce52aa0e72c2c3c28ee14364736f6c634300081e0033\n}\n",
				"bytecode": {
					"linkReferences": {},
					"object": "60e060405234801561000f575f5ffd5b50604051611ad3380380611ad3833981810160405281019061003191906101d0565b3373ffffffffffffffffffffffffffffffffffffffff1660808173ffffffffffffffffffffffffffffffffffffffff16815250508173ffffffffffffffffffffffffffffffffffffffff1660a08173ffffffffffffffffffffffffffffffffffffffff16815250508073ffffffffffffffffffffffffffffffffffffffff1660c08173ffffffffffffffffffffffffffffffffffffffff168152505060c05173ffffffffffffffffffffffffffffffffffffffff1663095ea7b3837fffffffffffffffffffffffffffffffffffffffffffffffffffffffffffffffff6040518363ffffffff1660e01b815260040161012a929190610235565b6020604051808303815f875af1158015610146573d5f5f3e3d5ffd5b505050506040513d601f19601f8201168201806040525081019061016a9190610291565b5050506102bc565b5f5ffd5b5f73ffffffffffffffffffffffffffffffffffffffff82169050919050565b5f61019f82610176565b9050919050565b6101af81610195565b81146101b9575f5ffd5b50565b5f815190506101ca816101a6565b92915050565b5f5f604083850312156101e6576101e5610172565b5b5f6101f3858286016101bc565b9250506020610204858286016101bc565b9150509250929050565b61021781610195565b82525050565b5f819050919050565b61022f8161021d565b82525050565b5f6040820190506102485f83018561020e565b6102556020830184610226565b9392505050565b5f8115159050919050565b6102708161025c565b811461027a575f5ffd5b50565b5f8151905061028b81610267565b92915050565b5f602082840312156102a6576102a5610172565b5b5f6102b38482850161027d565b91505092915050565b60805160a05160c0516117926103415f395f818161040d0152818161058b015281816107d701526108fd01525f81816103330152818161047d0152818161096b01528181610a470152610d3501525f81816101d3015281816105b40152818161065e015281816106e20152818161070601528181610b560152610c6a01526117925ff3fe60806040526004361061007e575f3560e01c80638da5cb5b1161004d5780638da5cb5b1461012d5780638e0e155a14610157578063f14210a61461017f578063f887ea40146101a757610085565b806337c0cb16146100895780633e413bee146100b15780637c9aa53a146100db5780638cd4426d1461010557610085565b3661008557005b5f5ffd5b348015610094575f5ffd5b506100af60048036038101906100aa9190610d9b565b6101d1565b005b3480156100bc575f5ffd5b506100c5610589565b6040516100d29190610e53565b60405180910390f35b3480156100e6575f5ffd5b506100ef6105ad565b6040516100fc9190610e7b565b60405180910390f35b348015610110575f5ffd5b5061012b60048036038101906101269190610ecf565b6105b2565b005b348015610138575f5ffd5b506101416106e0565b60405161014e9190610f1c565b60405180910390f35b348015610162575f5ffd5b5061017d60048036038101906101789190610d9b565b610704565b005b34801561018a575f5ffd5b506101a560048036038101906101a09190610f35565b610b54565b005b3480156101b2575f5ffd5b506101bb610d33565b6040516101c89190610f80565b60405180910390f35b7f000000000000000000000000000000000000000000000000000000000000000073ffffffffffffffffffffffffffffffffffffffff163373ffffffffffffffffffffffffffffffffffffffff161461025f576040517f08c379a000000000000000000000000000000000000000000000000000000000815260040161025690610ff3565b60405180910390fd5b5f82116102a1576040517f08c379a00000000000000000000000000000000000000000000000000000000081526004016102989061105b565b60405180910390fd5b814710156102e4576040517f08c379a00000000000000000000000000000000000000000000000000000000081526004016102db9061105b565b60405180910390fd5b5f600267ffffffffffffffff811115610300576102ff611079565b5b60405190808252806020026020018201604052801561032e5781602001602082028036833780820191505090505b5090507f000000000000000000000000000000000000000000000000000000000000000073ffffffffffffffffffffffffffffffffffffffff1663ad5c46486040518163ffffffff1660e01b8152600401602060405180830381865afa15801561039a573d5f5f3e3d5ffd5b505050506040513d601f19601f820116820180604052508101906103be91906110ba565b815f815181106103d1576103d06110e5565b5b602002602001019073ffffffffffffffffffffffffffffffffffffffff16908173ffffffffffffffffffffffffffffffffffffffff16815250507f0000000000000000000000000000000000000000000000000000000000000000816001815181106104405761043f6110e5565b5b602002602001019073ffffffffffffffffffffffffffffffffffffffff16908173ffffffffffffffffffffffffffffffffffffffff16815250505f7f000000000000000000000000000000000000000000000000000000000000000073ffffffffffffffffffffffffffffffffffffffff16637ff36ab585858530603c426104c8919061113f565b6040518663ffffffff1660e01b81526004016104e79493929190611229565b5f6040518083038185885af1158015610502573d5f5f3e3d5ffd5b50505050506040513d5f823e3d601f19601f8201168201806040525081019061052b91906113aa565b90507fcee23d1f117220edb4cb718a7bbb402a5213b9e17c5e1505fc3a4e410deb4a605f8583600181518110610564576105636110e5565b5b602002602001015160405161057b93929190611436565b60405180910390a150505050565b7f000000000000000000000000000000000000000000000000000000000000000081565b603c81565b7f000000000000000000000000000000000000000000000000000000000000000073ffffffffffffffffffffffffffffffffffffffff163373ffffffffffffffffffffffffffffffffffffffff1614610640576040517f08c379a000000000000000000000000000000000000000000000000000000000815260040161063790610ff3565b60405180910390fd5b8173ffffffffffffffffffffffffffffffffffffffff1663a9059cbb7f0000000000000000000000000000000000000000000000000000000000000000836040518363ffffffff1660e01b815260040161069b92919061146b565b6020604051808303815f875af11580156106b7573d5f5f3e3d5ffd5b505050506040513d601f19601f820116820180604052508101906106db91906114c7565b505050565b7f000000000000000000000000000000000000000000000000000000000000000081565b7f000000000000000000000000000000000000000000000000000000000000000073ffffffffffffffffffffffffffffffffffffffff163373ffffffffffffffffffffffffffffffffffffffff1614610792576040517f08c379a000000000000000000000000000000000000000000000000000000000815260040161078990610ff3565b60405180910390fd5b5f82116107d4576040517f08c379a00000000000000000000000000000000000000000000000000000000081526004016107cb9061105b565b60405180910390fd5b817f000000000000000000000000000000000000000000000000000000000000000073ffffffffffffffffffffffffffffffffffffffff166370a08231306040518263ffffffff1660e01b815260040161082e9190610f1c565b602060405180830381865afa158015610849573d5f5f3e3d5ffd5b505050506040513d601f19601f8201168201806040525081019061086d91906114f2565b10156108ae576040517f08c379a00000000000000000000000000000000000000000000000000000000081526004016108a59061105b565b60405180910390fd5b5f600267ffffffffffffffff8111156108ca576108c9611079565b5b6040519080825280602002602001820160405280156108f85781602001602082028036833780820191505090505b5090507f0000000000000000000000000000000000000000000000000000000000000000815f8151811061092f5761092e6110e5565b5b602002602001019073ffffffffffffffffffffffffffffffffffffffff16908173ffffffffffffffffffffffffffffffffffffffff16815250507f000000000000000000000000000000000000000000000000000000000000000073ffffffffffffffffffffffffffffffffffffffff1663ad5c46486040518163ffffffff1660e01b8152600401602060405180830381865afa1580156109d2573d5f5f3e3d5ffd5b505050506040513d601f19601f820116820180604052508101906109f691906110ba565b81600181518110610a0a57610a096110e5565b5b602002602001019073ffffffffffffffffffffffffffffffffffffffff16908173ffffffffffffffffffffffffffffffffffffffff16815250505f7f000000000000000000000000000000000000000000000000000000000000000073ffffffffffffffffffffffffffffffffffffffff166318cbafe585858530603c42610a92919061113f565b6040518663ffffffff1660e01b8152600401610ab295949392919061151d565b5f604051808303815f875af1158015610acd573d5f5f3e3d5ffd5b505050506040513d5f823e3d601f19601f82011682018060405250810190610af591906113aa565b90507fcee23d1f117220edb4cb718a7bbb402a5213b9e17c5e1505fc3a4e410deb4a6060018583600181518110610b2f57610b2e6110e5565b5b6020026020010151604051610b46939291906115ae565b60405180910390a150505050565b7f000000000000000000000000000000000000000000000000000000000000000073ffffffffffffffffffffffffffffffffffffffff163373ffffffffffffffffffffffffffffffffffffffff1614610be2576040517f08c379a0000000000000000000000000000000000000000000000000000000008152600401610bd990610ff3565b60405180910390fd5b5f8111610c24576040517f08c379a0000000000000000000000000000000000000000000000000000000008152600401610c1b9061162d565b60405180910390fd5b80471015610c67576040517f08c379a0000000000000000000000000000000000000000000000000000000008152600401610c5e90611695565b60405180910390fd5b5f7f000000000000000000000000000000000000000000000000000000000000000073ffffffffffffffffffffffffffffffffffffffff1682604051610cac906116e0565b5f6040518083038185875af1925050503d805f8114610ce6576040519150601f19603f3d011682016040523d82523d5f602084013e610ceb565b606091505b5050905080610d2f576040517f08c379a0000000000000000000000000000000000000000000000000000000008152600401610d269061173e565b60405180910390fd5b5050565b7f000000000000000000000000000000000000000000000000000000000000000081565b5f604051905090565b5f5ffd5b5f5ffd5b5f819050919050565b610d7a81610d68565b8114610d84575f5ffd5b50565b5f81359050610d9581610d71565b92915050565b5f5f60408385031215610db157610db0610d60565b5b5f610dbe85828601610d87565b9250506020610dcf85828601610d87565b9150509250929050565b5f73ffffffffffffffffffffffffffffffffffffffff82169050919050565b5f819050919050565b5f610e1b610e16610e1184610dd9565b610df8565b610dd9565b9050919050565b5f610e2c82610e01565b9050919050565b5f610e3d82610e22565b9050919050565b610e4d81610e33565b82525050565b5f602082019050610e665f830184610e44565b92915050565b610e7581610d68565b82525050565b5f602082019050610e8e5f830184610e6c565b92915050565b5f610e9e82610dd9565b9050919050565b610eae81610e94565b8114610eb8575f5ffd5b50565b5f81359050610ec981610ea5565b92915050565b5f5f60408385031215610ee557610ee4610d60565b5b5f610ef285828601610ebb565b9250506020610f0385828601610d87565b9150509250929050565b610f1681610e94565b82525050565b5f602082019050610f2f5f830184610f0d565b92915050565b5f60208284031215610f4a57610f49610d60565b5b5f610f5784828501610d87565b91505092915050565b5f610f6a82610e22565b9050919050565b610f7a81610f60565b82525050565b5f602082019050610f935f830184610f71565b92915050565b5f82825260208201905092915050565b7f6e6f74206f776e657200000000000000000000000000000000000000000000005f82015250565b5f610fdd600983610f99565b9150610fe882610fa9565b602082019050919050565b5f6020820190508181035f83015261100a81610fd1565b9050919050565b7f30000000000000000000000000000000000000000000000000000000000000005f82015250565b5f611045600183610f99565b915061105082611011565b602082019050919050565b5f6020820190508181035f83015261107281611039565b9050919050565b7f4e487b71000000000000000000000000000000000000000000000000000000005f52604160045260245ffd5b5f815190506110b481610ea5565b92915050565b5f602082840312156110cf576110ce610d60565b5b5f6110dc848285016110a6565b91505092915050565b7f4e487b71000000000000000000000000000000000000000000000000000000005f52603260045260245ffd5b7f4e487b71000000000000000000000000000000000000000000000000000000005f52601160045260245ffd5b5f61114982610d68565b915061115483610d68565b925082820190508082111561116c5761116b611112565b5b92915050565b5f81519050919050565b5f82825260208201905092915050565b5f819050602082019050919050565b6111a481610e94565b82525050565b5f6111b5838361119b565b60208301905092915050565b5f602082019050919050565b5f6111d782611172565b6111e1818561117c565b93506111ec8361118c565b805f5b8381101561121c57815161120388826111aa565b975061120e836111c1565b9250506001810190506111ef565b5085935050505092915050565b5f60808201905061123c5f830187610e6c565b818103602083015261124e81866111cd565b905061125d6040830185610f0d565b61126a6060830184610e6c565b95945050505050565b5f5ffd5b5f601f19601f8301169050919050565b61129082611277565b810181811067ffffffffffffffff821117156112af576112ae611079565b5b80604052505050565b5f6112c1610d57565b90506112cd8282611287565b919050565b5f67ffffffffffffffff8211156112ec576112eb611079565b5b602082029050602081019050919050565b5f5ffd5b5f8151905061130f81610d71565b92915050565b5f611327611322846112d2565b6112b8565b9050808382526020820190506020840283018581111561134a576113496112fd565b5b835b81811015611373578061135f8882611301565b84526020840193505060208101905061134c565b5050509392505050565b5f82601f83011261139157611390611273565b5b81516113a1848260208601611315565b91505092915050565b5f602082840312156113bf576113be610d60565b5b5f82015167ffffffffffffffff8111156113dc576113db610d64565b5b6113e88482850161137d565b91505092915050565b5f819050919050565b5f60ff82169050919050565b5f61142061141b611416846113f1565b610df8565b6113fa565b9050919050565b61143081611406565b82525050565b5f6060820190506114495f830186611427565b6114566020830185610e6c565b6114636040830184610e6c565b949350505050565b5f60408201905061147e5f830185610f0d565b61148b6020830184610e6c565b9392505050565b5f8115159050919050565b6114a681611492565b81146114b0575f5ffd5b50565b5f815190506114c18161149d565b92915050565b5f602082840312156114dc576114db610d60565b5b5f6114e9848285016114b3565b91505092915050565b5f6020828403121561150757611506610d60565b5b5f61151484828501611301565b91505092915050565b5f60a0820190506115305f830188610e6c565b61153d6020830187610e6c565b818103604083015261154f81866111cd565b905061155e6060830185610f0d565b61156b6080830184610e6c565b9695505050505050565b5f819050919050565b5f61159861159361158e84611575565b610df8565b6113fa565b9050919050565b6115a88161157e565b82525050565b5f6060820190506115c15f83018661159f565b6115ce6020830185610e6c565b6115db6040830184610e6c565b949350505050565b7f616d6f756e74203d2030000000000000000000000000000000000000000000005f82015250565b5f611617600a83610f99565b9150611622826115e3565b602082019050919050565b5f6020820190508181035f8301526116448161160b565b9050919050565b7f6e6f2045544820656e6f756768000000000000000000000000000000000000005f82015250565b5f61167f600d83610f99565b915061168a8261164b565b602082019050919050565b5f6020820190508181035f8301526116ac81611673565b9050919050565b5f81905092915050565b50565b5f6116cb5f836116b3565b91506116d6826116bd565b5f82019050919050565b5f6116ea826116c0565b9150819050919050565b7f455448207472616e73666572206661696c6564000000000000000000000000005f82015250565b5f611728601383610f99565b9150611733826116f4565b602082019050919050565b5f6020820190508181035f8301526117558161171c565b905091905056fea264697066735822122089cada3ed3c9ea2003dee06fa176ef9863011ebbbfce52aa0e72c2c3c28ee14364736f6c634300081e0033",
					"opcodes": "PUSH1 0xE0 PUSH1 0x40 MSTORE CALLVALUE DUP1 ISZERO PUSH2 0xF JUMPI PUSH0 PUSH0 REVERT JUMPDEST POP PUSH1 0x40 MLOAD PUSH2 0x1AD3 CODESIZE SUB DUP1 PUSH2 0x1AD3 DUP4 CODECOPY DUP2 DUP2 ADD PUSH1 0x40 MSTORE DUP2 ADD SWAP1 PUSH2 0x31 SWAP2 SWAP1 PUSH2 0x1D0 JUMP JUMPDEST CALLER PUSH20 0xFFFFFFFFFFFFFFFFFFFFFFFFFFFFFFFFFFFFFFFF AND PUSH1 0x80 DUP2 PUSH20 0xFFFFFFFFFFFFFFFFFFFFFFFFFFFFFFFFFFFFFFFF AND DUP2 MSTORE POP POP DUP2 PUSH20 0xFFFFFFFFFFFFFFFFFFFFFFFFFFFFFFFFFFFFFFFF AND PUSH1 0xA0 DUP2 PUSH20 0xFFFFFFFFFFFFFFFFFFFFFFFFFFFFFFFFFFFFFFFF AND DUP2 MSTORE POP POP DUP1 PUSH20 0xFFFFFFFFFFFFFFFFFFFFFFFFFFFFFFFFFFFFFFFF AND PUSH1 0xC0 DUP2 PUSH20 0xFFFFFFFFFFFFFFFFFFFFFFFFFFFFFFFFFFFFFFFF AND DUP2 MSTORE POP POP PUSH1 0xC0 MLOAD PUSH20 0xFFFFFFFFFFFFFFFFFFFFFFFFFFFFFFFFFFFFFFFF AND PUSH4 0x95EA7B3 DUP4 PUSH32 0xFFFFFFFFFFFFFFFFFFFFFFFFFFFFFFFFFFFFFFFFFFFFFFFFFFFFFFFFFFFFFFFF PUSH1 0x40 MLOAD DUP4 PUSH4 0xFFFFFFFF AND PUSH1 0xE0 SHL DUP2 MSTORE PUSH1 0x4 ADD PUSH2 0x12A SWAP3 SWAP2 SWAP1 PUSH2 0x235 JUMP JUMPDEST PUSH1 0x20 PUSH1 0x40 MLOAD DUP1 DUP4 SUB DUP2 PUSH0 DUP8 GAS CALL ISZERO DUP1 ISZERO PUSH2 0x146 JUMPI RETURNDATASIZE PUSH0 PUSH0 RETURNDATACOPY RETURNDATASIZE PUSH0 REVERT JUMPDEST POP POP POP POP PUSH1 0x40 MLOAD RETURNDATASIZE PUSH1 0x1F NOT PUSH1 0x1F DUP3 ADD AND DUP3 ADD DUP1 PUSH1 0x40 MSTORE POP DUP2 ADD SWAP1 PUSH2 0x16A SWAP2 SWAP1 PUSH2 0x291 JUMP JUMPDEST POP POP POP PUSH2 0x2BC JUMP JUMPDEST PUSH0 PUSH0 REVERT JUMPDEST PUSH0 PUSH20 0xFFFFFFFFFFFFFFFFFFFFFFFFFFFFFFFFFFFFFFFF DUP3 AND SWAP1 POP SWAP2 SWAP1 POP JUMP JUMPDEST PUSH0 PUSH2 0x19F DUP3 PUSH2 0x176 JUMP JUMPDEST SWAP1 POP SWAP2 SWAP1 POP JUMP JUMPDEST PUSH2 0x1AF DUP2 PUSH2 0x195 JUMP JUMPDEST DUP2 EQ PUSH2 0x1B9 JUMPI PUSH0 PUSH0 REVERT JUMPDEST POP JUMP JUMPDEST PUSH0 DUP2 MLOAD SWAP1 POP PUSH2 0x1CA DUP2 PUSH2 0x1A6 JUMP JUMPDEST SWAP3 SWAP2 POP POP JUMP JUMPDEST PUSH0 PUSH0 PUSH1 0x40 DUP4 DUP6 SUB SLT ISZERO PUSH2 0x1E6 JUMPI PUSH2 0x1E5 PUSH2 0x172 JUMP JUMPDEST JUMPDEST PUSH0 PUSH2 0x1F3 DUP6 DUP3 DUP7 ADD PUSH2 0x1BC JUMP JUMPDEST SWAP3 POP POP PUSH1 0x20 PUSH2 0x204 DUP6 DUP3 DUP7 ADD PUSH2 0x1BC JUMP JUMPDEST SWAP2 POP POP SWAP3 POP SWAP3 SWAP1 POP JUMP JUMPDEST PUSH2 0x217 DUP2 PUSH2 0x195 JUMP JUMPDEST DUP3 MSTORE POP POP JUMP JUMPDEST PUSH0 DUP2 SWAP1 POP SWAP2 SWAP1 POP JUMP JUMPDEST PUSH2 0x22F DUP2 PUSH2 0x21D JUMP JUMPDEST DUP3 MSTORE POP POP JUMP JUMPDEST PUSH0 PUSH1 0x40 DUP3 ADD SWAP1 POP PUSH2 0x248 PUSH0 DUP4 ADD DUP6 PUSH2 0x20E JUMP JUMPDEST PUSH2 0x255 PUSH1 0x20 DUP4 ADD DUP5 PUSH2 0x226 JUMP JUMPDEST SWAP4 SWAP3 POP POP POP JUMP JUMPDEST PUSH0 DUP2 ISZERO ISZERO SWAP1 POP SWAP2 SWAP1 POP JUMP JUMPDEST PUSH2 0x270 DUP2 PUSH2 0x25C JUMP JUMPDEST DUP2 EQ PUSH2 0x27A JUMPI PUSH0 PUSH0 REVERT JUMPDEST POP JUMP JUMPDEST PUSH0 DUP2 MLOAD SWAP1 POP PUSH2 0x28B DUP2 PUSH2 0x267 JUMP JUMPDEST SWAP3 SWAP2 POP POP JUMP JUMPDEST PUSH0 PUSH1 0x20 DUP3 DUP5 SUB SLT ISZERO PUSH2 0x2A6 JUMPI PUSH2 0x2A5 PUSH2 0x172 JUMP JUMPDEST JUMPDEST PUSH0 PUSH2 0x2B3 DUP5 DUP3 DUP6 ADD PUSH2 0x27D JUMP JUMPDEST SWAP2 POP POP SWAP3 SWAP2 POP POP JUMP JUMPDEST PUSH1 0x80 MLOAD PUSH1 0xA0 MLOAD PUSH1 0xC0 MLOAD PUSH2 0x1792 PUSH2 0x341 PUSH0 CODECOPY PUSH0 DUP2 DUP2 PUSH2 0x40D ADD MSTORE DUP2 DUP2 PUSH2 0x58B ADD MSTORE DUP2 DUP2 PUSH2 0x7D7 ADD MSTORE PUSH2 0x8FD ADD MSTORE PUSH0 DUP2 DUP2 PUSH2 0x333 ADD MSTORE DUP2 DUP2 PUSH2 0x47D ADD MSTORE DUP2 DUP2 PUSH2 0x96B ADD MSTORE DUP2 DUP2 PUSH2 0xA47 ADD MSTORE PUSH2 0xD35 ADD MSTORE PUSH0 DUP2 DUP2 PUSH2 0x1D3 ADD MSTORE DUP2 DUP2 PUSH2 0x5B4 ADD MSTORE DUP2 DUP2 PUSH2 0x65E ADD MSTORE DUP2 DUP2 PUSH2 0x6E2 ADD MSTORE DUP2 DUP2 PUSH2 0x706 ADD MSTORE DUP2 DUP2 PUSH2 0xB56 ADD MSTORE PUSH2 0xC6A ADD MSTORE PUSH2 0x1792 PUSH0 RETURN INVALID PUSH1 0x80 PUSH1 0x40 MSTORE PUSH1 0x4 CALLDATASIZE LT PUSH2 0x7E JUMPI PUSH0 CALLDATALOAD PUSH1 0xE0 SHR DUP1 PUSH4 0x8DA5CB5B GT PUSH2 0x4D JUMPI DUP1 PUSH4 0x8DA5CB5B EQ PUSH2 0x12D JUMPI DUP1 PUSH4 0x8E0E155A EQ PUSH2 0x157 JUMPI DUP1 PUSH4 0xF14210A6 EQ PUSH2 0x17F JUMPI DUP1 PUSH4 0xF887EA40 EQ PUSH2 0x1A7 JUMPI PUSH2 0x85 JUMP JUMPDEST DUP1 PUSH4 0x37C0CB16 EQ PUSH2 0x89 JUMPI DUP1 PUSH4 0x3E413BEE EQ PUSH2 0xB1 JUMPI DUP1 PUSH4 0x7C9AA53A EQ PUSH2 0xDB JUMPI DUP1 PUSH4 0x8CD4426D EQ PUSH2 0x105 JUMPI PUSH2 0x85 JUMP JUMPDEST CALLDATASIZE PUSH2 0x85 JUMPI STOP JUMPDEST PUSH0 PUSH0 REVERT JUMPDEST CALLVALUE DUP1 ISZERO PUSH2 0x94 JUMPI PUSH0 PUSH0 REVERT JUMPDEST POP PUSH2 0xAF PUSH1 0x4 DUP1 CALLDATASIZE SUB DUP2 ADD SWAP1 PUSH2 0xAA SWAP2 SWAP1 PUSH2 0xD9B JUMP JUMPDEST PUSH2 0x1D1 JUMP JUMPDEST STOP JUMPDEST CALLVALUE DUP1 ISZERO PUSH2 0xBC JUMPI PUSH0 PUSH0 REVERT JUMPDEST POP PUSH2 0xC5 PUSH2 0x589 JUMP JUMPDEST PUSH1 0x40 MLOAD PUSH2 0xD2 SWAP2 SWAP1 PUSH2 0xE53 JUMP JUMPDEST PUSH1 0x40 MLOAD DUP1 SWAP2 SUB SWAP1 RETURN JUMPDEST CALLVALUE DUP1 ISZERO PUSH2 0xE6 JUMPI PUSH0 PUSH0 REVERT JUMPDEST POP PUSH2 0xEF PUSH2 0x5AD JUMP JUMPDEST PUSH1 0x40 MLOAD PUSH2 0xFC SWAP2 SWAP1 PUSH2 0xE7B JUMP JUMPDEST PUSH1 0x40 MLOAD DUP1 SWAP2 SUB SWAP1 RETURN JUMPDEST CALLVALUE DUP1 ISZERO PUSH2 0x110 JUMPI PUSH0 PUSH0 REVERT JUMPDEST POP PUSH2 0x12B PUSH1 0x4 DUP1 CALLDATASIZE SUB DUP2 ADD SWAP1 PUSH2 0x126 SWAP2 SWAP1 PUSH2 0xECF JUMP JUMPDEST PUSH2 0x5B2 JUMP JUMPDEST STOP JUMPDEST CALLVALUE DUP1 ISZERO PUSH2 0x138 JUMPI PUSH0 PUSH0 REVERT JUMPDEST POP PUSH2 0x141 PUSH2 0x6E0 JUMP JUMPDEST PUSH1 0x40 MLOAD PUSH2 0x14E SWAP2 SWAP1 PUSH2 0xF1C JUMP JUMPDEST PUSH1 0x40 MLOAD DUP1 SWAP2 SUB SWAP1 RETURN JUMPDEST CALLVALUE DUP1 ISZERO PUSH2 0x162 JUMPI PUSH0 PUSH0 REVERT JUMPDEST POP PUSH2 0x17D PUSH1 0x4 DUP1 CALLDATASIZE SUB DUP2 ADD SWAP1 PUSH2 0x178 SWAP2 SWAP1 PUSH2 0xD9B JUMP JUMPDEST PUSH2 0x704 JUMP JUMPDEST STOP JUMPDEST CALLVALUE DUP1 ISZERO PUSH2 0x18A JUMPI PUSH0 PUSH0 REVERT JUMPDEST POP PUSH2 0x1A5 PUSH1 0x4 DUP1 CALLDATASIZE SUB DUP2 ADD SWAP1 PUSH2 0x1A0 SWAP2 SWAP1 PUSH2 0xF35 JUMP JUMPDEST PUSH2 0xB54 JUMP JUMPDEST STOP JUMPDEST CALLVALUE DUP1 ISZERO PUSH2 0x1B2 JUMPI PUSH0 PUSH0 REVERT JUMPDEST POP PUSH2 0x1BB PUSH2 0xD33 JUMP JUMPDEST PUSH1 0x40 MLOAD PUSH2 0x1C8 SWAP2 SWAP1 PUSH2 0xF80 JUMP JUMPDEST PUSH1 0x40 MLOAD DUP1 SWAP2 SUB SWAP1 RETURN JUMPDEST PUSH32 0x0 PUSH20 0xFFFFFFFFFFFFFFFFFFFFFFFFFFFFFFFFFFFFFFFF AND CALLER PUSH20 0xFFFFFFFFFFFFFFFFFFFFFFFFFFFFFFFFFFFFFFFF AND EQ PUSH2 0x25F JUMPI PUSH1 0x40 MLOAD PUSH32 0x8C379A000000000000000000000000000000000000000000000000000000000 DUP2 MSTORE PUSH1 0x4 ADD PUSH2 0x256 SWAP1 PUSH2 0xFF3 JUMP JUMPDEST PUSH1 0x40 MLOAD DUP1 SWAP2 SUB SWAP1 REVERT JUMPDEST PUSH0 DUP3 GT PUSH2 0x2A1 JUMPI PUSH1 0x40 MLOAD PUSH32 0x8C379A000000000000000000000000000000000000000000000000000000000 DUP2 MSTORE PUSH1 0x4 ADD PUSH2 0x298 SWAP1 PUSH2 0x105B JUMP JUMPDEST PUSH1 0x40 MLOAD DUP1 SWAP2 SUB SWAP1 REVERT JUMPDEST DUP2 SELFBALANCE LT ISZERO PUSH2 0x2E4 JUMPI PUSH1 0x40 MLOAD PUSH32 0x8C379A000000000000000000000000000000000000000000000000000000000 DUP2 MSTORE PUSH1 0x4 ADD PUSH2 0x2DB SWAP1 PUSH2 0x105B JUMP JUMPDEST PUSH1 0x40 MLOAD DUP1 SWAP2 SUB SWAP1 REVERT JUMPDEST PUSH0 PUSH1 0x2 PUSH8 0xFFFFFFFFFFFFFFFF DUP2 GT ISZERO PUSH2 0x300 JUMPI PUSH2 0x2FF PUSH2 0x1079 JUMP JUMPDEST JUMPDEST PUSH1 0x40 MLOAD SWAP1 DUP1 DUP3 MSTORE DUP1 PUSH1 0x20 MUL PUSH1 0x20 ADD DUP3 ADD PUSH1 0x40 MSTORE DUP1 ISZERO PUSH2 0x32E JUMPI DUP2 PUSH1 0x20 ADD PUSH1 0x20 DUP3 MUL DUP1 CALLDATASIZE DUP4 CALLDATACOPY DUP1 DUP3 ADD SWAP2 POP POP SWAP1 POP JUMPDEST POP SWAP1 POP PUSH32 0x0 PUSH20 0xFFFFFFFFFFFFFFFFFFFFFFFFFFFFFFFFFFFFFFFF AND PUSH4 0xAD5C4648 PUSH1 0x40 MLOAD DUP2 PUSH4 0xFFFFFFFF AND PUSH1 0xE0 SHL DUP2 MSTORE PUSH1 0x4 ADD PUSH1 0x20 PUSH1 0x40 MLOAD DUP1 DUP4 SUB DUP2 DUP7 GAS STATICCALL ISZERO DUP1 ISZERO PUSH2 0x39A JUMPI RETURNDATASIZE PUSH0 PUSH0 RETURNDATACOPY RETURNDATASIZE PUSH0 REVERT JUMPDEST POP POP POP POP PUSH1 0x40 MLOAD RETURNDATASIZE PUSH1 0x1F NOT PUSH1 0x1F DUP3 ADD AND DUP3 ADD DUP1 PUSH1 0x40 MSTORE POP DUP2 ADD SWAP1 PUSH2 0x3BE SWAP2 SWAP1 PUSH2 0x10BA JUMP JUMPDEST DUP2 PUSH0 DUP2 MLOAD DUP2 LT PUSH2 0x3D1 JUMPI PUSH2 0x3D0 PUSH2 0x10E5 JUMP JUMPDEST JUMPDEST PUSH1 0x20 MUL PUSH1 0x20 ADD ADD SWAP1 PUSH20 0xFFFFFFFFFFFFFFFFFFFFFFFFFFFFFFFFFFFFFFFF AND SWAP1 DUP2 PUSH20 0xFFFFFFFFFFFFFFFFFFFFFFFFFFFFFFFFFFFFFFFF AND DUP2 MSTORE POP POP PUSH32 0x0 DUP2 PUSH1 0x1 DUP2 MLOAD DUP2 LT PUSH2 0x440 JUMPI PUSH2 0x43F PUSH2 0x10E5 JUMP JUMPDEST JUMPDEST PUSH1 0x20 MUL PUSH1 0x20 ADD ADD SWAP1 PUSH20 0xFFFFFFFFFFFFFFFFFFFFFFFFFFFFFFFFFFFFFFFF AND SWAP1 DUP2 PUSH20 0xFFFFFFFFFFFFFFFFFFFFFFFFFFFFFFFFFFFFFFFF AND DUP2 MSTORE POP POP PUSH0 PUSH32 0x0 PUSH20 0xFFFFFFFFFFFFFFFFFFFFFFFFFFFFFFFFFFFFFFFF AND PUSH4 0x7FF36AB5 DUP6 DUP6 DUP6 ADDRESS PUSH1 0x3C TIMESTAMP PUSH2 0x4C8 SWAP2 SWAP1 PUSH2 0x113F JUMP JUMPDEST PUSH1 0x40 MLOAD DUP7 PUSH4 0xFFFFFFFF AND PUSH1 0xE0 SHL DUP2 MSTORE PUSH1 0x4 ADD PUSH2 0x4E7 SWAP5 SWAP4 SWAP3 SWAP2 SWAP1 PUSH2 0x1229 JUMP JUMPDEST PUSH0 PUSH1 0x40 MLOAD DUP1 DUP4 SUB DUP2 DUP6 DUP9 GAS CALL ISZERO DUP1 ISZERO PUSH2 0x502 JUMPI RETURNDATASIZE PUSH0 PUSH0 RETURNDATACOPY RETURNDATASIZE PUSH0 REVERT JUMPDEST POP POP POP POP POP PUSH1 0x40 MLOAD RETURNDATASIZE PUSH0 DUP3 RETURNDATACOPY RETURNDATASIZE PUSH1 0x1F NOT PUSH1 0x1F DUP3 ADD AND DUP3 ADD DUP1 PUSH1 0x40 MSTORE POP DUP2 ADD SWAP1 PUSH2 0x52B SWAP2 SWAP1 PUSH2 0x13AA JUMP JUMPDEST SWAP1 POP PUSH32 0xCEE23D1F117220EDB4CB718A7BBB402A5213B9E17C5E1505FC3A4E410DEB4A60 PUSH0 DUP6 DUP4 PUSH1 0x1 DUP2 MLOAD DUP2 LT PUSH2 0x564 JUMPI PUSH2 0x563 PUSH2 0x10E5 JUMP JUMPDEST JUMPDEST PUSH1 0x20 MUL PUSH1 0x20 ADD ADD MLOAD PUSH1 0x40 MLOAD PUSH2 0x57B SWAP4 SWAP3 SWAP2 SWAP1 PUSH2 0x1436 JUMP JUMPDEST PUSH1 0x40 MLOAD DUP1 SWAP2 SUB SWAP1 LOG1 POP POP POP POP JUMP JUMPDEST PUSH32 0x0 DUP2 JUMP JUMPDEST PUSH1 0x3C DUP2 JUMP JUMPDEST PUSH32 0x0 PUSH20 0xFFFFFFFFFFFFFFFFFFFFFFFFFFFFFFFFFFFFFFFF AND CALLER PUSH20 0xFFFFFFFFFFFFFFFFFFFFFFFFFFFFFFFFFFFFFFFF AND EQ PUSH2 0x640 JUMPI PUSH1 0x40 MLOAD PUSH32 0x8C379A000000000000000000000000000000000000000000000000000000000 DUP2 MSTORE PUSH1 0x4 ADD PUSH2 0x637 SWAP1 PUSH2 0xFF3 JUMP JUMPDEST PUSH1 0x40 MLOAD DUP1 SWAP2 SUB SWAP1 REVERT JUMPDEST DUP2 PUSH20 0xFFFFFFFFFFFFFFFFFFFFFFFFFFFFFFFFFFFFFFFF AND PUSH4 0xA9059CBB PUSH32 0x0 DUP4 PUSH1 0x40 MLOAD DUP4 PUSH4 0xFFFFFFFF AND PUSH1 0xE0 SHL DUP2 MSTORE PUSH1 0x4 ADD PUSH2 0x69B SWAP3 SWAP2 SWAP1 PUSH2 0x146B JUMP JUMPDEST PUSH1 0x20 PUSH1 0x40 MLOAD DUP1 DUP4 SUB DUP2 PUSH0 DUP8 GAS CALL ISZERO DUP1 ISZERO PUSH2 0x6B7 JUMPI RETURNDATASIZE PUSH0 PUSH0 RETURNDATACOPY RETURNDATASIZE PUSH0 REVERT JUMPDEST POP POP POP POP PUSH1 0x40 MLOAD RETURNDATASIZE PUSH1 0x1F NOT PUSH1 0x1F DUP3 ADD AND DUP3 ADD DUP1 PUSH1 0x40 MSTORE POP DUP2 ADD SWAP1 PUSH2 0x6DB SWAP2 SWAP1 PUSH2 0x14C7 JUMP JUMPDEST POP POP POP JUMP JUMPDEST PUSH32 0x0 DUP2 JUMP JUMPDEST PUSH32 0x0 PUSH20 0xFFFFFFFFFFFFFFFFFFFFFFFFFFFFFFFFFFFFFFFF AND CALLER PUSH20 0xFFFFFFFFFFFFFFFFFFFFFFFFFFFFFFFFFFFFFFFF AND EQ PUSH2 0x792 JUMPI PUSH1 0x40 MLOAD PUSH32 0x8C379A000000000000000000000000000000000000000000000000000000000 DUP2 MSTORE PUSH1 0x4 ADD PUSH2 0x789 SWAP1 PUSH2 0xFF3 JUMP JUMPDEST PUSH1 0x40 MLOAD DUP1 SWAP2 SUB SWAP1 REVERT JUMPDEST PUSH0 DUP3 GT PUSH2 0x7D4 JUMPI PUSH1 0x40 MLOAD PUSH32 0x8C379A000000000000000000000000000000000000000000000000000000000 DUP2 MSTORE PUSH1 0x4 ADD PUSH2 0x7CB SWAP1 PUSH2 0x105B JUMP JUMPDEST PUSH1 0x40 MLOAD DUP1 SWAP2 SUB SWAP1 REVERT JUMPDEST DUP2 PUSH32 0x0 PUSH20 0xFFFFFFFFFFFFFFFFFFFFFFFFFFFFFFFFFFFFFFFF AND PUSH4 0x70A08231 ADDRESS PUSH1 0x40 MLOAD DUP3 PUSH4 0xFFFFFFFF AND PUSH1 0xE0 SHL DUP2 MSTORE PUSH1 0x4 ADD PUSH2 0x82E SWAP2 SWAP1 PUSH2 0xF1C JUMP JUMPDEST PUSH1 0x20 PUSH1 0x40 MLOAD DUP1 DUP4 SUB DUP2 DUP7 GAS STATICCALL ISZERO DUP1 ISZERO PUSH2 0x849 JUMPI RETURNDATASIZE PUSH0 PUSH0 RETURNDATACOPY RETURNDATASIZE PUSH0 REVERT JUMPDEST POP POP POP POP PUSH1 0x40 MLOAD RETURNDATASIZE PUSH1 0x1F NOT PUSH1 0x1F DUP3 ADD AND DUP3 ADD DUP1 PUSH1 0x40 MSTORE POP DUP2 ADD SWAP1 PUSH2 0x86D SWAP2 SWAP1 PUSH2 0x14F2 JUMP JUMPDEST LT ISZERO PUSH2 0x8AE JUMPI PUSH1 0x40 MLOAD PUSH32 0x8C379A000000000000000000000000000000000000000000000000000000000 DUP2 MSTORE PUSH1 0x4 ADD PUSH2 0x8A5 SWAP1 PUSH2 0x105B JUMP JUMPDEST PUSH1 0x40 MLOAD DUP1 SWAP2 SUB SWAP1 REVERT JUMPDEST PUSH0 PUSH1 0x2 PUSH8 0xFFFFFFFFFFFFFFFF DUP2 GT ISZERO PUSH2 0x8CA JUMPI PUSH2 0x8C9 PUSH2 0x1079 JUMP JUMPDEST JUMPDEST PUSH1 0x40 MLOAD SWAP1 DUP1 DUP3 MSTORE DUP1 PUSH1 0x20 MUL PUSH1 0x20 ADD DUP3 ADD PUSH1 0x40 MSTORE DUP1 ISZERO PUSH2 0x8F8 JUMPI DUP2 PUSH1 0x20 ADD PUSH1 0x20 DUP3 MUL DUP1 CALLDATASIZE DUP4 CALLDATACOPY DUP1 DUP3 ADD SWAP2 POP POP SWAP1 POP JUMPDEST POP SWAP1 POP PUSH32 0x0 DUP2 PUSH0 DUP2 MLOAD DUP2 LT PUSH2 0x92F JUMPI PUSH2 0x92E PUSH2 0x10E5 JUMP JUMPDEST JUMPDEST PUSH1 0x20 MUL PUSH1 0x20 ADD ADD SWAP1 PUSH20 0xFFFFFFFFFFFFFFFFFFFFFFFFFFFFFFFFFFFFFFFF AND SWAP1 DUP2 PUSH20 0xFFFFFFFFFFFFFFFFFFFFFFFFFFFFFFFFFFFFFFFF AND DUP2 MSTORE POP POP PUSH32 0x0 PUSH20 0xFFFFFFFFFFFFFFFFFFFFFFFFFFFFFFFFFFFFFFFF AND PUSH4 0xAD5C4648 PUSH1 0x40 MLOAD DUP2 PUSH4 0xFFFFFFFF AND PUSH1 0xE0 SHL DUP2 MSTORE PUSH1 0x4 ADD PUSH1 0x20 PUSH1 0x40 MLOAD DUP1 DUP4 SUB DUP2 DUP7 GAS STATICCALL ISZERO DUP1 ISZERO PUSH2 0x9D2 JUMPI RETURNDATASIZE PUSH0 PUSH0 RETURNDATACOPY RETURNDATASIZE PUSH0 REVERT JUMPDEST POP POP POP POP PUSH1 0x40 MLOAD RETURNDATASIZE PUSH1 0x1F NOT PUSH1 0x1F DUP3 ADD AND DUP3 ADD DUP1 PUSH1 0x40 MSTORE POP DUP2 ADD SWAP1 PUSH2 0x9F6 SWAP2 SWAP1 PUSH2 0x10BA JUMP JUMPDEST DUP2 PUSH1 0x1 DUP2 MLOAD DUP2 LT PUSH2 0xA0A JUMPI PUSH2 0xA09 PUSH2 0x10E5 JUMP JUMPDEST JUMPDEST PUSH1 0x20 MUL PUSH1 0x20 ADD ADD SWAP1 PUSH20 0xFFFFFFFFFFFFFFFFFFFFFFFFFFFFFFFFFFFFFFFF AND SWAP1 DUP2 PUSH20 0xFFFFFFFFFFFFFFFFFFFFFFFFFFFFFFFFFFFFFFFF AND DUP2 MSTORE POP POP PUSH0 PUSH32 0x0 PUSH20 0xFFFFFFFFFFFFFFFFFFFFFFFFFFFFFFFFFFFFFFFF AND PUSH4 0x18CBAFE5 DUP6 DUP6 DUP6 ADDRESS PUSH1 0x3C TIMESTAMP PUSH2 0xA92 SWAP2 SWAP1 PUSH2 0x113F JUMP JUMPDEST PUSH1 0x40 MLOAD DUP7 PUSH4 0xFFFFFFFF AND PUSH1 0xE0 SHL DUP2 MSTORE PUSH1 0x4 ADD PUSH2 0xAB2 SWAP6 SWAP5 SWAP4 SWAP3 SWAP2 SWAP1 PUSH2 0x151D JUMP JUMPDEST PUSH0 PUSH1 0x40 MLOAD DUP1 DUP4 SUB DUP2 PUSH0 DUP8 GAS CALL ISZERO DUP1 ISZERO PUSH2 0xACD JUMPI RETURNDATASIZE PUSH0 PUSH0 RETURNDATACOPY RETURNDATASIZE PUSH0 REVERT JUMPDEST POP POP POP POP PUSH1 0x40 MLOAD RETURNDATASIZE PUSH0 DUP3 RETURNDATACOPY RETURNDATASIZE PUSH1 0x1F NOT PUSH1 0x1F DUP3 ADD AND DUP3 ADD DUP1 PUSH1 0x40 MSTORE POP DUP2 ADD SWAP1 PUSH2 0xAF5 SWAP2 SWAP1 PUSH2 0x13AA JUMP JUMPDEST SWAP1 POP PUSH32 0xCEE23D1F117220EDB4CB718A7BBB402A5213B9E17C5E1505FC3A4E410DEB4A60 PUSH1 0x1 DUP6 DUP4 PUSH1 0x1 DUP2 MLOAD DUP2 LT PUSH2 0xB2F JUMPI PUSH2 0xB2E PUSH2 0x10E5 JUMP JUMPDEST JUMPDEST PUSH1 0x20 MUL PUSH1 0x20 ADD ADD MLOAD PUSH1 0x40 MLOAD PUSH2 0xB46 SWAP4 SWAP3 SWAP2 SWAP1 PUSH2 0x15AE JUMP JUMPDEST PUSH1 0x40 MLOAD DUP1 SWAP2 SUB SWAP1 LOG1 POP POP POP POP JUMP JUMPDEST PUSH32 0x0 PUSH20 0xFFFFFFFFFFFFFFFFFFFFFFFFFFFFFFFFFFFFFFFF AND CALLER PUSH20 0xFFFFFFFFFFFFFFFFFFFFFFFFFFFFFFFFFFFFFFFF AND EQ PUSH2 0xBE2 JUMPI PUSH1 0x40 MLOAD PUSH32 0x8C379A000000000000000000000000000000000000000000000000000000000 DUP2 MSTORE PUSH1 0x4 ADD PUSH2 0xBD9 SWAP1 PUSH2 0xFF3 JUMP JUMPDEST PUSH1 0x40 MLOAD DUP1 SWAP2 SUB SWAP1 REVERT JUMPDEST PUSH0 DUP2 GT PUSH2 0xC24 JUMPI PUSH1 0x40 MLOAD PUSH32 0x8C379A000000000000000000000000000000000000000000000000000000000 DUP2 MSTORE PUSH1 0x4 ADD PUSH2 0xC1B SWAP1 PUSH2 0x162D JUMP JUMPDEST PUSH1 0x40 MLOAD DUP1 SWAP2 SUB SWAP1 REVERT JUMPDEST DUP1 SELFBALANCE LT ISZERO PUSH2 0xC67 JUMPI PUSH1 0x40 MLOAD PUSH32 0x8C379A000000000000000000000000000000000000000000000000000000000 DUP2 MSTORE PUSH1 0x4 ADD PUSH2 0xC5E SWAP1 PUSH2 0x1695 JUMP JUMPDEST PUSH1 0x40 MLOAD DUP1 SWAP2 SUB SWAP1 REVERT JUMPDEST PUSH0 PUSH32 0x0 PUSH20 0xFFFFFFFFFFFFFFFFFFFFFFFFFFFFFFFFFFFFFFFF AND DUP3 PUSH1 0x40 MLOAD PUSH2 0xCAC SWAP1 PUSH2 0x16E0 JUMP JUMPDEST PUSH0 PUSH1 0x40 MLOAD DUP1 DUP4 SUB DUP2 DUP6 DUP8 GAS CALL SWAP3 POP POP POP RETURNDATASIZE DUP1 PUSH0 DUP2 EQ PUSH2 0xCE6 JUMPI PUSH1 0x40 MLOAD SWAP2 POP PUSH1 0x1F NOT PUSH1 0x3F RETURNDATASIZE ADD AND DUP3 ADD PUSH1 0x40 MSTORE RETURNDATASIZE DUP3 MSTORE RETURNDATASIZE PUSH0 PUSH1 0x20 DUP5 ADD RETURNDATACOPY PUSH2 0xCEB JUMP JUMPDEST PUSH1 0x60 SWAP2 POP JUMPDEST POP POP SWAP1 POP DUP1 PUSH2 0xD2F JUMPI PUSH1 0x40 MLOAD PUSH32 0x8C379A000000000000000000000000000000000000000000000000000000000 DUP2 MSTORE PUSH1 0x4 ADD PUSH2 0xD26 SWAP1 PUSH2 0x173E JUMP JUMPDEST PUSH1 0x40 MLOAD DUP1 SWAP2 SUB SWAP1 REVERT JUMPDEST POP POP JUMP JUMPDEST PUSH32 0x0 DUP2 JUMP JUMPDEST PUSH0 PUSH1 0x40 MLOAD SWAP1 POP SWAP1 JUMP JUMPDEST PUSH0 PUSH0 REVERT JUMPDEST PUSH0 PUSH0 REVERT JUMPDEST PUSH0 DUP2 SWAP1 POP SWAP2 SWAP1 POP JUMP JUMPDEST PUSH2 0xD7A DUP2 PUSH2 0xD68 JUMP JUMPDEST DUP2 EQ PUSH2 0xD84 JUMPI PUSH0 PUSH0 REVERT JUMPDEST POP JUMP JUMPDEST PUSH0 DUP2 CALLDATALOAD SWAP1 POP PUSH2 0xD95 DUP2 PUSH2 0xD71 JUMP JUMPDEST SWAP3 SWAP2 POP POP JUMP JUMPDEST PUSH0 PUSH0 PUSH1 0x40 DUP4 DUP6 SUB SLT ISZERO PUSH2 0xDB1 JUMPI PUSH2 0xDB0 PUSH2 0xD60 JUMP JUMPDEST JUMPDEST PUSH0 PUSH2 0xDBE DUP6 DUP3 DUP7 ADD PUSH2 0xD87 JUMP JUMPDEST SWAP3 POP POP PUSH1 0x20 PUSH2 0xDCF DUP6 DUP3 DUP7 ADD PUSH2 0xD87 JUMP JUMPDEST SWAP2 POP POP SWAP3 POP SWAP3 SWAP1 POP JUMP JUMPDEST PUSH0 PUSH20 0xFFFFFFFFFFFFFFFFFFFFFFFFFFFFFFFFFFFFFFFF DUP3 AND SWAP1 POP SWAP2 SWAP1 POP JUMP JUMPDEST PUSH0 DUP2 SWAP1 POP SWAP2 SWAP1 POP JUMP JUMPDEST PUSH0 PUSH2 0xE1B PUSH2 0xE16 PUSH2 0xE11 DUP5 PUSH2 0xDD9 JUMP JUMPDEST PUSH2 0xDF8 JUMP JUMPDEST PUSH2 0xDD9 JUMP JUMPDEST SWAP1 POP SWAP2 SWAP1 POP JUMP JUMPDEST PUSH0 PUSH2 0xE2C DUP3 PUSH2 0xE01 JUMP JUMPDEST SWAP1 POP SWAP2 SWAP1 POP JUMP JUMPDEST PUSH0 PUSH2 0xE3D DUP3 PUSH2 0xE22 JUMP JUMPDEST SWAP1 POP SWAP2 SWAP1 POP JUMP JUMPDEST PUSH2 0xE4D DUP2 PUSH2 0xE33 JUMP JUMPDEST DUP3 MSTORE POP POP JUMP JUMPDEST PUSH0 PUSH1 0x20 DUP3 ADD SWAP1 POP PUSH2 0xE66 PUSH0 DUP4 ADD DUP5 PUSH2 0xE44 JUMP JUMPDEST SWAP3 SWAP2 POP POP JUMP JUMPDEST PUSH2 0xE75 DUP2 PUSH2 0xD68 JUMP JUMPDEST DUP3 MSTORE POP POP JUMP JUMPDEST PUSH0 PUSH1 0x20 DUP3 ADD SWAP1 POP PUSH2 0xE8E PUSH0 DUP4 ADD DUP5 PUSH2 0xE6C JUMP JUMPDEST SWAP3 SWAP2 POP POP JUMP JUMPDEST PUSH0 PUSH2 0xE9E DUP3 PUSH2 0xDD9 JUMP JUMPDEST SWAP1 POP SWAP2 SWAP1 POP JUMP JUMPDEST PUSH2 0xEAE DUP2 PUSH2 0xE94 JUMP JUMPDEST DUP2 EQ PUSH2 0xEB8 JUMPI PUSH0 PUSH0 REVERT JUMPDEST POP JUMP JUMPDEST PUSH0 DUP2 CALLDATALOAD SWAP1 POP PUSH2 0xEC9 DUP2 PUSH2 0xEA5 JUMP JUMPDEST SWAP3 SWAP2 POP POP JUMP JUMPDEST PUSH0 PUSH0 PUSH1 0x40 DUP4 DUP6 SUB SLT ISZERO PUSH2 0xEE5 JUMPI PUSH2 0xEE4 PUSH2 0xD60 JUMP JUMPDEST JUMPDEST PUSH0 PUSH2 0xEF2 DUP6 DUP3 DUP7 ADD PUSH2 0xEBB JUMP JUMPDEST SWAP3 POP POP PUSH1 0x20 PUSH2 0xF03 DUP6 DUP3 DUP7 ADD PUSH2 0xD87 JUMP JUMPDEST SWAP2 POP POP SWAP3 POP SWAP3 SWAP1 POP JUMP JUMPDEST PUSH2 0xF16 DUP2 PUSH2 0xE94 JUMP JUMPDEST DUP3 MSTORE POP POP JUMP JUMPDEST PUSH0 PUSH1 0x20 DUP3 ADD SWAP1 POP PUSH2 0xF2F PUSH0 DUP4 ADD DUP5 PUSH2 0xF0D JUMP JUMPDEST SWAP3 SWAP2 POP POP JUMP JUMPDEST PUSH0 PUSH1 0x20 DUP3 DUP5 SUB SLT ISZERO PUSH2 0xF4A JUMPI PUSH2 0xF49 PUSH2 0xD60 JUMP JUMPDEST JUMPDEST PUSH0 PUSH2 0xF57 DUP5 DUP3 DUP6 ADD PUSH2 0xD87 JUMP JUMPDEST SWAP2 POP POP SWAP3 SWAP2 POP POP JUMP JUMPDEST PUSH0 PUSH2 0xF6A DUP3 PUSH2 0xE22 JUMP JUMPDEST SWAP1 POP SWAP2 SWAP1 POP JUMP JUMPDEST PUSH2 0xF7A DUP2 PUSH2 0xF60 JUMP JUMPDEST DUP3 MSTORE POP POP JUMP JUMPDEST PUSH0 PUSH1 0x20 DUP3 ADD SWAP1 POP PUSH2 0xF93 PUSH0 DUP4 ADD DUP5 PUSH2 0xF71 JUMP JUMPDEST SWAP3 SWAP2 POP POP JUMP JUMPDEST PUSH0 DUP3 DUP3 MSTORE PUSH1 0x20 DUP3 ADD SWAP1 POP SWAP3 SWAP2 POP POP JUMP JUMPDEST PUSH32 0x6E6F74206F776E65720000000000000000000000000000000000000000000000 PUSH0 DUP3 ADD MSTORE POP JUMP JUMPDEST PUSH0 PUSH2 0xFDD PUSH1 0x9 DUP4 PUSH2 0xF99 JUMP JUMPDEST SWAP2 POP PUSH2 0xFE8 DUP3 PUSH2 0xFA9 JUMP JUMPDEST PUSH1 0x20 DUP3 ADD SWAP1 POP SWAP2 SWAP1 POP JUMP JUMPDEST PUSH0 PUSH1 0x20 DUP3 ADD SWAP1 POP DUP2 DUP2 SUB PUSH0 DUP4 ADD MSTORE PUSH2 0x100A DUP2 PUSH2 0xFD1 JUMP JUMPDEST SWAP1 POP SWAP2 SWAP1 POP JUMP JUMPDEST PUSH32 0x3000000000000000000000000000000000000000000000000000000000000000 PUSH0 DUP3 ADD MSTORE POP JUMP JUMPDEST PUSH0 PUSH2 0x1045 PUSH1 0x1 DUP4 PUSH2 0xF99 JUMP JUMPDEST SWAP2 POP PUSH2 0x1050 DUP3 PUSH2 0x1011 JUMP JUMPDEST PUSH1 0x20 DUP3 ADD SWAP1 POP SWAP2 SWAP1 POP JUMP JUMPDEST PUSH0 PUSH1 0x20 DUP3 ADD SWAP1 POP DUP2 DUP2 SUB PUSH0 DUP4 ADD MSTORE PUSH2 0x1072 DUP2 PUSH2 0x1039 JUMP JUMPDEST SWAP1 POP SWAP2 SWAP1 POP JUMP JUMPDEST PUSH32 0x4E487B7100000000000000000000000000000000000000000000000000000000 PUSH0 MSTORE PUSH1 0x41 PUSH1 0x4 MSTORE PUSH1 0x24 PUSH0 REVERT JUMPDEST PUSH0 DUP2 MLOAD SWAP1 POP PUSH2 0x10B4 DUP2 PUSH2 0xEA5 JUMP JUMPDEST SWAP3 SWAP2 POP POP JUMP JUMPDEST PUSH0 PUSH1 0x20 DUP3 DUP5 SUB SLT ISZERO PUSH2 0x10CF JUMPI PUSH2 0x10CE PUSH2 0xD60 JUMP JUMPDEST JUMPDEST PUSH0 PUSH2 0x10DC DUP5 DUP3 DUP6 ADD PUSH2 0x10A6 JUMP JUMPDEST SWAP2 POP POP SWAP3 SWAP2 POP POP JUMP JUMPDEST PUSH32 0x4E487B7100000000000000000000000000000000000000000000000000000000 PUSH0 MSTORE PUSH1 0x32 PUSH1 0x4 MSTORE PUSH1 0x24 PUSH0 REVERT JUMPDEST PUSH32 0x4E487B7100000000000000000000000000000000000000000000000000000000 PUSH0 MSTORE PUSH1 0x11 PUSH1 0x4 MSTORE PUSH1 0x24 PUSH0 REVERT JUMPDEST PUSH0 PUSH2 0x1149 DUP3 PUSH2 0xD68 JUMP JUMPDEST SWAP2 POP PUSH2 0x1154 DUP4 PUSH2 0xD68 JUMP JUMPDEST SWAP3 POP DUP3 DUP3 ADD SWAP1 POP DUP1 DUP3 GT ISZERO PUSH2 0x116C JUMPI PUSH2 0x116B PUSH2 0x1112 JUMP JUMPDEST JUMPDEST SWAP3 SWAP2 POP POP JUMP JUMPDEST PUSH0 DUP2 MLOAD SWAP1 POP SWAP2 SWAP1 POP JUMP JUMPDEST PUSH0 DUP3 DUP3 MSTORE PUSH1 0x20 DUP3 ADD SWAP1 POP SWAP3 SWAP2 POP POP JUMP JUMPDEST PUSH0 DUP2 SWAP1 POP PUSH1 0x20 DUP3 ADD SWAP1 POP SWAP2 SWAP1 POP JUMP JUMPDEST PUSH2 0x11A4 DUP2 PUSH2 0xE94 JUMP JUMPDEST DUP3 MSTORE POP POP JUMP JUMPDEST PUSH0 PUSH2 0x11B5 DUP4 DUP4 PUSH2 0x119B JUMP JUMPDEST PUSH1 0x20 DUP4 ADD SWAP1 POP SWAP3 SWAP2 POP POP JUMP JUMPDEST PUSH0 PUSH1 0x20 DUP3 ADD SWAP1 POP SWAP2 SWAP1 POP JUMP JUMPDEST PUSH0 PUSH2 0x11D7 DUP3 PUSH2 0x1172 JUMP JUMPDEST PUSH2 0x11E1 DUP2 DUP6 PUSH2 0x117C JUMP JUMPDEST SWAP4 POP PUSH2 0x11EC DUP4 PUSH2 0x118C JUMP JUMPDEST DUP1 PUSH0 JUMPDEST DUP4 DUP2 LT ISZERO PUSH2 0x121C JUMPI DUP2 MLOAD PUSH2 0x1203 DUP9 DUP3 PUSH2 0x11AA JUMP JUMPDEST SWAP8 POP PUSH2 0x120E DUP4 PUSH2 0x11C1 JUMP JUMPDEST SWAP3 POP POP PUSH1 0x1 DUP2 ADD SWAP1 POP PUSH2 0x11EF JUMP JUMPDEST POP DUP6 SWAP4 POP POP POP POP SWAP3 SWAP2 POP POP JUMP JUMPDEST PUSH0 PUSH1 0x80 DUP3 ADD SWAP1 POP PUSH2 0x123C PUSH0 DUP4 ADD DUP8 PUSH2 0xE6C JUMP JUMPDEST DUP2 DUP2 SUB PUSH1 0x20 DUP4 ADD MSTORE PUSH2 0x124E DUP2 DUP7 PUSH2 0x11CD JUMP JUMPDEST SWAP1 POP PUSH2 0x125D PUSH1 0x40 DUP4 ADD DUP6 PUSH2 0xF0D JUMP JUMPDEST PUSH2 0x126A PUSH1 0x60 DUP4 ADD DUP5 PUSH2 0xE6C JUMP JUMPDEST SWAP6 SWAP5 POP POP POP POP POP JUMP JUMPDEST PUSH0 PUSH0 REVERT JUMPDEST PUSH0 PUSH1 0x1F NOT PUSH1 0x1F DUP4 ADD AND SWAP1 POP SWAP2 SWAP1 POP JUMP JUMPDEST PUSH2 0x1290 DUP3 PUSH2 0x1277 JUMP JUMPDEST DUP2 ADD DUP2 DUP2 LT PUSH8 0xFFFFFFFFFFFFFFFF DUP3 GT OR ISZERO PUSH2 0x12AF JUMPI PUSH2 0x12AE PUSH2 0x1079 JUMP JUMPDEST JUMPDEST DUP1 PUSH1 0x40 MSTORE POP POP POP JUMP JUMPDEST PUSH0 PUSH2 0x12C1 PUSH2 0xD57 JUMP JUMPDEST SWAP1 POP PUSH2 0x12CD DUP3 DUP3 PUSH2 0x1287 JUMP JUMPDEST SWAP2 SWAP1 POP JUMP JUMPDEST PUSH0 PUSH8 0xFFFFFFFFFFFFFFFF DUP3 GT ISZERO PUSH2 0x12EC JUMPI PUSH2 0x12EB PUSH2 0x1079 JUMP JUMPDEST JUMPDEST PUSH1 0x20 DUP3 MUL SWAP1 POP PUSH1 0x20 DUP2 ADD SWAP1 POP SWAP2 SWAP1 POP JUMP JUMPDEST PUSH0 PUSH0 REVERT JUMPDEST PUSH0 DUP2 MLOAD SWAP1 POP PUSH2 0x130F DUP2 PUSH2 0xD71 JUMP JUMPDEST SWAP3 SWAP2 POP POP JUMP JUMPDEST PUSH0 PUSH2 0x1327 PUSH2 0x1322 DUP5 PUSH2 0x12D2 JUMP JUMPDEST PUSH2 0x12B8 JUMP JUMPDEST SWAP1 POP DUP1 DUP4 DUP3 MSTORE PUSH1 0x20 DUP3 ADD SWAP1 POP PUSH1 0x20 DUP5 MUL DUP4 ADD DUP6 DUP2 GT ISZERO PUSH2 0x134A JUMPI PUSH2 0x1349 PUSH2 0x12FD JUMP JUMPDEST JUMPDEST DUP4 JUMPDEST DUP2 DUP2 LT ISZERO PUSH2 0x1373 JUMPI DUP1 PUSH2 0x135F DUP9 DUP3 PUSH2 0x1301 JUMP JUMPDEST DUP5 MSTORE PUSH1 0x20 DUP5 ADD SWAP4 POP POP PUSH1 0x20 DUP2 ADD SWAP1 POP PUSH2 0x134C JUMP JUMPDEST POP POP POP SWAP4 SWAP3 POP POP POP JUMP JUMPDEST PUSH0 DUP3 PUSH1 0x1F DUP4 ADD SLT PUSH2 0x1391 JUMPI PUSH2 0x1390 PUSH2 0x1273 JUMP JUMPDEST JUMPDEST DUP2 MLOAD PUSH2 0x13A1 DUP5 DUP3 PUSH1 0x20 DUP7 ADD PUSH2 0x1315 JUMP JUMPDEST SWAP2 POP POP SWAP3 SWAP2 POP POP JUMP JUMPDEST PUSH0 PUSH1 0x20 DUP3 DUP5 SUB SLT ISZERO PUSH2 0x13BF JUMPI PUSH2 0x13BE PUSH2 0xD60 JUMP JUMPDEST JUMPDEST PUSH0 DUP3 ADD MLOAD PUSH8 0xFFFFFFFFFFFFFFFF DUP2 GT ISZERO PUSH2 0x13DC JUMPI PUSH2 0x13DB PUSH2 0xD64 JUMP JUMPDEST JUMPDEST PUSH2 0x13E8 DUP5 DUP3 DUP6 ADD PUSH2 0x137D JUMP JUMPDEST SWAP2 POP POP SWAP3 SWAP2 POP POP JUMP JUMPDEST PUSH0 DUP2 SWAP1 POP SWAP2 SWAP1 POP JUMP JUMPDEST PUSH0 PUSH1 0xFF DUP3 AND SWAP1 POP SWAP2 SWAP1 POP JUMP JUMPDEST PUSH0 PUSH2 0x1420 PUSH2 0x141B PUSH2 0x1416 DUP5 PUSH2 0x13F1 JUMP JUMPDEST PUSH2 0xDF8 JUMP JUMPDEST PUSH2 0x13FA JUMP JUMPDEST SWAP1 POP SWAP2 SWAP1 POP JUMP JUMPDEST PUSH2 0x1430 DUP2 PUSH2 0x1406 JUMP JUMPDEST DUP3 MSTORE POP POP JUMP JUMPDEST PUSH0 PUSH1 0x60 DUP3 ADD SWAP1 POP PUSH2 0x1449 PUSH0 DUP4 ADD DUP7 PUSH2 0x1427 JUMP JUMPDEST PUSH2 0x1456 PUSH1 0x20 DUP4 ADD DUP6 PUSH2 0xE6C JUMP JUMPDEST PUSH2 0x1463 PUSH1 0x40 DUP4 ADD DUP5 PUSH2 0xE6C JUMP JUMPDEST SWAP5 SWAP4 POP POP POP POP JUMP JUMPDEST PUSH0 PUSH1 0x40 DUP3 ADD SWAP1 POP PUSH2 0x147E PUSH0 DUP4 ADD DUP6 PUSH2 0xF0D JUMP JUMPDEST PUSH2 0x148B PUSH1 0x20 DUP4 ADD DUP5 PUSH2 0xE6C JUMP JUMPDEST SWAP4 SWAP3 POP POP POP JUMP JUMPDEST PUSH0 DUP2 ISZERO ISZERO SWAP1 POP SWAP2 SWAP1 POP JUMP JUMPDEST PUSH2 0x14A6 DUP2 PUSH2 0x1492 JUMP JUMPDEST DUP2 EQ PUSH2 0x14B0 JUMPI PUSH0 PUSH0 REVERT JUMPDEST POP JUMP JUMPDEST PUSH0 DUP2 MLOAD SWAP1 POP PUSH2 0x14C1 DUP2 PUSH2 0x149D JUMP JUMPDEST SWAP3 SWAP2 POP POP JUMP JUMPDEST PUSH0 PUSH1 0x20 DUP3 DUP5 SUB SLT ISZERO PUSH2 0x14DC JUMPI PUSH2 0x14DB PUSH2 0xD60 JUMP JUMPDEST JUMPDEST PUSH0 PUSH2 0x14E9 DUP5 DUP3 DUP6 ADD PUSH2 0x14B3 JUMP JUMPDEST SWAP2 POP POP SWAP3 SWAP2 POP POP JUMP JUMPDEST PUSH0 PUSH1 0x20 DUP3 DUP5 SUB SLT ISZERO PUSH2 0x1507 JUMPI PUSH2 0x1506 PUSH2 0xD60 JUMP JUMPDEST JUMPDEST PUSH0 PUSH2 0x1514 DUP5 DUP3 DUP6 ADD PUSH2 0x1301 JUMP JUMPDEST SWAP2 POP POP SWAP3 SWAP2 POP POP JUMP JUMPDEST PUSH0 PUSH1 0xA0 DUP3 ADD SWAP1 POP PUSH2 0x1530 PUSH0 DUP4 ADD DUP9 PUSH2 0xE6C JUMP JUMPDEST PUSH2 0x153D PUSH1 0x20 DUP4 ADD DUP8 PUSH2 0xE6C JUMP JUMPDEST DUP2 DUP2 SUB PUSH1 0x40 DUP4 ADD MSTORE PUSH2 0x154F DUP2 DUP7 PUSH2 0x11CD JUMP JUMPDEST SWAP1 POP PUSH2 0x155E PUSH1 0x60 DUP4 ADD DUP6 PUSH2 0xF0D JUMP JUMPDEST PUSH2 0x156B PUSH1 0x80 DUP4 ADD DUP5 PUSH2 0xE6C JUMP JUMPDEST SWAP7 SWAP6 POP POP POP POP POP POP JUMP JUMPDEST PUSH0 DUP2 SWAP1 POP SWAP2 SWAP1 POP JUMP JUMPDEST PUSH0 PUSH2 0x1598 PUSH2 0x1593 PUSH2 0x158E DUP5 PUSH2 0x1575 JUMP JUMPDEST PUSH2 0xDF8 JUMP JUMPDEST PUSH2 0x13FA JUMP JUMPDEST SWAP1 POP SWAP2 SWAP1 POP JUMP JUMPDEST PUSH2 0x15A8 DUP2 PUSH2 0x157E JUMP JUMPDEST DUP3 MSTORE POP POP JUMP JUMPDEST PUSH0 PUSH1 0x60 DUP3 ADD SWAP1 POP PUSH2 0x15C1 PUSH0 DUP4 ADD DUP7 PUSH2 0x159F JUMP JUMPDEST PUSH2 0x15CE PUSH1 0x20 DUP4 ADD DUP6 PUSH2 0xE6C JUMP JUMPDEST PUSH2 0x15DB PUSH1 0x40 DUP4 ADD DUP5 PUSH2 0xE6C JUMP JUMPDEST SWAP5 SWAP4 POP POP POP POP JUMP JUMPDEST PUSH32 0x616D6F756E74203D203000000000000000000000000000000000000000000000 PUSH0 DUP3 ADD MSTORE POP JUMP JUMPDEST PUSH0 PUSH2 0x1617 PUSH1 0xA DUP4 PUSH2 0xF99 JUMP JUMPDEST SWAP2 POP PUSH2 0x1622 DUP3 PUSH2 0x15E3 JUMP JUMPDEST PUSH1 0x20 DUP3 ADD SWAP1 POP SWAP2 SWAP1 POP JUMP JUMPDEST PUSH0 PUSH1 0x20 DUP3 ADD SWAP1 POP DUP2 DUP2 SUB PUSH0 DUP4 ADD MSTORE PUSH2 0x1644 DUP2 PUSH2 0x160B JUMP JUMPDEST SWAP1 POP SWAP2 SWAP1 POP JUMP JUMPDEST PUSH32 0x6E6F2045544820656E6F75676800000000000000000000000000000000000000 PUSH0 DUP3 ADD MSTORE POP JUMP JUMPDEST PUSH0 PUSH2 0x167F PUSH1 0xD DUP4 PUSH2 0xF99 JUMP JUMPDEST SWAP2 POP PUSH2 0x168A DUP3 PUSH2 0x164B JUMP JUMPDEST PUSH1 0x20 DUP3 ADD SWAP1 POP SWAP2 SWAP1 POP JUMP JUMPDEST PUSH0 PUSH1 0x20 DUP3 ADD SWAP1 POP DUP2 DUP2 SUB PUSH0 DUP4 ADD MSTORE PUSH2 0x16AC DUP2 PUSH2 0x1673 JUMP JUMPDEST SWAP1 POP SWAP2 SWAP1 POP JUMP JUMPDEST PUSH0 DUP2 SWAP1 POP SWAP3 SWAP2 POP POP JUMP JUMPDEST POP JUMP JUMPDEST PUSH0 PUSH2 0x16CB PUSH0 DUP4 PUSH2 0x16B3 JUMP JUMPDEST SWAP2 POP PUSH2 0x16D6 DUP3 PUSH2 0x16BD JUMP JUMPDEST PUSH0 DUP3 ADD SWAP1 POP SWAP2 SWAP1 POP JUMP JUMPDEST PUSH0 PUSH2 0x16EA DUP3 PUSH2 0x16C0 JUMP JUMPDEST SWAP2 POP DUP2 SWAP1 POP SWAP2 SWAP1 POP JUMP JUMPDEST PUSH32 0x455448207472616E73666572206661696C656400000000000000000000000000 PUSH0 DUP3 ADD MSTORE POP JUMP JUMPDEST PUSH0 PUSH2 0x1728 PUSH1 0x13 DUP4 PUSH2 0xF99 JUMP JUMPDEST SWAP2 POP PUSH2 0x1733 DUP3 PUSH2 0x16F4 JUMP JUMPDEST PUSH1 0x20 DUP3 ADD SWAP1 POP SWAP2 SWAP1 POP JUMP JUMPDEST PUSH0 PUSH1 0x20 DUP3 ADD SWAP1 POP DUP2 DUP2 SUB PUSH0 DUP4 ADD MSTORE PUSH2 0x1755 DUP2 PUSH2 0x171C JUMP JUMPDEST SWAP1 POP SWAP2 SWAP1 POP JUMP INVALID LOG2 PUSH5 0x6970667358 0x22 SLT KECCAK256 DUP10 0xCA 0xDA RETURNDATACOPY 0xD3 0xC9 0xEA KECCAK256 SUB 0xDE RJUMP 0x6FA1 PUSH23 0xEF9863011EBBBFCE52AA0E72C2C3C28EE14364736F6C63 NUMBER STOP ADDMOD 0x1E STOP CALLER "
				},
				"gasEstimates": {
					"creation": {
						"codeDepositCost": "1206800",
						"executionCost": "infinite",
						"totalCost": "infinite"
					},
					"external": {
						"DEADLINE_OFFSET()": "370",
						"owner()": "infinite",
						"rescueERC20(address,uint256)": "infinite",
						"router()": "infinite",
						"swapETHToUSDC(uint256,uint256)": "infinite",
						"swapUSDCToETH(uint256,uint256)": "infinite",
						"usdc()": "infinite",
						"withdrawETH(uint256)": "infinite"
					}
				},
				"methodIdentifiers": {
					"DEADLINE_OFFSET()": "7c9aa53a",
					"owner()": "8da5cb5b",
					"rescueERC20(address,uint256)": "8cd4426d",
					"router()": "f887ea40",
					"swapETHToUSDC(uint256,uint256)": "37c0cb16",
					"swapUSDCToETH(uint256,uint256)": "8e0e155a",
					"usdc()": "3e413bee",
					"withdrawETH(uint256)": "f14210a6"
				}
			},
			"storageLayout": {
				"storage": [],
				"types": null
			},
			"userdoc": {
				"events": {
					"SwapExecuted(uint8,uint256,uint256)": {
						"notice": "Emmited after a successful swap"
					}
				},
				"kind": "user",
				"methods": {
					"swapETHToUSDC(uint256,uint256)": {
						"notice": "Swaps ETH for USDC"
					},
					"swapUSDCToETH(uint256,uint256)": {
						"notice": "Swaps USDC for ETH"
					},
					"withdrawETH(uint256)": {
						"notice": "Withdraws ETH from the contract"
					}
				},
				"version": 1
			}
		}
	}
}