{
	"FlipFlopSwap.sol": {
		"FlipFlopSwap": {
			"abi": [
				{
					"inputs": [
						{
							"internalType": "address",
							"name": "_router",
							"type": "address"
						},
						{
							"internalType": "address",
							"name": "_usdc",
							"type": "address"
						}
					],
					"stateMutability": "nonpayable",
					"type": "constructor"
				},
				{
					"anonymous": false,
					"inputs": [
						{
							"indexed": false,
							"internalType": "uint8",
							"name": "swapType",
							"type": "uint8"
						},
						{
							"indexed": false,
							"internalType": "uint256",
							"name": "amountIn",
							"type": "uint256"
						},
						{
							"indexed": false,
							"internalType": "uint256",
							"name": "amountOut",
							"type": "uint256"
						}
					],
					"name": "SwapExecuted",
					"type": "event"
				},
				{
					"inputs": [],
					"name": "DEADLINE_OFFSET",
					"outputs": [
						{
							"internalType": "uint256",
							"name": "",
							"type": "uint256"
						}
					],
					"stateMutability": "view",
					"type": "function"
				},
				{
					"inputs": [],
					"name": "approveUSDC",
					"outputs": [],
					"stateMutability": "nonpayable",
					"type": "function"
				},
				{
					"inputs": [],
					"name": "owner",
					"outputs": [
						{
							"internalType": "address",
							"name": "",
							"type": "address"
						}
					],
					"stateMutability": "view",
					"type": "function"
				},
				{
					"inputs": [
						{
							"internalType": "address",
							"name": "token",
							"type": "address"
						},
						{
							"internalType": "uint256",
							"name": "amount",
							"type": "uint256"
						}
					],
					"name": "rescueERC20",
					"outputs": [],
					"stateMutability": "nonpayable",
					"type": "function"
				},
				{
					"inputs": [],
					"name": "router",
					"outputs": [
						{
							"internalType": "contract IUniswapV2Router02",
							"name": "",
							"type": "address"
						}
					],
					"stateMutability": "view",
					"type": "function"
				},
				{
					"inputs": [
						{
							"internalType": "uint256",
							"name": "ethAmount",
							"type": "uint256"
						},
						{
							"internalType": "uint256",
							"name": "amountOutMin",
							"type": "uint256"
						}
					],
					"name": "swapETHToUSDC",
					"outputs": [],
					"stateMutability": "nonpayable",
					"type": "function"
				},
				{
					"inputs": [
						{
							"internalType": "uint256",
							"name": "usdcAmount",
							"type": "uint256"
						},
						{
							"internalType": "uint256",
							"name": "amountOutMin",
							"type": "uint256"
						}
					],
					"name": "swapUSDCToETH",
					"outputs": [],
					"stateMutability": "nonpayable",
					"type": "function"
				},
				{
					"inputs": [],
					"name": "usdc",
					"outputs": [
						{
							"internalType": "contract IERC20",
							"name": "",
							"type": "address"
						}
					],
					"stateMutability": "view",
					"type": "function"
				},
				{
					"inputs": [
						{
							"internalType": "uint256",
							"name": "amount",
							"type": "uint256"
						}
					],
					"name": "withdrawETH",
					"outputs": [],
					"stateMutability": "nonpayable",
					"type": "function"
				},
				{
					"stateMutability": "payable",
					"type": "receive"
				}
			],
			"devdoc": {
				"details": "Minimal owner-only swap contract. Slippage and execution strategy are enforced off-chain via amountOutMin.",
				"events": {
					"SwapExecuted(uint8,uint256,uint256)": {
						"params": {
							"amountIn": "Exact input amount",
							"amountOut": "Exact output amount received",
							"swapType": "0 = ETH → USDC, 1 = USDC → ETH"
						}
					}
				},
				"kind": "dev",
				"methods": {
					"constructor": {
						"params": {
							"_router": "Uniswap V2 router address",
							"_usdc": "USDC token address"
						}
					},
					"rescueERC20(address,uint256)": {
						"details": "Intended for emergency recovery only"
					},
					"swapETHToUSDC(uint256,uint256)": {
						"details": "Slippage is manually controlled via amountOutMin",
						"params": {
							"amountOutMin": "Minimum USDC amount accepted (slippage protection)",
							"ethAmount": "Exact ETH amount to swap"
						}
					},
					"swapUSDCToETH(uint256,uint256)": {
						"details": "Requires prior token approval to the router",
						"params": {
							"amountOutMin": "Minimum ETH amount accepted (slippage protection)",
							"usdcAmount": "Exact USDC amount to swap"
						}
					},
					"withdrawETH(uint256)": {
						"details": "USDC has no withdrawal function; emergency rescue only",
						"params": {
							"amount": "ETH amount to withdraw"
						}
					}
				},
				"version": 1
			},
			"evm": {
				"assembly": "    /* \"FlipFlopSwap.sol\":1125:5695  contract FlipFlopSwap {... */\n  mstore(0x40, 0xe0)\n    /* \"FlipFlopSwap.sol\":2365:2524  constructor(address _router, address _usdc) {... */\n  callvalue\n  dup1\n  iszero\n  tag_1\n  jumpi\n  0x00\n  dup1\n  revert\ntag_1:\n  pop\n  mload(0x40)\n  sub(codesize, bytecodeSize)\n  dup1\n  bytecodeSize\n  dup4\n  codecopy\n  dup2\n  dup2\n  add\n  0x40\n  mstore\n  dup2\n  add\n  swap1\n  tag_2\n  swap2\n  swap1\n  tag_3\n  jump\t// in\ntag_2:\n    /* \"FlipFlopSwap.sol\":2428:2438  msg.sender */\n  caller\n    /* \"FlipFlopSwap.sol\":2420:2438  owner = msg.sender */\n  0xffffffffffffffffffffffffffffffffffffffff\n  and\n  0x80\n  dup2\n  0xffffffffffffffffffffffffffffffffffffffff\n  and\n  dup2\n  mstore\n  pop\n  pop\n    /* \"FlipFlopSwap.sol\":2477:2484  _router */\n  dup2\n    /* \"FlipFlopSwap.sol\":2449:2485  router = IUniswapV2Router02(_router) */\n  0xffffffffffffffffffffffffffffffffffffffff\n  and\n  0xa0\n  dup2\n  0xffffffffffffffffffffffffffffffffffffffff\n  and\n  dup2\n  mstore\n  pop\n  pop\n    /* \"FlipFlopSwap.sol\":2510:2515  _usdc */\n  dup1\n    /* \"FlipFlopSwap.sol\":2496:2516  usdc = IERC20(_usdc) */\n  0xffffffffffffffffffffffffffffffffffffffff\n  and\n  0xc0\n  dup2\n  0xffffffffffffffffffffffffffffffffffffffff\n  and\n  dup2\n  mstore\n  pop\n  pop\n    /* \"FlipFlopSwap.sol\":2365:2524  constructor(address _router, address _usdc) {... */\n  pop\n  pop\n    /* \"FlipFlopSwap.sol\":1125:5695  contract FlipFlopSwap {... */\n  jump(tag_6)\n    /* \"#utility.yul\":88:205   */\ntag_8:\n    /* \"#utility.yul\":197:198   */\n  0x00\n    /* \"#utility.yul\":194:195   */\n  dup1\n    /* \"#utility.yul\":187:199   */\n  revert\n    /* \"#utility.yul\":334:460   */\ntag_10:\n    /* \"#utility.yul\":371:378   */\n  0x00\n    /* \"#utility.yul\":411:453   */\n  0xffffffffffffffffffffffffffffffffffffffff\n    /* \"#utility.yul\":404:409   */\n  dup3\n    /* \"#utility.yul\":400:454   */\n  and\n    /* \"#utility.yul\":389:454   */\n  swap1\n  pop\n    /* \"#utility.yul\":334:460   */\n  swap2\n  swap1\n  pop\n  jump\t// out\n    /* \"#utility.yul\":466:562   */\ntag_11:\n    /* \"#utility.yul\":503:510   */\n  0x00\n    /* \"#utility.yul\":532:556   */\n  tag_20\n    /* \"#utility.yul\":550:555   */\n  dup3\n    /* \"#utility.yul\":532:556   */\n  tag_10\n  jump\t// in\ntag_20:\n    /* \"#utility.yul\":521:556   */\n  swap1\n  pop\n    /* \"#utility.yul\":466:562   */\n  swap2\n  swap1\n  pop\n  jump\t// out\n    /* \"#utility.yul\":568:690   */\ntag_12:\n    /* \"#utility.yul\":641:665   */\n  tag_22\n    /* \"#utility.yul\":659:664   */\n  dup2\n    /* \"#utility.yul\":641:665   */\n  tag_11\n  jump\t// in\ntag_22:\n    /* \"#utility.yul\":634:639   */\n  dup2\n    /* \"#utility.yul\":631:666   */\n  eq\n    /* \"#utility.yul\":621:684   */\n  tag_23\n  jumpi\n    /* \"#utility.yul\":680:681   */\n  0x00\n    /* \"#utility.yul\":677:678   */\n  dup1\n    /* \"#utility.yul\":670:682   */\n  revert\n    /* \"#utility.yul\":621:684   */\ntag_23:\n    /* \"#utility.yul\":568:690   */\n  pop\n  jump\t// out\n    /* \"#utility.yul\":696:839   */\ntag_13:\n    /* \"#utility.yul\":753:758   */\n  0x00\n    /* \"#utility.yul\":784:790   */\n  dup2\n    /* \"#utility.yul\":778:791   */\n  mload\n    /* \"#utility.yul\":769:791   */\n  swap1\n  pop\n    /* \"#utility.yul\":800:833   */\n  tag_25\n    /* \"#utility.yul\":827:832   */\n  dup2\n    /* \"#utility.yul\":800:833   */\n  tag_12\n  jump\t// in\ntag_25:\n    /* \"#utility.yul\":696:839   */\n  swap3\n  swap2\n  pop\n  pop\n  jump\t// out\n    /* \"#utility.yul\":845:1352   */\ntag_3:\n    /* \"#utility.yul\":924:930   */\n  0x00\n    /* \"#utility.yul\":932:938   */\n  dup1\n    /* \"#utility.yul\":981:983   */\n  0x40\n    /* \"#utility.yul\":969:978   */\n  dup4\n    /* \"#utility.yul\":960:967   */\n  dup6\n    /* \"#utility.yul\":956:979   */\n  sub\n    /* \"#utility.yul\":952:984   */\n  slt\n    /* \"#utility.yul\":949:1068   */\n  iszero\n  tag_27\n  jumpi\n    /* \"#utility.yul\":987:1066   */\n  tag_28\n  tag_8\n  jump\t// in\ntag_28:\n    /* \"#utility.yul\":949:1068   */\ntag_27:\n    /* \"#utility.yul\":1107:1108   */\n  0x00\n    /* \"#utility.yul\":1132:1196   */\n  tag_29\n    /* \"#utility.yul\":1188:1195   */\n  dup6\n    /* \"#utility.yul\":1179:1185   */\n  dup3\n    /* \"#utility.yul\":1168:1177   */\n  dup7\n    /* \"#utility.yul\":1164:1186   */\n  add\n    /* \"#utility.yul\":1132:1196   */\n  tag_13\n  jump\t// in\ntag_29:\n    /* \"#utility.yul\":1122:1196   */\n  swap3\n  pop\n    /* \"#utility.yul\":1078:1206   */\n  pop\n    /* \"#utility.yul\":1245:1247   */\n  0x20\n    /* \"#utility.yul\":1271:1335   */\n  tag_30\n    /* \"#utility.yul\":1327:1334   */\n  dup6\n    /* \"#utility.yul\":1318:1324   */\n  dup3\n    /* \"#utility.yul\":1307:1316   */\n  dup7\n    /* \"#utility.yul\":1303:1325   */\n  add\n    /* \"#utility.yul\":1271:1335   */\n  tag_13\n  jump\t// in\ntag_30:\n    /* \"#utility.yul\":1261:1335   */\n  swap2\n  pop\n    /* \"#utility.yul\":1216:1345   */\n  pop\n    /* \"#utility.yul\":845:1352   */\n  swap3\n  pop\n  swap3\n  swap1\n  pop\n  jump\t// out\n    /* \"FlipFlopSwap.sol\":1125:5695  contract FlipFlopSwap {... */\ntag_6:\n  mload(0x80)\n  mload(0xa0)\n  mload(0xc0)\n  codecopy(0x00, dataOffset(sub_0), dataSize(sub_0))\n  0x00\n  assignImmutable(\"0xa413d075ec804ca282f1637fedbe82ecda1992097d14e4d900d254e0f5fe523d\")\n  0x00\n  assignImmutable(\"0x425a3d65e6c6cbbf01507814af1ac7512f93cceb8411381e1d5fb7adbfd44881\")\n  0x00\n  assignImmutable(\"0x7dbef654fd5c6145f82b72cd5dbbfc6d48fd276b8a7a4371a61d55985b9d6d8b\")\n  return(0x00, dataSize(sub_0))\nstop\n\nsub_0: assembly {\n        /* \"FlipFlopSwap.sol\":1125:5695  contract FlipFlopSwap {... */\n      mstore(0x40, 0x80)\n      jumpi(tag_1, lt(calldatasize, 0x04))\n      shr(0xe0, calldataload(0x00))\n      dup1\n      0x8cd4426d\n      gt\n      tag_12\n      jumpi\n      dup1\n      0x8cd4426d\n      eq\n      tag_7\n      jumpi\n      dup1\n      0x8da5cb5b\n      eq\n      tag_8\n      jumpi\n      dup1\n      0x8e0e155a\n      eq\n      tag_9\n      jumpi\n      dup1\n      0xf14210a6\n      eq\n      tag_10\n      jumpi\n      dup1\n      0xf887ea40\n      eq\n      tag_11\n      jumpi\n      jump(tag_2)\n    tag_12:\n      dup1\n      0x02150afa\n      eq\n      tag_3\n      jumpi\n      dup1\n      0x37c0cb16\n      eq\n      tag_4\n      jumpi\n      dup1\n      0x3e413bee\n      eq\n      tag_5\n      jumpi\n      dup1\n      0x7c9aa53a\n      eq\n      tag_6\n      jumpi\n      jump(tag_2)\n    tag_1:\n      jumpi(tag_2, calldatasize)\n      stop\n    tag_2:\n      0x00\n      dup1\n      revert\n        /* \"FlipFlopSwap.sol\":2780:2889  function approveUSDC() external onlyOwner {... */\n    tag_3:\n      callvalue\n      dup1\n      iszero\n      tag_15\n      jumpi\n      0x00\n      dup1\n      revert\n    tag_15:\n      pop\n      tag_16\n      tag_17\n      jump\t// in\n    tag_16:\n      stop\n        /* \"FlipFlopSwap.sol\":3211:3869  function swapETHToUSDC(... */\n    tag_4:\n      callvalue\n      dup1\n      iszero\n      tag_18\n      jumpi\n      0x00\n      dup1\n      revert\n    tag_18:\n      pop\n      tag_19\n      0x04\n      dup1\n      calldatasize\n      sub\n      dup2\n      add\n      swap1\n      tag_20\n      swap2\n      swap1\n      tag_21\n      jump\t// in\n    tag_20:\n      tag_22\n      jump\t// in\n    tag_19:\n      stop\n        /* \"FlipFlopSwap.sol\":1386:1414  IERC20 public immutable usdc */\n    tag_5:\n      callvalue\n      dup1\n      iszero\n      tag_23\n      jumpi\n      0x00\n      dup1\n      revert\n    tag_23:\n      pop\n      tag_24\n      tag_25\n      jump\t// in\n    tag_24:\n      mload(0x40)\n      tag_26\n      swap2\n      swap1\n      tag_27\n      jump\t// in\n    tag_26:\n      mload(0x40)\n      dup1\n      swap2\n      sub\n      swap1\n      return\n        /* \"FlipFlopSwap.sol\":1498:1542  uint256 public constant DEADLINE_OFFSET = 60 */\n    tag_6:\n      callvalue\n      dup1\n      iszero\n      tag_28\n      jumpi\n      0x00\n      dup1\n      revert\n    tag_28:\n      pop\n      tag_29\n      tag_30\n      jump\t// in\n    tag_29:\n      mload(0x40)\n      tag_31\n      swap2\n      swap1\n      tag_32\n      jump\t// in\n    tag_31:\n      mload(0x40)\n      dup1\n      swap2\n      sub\n      swap1\n      return\n        /* \"FlipFlopSwap.sol\":5568:5692  function rescueERC20(address token, uint amount) external onlyOwner {... */\n    tag_7:\n      callvalue\n      dup1\n      iszero\n      tag_33\n      jumpi\n      0x00\n      dup1\n      revert\n    tag_33:\n      pop\n      tag_34\n      0x04\n      dup1\n      calldatasize\n      sub\n      dup2\n      add\n      swap1\n      tag_35\n      swap2\n      swap1\n      tag_36\n      jump\t// in\n    tag_35:\n      tag_37\n      jump\t// in\n    tag_34:\n      stop\n        /* \"FlipFlopSwap.sol\":1218:1248  address public immutable owner */\n    tag_8:\n      callvalue\n      dup1\n      iszero\n      tag_38\n      jumpi\n      0x00\n      dup1\n      revert\n    tag_38:\n      pop\n      tag_39\n      tag_40\n      jump\t// in\n    tag_39:\n      mload(0x40)\n      tag_41\n      swap2\n      swap1\n      tag_42\n      jump\t// in\n    tag_41:\n      mload(0x40)\n      dup1\n      swap2\n      sub\n      swap1\n      return\n        /* \"FlipFlopSwap.sol\":4103:4783  function swapUSDCToETH(... */\n    tag_9:\n      callvalue\n      dup1\n      iszero\n      tag_43\n      jumpi\n      0x00\n      dup1\n      revert\n    tag_43:\n      pop\n      tag_44\n      0x04\n      dup1\n      calldatasize\n      sub\n      dup2\n      add\n      swap1\n      tag_45\n      swap2\n      swap1\n      tag_21\n      jump\t// in\n    tag_45:\n      tag_46\n      jump\t// in\n    tag_44:\n      stop\n        /* \"FlipFlopSwap.sol\":5046:5339  function withdrawETH(uint amount) external onlyOwner {... */\n    tag_10:\n      callvalue\n      dup1\n      iszero\n      tag_47\n      jumpi\n      0x00\n      dup1\n      revert\n    tag_47:\n      pop\n      tag_48\n      0x04\n      dup1\n      calldatasize\n      sub\n      dup2\n      add\n      swap1\n      tag_49\n      swap2\n      swap1\n      tag_50\n      jump\t// in\n    tag_49:\n      tag_51\n      jump\t// in\n    tag_48:\n      stop\n        /* \"FlipFlopSwap.sol\":1292:1334  IUniswapV2Router02 public immutable router */\n    tag_11:\n      callvalue\n      dup1\n      iszero\n      tag_52\n      jumpi\n      0x00\n      dup1\n      revert\n    tag_52:\n      pop\n      tag_53\n      tag_54\n      jump\t// in\n    tag_53:\n      mload(0x40)\n      tag_55\n      swap2\n      swap1\n      tag_56\n      jump\t// in\n    tag_55:\n      mload(0x40)\n      dup1\n      swap2\n      sub\n      swap1\n      return\n        /* \"FlipFlopSwap.sol\":2780:2889  function approveUSDC() external onlyOwner {... */\n    tag_17:\n        /* \"FlipFlopSwap.sol\":2127:2132  owner */\n      immutable(\"0x7dbef654fd5c6145f82b72cd5dbbfc6d48fd276b8a7a4371a61d55985b9d6d8b\")\n        /* \"FlipFlopSwap.sol\":2113:2132  msg.sender == owner */\n      0xffffffffffffffffffffffffffffffffffffffff\n      and\n        /* \"FlipFlopSwap.sol\":2113:2123  msg.sender */\n      caller\n        /* \"FlipFlopSwap.sol\":2113:2132  msg.sender == owner */\n      0xffffffffffffffffffffffffffffffffffffffff\n      and\n      eq\n        /* \"FlipFlopSwap.sol\":2105:2146  require(msg.sender == owner, \"NOT_OWNER\") */\n      tag_58\n      jumpi\n      mload(0x40)\n      0x08c379a000000000000000000000000000000000000000000000000000000000\n      dup2\n      mstore\n      0x04\n      add\n      tag_59\n      swap1\n      tag_60\n      jump\t// in\n    tag_59:\n      mload(0x40)\n      dup1\n      swap2\n      sub\n      swap1\n      revert\n    tag_58:\n        /* \"FlipFlopSwap.sol\":2833:2837  usdc */\n      immutable(\"0xa413d075ec804ca282f1637fedbe82ecda1992097d14e4d900d254e0f5fe523d\")\n        /* \"FlipFlopSwap.sol\":2833:2845  usdc.approve */\n      0xffffffffffffffffffffffffffffffffffffffff\n      and\n      0x095ea7b3\n        /* \"FlipFlopSwap.sol\":2854:2860  router */\n      immutable(\"0x425a3d65e6c6cbbf01507814af1ac7512f93cceb8411381e1d5fb7adbfd44881\")\n        /* \"FlipFlopSwap.sol\":2863:2880  type(uint256).max */\n      0xffffffffffffffffffffffffffffffffffffffffffffffffffffffffffffffff\n        /* \"FlipFlopSwap.sol\":2833:2881  usdc.approve(address(router), type(uint256).max) */\n      mload(0x40)\n      dup4\n      0xffffffff\n      and\n      0xe0\n      shl\n      dup2\n      mstore\n      0x04\n      add\n      tag_62\n      swap3\n      swap2\n      swap1\n      tag_63\n      jump\t// in\n    tag_62:\n      0x20\n      mload(0x40)\n      dup1\n      dup4\n      sub\n      dup2\n      0x00\n      dup8\n      gas\n      call\n      iszero\n      dup1\n      iszero\n      tag_65\n      jumpi\n      returndatasize\n      0x00\n      dup1\n      returndatacopy\n      revert(0x00, returndatasize)\n    tag_65:\n      pop\n      pop\n      pop\n      pop\n      mload(0x40)\n      returndatasize\n      not(0x1f)\n      0x1f\n      dup3\n      add\n      and\n      dup3\n      add\n      dup1\n      0x40\n      mstore\n      pop\n      dup2\n      add\n      swap1\n      tag_66\n      swap2\n      swap1\n      tag_67\n      jump\t// in\n    tag_66:\n      pop\n        /* \"FlipFlopSwap.sol\":2780:2889  function approveUSDC() external onlyOwner {... */\n      jump\t// out\n        /* \"FlipFlopSwap.sol\":3211:3869  function swapETHToUSDC(... */\n    tag_22:\n        /* \"FlipFlopSwap.sol\":2127:2132  owner */\n      immutable(\"0x7dbef654fd5c6145f82b72cd5dbbfc6d48fd276b8a7a4371a61d55985b9d6d8b\")\n        /* \"FlipFlopSwap.sol\":2113:2132  msg.sender == owner */\n      0xffffffffffffffffffffffffffffffffffffffff\n      and\n        /* \"FlipFlopSwap.sol\":2113:2123  msg.sender */\n      caller\n        /* \"FlipFlopSwap.sol\":2113:2132  msg.sender == owner */\n      0xffffffffffffffffffffffffffffffffffffffff\n      and\n      eq\n        /* \"FlipFlopSwap.sol\":2105:2146  require(msg.sender == owner, \"NOT_OWNER\") */\n      tag_69\n      jumpi\n      mload(0x40)\n      0x08c379a000000000000000000000000000000000000000000000000000000000\n      dup2\n      mstore\n      0x04\n      add\n      tag_70\n      swap1\n      tag_60\n      jump\t// in\n    tag_70:\n      mload(0x40)\n      dup1\n      swap2\n      sub\n      swap1\n      revert\n    tag_69:\n        /* \"FlipFlopSwap.sol\":3344:3345  0 */\n      0x00\n        /* \"FlipFlopSwap.sol\":3332:3341  ethAmount */\n      dup3\n        /* \"FlipFlopSwap.sol\":3332:3345  ethAmount > 0 */\n      gt\n        /* \"FlipFlopSwap.sol\":3324:3361  require(ethAmount > 0, \"ZERO_AMOUNT\") */\n      tag_72\n      jumpi\n      mload(0x40)\n      0x08c379a000000000000000000000000000000000000000000000000000000000\n      dup2\n      mstore\n      0x04\n      add\n      tag_73\n      swap1\n      tag_74\n      jump\t// in\n    tag_73:\n      mload(0x40)\n      dup1\n      swap2\n      sub\n      swap1\n      revert\n    tag_72:\n        /* \"FlipFlopSwap.sol\":3405:3414  ethAmount */\n      dup2\n        /* \"FlipFlopSwap.sol\":3380:3401  address(this).balance */\n      selfbalance\n        /* \"FlipFlopSwap.sol\":3380:3414  address(this).balance >= ethAmount */\n      lt\n      iszero\n        /* \"FlipFlopSwap.sol\":3372:3435  require(address(this).balance >= ethAmount, \"INSUFFICIENT_ETH\") */\n      tag_75\n      jumpi\n      mload(0x40)\n      0x08c379a000000000000000000000000000000000000000000000000000000000\n      dup2\n      mstore\n      0x04\n      add\n      tag_76\n      swap1\n      tag_77\n      jump\t// in\n    tag_76:\n      mload(0x40)\n      dup1\n      swap2\n      sub\n      swap1\n      revert\n    tag_75:\n        /* \"FlipFlopSwap.sol\":3448:3469  address[] memory path */\n      0x00\n        /* \"FlipFlopSwap.sol\":3486:3487  2 */\n      0x02\n        /* \"FlipFlopSwap.sol\":3472:3488  new address[](2) */\n      0xffffffffffffffff\n      dup2\n      gt\n      iszero\n      tag_78\n      jumpi\n      tag_79\n      tag_80\n      jump\t// in\n    tag_79:\n    tag_78:\n      mload(0x40)\n      swap1\n      dup1\n      dup3\n      mstore\n      dup1\n      0x20\n      mul\n      0x20\n      add\n      dup3\n      add\n      0x40\n      mstore\n      dup1\n      iszero\n      tag_81\n      jumpi\n      dup2\n      0x20\n      add\n      0x20\n      dup3\n      mul\n      dup1\n      calldatasize\n      dup4\n      calldatacopy\n      dup1\n      dup3\n      add\n      swap2\n      pop\n      pop\n      swap1\n      pop\n    tag_81:\n      pop\n        /* \"FlipFlopSwap.sol\":3448:3488  address[] memory path = new address[](2) */\n      swap1\n      pop\n        /* \"FlipFlopSwap.sol\":3509:3515  router */\n      immutable(\"0x425a3d65e6c6cbbf01507814af1ac7512f93cceb8411381e1d5fb7adbfd44881\")\n        /* \"FlipFlopSwap.sol\":3509:3520  router.WETH */\n      0xffffffffffffffffffffffffffffffffffffffff\n      and\n      0xad5c4648\n        /* \"FlipFlopSwap.sol\":3509:3522  router.WETH() */\n      mload(0x40)\n      dup2\n      0xffffffff\n      and\n      0xe0\n      shl\n      dup2\n      mstore\n      0x04\n      add\n      0x20\n      mload(0x40)\n      dup1\n      dup4\n      sub\n      dup2\n      dup7\n      gas\n      staticcall\n      iszero\n      dup1\n      iszero\n      tag_83\n      jumpi\n      returndatasize\n      0x00\n      dup1\n      returndatacopy\n      revert(0x00, returndatasize)\n    tag_83:\n      pop\n      pop\n      pop\n      pop\n      mload(0x40)\n      returndatasize\n      not(0x1f)\n      0x1f\n      dup3\n      add\n      and\n      dup3\n      add\n      dup1\n      0x40\n      mstore\n      pop\n      dup2\n      add\n      swap1\n      tag_84\n      swap2\n      swap1\n      tag_85\n      jump\t// in\n    tag_84:\n        /* \"FlipFlopSwap.sol\":3499:3503  path */\n      dup2\n        /* \"FlipFlopSwap.sol\":3504:3505  0 */\n      0x00\n        /* \"FlipFlopSwap.sol\":3499:3506  path[0] */\n      dup2\n      mload\n      dup2\n      lt\n      tag_86\n      jumpi\n      tag_87\n      tag_88\n      jump\t// in\n    tag_87:\n    tag_86:\n      0x20\n      mul\n      0x20\n      add\n      add\n        /* \"FlipFlopSwap.sol\":3499:3522  path[0] = router.WETH() */\n      swap1\n      0xffffffffffffffffffffffffffffffffffffffff\n      and\n      swap1\n      dup2\n      0xffffffffffffffffffffffffffffffffffffffff\n      and\n      dup2\n      mstore\n      pop\n      pop\n        /* \"FlipFlopSwap.sol\":3551:3555  usdc */\n      immutable(\"0xa413d075ec804ca282f1637fedbe82ecda1992097d14e4d900d254e0f5fe523d\")\n        /* \"FlipFlopSwap.sol\":3533:3537  path */\n      dup2\n        /* \"FlipFlopSwap.sol\":3538:3539  1 */\n      0x01\n        /* \"FlipFlopSwap.sol\":3533:3540  path[1] */\n      dup2\n      mload\n      dup2\n      lt\n      tag_89\n      jumpi\n      tag_90\n      tag_88\n      jump\t// in\n    tag_90:\n    tag_89:\n      0x20\n      mul\n      0x20\n      add\n      add\n        /* \"FlipFlopSwap.sol\":3533:3556  path[1] = address(usdc) */\n      swap1\n      0xffffffffffffffffffffffffffffffffffffffff\n      and\n      swap1\n      dup2\n      0xffffffffffffffffffffffffffffffffffffffff\n      and\n      dup2\n      mstore\n      pop\n      pop\n        /* \"FlipFlopSwap.sol\":3569:3590  uint[] memory amounts */\n      0x00\n        /* \"FlipFlopSwap.sol\":3606:3612  router */\n      immutable(\"0x425a3d65e6c6cbbf01507814af1ac7512f93cceb8411381e1d5fb7adbfd44881\")\n        /* \"FlipFlopSwap.sol\":3606:3634  router.swapExactETHForTokens */\n      0xffffffffffffffffffffffffffffffffffffffff\n      and\n      0x7ff36ab5\n        /* \"FlipFlopSwap.sol\":3642:3651  ethAmount */\n      dup6\n        /* \"FlipFlopSwap.sol\":3671:3683  amountOutMin */\n      dup6\n        /* \"FlipFlopSwap.sol\":3702:3706  path */\n      dup6\n        /* \"FlipFlopSwap.sol\":3733:3737  this */\n      address\n        /* \"FlipFlopSwap.sol\":1540:1542  60 */\n      0x3c\n        /* \"FlipFlopSwap.sol\":3757:3772  block.timestamp */\n      timestamp\n        /* \"FlipFlopSwap.sol\":3757:3790  block.timestamp + DEADLINE_OFFSET */\n      tag_91\n      swap2\n      swap1\n      tag_92\n      jump\t// in\n    tag_91:\n        /* \"FlipFlopSwap.sol\":3606:3805  router.swapExactETHForTokens{value: ethAmount}(... */\n      mload(0x40)\n      dup7\n      0xffffffff\n      and\n      0xe0\n      shl\n      dup2\n      mstore\n      0x04\n      add\n      tag_93\n      swap5\n      swap4\n      swap3\n      swap2\n      swap1\n      tag_94\n      jump\t// in\n    tag_93:\n      0x00\n      mload(0x40)\n      dup1\n      dup4\n      sub\n      dup2\n      dup6\n      dup9\n      gas\n      call\n      iszero\n      dup1\n      iszero\n      tag_96\n      jumpi\n      returndatasize\n      0x00\n      dup1\n      returndatacopy\n      revert(0x00, returndatasize)\n    tag_96:\n      pop\n      pop\n      pop\n      pop\n      pop\n      mload(0x40)\n      returndatasize\n      0x00\n      dup3\n      returndatacopy\n      returndatasize\n      not(0x1f)\n      0x1f\n      dup3\n      add\n      and\n      dup3\n      add\n      dup1\n      0x40\n      mstore\n      pop\n      dup2\n      add\n      swap1\n      tag_97\n      swap2\n      swap1\n      tag_98\n      jump\t// in\n    tag_97:\n        /* \"FlipFlopSwap.sol\":3569:3805  uint[] memory amounts =... */\n      swap1\n      pop\n        /* \"FlipFlopSwap.sol\":3823:3861  SwapExecuted(0, ethAmount, amounts[1]) */\n      0xcee23d1f117220edb4cb718a7bbb402a5213b9e17c5e1505fc3a4e410deb4a60\n        /* \"FlipFlopSwap.sol\":3836:3837  0 */\n      0x00\n        /* \"FlipFlopSwap.sol\":3839:3848  ethAmount */\n      dup6\n        /* \"FlipFlopSwap.sol\":3850:3857  amounts */\n      dup4\n        /* \"FlipFlopSwap.sol\":3858:3859  1 */\n      0x01\n        /* \"FlipFlopSwap.sol\":3850:3860  amounts[1] */\n      dup2\n      mload\n      dup2\n      lt\n      tag_99\n      jumpi\n      tag_100\n      tag_88\n      jump\t// in\n    tag_100:\n    tag_99:\n      0x20\n      mul\n      0x20\n      add\n      add\n      mload\n        /* \"FlipFlopSwap.sol\":3823:3861  SwapExecuted(0, ethAmount, amounts[1]) */\n      mload(0x40)\n      tag_101\n      swap4\n      swap3\n      swap2\n      swap1\n      tag_102\n      jump\t// in\n    tag_101:\n      mload(0x40)\n      dup1\n      swap2\n      sub\n      swap1\n      log1\n        /* \"FlipFlopSwap.sol\":3313:3869  {... */\n      pop\n      pop\n        /* \"FlipFlopSwap.sol\":3211:3869  function swapETHToUSDC(... */\n      pop\n      pop\n      jump\t// out\n        /* \"FlipFlopSwap.sol\":1386:1414  IERC20 public immutable usdc */\n    tag_25:\n      immutable(\"0xa413d075ec804ca282f1637fedbe82ecda1992097d14e4d900d254e0f5fe523d\")\n      dup2\n      jump\t// out\n        /* \"FlipFlopSwap.sol\":1498:1542  uint256 public constant DEADLINE_OFFSET = 60 */\n    tag_30:\n        /* \"FlipFlopSwap.sol\":1540:1542  60 */\n      0x3c\n        /* \"FlipFlopSwap.sol\":1498:1542  uint256 public constant DEADLINE_OFFSET = 60 */\n      dup2\n      jump\t// out\n        /* \"FlipFlopSwap.sol\":5568:5692  function rescueERC20(address token, uint amount) external onlyOwner {... */\n    tag_37:\n        /* \"FlipFlopSwap.sol\":2127:2132  owner */\n      immutable(\"0x7dbef654fd5c6145f82b72cd5dbbfc6d48fd276b8a7a4371a61d55985b9d6d8b\")\n        /* \"FlipFlopSwap.sol\":2113:2132  msg.sender == owner */\n      0xffffffffffffffffffffffffffffffffffffffff\n      and\n        /* \"FlipFlopSwap.sol\":2113:2123  msg.sender */\n      caller\n        /* \"FlipFlopSwap.sol\":2113:2132  msg.sender == owner */\n      0xffffffffffffffffffffffffffffffffffffffff\n      and\n      eq\n        /* \"FlipFlopSwap.sol\":2105:2146  require(msg.sender == owner, \"NOT_OWNER\") */\n      tag_104\n      jumpi\n      mload(0x40)\n      0x08c379a000000000000000000000000000000000000000000000000000000000\n      dup2\n      mstore\n      0x04\n      add\n      tag_105\n      swap1\n      tag_60\n      jump\t// in\n    tag_105:\n      mload(0x40)\n      dup1\n      swap2\n      sub\n      swap1\n      revert\n    tag_104:\n        /* \"FlipFlopSwap.sol\":5654:5659  token */\n      dup2\n        /* \"FlipFlopSwap.sol\":5647:5669  IERC20(token).transfer */\n      0xffffffffffffffffffffffffffffffffffffffff\n      and\n      0xa9059cbb\n        /* \"FlipFlopSwap.sol\":5670:5675  owner */\n      immutable(\"0x7dbef654fd5c6145f82b72cd5dbbfc6d48fd276b8a7a4371a61d55985b9d6d8b\")\n        /* \"FlipFlopSwap.sol\":5677:5683  amount */\n      dup4\n        /* \"FlipFlopSwap.sol\":5647:5684  IERC20(token).transfer(owner, amount) */\n      mload(0x40)\n      dup4\n      0xffffffff\n      and\n      0xe0\n      shl\n      dup2\n      mstore\n      0x04\n      add\n      tag_107\n      swap3\n      swap2\n      swap1\n      tag_63\n      jump\t// in\n    tag_107:\n      0x20\n      mload(0x40)\n      dup1\n      dup4\n      sub\n      dup2\n      0x00\n      dup8\n      gas\n      call\n      iszero\n      dup1\n      iszero\n      tag_109\n      jumpi\n      returndatasize\n      0x00\n      dup1\n      returndatacopy\n      revert(0x00, returndatasize)\n    tag_109:\n      pop\n      pop\n      pop\n      pop\n      mload(0x40)\n      returndatasize\n      not(0x1f)\n      0x1f\n      dup3\n      add\n      and\n      dup3\n      add\n      dup1\n      0x40\n      mstore\n      pop\n      dup2\n      add\n      swap1\n      tag_110\n      swap2\n      swap1\n      tag_67\n      jump\t// in\n    tag_110:\n      pop\n        /* \"FlipFlopSwap.sol\":5568:5692  function rescueERC20(address token, uint amount) external onlyOwner {... */\n      pop\n      pop\n      jump\t// out\n        /* \"FlipFlopSwap.sol\":1218:1248  address public immutable owner */\n    tag_40:\n      immutable(\"0x7dbef654fd5c6145f82b72cd5dbbfc6d48fd276b8a7a4371a61d55985b9d6d8b\")\n      dup2\n      jump\t// out\n        /* \"FlipFlopSwap.sol\":4103:4783  function swapUSDCToETH(... */\n    tag_46:\n        /* \"FlipFlopSwap.sol\":2127:2132  owner */\n      immutable(\"0x7dbef654fd5c6145f82b72cd5dbbfc6d48fd276b8a7a4371a61d55985b9d6d8b\")\n        /* \"FlipFlopSwap.sol\":2113:2132  msg.sender == owner */\n      0xffffffffffffffffffffffffffffffffffffffff\n      and\n        /* \"FlipFlopSwap.sol\":2113:2123  msg.sender */\n      caller\n        /* \"FlipFlopSwap.sol\":2113:2132  msg.sender == owner */\n      0xffffffffffffffffffffffffffffffffffffffff\n      and\n      eq\n        /* \"FlipFlopSwap.sol\":2105:2146  require(msg.sender == owner, \"NOT_OWNER\") */\n      tag_112\n      jumpi\n      mload(0x40)\n      0x08c379a000000000000000000000000000000000000000000000000000000000\n      dup2\n      mstore\n      0x04\n      add\n      tag_113\n      swap1\n      tag_60\n      jump\t// in\n    tag_113:\n      mload(0x40)\n      dup1\n      swap2\n      sub\n      swap1\n      revert\n    tag_112:\n        /* \"FlipFlopSwap.sol\":4238:4239  0 */\n      0x00\n        /* \"FlipFlopSwap.sol\":4225:4235  usdcAmount */\n      dup3\n        /* \"FlipFlopSwap.sol\":4225:4239  usdcAmount > 0 */\n      gt\n        /* \"FlipFlopSwap.sol\":4217:4253  require(usdcAmount > 0, \"ZERO_USDC\") */\n      tag_115\n      jumpi\n      mload(0x40)\n      0x08c379a000000000000000000000000000000000000000000000000000000000\n      dup2\n      mstore\n      0x04\n      add\n      tag_116\n      swap1\n      tag_117\n      jump\t// in\n    tag_116:\n      mload(0x40)\n      dup1\n      swap2\n      sub\n      swap1\n      revert\n    tag_115:\n        /* \"FlipFlopSwap.sol\":4305:4315  usdcAmount */\n      dup2\n        /* \"FlipFlopSwap.sol\":4272:4276  usdc */\n      immutable(\"0xa413d075ec804ca282f1637fedbe82ecda1992097d14e4d900d254e0f5fe523d\")\n        /* \"FlipFlopSwap.sol\":4272:4286  usdc.balanceOf */\n      0xffffffffffffffffffffffffffffffffffffffff\n      and\n      0x70a08231\n        /* \"FlipFlopSwap.sol\":4295:4299  this */\n      address\n        /* \"FlipFlopSwap.sol\":4272:4301  usdc.balanceOf(address(this)) */\n      mload(0x40)\n      dup3\n      0xffffffff\n      and\n      0xe0\n      shl\n      dup2\n      mstore\n      0x04\n      add\n      tag_118\n      swap2\n      swap1\n      tag_42\n      jump\t// in\n    tag_118:\n      0x20\n      mload(0x40)\n      dup1\n      dup4\n      sub\n      dup2\n      dup7\n      gas\n      staticcall\n      iszero\n      dup1\n      iszero\n      tag_120\n      jumpi\n      returndatasize\n      0x00\n      dup1\n      returndatacopy\n      revert(0x00, returndatasize)\n    tag_120:\n      pop\n      pop\n      pop\n      pop\n      mload(0x40)\n      returndatasize\n      not(0x1f)\n      0x1f\n      dup3\n      add\n      and\n      dup3\n      add\n      dup1\n      0x40\n      mstore\n      pop\n      dup2\n      add\n      swap1\n      tag_121\n      swap2\n      swap1\n      tag_122\n      jump\t// in\n    tag_121:\n        /* \"FlipFlopSwap.sol\":4272:4315  usdc.balanceOf(address(this)) >= usdcAmount */\n      lt\n      iszero\n        /* \"FlipFlopSwap.sol\":4264:4337  require(usdc.balanceOf(address(this)) >= usdcAmount, \"INSUFFICIENT_USDC\") */\n      tag_123\n      jumpi\n      mload(0x40)\n      0x08c379a000000000000000000000000000000000000000000000000000000000\n      dup2\n      mstore\n      0x04\n      add\n      tag_124\n      swap1\n      tag_125\n      jump\t// in\n    tag_124:\n      mload(0x40)\n      dup1\n      swap2\n      sub\n      swap1\n      revert\n    tag_123:\n        /* \"FlipFlopSwap.sol\":4350:4371  address[] memory path */\n      0x00\n        /* \"FlipFlopSwap.sol\":4388:4389  2 */\n      0x02\n        /* \"FlipFlopSwap.sol\":4374:4390  new address[](2) */\n      0xffffffffffffffff\n      dup2\n      gt\n      iszero\n      tag_126\n      jumpi\n      tag_127\n      tag_80\n      jump\t// in\n    tag_127:\n    tag_126:\n      mload(0x40)\n      swap1\n      dup1\n      dup3\n      mstore\n      dup1\n      0x20\n      mul\n      0x20\n      add\n      dup3\n      add\n      0x40\n      mstore\n      dup1\n      iszero\n      tag_128\n      jumpi\n      dup2\n      0x20\n      add\n      0x20\n      dup3\n      mul\n      dup1\n      calldatasize\n      dup4\n      calldatacopy\n      dup1\n      dup3\n      add\n      swap2\n      pop\n      pop\n      swap1\n      pop\n    tag_128:\n      pop\n        /* \"FlipFlopSwap.sol\":4350:4390  address[] memory path = new address[](2) */\n      swap1\n      pop\n        /* \"FlipFlopSwap.sol\":4419:4423  usdc */\n      immutable(\"0xa413d075ec804ca282f1637fedbe82ecda1992097d14e4d900d254e0f5fe523d\")\n        /* \"FlipFlopSwap.sol\":4401:4405  path */\n      dup2\n        /* \"FlipFlopSwap.sol\":4406:4407  0 */\n      0x00\n        /* \"FlipFlopSwap.sol\":4401:4408  path[0] */\n      dup2\n      mload\n      dup2\n      lt\n      tag_129\n      jumpi\n      tag_130\n      tag_88\n      jump\t// in\n    tag_130:\n    tag_129:\n      0x20\n      mul\n      0x20\n      add\n      add\n        /* \"FlipFlopSwap.sol\":4401:4424  path[0] = address(usdc) */\n      swap1\n      0xffffffffffffffffffffffffffffffffffffffff\n      and\n      swap1\n      dup2\n      0xffffffffffffffffffffffffffffffffffffffff\n      and\n      dup2\n      mstore\n      pop\n      pop\n        /* \"FlipFlopSwap.sol\":4445:4451  router */\n      immutable(\"0x425a3d65e6c6cbbf01507814af1ac7512f93cceb8411381e1d5fb7adbfd44881\")\n        /* \"FlipFlopSwap.sol\":4445:4456  router.WETH */\n      0xffffffffffffffffffffffffffffffffffffffff\n      and\n      0xad5c4648\n        /* \"FlipFlopSwap.sol\":4445:4458  router.WETH() */\n      mload(0x40)\n      dup2\n      0xffffffff\n      and\n      0xe0\n      shl\n      dup2\n      mstore\n      0x04\n      add\n      0x20\n      mload(0x40)\n      dup1\n      dup4\n      sub\n      dup2\n      dup7\n      gas\n      staticcall\n      iszero\n      dup1\n      iszero\n      tag_132\n      jumpi\n      returndatasize\n      0x00\n      dup1\n      returndatacopy\n      revert(0x00, returndatasize)\n    tag_132:\n      pop\n      pop\n      pop\n      pop\n      mload(0x40)\n      returndatasize\n      not(0x1f)\n      0x1f\n      dup3\n      add\n      and\n      dup3\n      add\n      dup1\n      0x40\n      mstore\n      pop\n      dup2\n      add\n      swap1\n      tag_133\n      swap2\n      swap1\n      tag_85\n      jump\t// in\n    tag_133:\n        /* \"FlipFlopSwap.sol\":4435:4439  path */\n      dup2\n        /* \"FlipFlopSwap.sol\":4440:4441  1 */\n      0x01\n        /* \"FlipFlopSwap.sol\":4435:4442  path[1] */\n      dup2\n      mload\n      dup2\n      lt\n      tag_134\n      jumpi\n      tag_135\n      tag_88\n      jump\t// in\n    tag_135:\n    tag_134:\n      0x20\n      mul\n      0x20\n      add\n      add\n        /* \"FlipFlopSwap.sol\":4435:4458  path[1] = router.WETH() */\n      swap1\n      0xffffffffffffffffffffffffffffffffffffffff\n      and\n      swap1\n      dup2\n      0xffffffffffffffffffffffffffffffffffffffff\n      and\n      dup2\n      mstore\n      pop\n      pop\n        /* \"FlipFlopSwap.sol\":4471:4492  uint[] memory amounts */\n      0x00\n        /* \"FlipFlopSwap.sol\":4508:4514  router */\n      immutable(\"0x425a3d65e6c6cbbf01507814af1ac7512f93cceb8411381e1d5fb7adbfd44881\")\n        /* \"FlipFlopSwap.sol\":4508:4536  router.swapExactTokensForETH */\n      0xffffffffffffffffffffffffffffffffffffffff\n      and\n      0x18cbafe5\n        /* \"FlipFlopSwap.sol\":4555:4565  usdcAmount */\n      dup6\n        /* \"FlipFlopSwap.sol\":4584:4596  amountOutMin */\n      dup6\n        /* \"FlipFlopSwap.sol\":4615:4619  path */\n      dup6\n        /* \"FlipFlopSwap.sol\":4646:4650  this */\n      address\n        /* \"FlipFlopSwap.sol\":1540:1542  60 */\n      0x3c\n        /* \"FlipFlopSwap.sol\":4670:4685  block.timestamp */\n      timestamp\n        /* \"FlipFlopSwap.sol\":4670:4703  block.timestamp + DEADLINE_OFFSET */\n      tag_136\n      swap2\n      swap1\n      tag_92\n      jump\t// in\n    tag_136:\n        /* \"FlipFlopSwap.sol\":4508:4718  router.swapExactTokensForETH(... */\n      mload(0x40)\n      dup7\n      0xffffffff\n      and\n      0xe0\n      shl\n      dup2\n      mstore\n      0x04\n      add\n      tag_137\n      swap6\n      swap5\n      swap4\n      swap3\n      swap2\n      swap1\n      tag_138\n      jump\t// in\n    tag_137:\n      0x00\n      mload(0x40)\n      dup1\n      dup4\n      sub\n      dup2\n      0x00\n      dup8\n      gas\n      call\n      iszero\n      dup1\n      iszero\n      tag_140\n      jumpi\n      returndatasize\n      0x00\n      dup1\n      returndatacopy\n      revert(0x00, returndatasize)\n    tag_140:\n      pop\n      pop\n      pop\n      pop\n      mload(0x40)\n      returndatasize\n      0x00\n      dup3\n      returndatacopy\n      returndatasize\n      not(0x1f)\n      0x1f\n      dup3\n      add\n      and\n      dup3\n      add\n      dup1\n      0x40\n      mstore\n      pop\n      dup2\n      add\n      swap1\n      tag_141\n      swap2\n      swap1\n      tag_98\n      jump\t// in\n    tag_141:\n        /* \"FlipFlopSwap.sol\":4471:4718  uint[] memory amounts =... */\n      swap1\n      pop\n        /* \"FlipFlopSwap.sol\":4736:4775  SwapExecuted(1, usdcAmount, amounts[1]) */\n      0xcee23d1f117220edb4cb718a7bbb402a5213b9e17c5e1505fc3a4e410deb4a60\n        /* \"FlipFlopSwap.sol\":4749:4750  1 */\n      0x01\n        /* \"FlipFlopSwap.sol\":4752:4762  usdcAmount */\n      dup6\n        /* \"FlipFlopSwap.sol\":4764:4771  amounts */\n      dup4\n        /* \"FlipFlopSwap.sol\":4772:4773  1 */\n      0x01\n        /* \"FlipFlopSwap.sol\":4764:4774  amounts[1] */\n      dup2\n      mload\n      dup2\n      lt\n      tag_142\n      jumpi\n      tag_143\n      tag_88\n      jump\t// in\n    tag_143:\n    tag_142:\n      0x20\n      mul\n      0x20\n      add\n      add\n      mload\n        /* \"FlipFlopSwap.sol\":4736:4775  SwapExecuted(1, usdcAmount, amounts[1]) */\n      mload(0x40)\n      tag_144\n      swap4\n      swap3\n      swap2\n      swap1\n      tag_145\n      jump\t// in\n    tag_144:\n      mload(0x40)\n      dup1\n      swap2\n      sub\n      swap1\n      log1\n        /* \"FlipFlopSwap.sol\":4206:4783  {... */\n      pop\n      pop\n        /* \"FlipFlopSwap.sol\":4103:4783  function swapUSDCToETH(... */\n      pop\n      pop\n      jump\t// out\n        /* \"FlipFlopSwap.sol\":5046:5339  function withdrawETH(uint amount) external onlyOwner {... */\n    tag_51:\n        /* \"FlipFlopSwap.sol\":2127:2132  owner */\n      immutable(\"0x7dbef654fd5c6145f82b72cd5dbbfc6d48fd276b8a7a4371a61d55985b9d6d8b\")\n        /* \"FlipFlopSwap.sol\":2113:2132  msg.sender == owner */\n      0xffffffffffffffffffffffffffffffffffffffff\n      and\n        /* \"FlipFlopSwap.sol\":2113:2123  msg.sender */\n      caller\n        /* \"FlipFlopSwap.sol\":2113:2132  msg.sender == owner */\n      0xffffffffffffffffffffffffffffffffffffffff\n      and\n      eq\n        /* \"FlipFlopSwap.sol\":2105:2146  require(msg.sender == owner, \"NOT_OWNER\") */\n      tag_147\n      jumpi\n      mload(0x40)\n      0x08c379a000000000000000000000000000000000000000000000000000000000\n      dup2\n      mstore\n      0x04\n      add\n      tag_148\n      swap1\n      tag_60\n      jump\t// in\n    tag_148:\n      mload(0x40)\n      dup1\n      swap2\n      sub\n      swap1\n      revert\n    tag_147:\n        /* \"FlipFlopSwap.sol\":5127:5128  0 */\n      0x00\n        /* \"FlipFlopSwap.sol\":5118:5124  amount */\n      dup2\n        /* \"FlipFlopSwap.sol\":5118:5128  amount > 0 */\n      gt\n        /* \"FlipFlopSwap.sol\":5110:5143  require(amount > 0, \"amount = 0\") */\n      tag_150\n      jumpi\n      mload(0x40)\n      0x08c379a000000000000000000000000000000000000000000000000000000000\n      dup2\n      mstore\n      0x04\n      add\n      tag_151\n      swap1\n      tag_152\n      jump\t// in\n    tag_151:\n      mload(0x40)\n      dup1\n      swap2\n      sub\n      swap1\n      revert\n    tag_150:\n        /* \"FlipFlopSwap.sol\":5187:5193  amount */\n      dup1\n        /* \"FlipFlopSwap.sol\":5162:5183  address(this).balance */\n      selfbalance\n        /* \"FlipFlopSwap.sol\":5162:5193  address(this).balance >= amount */\n      lt\n      iszero\n        /* \"FlipFlopSwap.sol\":5154:5211  require(address(this).balance >= amount, \"no ETH enough\") */\n      tag_153\n      jumpi\n      mload(0x40)\n      0x08c379a000000000000000000000000000000000000000000000000000000000\n      dup2\n      mstore\n      0x04\n      add\n      tag_154\n      swap1\n      tag_155\n      jump\t// in\n    tag_154:\n      mload(0x40)\n      dup1\n      swap2\n      sub\n      swap1\n      revert\n    tag_153:\n        /* \"FlipFlopSwap.sol\":5225:5237  bool success */\n      0x00\n        /* \"FlipFlopSwap.sol\":5251:5256  owner */\n      immutable(\"0x7dbef654fd5c6145f82b72cd5dbbfc6d48fd276b8a7a4371a61d55985b9d6d8b\")\n        /* \"FlipFlopSwap.sol\":5243:5262  payable(owner).call */\n      0xffffffffffffffffffffffffffffffffffffffff\n      and\n        /* \"FlipFlopSwap.sol\":5270:5276  amount */\n      dup3\n        /* \"FlipFlopSwap.sol\":5243:5281  payable(owner).call{value: amount}(\"\") */\n      mload(0x40)\n      tag_156\n      swap1\n      tag_157\n      jump\t// in\n    tag_156:\n      0x00\n      mload(0x40)\n      dup1\n      dup4\n      sub\n      dup2\n      dup6\n      dup8\n      gas\n      call\n      swap3\n      pop\n      pop\n      pop\n      returndatasize\n      dup1\n      0x00\n      dup2\n      eq\n      tag_160\n      jumpi\n      mload(0x40)\n      swap2\n      pop\n      and(add(returndatasize, 0x3f), not(0x1f))\n      dup3\n      add\n      0x40\n      mstore\n      returndatasize\n      dup3\n      mstore\n      returndatasize\n      0x00\n      0x20\n      dup5\n      add\n      returndatacopy\n      jump(tag_159)\n    tag_160:\n      0x60\n      swap2\n      pop\n    tag_159:\n      pop\n        /* \"FlipFlopSwap.sol\":5224:5281  (bool success, ) = payable(owner).call{value: amount}(\"\") */\n      pop\n      swap1\n      pop\n        /* \"FlipFlopSwap.sol\":5300:5307  success */\n      dup1\n        /* \"FlipFlopSwap.sol\":5292:5331  require(success, \"ETH transfer failed\") */\n      tag_161\n      jumpi\n      mload(0x40)\n      0x08c379a000000000000000000000000000000000000000000000000000000000\n      dup2\n      mstore\n      0x04\n      add\n      tag_162\n      swap1\n      tag_163\n      jump\t// in\n    tag_162:\n      mload(0x40)\n      dup1\n      swap2\n      sub\n      swap1\n      revert\n    tag_161:\n        /* \"FlipFlopSwap.sol\":5099:5339  {... */\n      pop\n        /* \"FlipFlopSwap.sol\":5046:5339  function withdrawETH(uint amount) external onlyOwner {... */\n      pop\n      jump\t// out\n        /* \"FlipFlopSwap.sol\":1292:1334  IUniswapV2Router02 public immutable router */\n    tag_54:\n      immutable(\"0x425a3d65e6c6cbbf01507814af1ac7512f93cceb8411381e1d5fb7adbfd44881\")\n      dup2\n      jump\t// out\n        /* \"#utility.yul\":7:82   */\n    tag_164:\n        /* \"#utility.yul\":40:46   */\n      0x00\n        /* \"#utility.yul\":73:75   */\n      0x40\n        /* \"#utility.yul\":67:76   */\n      mload\n        /* \"#utility.yul\":57:76   */\n      swap1\n      pop\n        /* \"#utility.yul\":7:82   */\n      swap1\n      jump\t// out\n        /* \"#utility.yul\":88:205   */\n    tag_165:\n        /* \"#utility.yul\":197:198   */\n      0x00\n        /* \"#utility.yul\":194:195   */\n      dup1\n        /* \"#utility.yul\":187:199   */\n      revert\n        /* \"#utility.yul\":211:328   */\n    tag_166:\n        /* \"#utility.yul\":320:321   */\n      0x00\n        /* \"#utility.yul\":317:318   */\n      dup1\n        /* \"#utility.yul\":310:322   */\n      revert\n        /* \"#utility.yul\":334:411   */\n    tag_167:\n        /* \"#utility.yul\":371:378   */\n      0x00\n        /* \"#utility.yul\":400:405   */\n      dup2\n        /* \"#utility.yul\":389:405   */\n      swap1\n      pop\n        /* \"#utility.yul\":334:411   */\n      swap2\n      swap1\n      pop\n      jump\t// out\n        /* \"#utility.yul\":417:539   */\n    tag_168:\n        /* \"#utility.yul\":490:514   */\n      tag_237\n        /* \"#utility.yul\":508:513   */\n      dup2\n        /* \"#utility.yul\":490:514   */\n      tag_167\n      jump\t// in\n    tag_237:\n        /* \"#utility.yul\":483:488   */\n      dup2\n        /* \"#utility.yul\":480:515   */\n      eq\n        /* \"#utility.yul\":470:533   */\n      tag_238\n      jumpi\n        /* \"#utility.yul\":529:530   */\n      0x00\n        /* \"#utility.yul\":526:527   */\n      dup1\n        /* \"#utility.yul\":519:531   */\n      revert\n        /* \"#utility.yul\":470:533   */\n    tag_238:\n        /* \"#utility.yul\":417:539   */\n      pop\n      jump\t// out\n        /* \"#utility.yul\":545:684   */\n    tag_169:\n        /* \"#utility.yul\":591:596   */\n      0x00\n        /* \"#utility.yul\":629:635   */\n      dup2\n        /* \"#utility.yul\":616:636   */\n      calldataload\n        /* \"#utility.yul\":607:636   */\n      swap1\n      pop\n        /* \"#utility.yul\":645:678   */\n      tag_240\n        /* \"#utility.yul\":672:677   */\n      dup2\n        /* \"#utility.yul\":645:678   */\n      tag_168\n      jump\t// in\n    tag_240:\n        /* \"#utility.yul\":545:684   */\n      swap3\n      swap2\n      pop\n      pop\n      jump\t// out\n        /* \"#utility.yul\":690:1164   */\n    tag_21:\n        /* \"#utility.yul\":758:764   */\n      0x00\n        /* \"#utility.yul\":766:772   */\n      dup1\n        /* \"#utility.yul\":815:817   */\n      0x40\n        /* \"#utility.yul\":803:812   */\n      dup4\n        /* \"#utility.yul\":794:801   */\n      dup6\n        /* \"#utility.yul\":790:813   */\n      sub\n        /* \"#utility.yul\":786:818   */\n      slt\n        /* \"#utility.yul\":783:902   */\n      iszero\n      tag_242\n      jumpi\n        /* \"#utility.yul\":821:900   */\n      tag_243\n      tag_165\n      jump\t// in\n    tag_243:\n        /* \"#utility.yul\":783:902   */\n    tag_242:\n        /* \"#utility.yul\":941:942   */\n      0x00\n        /* \"#utility.yul\":966:1019   */\n      tag_244\n        /* \"#utility.yul\":1011:1018   */\n      dup6\n        /* \"#utility.yul\":1002:1008   */\n      dup3\n        /* \"#utility.yul\":991:1000   */\n      dup7\n        /* \"#utility.yul\":987:1009   */\n      add\n        /* \"#utility.yul\":966:1019   */\n      tag_169\n      jump\t// in\n    tag_244:\n        /* \"#utility.yul\":956:1019   */\n      swap3\n      pop\n        /* \"#utility.yul\":912:1029   */\n      pop\n        /* \"#utility.yul\":1068:1070   */\n      0x20\n        /* \"#utility.yul\":1094:1147   */\n      tag_245\n        /* \"#utility.yul\":1139:1146   */\n      dup6\n        /* \"#utility.yul\":1130:1136   */\n      dup3\n        /* \"#utility.yul\":1119:1128   */\n      dup7\n        /* \"#utility.yul\":1115:1137   */\n      add\n        /* \"#utility.yul\":1094:1147   */\n      tag_169\n      jump\t// in\n    tag_245:\n        /* \"#utility.yul\":1084:1147   */\n      swap2\n      pop\n        /* \"#utility.yul\":1039:1157   */\n      pop\n        /* \"#utility.yul\":690:1164   */\n      swap3\n      pop\n      swap3\n      swap1\n      pop\n      jump\t// out\n        /* \"#utility.yul\":1170:1296   */\n    tag_170:\n        /* \"#utility.yul\":1207:1214   */\n      0x00\n        /* \"#utility.yul\":1247:1289   */\n      0xffffffffffffffffffffffffffffffffffffffff\n        /* \"#utility.yul\":1240:1245   */\n      dup3\n        /* \"#utility.yul\":1236:1290   */\n      and\n        /* \"#utility.yul\":1225:1290   */\n      swap1\n      pop\n        /* \"#utility.yul\":1170:1296   */\n      swap2\n      swap1\n      pop\n      jump\t// out\n        /* \"#utility.yul\":1302:1362   */\n    tag_171:\n        /* \"#utility.yul\":1330:1333   */\n      0x00\n        /* \"#utility.yul\":1351:1356   */\n      dup2\n        /* \"#utility.yul\":1344:1356   */\n      swap1\n      pop\n        /* \"#utility.yul\":1302:1362   */\n      swap2\n      swap1\n      pop\n      jump\t// out\n        /* \"#utility.yul\":1368:1510   */\n    tag_172:\n        /* \"#utility.yul\":1418:1427   */\n      0x00\n        /* \"#utility.yul\":1451:1504   */\n      tag_249\n        /* \"#utility.yul\":1469:1503   */\n      tag_250\n        /* \"#utility.yul\":1478:1502   */\n      tag_251\n        /* \"#utility.yul\":1496:1501   */\n      dup5\n        /* \"#utility.yul\":1478:1502   */\n      tag_170\n      jump\t// in\n    tag_251:\n        /* \"#utility.yul\":1469:1503   */\n      tag_171\n      jump\t// in\n    tag_250:\n        /* \"#utility.yul\":1451:1504   */\n      tag_170\n      jump\t// in\n    tag_249:\n        /* \"#utility.yul\":1438:1504   */\n      swap1\n      pop\n        /* \"#utility.yul\":1368:1510   */\n      swap2\n      swap1\n      pop\n      jump\t// out\n        /* \"#utility.yul\":1516:1642   */\n    tag_173:\n        /* \"#utility.yul\":1566:1575   */\n      0x00\n        /* \"#utility.yul\":1599:1636   */\n      tag_253\n        /* \"#utility.yul\":1630:1635   */\n      dup3\n        /* \"#utility.yul\":1599:1636   */\n      tag_172\n      jump\t// in\n    tag_253:\n        /* \"#utility.yul\":1586:1636   */\n      swap1\n      pop\n        /* \"#utility.yul\":1516:1642   */\n      swap2\n      swap1\n      pop\n      jump\t// out\n        /* \"#utility.yul\":1648:1787   */\n    tag_174:\n        /* \"#utility.yul\":1711:1720   */\n      0x00\n        /* \"#utility.yul\":1744:1781   */\n      tag_255\n        /* \"#utility.yul\":1775:1780   */\n      dup3\n        /* \"#utility.yul\":1744:1781   */\n      tag_173\n      jump\t// in\n    tag_255:\n        /* \"#utility.yul\":1731:1781   */\n      swap1\n      pop\n        /* \"#utility.yul\":1648:1787   */\n      swap2\n      swap1\n      pop\n      jump\t// out\n        /* \"#utility.yul\":1793:1950   */\n    tag_175:\n        /* \"#utility.yul\":1893:1943   */\n      tag_257\n        /* \"#utility.yul\":1937:1942   */\n      dup2\n        /* \"#utility.yul\":1893:1943   */\n      tag_174\n      jump\t// in\n    tag_257:\n        /* \"#utility.yul\":1888:1891   */\n      dup3\n        /* \"#utility.yul\":1881:1944   */\n      mstore\n        /* \"#utility.yul\":1793:1950   */\n      pop\n      pop\n      jump\t// out\n        /* \"#utility.yul\":1956:2204   */\n    tag_27:\n        /* \"#utility.yul\":2062:2066   */\n      0x00\n        /* \"#utility.yul\":2100:2102   */\n      0x20\n        /* \"#utility.yul\":2089:2098   */\n      dup3\n        /* \"#utility.yul\":2085:2103   */\n      add\n        /* \"#utility.yul\":2077:2103   */\n      swap1\n      pop\n        /* \"#utility.yul\":2113:2197   */\n      tag_259\n        /* \"#utility.yul\":2194:2195   */\n      0x00\n        /* \"#utility.yul\":2183:2192   */\n      dup4\n        /* \"#utility.yul\":2179:2196   */\n      add\n        /* \"#utility.yul\":2170:2176   */\n      dup5\n        /* \"#utility.yul\":2113:2197   */\n      tag_175\n      jump\t// in\n    tag_259:\n        /* \"#utility.yul\":1956:2204   */\n      swap3\n      swap2\n      pop\n      pop\n      jump\t// out\n        /* \"#utility.yul\":2210:2328   */\n    tag_176:\n        /* \"#utility.yul\":2297:2321   */\n      tag_261\n        /* \"#utility.yul\":2315:2320   */\n      dup2\n        /* \"#utility.yul\":2297:2321   */\n      tag_167\n      jump\t// in\n    tag_261:\n        /* \"#utility.yul\":2292:2295   */\n      dup3\n        /* \"#utility.yul\":2285:2322   */\n      mstore\n        /* \"#utility.yul\":2210:2328   */\n      pop\n      pop\n      jump\t// out\n        /* \"#utility.yul\":2334:2556   */\n    tag_32:\n        /* \"#utility.yul\":2427:2431   */\n      0x00\n        /* \"#utility.yul\":2465:2467   */\n      0x20\n        /* \"#utility.yul\":2454:2463   */\n      dup3\n        /* \"#utility.yul\":2450:2468   */\n      add\n        /* \"#utility.yul\":2442:2468   */\n      swap1\n      pop\n        /* \"#utility.yul\":2478:2549   */\n      tag_263\n        /* \"#utility.yul\":2546:2547   */\n      0x00\n        /* \"#utility.yul\":2535:2544   */\n      dup4\n        /* \"#utility.yul\":2531:2548   */\n      add\n        /* \"#utility.yul\":2522:2528   */\n      dup5\n        /* \"#utility.yul\":2478:2549   */\n      tag_176\n      jump\t// in\n    tag_263:\n        /* \"#utility.yul\":2334:2556   */\n      swap3\n      swap2\n      pop\n      pop\n      jump\t// out\n        /* \"#utility.yul\":2562:2658   */\n    tag_177:\n        /* \"#utility.yul\":2599:2606   */\n      0x00\n        /* \"#utility.yul\":2628:2652   */\n      tag_265\n        /* \"#utility.yul\":2646:2651   */\n      dup3\n        /* \"#utility.yul\":2628:2652   */\n      tag_170\n      jump\t// in\n    tag_265:\n        /* \"#utility.yul\":2617:2652   */\n      swap1\n      pop\n        /* \"#utility.yul\":2562:2658   */\n      swap2\n      swap1\n      pop\n      jump\t// out\n        /* \"#utility.yul\":2664:2786   */\n    tag_178:\n        /* \"#utility.yul\":2737:2761   */\n      tag_267\n        /* \"#utility.yul\":2755:2760   */\n      dup2\n        /* \"#utility.yul\":2737:2761   */\n      tag_177\n      jump\t// in\n    tag_267:\n        /* \"#utility.yul\":2730:2735   */\n      dup2\n        /* \"#utility.yul\":2727:2762   */\n      eq\n        /* \"#utility.yul\":2717:2780   */\n      tag_268\n      jumpi\n        /* \"#utility.yul\":2776:2777   */\n      0x00\n        /* \"#utility.yul\":2773:2774   */\n      dup1\n        /* \"#utility.yul\":2766:2778   */\n      revert\n        /* \"#utility.yul\":2717:2780   */\n    tag_268:\n        /* \"#utility.yul\":2664:2786   */\n      pop\n      jump\t// out\n        /* \"#utility.yul\":2792:2931   */\n    tag_179:\n        /* \"#utility.yul\":2838:2843   */\n      0x00\n        /* \"#utility.yul\":2876:2882   */\n      dup2\n        /* \"#utility.yul\":2863:2883   */\n      calldataload\n        /* \"#utility.yul\":2854:2883   */\n      swap1\n      pop\n        /* \"#utility.yul\":2892:2925   */\n      tag_270\n        /* \"#utility.yul\":2919:2924   */\n      dup2\n        /* \"#utility.yul\":2892:2925   */\n      tag_178\n      jump\t// in\n    tag_270:\n        /* \"#utility.yul\":2792:2931   */\n      swap3\n      swap2\n      pop\n      pop\n      jump\t// out\n        /* \"#utility.yul\":2937:3411   */\n    tag_36:\n        /* \"#utility.yul\":3005:3011   */\n      0x00\n        /* \"#utility.yul\":3013:3019   */\n      dup1\n        /* \"#utility.yul\":3062:3064   */\n      0x40\n        /* \"#utility.yul\":3050:3059   */\n      dup4\n        /* \"#utility.yul\":3041:3048   */\n      dup6\n        /* \"#utility.yul\":3037:3060   */\n      sub\n        /* \"#utility.yul\":3033:3065   */\n      slt\n        /* \"#utility.yul\":3030:3149   */\n      iszero\n      tag_272\n      jumpi\n        /* \"#utility.yul\":3068:3147   */\n      tag_273\n      tag_165\n      jump\t// in\n    tag_273:\n        /* \"#utility.yul\":3030:3149   */\n    tag_272:\n        /* \"#utility.yul\":3188:3189   */\n      0x00\n        /* \"#utility.yul\":3213:3266   */\n      tag_274\n        /* \"#utility.yul\":3258:3265   */\n      dup6\n        /* \"#utility.yul\":3249:3255   */\n      dup3\n        /* \"#utility.yul\":3238:3247   */\n      dup7\n        /* \"#utility.yul\":3234:3256   */\n      add\n        /* \"#utility.yul\":3213:3266   */\n      tag_179\n      jump\t// in\n    tag_274:\n        /* \"#utility.yul\":3203:3266   */\n      swap3\n      pop\n        /* \"#utility.yul\":3159:3276   */\n      pop\n        /* \"#utility.yul\":3315:3317   */\n      0x20\n        /* \"#utility.yul\":3341:3394   */\n      tag_275\n        /* \"#utility.yul\":3386:3393   */\n      dup6\n        /* \"#utility.yul\":3377:3383   */\n      dup3\n        /* \"#utility.yul\":3366:3375   */\n      dup7\n        /* \"#utility.yul\":3362:3384   */\n      add\n        /* \"#utility.yul\":3341:3394   */\n      tag_169\n      jump\t// in\n    tag_275:\n        /* \"#utility.yul\":3331:3394   */\n      swap2\n      pop\n        /* \"#utility.yul\":3286:3404   */\n      pop\n        /* \"#utility.yul\":2937:3411   */\n      swap3\n      pop\n      swap3\n      swap1\n      pop\n      jump\t// out\n        /* \"#utility.yul\":3417:3535   */\n    tag_180:\n        /* \"#utility.yul\":3504:3528   */\n      tag_277\n        /* \"#utility.yul\":3522:3527   */\n      dup2\n        /* \"#utility.yul\":3504:3528   */\n      tag_177\n      jump\t// in\n    tag_277:\n        /* \"#utility.yul\":3499:3502   */\n      dup3\n        /* \"#utility.yul\":3492:3529   */\n      mstore\n        /* \"#utility.yul\":3417:3535   */\n      pop\n      pop\n      jump\t// out\n        /* \"#utility.yul\":3541:3763   */\n    tag_42:\n        /* \"#utility.yul\":3634:3638   */\n      0x00\n        /* \"#utility.yul\":3672:3674   */\n      0x20\n        /* \"#utility.yul\":3661:3670   */\n      dup3\n        /* \"#utility.yul\":3657:3675   */\n      add\n        /* \"#utility.yul\":3649:3675   */\n      swap1\n      pop\n        /* \"#utility.yul\":3685:3756   */\n      tag_279\n        /* \"#utility.yul\":3753:3754   */\n      0x00\n        /* \"#utility.yul\":3742:3751   */\n      dup4\n        /* \"#utility.yul\":3738:3755   */\n      add\n        /* \"#utility.yul\":3729:3735   */\n      dup5\n        /* \"#utility.yul\":3685:3756   */\n      tag_180\n      jump\t// in\n    tag_279:\n        /* \"#utility.yul\":3541:3763   */\n      swap3\n      swap2\n      pop\n      pop\n      jump\t// out\n        /* \"#utility.yul\":3769:4098   */\n    tag_50:\n        /* \"#utility.yul\":3828:3834   */\n      0x00\n        /* \"#utility.yul\":3877:3879   */\n      0x20\n        /* \"#utility.yul\":3865:3874   */\n      dup3\n        /* \"#utility.yul\":3856:3863   */\n      dup5\n        /* \"#utility.yul\":3852:3875   */\n      sub\n        /* \"#utility.yul\":3848:3880   */\n      slt\n        /* \"#utility.yul\":3845:3964   */\n      iszero\n      tag_281\n      jumpi\n        /* \"#utility.yul\":3883:3962   */\n      tag_282\n      tag_165\n      jump\t// in\n    tag_282:\n        /* \"#utility.yul\":3845:3964   */\n    tag_281:\n        /* \"#utility.yul\":4003:4004   */\n      0x00\n        /* \"#utility.yul\":4028:4081   */\n      tag_283\n        /* \"#utility.yul\":4073:4080   */\n      dup5\n        /* \"#utility.yul\":4064:4070   */\n      dup3\n        /* \"#utility.yul\":4053:4062   */\n      dup6\n        /* \"#utility.yul\":4049:4071   */\n      add\n        /* \"#utility.yul\":4028:4081   */\n      tag_169\n      jump\t// in\n    tag_283:\n        /* \"#utility.yul\":4018:4081   */\n      swap2\n      pop\n        /* \"#utility.yul\":3974:4091   */\n      pop\n        /* \"#utility.yul\":3769:4098   */\n      swap3\n      swap2\n      pop\n      pop\n      jump\t// out\n        /* \"#utility.yul\":4104:4256   */\n    tag_181:\n        /* \"#utility.yul\":4180:4189   */\n      0x00\n        /* \"#utility.yul\":4213:4250   */\n      tag_285\n        /* \"#utility.yul\":4244:4249   */\n      dup3\n        /* \"#utility.yul\":4213:4250   */\n      tag_173\n      jump\t// in\n    tag_285:\n        /* \"#utility.yul\":4200:4250   */\n      swap1\n      pop\n        /* \"#utility.yul\":4104:4256   */\n      swap2\n      swap1\n      pop\n      jump\t// out\n        /* \"#utility.yul\":4262:4445   */\n    tag_182:\n        /* \"#utility.yul\":4375:4438   */\n      tag_287\n        /* \"#utility.yul\":4432:4437   */\n      dup2\n        /* \"#utility.yul\":4375:4438   */\n      tag_181\n      jump\t// in\n    tag_287:\n        /* \"#utility.yul\":4370:4373   */\n      dup3\n        /* \"#utility.yul\":4363:4439   */\n      mstore\n        /* \"#utility.yul\":4262:4445   */\n      pop\n      pop\n      jump\t// out\n        /* \"#utility.yul\":4451:4725   */\n    tag_56:\n        /* \"#utility.yul\":4570:4574   */\n      0x00\n        /* \"#utility.yul\":4608:4610   */\n      0x20\n        /* \"#utility.yul\":4597:4606   */\n      dup3\n        /* \"#utility.yul\":4593:4611   */\n      add\n        /* \"#utility.yul\":4585:4611   */\n      swap1\n      pop\n        /* \"#utility.yul\":4621:4718   */\n      tag_289\n        /* \"#utility.yul\":4715:4716   */\n      0x00\n        /* \"#utility.yul\":4704:4713   */\n      dup4\n        /* \"#utility.yul\":4700:4717   */\n      add\n        /* \"#utility.yul\":4691:4697   */\n      dup5\n        /* \"#utility.yul\":4621:4718   */\n      tag_182\n      jump\t// in\n    tag_289:\n        /* \"#utility.yul\":4451:4725   */\n      swap3\n      swap2\n      pop\n      pop\n      jump\t// out\n        /* \"#utility.yul\":4731:4900   */\n    tag_183:\n        /* \"#utility.yul\":4815:4826   */\n      0x00\n        /* \"#utility.yul\":4849:4855   */\n      dup3\n        /* \"#utility.yul\":4844:4847   */\n      dup3\n        /* \"#utility.yul\":4837:4856   */\n      mstore\n        /* \"#utility.yul\":4889:4893   */\n      0x20\n        /* \"#utility.yul\":4884:4887   */\n      dup3\n        /* \"#utility.yul\":4880:4894   */\n      add\n        /* \"#utility.yul\":4865:4894   */\n      swap1\n      pop\n        /* \"#utility.yul\":4731:4900   */\n      swap3\n      swap2\n      pop\n      pop\n      jump\t// out\n        /* \"#utility.yul\":4906:5065   */\n    tag_184:\n        /* \"#utility.yul\":5046:5057   */\n      0x4e4f545f4f574e45520000000000000000000000000000000000000000000000\n        /* \"#utility.yul\":5042:5043   */\n      0x00\n        /* \"#utility.yul\":5034:5040   */\n      dup3\n        /* \"#utility.yul\":5030:5044   */\n      add\n        /* \"#utility.yul\":5023:5058   */\n      mstore\n        /* \"#utility.yul\":4906:5065   */\n      pop\n      jump\t// out\n        /* \"#utility.yul\":5071:5436   */\n    tag_185:\n        /* \"#utility.yul\":5213:5216   */\n      0x00\n        /* \"#utility.yul\":5234:5300   */\n      tag_293\n        /* \"#utility.yul\":5298:5299   */\n      0x09\n        /* \"#utility.yul\":5293:5296   */\n      dup4\n        /* \"#utility.yul\":5234:5300   */\n      tag_183\n      jump\t// in\n    tag_293:\n        /* \"#utility.yul\":5227:5300   */\n      swap2\n      pop\n        /* \"#utility.yul\":5309:5402   */\n      tag_294\n        /* \"#utility.yul\":5398:5401   */\n      dup3\n        /* \"#utility.yul\":5309:5402   */\n      tag_184\n      jump\t// in\n    tag_294:\n        /* \"#utility.yul\":5427:5429   */\n      0x20\n        /* \"#utility.yul\":5422:5425   */\n      dup3\n        /* \"#utility.yul\":5418:5430   */\n      add\n        /* \"#utility.yul\":5411:5430   */\n      swap1\n      pop\n        /* \"#utility.yul\":5071:5436   */\n      swap2\n      swap1\n      pop\n      jump\t// out\n        /* \"#utility.yul\":5442:5861   */\n    tag_60:\n        /* \"#utility.yul\":5608:5612   */\n      0x00\n        /* \"#utility.yul\":5646:5648   */\n      0x20\n        /* \"#utility.yul\":5635:5644   */\n      dup3\n        /* \"#utility.yul\":5631:5649   */\n      add\n        /* \"#utility.yul\":5623:5649   */\n      swap1\n      pop\n        /* \"#utility.yul\":5695:5704   */\n      dup2\n        /* \"#utility.yul\":5689:5693   */\n      dup2\n        /* \"#utility.yul\":5685:5705   */\n      sub\n        /* \"#utility.yul\":5681:5682   */\n      0x00\n        /* \"#utility.yul\":5670:5679   */\n      dup4\n        /* \"#utility.yul\":5666:5683   */\n      add\n        /* \"#utility.yul\":5659:5706   */\n      mstore\n        /* \"#utility.yul\":5723:5854   */\n      tag_296\n        /* \"#utility.yul\":5849:5853   */\n      dup2\n        /* \"#utility.yul\":5723:5854   */\n      tag_185\n      jump\t// in\n    tag_296:\n        /* \"#utility.yul\":5715:5854   */\n      swap1\n      pop\n        /* \"#utility.yul\":5442:5861   */\n      swap2\n      swap1\n      pop\n      jump\t// out\n        /* \"#utility.yul\":5867:6199   */\n    tag_63:\n        /* \"#utility.yul\":5988:5992   */\n      0x00\n        /* \"#utility.yul\":6026:6028   */\n      0x40\n        /* \"#utility.yul\":6015:6024   */\n      dup3\n        /* \"#utility.yul\":6011:6029   */\n      add\n        /* \"#utility.yul\":6003:6029   */\n      swap1\n      pop\n        /* \"#utility.yul\":6039:6110   */\n      tag_298\n        /* \"#utility.yul\":6107:6108   */\n      0x00\n        /* \"#utility.yul\":6096:6105   */\n      dup4\n        /* \"#utility.yul\":6092:6109   */\n      add\n        /* \"#utility.yul\":6083:6089   */\n      dup6\n        /* \"#utility.yul\":6039:6110   */\n      tag_180\n      jump\t// in\n    tag_298:\n        /* \"#utility.yul\":6120:6192   */\n      tag_299\n        /* \"#utility.yul\":6188:6190   */\n      0x20\n        /* \"#utility.yul\":6177:6186   */\n      dup4\n        /* \"#utility.yul\":6173:6191   */\n      add\n        /* \"#utility.yul\":6164:6170   */\n      dup5\n        /* \"#utility.yul\":6120:6192   */\n      tag_176\n      jump\t// in\n    tag_299:\n        /* \"#utility.yul\":5867:6199   */\n      swap4\n      swap3\n      pop\n      pop\n      pop\n      jump\t// out\n        /* \"#utility.yul\":6205:6295   */\n    tag_186:\n        /* \"#utility.yul\":6239:6246   */\n      0x00\n        /* \"#utility.yul\":6282:6287   */\n      dup2\n        /* \"#utility.yul\":6275:6288   */\n      iszero\n        /* \"#utility.yul\":6268:6289   */\n      iszero\n        /* \"#utility.yul\":6257:6289   */\n      swap1\n      pop\n        /* \"#utility.yul\":6205:6295   */\n      swap2\n      swap1\n      pop\n      jump\t// out\n        /* \"#utility.yul\":6301:6417   */\n    tag_187:\n        /* \"#utility.yul\":6371:6392   */\n      tag_302\n        /* \"#utility.yul\":6386:6391   */\n      dup2\n        /* \"#utility.yul\":6371:6392   */\n      tag_186\n      jump\t// in\n    tag_302:\n        /* \"#utility.yul\":6364:6369   */\n      dup2\n        /* \"#utility.yul\":6361:6393   */\n      eq\n        /* \"#utility.yul\":6351:6411   */\n      tag_303\n      jumpi\n        /* \"#utility.yul\":6407:6408   */\n      0x00\n        /* \"#utility.yul\":6404:6405   */\n      dup1\n        /* \"#utility.yul\":6397:6409   */\n      revert\n        /* \"#utility.yul\":6351:6411   */\n    tag_303:\n        /* \"#utility.yul\":6301:6417   */\n      pop\n      jump\t// out\n        /* \"#utility.yul\":6423:6560   */\n    tag_188:\n        /* \"#utility.yul\":6477:6482   */\n      0x00\n        /* \"#utility.yul\":6508:6514   */\n      dup2\n        /* \"#utility.yul\":6502:6515   */\n      mload\n        /* \"#utility.yul\":6493:6515   */\n      swap1\n      pop\n        /* \"#utility.yul\":6524:6554   */\n      tag_305\n        /* \"#utility.yul\":6548:6553   */\n      dup2\n        /* \"#utility.yul\":6524:6554   */\n      tag_187\n      jump\t// in\n    tag_305:\n        /* \"#utility.yul\":6423:6560   */\n      swap3\n      swap2\n      pop\n      pop\n      jump\t// out\n        /* \"#utility.yul\":6566:6911   */\n    tag_67:\n        /* \"#utility.yul\":6633:6639   */\n      0x00\n        /* \"#utility.yul\":6682:6684   */\n      0x20\n        /* \"#utility.yul\":6670:6679   */\n      dup3\n        /* \"#utility.yul\":6661:6668   */\n      dup5\n        /* \"#utility.yul\":6657:6680   */\n      sub\n        /* \"#utility.yul\":6653:6685   */\n      slt\n        /* \"#utility.yul\":6650:6769   */\n      iszero\n      tag_307\n      jumpi\n        /* \"#utility.yul\":6688:6767   */\n      tag_308\n      tag_165\n      jump\t// in\n    tag_308:\n        /* \"#utility.yul\":6650:6769   */\n    tag_307:\n        /* \"#utility.yul\":6808:6809   */\n      0x00\n        /* \"#utility.yul\":6833:6894   */\n      tag_309\n        /* \"#utility.yul\":6886:6893   */\n      dup5\n        /* \"#utility.yul\":6877:6883   */\n      dup3\n        /* \"#utility.yul\":6866:6875   */\n      dup6\n        /* \"#utility.yul\":6862:6884   */\n      add\n        /* \"#utility.yul\":6833:6894   */\n      tag_188\n      jump\t// in\n    tag_309:\n        /* \"#utility.yul\":6823:6894   */\n      swap2\n      pop\n        /* \"#utility.yul\":6779:6904   */\n      pop\n        /* \"#utility.yul\":6566:6911   */\n      swap3\n      swap2\n      pop\n      pop\n      jump\t// out\n        /* \"#utility.yul\":6917:7078   */\n    tag_189:\n        /* \"#utility.yul\":7057:7070   */\n      0x5a45524f5f414d4f554e54000000000000000000000000000000000000000000\n        /* \"#utility.yul\":7053:7054   */\n      0x00\n        /* \"#utility.yul\":7045:7051   */\n      dup3\n        /* \"#utility.yul\":7041:7055   */\n      add\n        /* \"#utility.yul\":7034:7071   */\n      mstore\n        /* \"#utility.yul\":6917:7078   */\n      pop\n      jump\t// out\n        /* \"#utility.yul\":7084:7450   */\n    tag_190:\n        /* \"#utility.yul\":7226:7229   */\n      0x00\n        /* \"#utility.yul\":7247:7314   */\n      tag_312\n        /* \"#utility.yul\":7311:7313   */\n      0x0b\n        /* \"#utility.yul\":7306:7309   */\n      dup4\n        /* \"#utility.yul\":7247:7314   */\n      tag_183\n      jump\t// in\n    tag_312:\n        /* \"#utility.yul\":7240:7314   */\n      swap2\n      pop\n        /* \"#utility.yul\":7323:7416   */\n      tag_313\n        /* \"#utility.yul\":7412:7415   */\n      dup3\n        /* \"#utility.yul\":7323:7416   */\n      tag_189\n      jump\t// in\n    tag_313:\n        /* \"#utility.yul\":7441:7443   */\n      0x20\n        /* \"#utility.yul\":7436:7439   */\n      dup3\n        /* \"#utility.yul\":7432:7444   */\n      add\n        /* \"#utility.yul\":7425:7444   */\n      swap1\n      pop\n        /* \"#utility.yul\":7084:7450   */\n      swap2\n      swap1\n      pop\n      jump\t// out\n        /* \"#utility.yul\":7456:7875   */\n    tag_74:\n        /* \"#utility.yul\":7622:7626   */\n      0x00\n        /* \"#utility.yul\":7660:7662   */\n      0x20\n        /* \"#utility.yul\":7649:7658   */\n      dup3\n        /* \"#utility.yul\":7645:7663   */\n      add\n        /* \"#utility.yul\":7637:7663   */\n      swap1\n      pop\n        /* \"#utility.yul\":7709:7718   */\n      dup2\n        /* \"#utility.yul\":7703:7707   */\n      dup2\n        /* \"#utility.yul\":7699:7719   */\n      sub\n        /* \"#utility.yul\":7695:7696   */\n      0x00\n        /* \"#utility.yul\":7684:7693   */\n      dup4\n        /* \"#utility.yul\":7680:7697   */\n      add\n        /* \"#utility.yul\":7673:7720   */\n      mstore\n        /* \"#utility.yul\":7737:7868   */\n      tag_315\n        /* \"#utility.yul\":7863:7867   */\n      dup2\n        /* \"#utility.yul\":7737:7868   */\n      tag_190\n      jump\t// in\n    tag_315:\n        /* \"#utility.yul\":7729:7868   */\n      swap1\n      pop\n        /* \"#utility.yul\":7456:7875   */\n      swap2\n      swap1\n      pop\n      jump\t// out\n        /* \"#utility.yul\":7881:8047   */\n    tag_191:\n        /* \"#utility.yul\":8021:8039   */\n      0x494e53554646494349454e545f45544800000000000000000000000000000000\n        /* \"#utility.yul\":8017:8018   */\n      0x00\n        /* \"#utility.yul\":8009:8015   */\n      dup3\n        /* \"#utility.yul\":8005:8019   */\n      add\n        /* \"#utility.yul\":7998:8040   */\n      mstore\n        /* \"#utility.yul\":7881:8047   */\n      pop\n      jump\t// out\n        /* \"#utility.yul\":8053:8419   */\n    tag_192:\n        /* \"#utility.yul\":8195:8198   */\n      0x00\n        /* \"#utility.yul\":8216:8283   */\n      tag_318\n        /* \"#utility.yul\":8280:8282   */\n      0x10\n        /* \"#utility.yul\":8275:8278   */\n      dup4\n        /* \"#utility.yul\":8216:8283   */\n      tag_183\n      jump\t// in\n    tag_318:\n        /* \"#utility.yul\":8209:8283   */\n      swap2\n      pop\n        /* \"#utility.yul\":8292:8385   */\n      tag_319\n        /* \"#utility.yul\":8381:8384   */\n      dup3\n        /* \"#utility.yul\":8292:8385   */\n      tag_191\n      jump\t// in\n    tag_319:\n        /* \"#utility.yul\":8410:8412   */\n      0x20\n        /* \"#utility.yul\":8405:8408   */\n      dup3\n        /* \"#utility.yul\":8401:8413   */\n      add\n        /* \"#utility.yul\":8394:8413   */\n      swap1\n      pop\n        /* \"#utility.yul\":8053:8419   */\n      swap2\n      swap1\n      pop\n      jump\t// out\n        /* \"#utility.yul\":8425:8844   */\n    tag_77:\n        /* \"#utility.yul\":8591:8595   */\n      0x00\n        /* \"#utility.yul\":8629:8631   */\n      0x20\n        /* \"#utility.yul\":8618:8627   */\n      dup3\n        /* \"#utility.yul\":8614:8632   */\n      add\n        /* \"#utility.yul\":8606:8632   */\n      swap1\n      pop\n        /* \"#utility.yul\":8678:8687   */\n      dup2\n        /* \"#utility.yul\":8672:8676   */\n      dup2\n        /* \"#utility.yul\":8668:8688   */\n      sub\n        /* \"#utility.yul\":8664:8665   */\n      0x00\n        /* \"#utility.yul\":8653:8662   */\n      dup4\n        /* \"#utility.yul\":8649:8666   */\n      add\n        /* \"#utility.yul\":8642:8689   */\n      mstore\n        /* \"#utility.yul\":8706:8837   */\n      tag_321\n        /* \"#utility.yul\":8832:8836   */\n      dup2\n        /* \"#utility.yul\":8706:8837   */\n      tag_192\n      jump\t// in\n    tag_321:\n        /* \"#utility.yul\":8698:8837   */\n      swap1\n      pop\n        /* \"#utility.yul\":8425:8844   */\n      swap2\n      swap1\n      pop\n      jump\t// out\n        /* \"#utility.yul\":8850:9030   */\n    tag_80:\n        /* \"#utility.yul\":8898:8975   */\n      0x4e487b7100000000000000000000000000000000000000000000000000000000\n        /* \"#utility.yul\":8895:8896   */\n      0x00\n        /* \"#utility.yul\":8888:8976   */\n      mstore\n        /* \"#utility.yul\":8995:8999   */\n      0x41\n        /* \"#utility.yul\":8992:8993   */\n      0x04\n        /* \"#utility.yul\":8985:9000   */\n      mstore\n        /* \"#utility.yul\":9019:9023   */\n      0x24\n        /* \"#utility.yul\":9016:9017   */\n      0x00\n        /* \"#utility.yul\":9009:9024   */\n      revert\n        /* \"#utility.yul\":9036:9179   */\n    tag_193:\n        /* \"#utility.yul\":9093:9098   */\n      0x00\n        /* \"#utility.yul\":9124:9130   */\n      dup2\n        /* \"#utility.yul\":9118:9131   */\n      mload\n        /* \"#utility.yul\":9109:9131   */\n      swap1\n      pop\n        /* \"#utility.yul\":9140:9173   */\n      tag_324\n        /* \"#utility.yul\":9167:9172   */\n      dup2\n        /* \"#utility.yul\":9140:9173   */\n      tag_178\n      jump\t// in\n    tag_324:\n        /* \"#utility.yul\":9036:9179   */\n      swap3\n      swap2\n      pop\n      pop\n      jump\t// out\n        /* \"#utility.yul\":9185:9536   */\n    tag_85:\n        /* \"#utility.yul\":9255:9261   */\n      0x00\n        /* \"#utility.yul\":9304:9306   */\n      0x20\n        /* \"#utility.yul\":9292:9301   */\n      dup3\n        /* \"#utility.yul\":9283:9290   */\n      dup5\n        /* \"#utility.yul\":9279:9302   */\n      sub\n        /* \"#utility.yul\":9275:9307   */\n      slt\n        /* \"#utility.yul\":9272:9391   */\n      iszero\n      tag_326\n      jumpi\n        /* \"#utility.yul\":9310:9389   */\n      tag_327\n      tag_165\n      jump\t// in\n    tag_327:\n        /* \"#utility.yul\":9272:9391   */\n    tag_326:\n        /* \"#utility.yul\":9430:9431   */\n      0x00\n        /* \"#utility.yul\":9455:9519   */\n      tag_328\n        /* \"#utility.yul\":9511:9518   */\n      dup5\n        /* \"#utility.yul\":9502:9508   */\n      dup3\n        /* \"#utility.yul\":9491:9500   */\n      dup6\n        /* \"#utility.yul\":9487:9509   */\n      add\n        /* \"#utility.yul\":9455:9519   */\n      tag_193\n      jump\t// in\n    tag_328:\n        /* \"#utility.yul\":9445:9519   */\n      swap2\n      pop\n        /* \"#utility.yul\":9401:9529   */\n      pop\n        /* \"#utility.yul\":9185:9536   */\n      swap3\n      swap2\n      pop\n      pop\n      jump\t// out\n        /* \"#utility.yul\":9542:9722   */\n    tag_88:\n        /* \"#utility.yul\":9590:9667   */\n      0x4e487b7100000000000000000000000000000000000000000000000000000000\n        /* \"#utility.yul\":9587:9588   */\n      0x00\n        /* \"#utility.yul\":9580:9668   */\n      mstore\n        /* \"#utility.yul\":9687:9691   */\n      0x32\n        /* \"#utility.yul\":9684:9685   */\n      0x04\n        /* \"#utility.yul\":9677:9692   */\n      mstore\n        /* \"#utility.yul\":9711:9715   */\n      0x24\n        /* \"#utility.yul\":9708:9709   */\n      0x00\n        /* \"#utility.yul\":9701:9716   */\n      revert\n        /* \"#utility.yul\":9728:9908   */\n    tag_194:\n        /* \"#utility.yul\":9776:9853   */\n      0x4e487b7100000000000000000000000000000000000000000000000000000000\n        /* \"#utility.yul\":9773:9774   */\n      0x00\n        /* \"#utility.yul\":9766:9854   */\n      mstore\n        /* \"#utility.yul\":9873:9877   */\n      0x11\n        /* \"#utility.yul\":9870:9871   */\n      0x04\n        /* \"#utility.yul\":9863:9878   */\n      mstore\n        /* \"#utility.yul\":9897:9901   */\n      0x24\n        /* \"#utility.yul\":9894:9895   */\n      0x00\n        /* \"#utility.yul\":9887:9902   */\n      revert\n        /* \"#utility.yul\":9914:10105   */\n    tag_92:\n        /* \"#utility.yul\":9954:9957   */\n      0x00\n        /* \"#utility.yul\":9973:9993   */\n      tag_332\n        /* \"#utility.yul\":9991:9992   */\n      dup3\n        /* \"#utility.yul\":9973:9993   */\n      tag_167\n      jump\t// in\n    tag_332:\n        /* \"#utility.yul\":9968:9993   */\n      swap2\n      pop\n        /* \"#utility.yul\":10007:10027   */\n      tag_333\n        /* \"#utility.yul\":10025:10026   */\n      dup4\n        /* \"#utility.yul\":10007:10027   */\n      tag_167\n      jump\t// in\n    tag_333:\n        /* \"#utility.yul\":10002:10027   */\n      swap3\n      pop\n        /* \"#utility.yul\":10050:10051   */\n      dup3\n        /* \"#utility.yul\":10047:10048   */\n      dup3\n        /* \"#utility.yul\":10043:10052   */\n      add\n        /* \"#utility.yul\":10036:10052   */\n      swap1\n      pop\n        /* \"#utility.yul\":10071:10074   */\n      dup1\n        /* \"#utility.yul\":10068:10069   */\n      dup3\n        /* \"#utility.yul\":10065:10075   */\n      gt\n        /* \"#utility.yul\":10062:10098   */\n      iszero\n      tag_334\n      jumpi\n        /* \"#utility.yul\":10078:10096   */\n      tag_335\n      tag_194\n      jump\t// in\n    tag_335:\n        /* \"#utility.yul\":10062:10098   */\n    tag_334:\n        /* \"#utility.yul\":9914:10105   */\n      swap3\n      swap2\n      pop\n      pop\n      jump\t// out\n        /* \"#utility.yul\":10111:10225   */\n    tag_195:\n        /* \"#utility.yul\":10178:10184   */\n      0x00\n        /* \"#utility.yul\":10212:10217   */\n      dup2\n        /* \"#utility.yul\":10206:10218   */\n      mload\n        /* \"#utility.yul\":10196:10218   */\n      swap1\n      pop\n        /* \"#utility.yul\":10111:10225   */\n      swap2\n      swap1\n      pop\n      jump\t// out\n        /* \"#utility.yul\":10231:10415   */\n    tag_196:\n        /* \"#utility.yul\":10330:10341   */\n      0x00\n        /* \"#utility.yul\":10364:10370   */\n      dup3\n        /* \"#utility.yul\":10359:10362   */\n      dup3\n        /* \"#utility.yul\":10352:10371   */\n      mstore\n        /* \"#utility.yul\":10404:10408   */\n      0x20\n        /* \"#utility.yul\":10399:10402   */\n      dup3\n        /* \"#utility.yul\":10395:10409   */\n      add\n        /* \"#utility.yul\":10380:10409   */\n      swap1\n      pop\n        /* \"#utility.yul\":10231:10415   */\n      swap3\n      swap2\n      pop\n      pop\n      jump\t// out\n        /* \"#utility.yul\":10421:10553   */\n    tag_197:\n        /* \"#utility.yul\":10488:10492   */\n      0x00\n        /* \"#utility.yul\":10511:10514   */\n      dup2\n        /* \"#utility.yul\":10503:10514   */\n      swap1\n      pop\n        /* \"#utility.yul\":10541:10545   */\n      0x20\n        /* \"#utility.yul\":10536:10539   */\n      dup3\n        /* \"#utility.yul\":10532:10546   */\n      add\n        /* \"#utility.yul\":10524:10546   */\n      swap1\n      pop\n        /* \"#utility.yul\":10421:10553   */\n      swap2\n      swap1\n      pop\n      jump\t// out\n        /* \"#utility.yul\":10559:10667   */\n    tag_198:\n        /* \"#utility.yul\":10636:10660   */\n      tag_340\n        /* \"#utility.yul\":10654:10659   */\n      dup2\n        /* \"#utility.yul\":10636:10660   */\n      tag_177\n      jump\t// in\n    tag_340:\n        /* \"#utility.yul\":10631:10634   */\n      dup3\n        /* \"#utility.yul\":10624:10661   */\n      mstore\n        /* \"#utility.yul\":10559:10667   */\n      pop\n      pop\n      jump\t// out\n        /* \"#utility.yul\":10673:10852   */\n    tag_199:\n        /* \"#utility.yul\":10742:10752   */\n      0x00\n        /* \"#utility.yul\":10763:10809   */\n      tag_342\n        /* \"#utility.yul\":10805:10808   */\n      dup4\n        /* \"#utility.yul\":10797:10803   */\n      dup4\n        /* \"#utility.yul\":10763:10809   */\n      tag_198\n      jump\t// in\n    tag_342:\n        /* \"#utility.yul\":10841:10845   */\n      0x20\n        /* \"#utility.yul\":10836:10839   */\n      dup4\n        /* \"#utility.yul\":10832:10846   */\n      add\n        /* \"#utility.yul\":10818:10846   */\n      swap1\n      pop\n        /* \"#utility.yul\":10673:10852   */\n      swap3\n      swap2\n      pop\n      pop\n      jump\t// out\n        /* \"#utility.yul\":10858:10971   */\n    tag_200:\n        /* \"#utility.yul\":10928:10932   */\n      0x00\n        /* \"#utility.yul\":10960:10964   */\n      0x20\n        /* \"#utility.yul\":10955:10958   */\n      dup3\n        /* \"#utility.yul\":10951:10965   */\n      add\n        /* \"#utility.yul\":10943:10965   */\n      swap1\n      pop\n        /* \"#utility.yul\":10858:10971   */\n      swap2\n      swap1\n      pop\n      jump\t// out\n        /* \"#utility.yul\":11007:11739   */\n    tag_201:\n        /* \"#utility.yul\":11126:11129   */\n      0x00\n        /* \"#utility.yul\":11155:11209   */\n      tag_345\n        /* \"#utility.yul\":11203:11208   */\n      dup3\n        /* \"#utility.yul\":11155:11209   */\n      tag_195\n      jump\t// in\n    tag_345:\n        /* \"#utility.yul\":11225:11311   */\n      tag_346\n        /* \"#utility.yul\":11304:11310   */\n      dup2\n        /* \"#utility.yul\":11299:11302   */\n      dup6\n        /* \"#utility.yul\":11225:11311   */\n      tag_196\n      jump\t// in\n    tag_346:\n        /* \"#utility.yul\":11218:11311   */\n      swap4\n      pop\n        /* \"#utility.yul\":11335:11391   */\n      tag_347\n        /* \"#utility.yul\":11385:11390   */\n      dup4\n        /* \"#utility.yul\":11335:11391   */\n      tag_197\n      jump\t// in\n    tag_347:\n        /* \"#utility.yul\":11414:11421   */\n      dup1\n        /* \"#utility.yul\":11445:11446   */\n      0x00\n        /* \"#utility.yul\":11430:11714   */\n    tag_348:\n        /* \"#utility.yul\":11455:11461   */\n      dup4\n        /* \"#utility.yul\":11452:11453   */\n      dup2\n        /* \"#utility.yul\":11449:11462   */\n      lt\n        /* \"#utility.yul\":11430:11714   */\n      iszero\n      tag_350\n      jumpi\n        /* \"#utility.yul\":11531:11537   */\n      dup2\n        /* \"#utility.yul\":11525:11538   */\n      mload\n        /* \"#utility.yul\":11558:11621   */\n      tag_351\n        /* \"#utility.yul\":11617:11620   */\n      dup9\n        /* \"#utility.yul\":11602:11615   */\n      dup3\n        /* \"#utility.yul\":11558:11621   */\n      tag_199\n      jump\t// in\n    tag_351:\n        /* \"#utility.yul\":11551:11621   */\n      swap8\n      pop\n        /* \"#utility.yul\":11644:11704   */\n      tag_352\n        /* \"#utility.yul\":11697:11703   */\n      dup4\n        /* \"#utility.yul\":11644:11704   */\n      tag_200\n      jump\t// in\n    tag_352:\n        /* \"#utility.yul\":11634:11704   */\n      swap3\n      pop\n        /* \"#utility.yul\":11490:11714   */\n      pop\n        /* \"#utility.yul\":11477:11478   */\n      0x01\n        /* \"#utility.yul\":11474:11475   */\n      dup2\n        /* \"#utility.yul\":11470:11479   */\n      add\n        /* \"#utility.yul\":11465:11479   */\n      swap1\n      pop\n        /* \"#utility.yul\":11430:11714   */\n      jump(tag_348)\n    tag_350:\n        /* \"#utility.yul\":11434:11448   */\n      pop\n        /* \"#utility.yul\":11730:11733   */\n      dup6\n        /* \"#utility.yul\":11723:11733   */\n      swap4\n      pop\n        /* \"#utility.yul\":11131:11739   */\n      pop\n      pop\n      pop\n        /* \"#utility.yul\":11007:11739   */\n      swap3\n      swap2\n      pop\n      pop\n      jump\t// out\n        /* \"#utility.yul\":11745:12449   */\n    tag_94:\n        /* \"#utility.yul\":11972:11976   */\n      0x00\n        /* \"#utility.yul\":12010:12013   */\n      0x80\n        /* \"#utility.yul\":11999:12008   */\n      dup3\n        /* \"#utility.yul\":11995:12014   */\n      add\n        /* \"#utility.yul\":11987:12014   */\n      swap1\n      pop\n        /* \"#utility.yul\":12024:12095   */\n      tag_354\n        /* \"#utility.yul\":12092:12093   */\n      0x00\n        /* \"#utility.yul\":12081:12090   */\n      dup4\n        /* \"#utility.yul\":12077:12094   */\n      add\n        /* \"#utility.yul\":12068:12074   */\n      dup8\n        /* \"#utility.yul\":12024:12095   */\n      tag_176\n      jump\t// in\n    tag_354:\n        /* \"#utility.yul\":12142:12151   */\n      dup2\n        /* \"#utility.yul\":12136:12140   */\n      dup2\n        /* \"#utility.yul\":12132:12152   */\n      sub\n        /* \"#utility.yul\":12127:12129   */\n      0x20\n        /* \"#utility.yul\":12116:12125   */\n      dup4\n        /* \"#utility.yul\":12112:12130   */\n      add\n        /* \"#utility.yul\":12105:12153   */\n      mstore\n        /* \"#utility.yul\":12170:12278   */\n      tag_355\n        /* \"#utility.yul\":12273:12277   */\n      dup2\n        /* \"#utility.yul\":12264:12270   */\n      dup7\n        /* \"#utility.yul\":12170:12278   */\n      tag_201\n      jump\t// in\n    tag_355:\n        /* \"#utility.yul\":12162:12278   */\n      swap1\n      pop\n        /* \"#utility.yul\":12288:12360   */\n      tag_356\n        /* \"#utility.yul\":12356:12358   */\n      0x40\n        /* \"#utility.yul\":12345:12354   */\n      dup4\n        /* \"#utility.yul\":12341:12359   */\n      add\n        /* \"#utility.yul\":12332:12338   */\n      dup6\n        /* \"#utility.yul\":12288:12360   */\n      tag_180\n      jump\t// in\n    tag_356:\n        /* \"#utility.yul\":12370:12442   */\n      tag_357\n        /* \"#utility.yul\":12438:12440   */\n      0x60\n        /* \"#utility.yul\":12427:12436   */\n      dup4\n        /* \"#utility.yul\":12423:12441   */\n      add\n        /* \"#utility.yul\":12414:12420   */\n      dup5\n        /* \"#utility.yul\":12370:12442   */\n      tag_176\n      jump\t// in\n    tag_357:\n        /* \"#utility.yul\":11745:12449   */\n      swap6\n      swap5\n      pop\n      pop\n      pop\n      pop\n      pop\n      jump\t// out\n        /* \"#utility.yul\":12455:12572   */\n    tag_202:\n        /* \"#utility.yul\":12564:12565   */\n      0x00\n        /* \"#utility.yul\":12561:12562   */\n      dup1\n        /* \"#utility.yul\":12554:12566   */\n      revert\n        /* \"#utility.yul\":12578:12680   */\n    tag_203:\n        /* \"#utility.yul\":12619:12625   */\n      0x00\n        /* \"#utility.yul\":12670:12672   */\n      0x1f\n        /* \"#utility.yul\":12666:12673   */\n      not\n        /* \"#utility.yul\":12661:12663   */\n      0x1f\n        /* \"#utility.yul\":12654:12659   */\n      dup4\n        /* \"#utility.yul\":12650:12664   */\n      add\n        /* \"#utility.yul\":12646:12674   */\n      and\n        /* \"#utility.yul\":12636:12674   */\n      swap1\n      pop\n        /* \"#utility.yul\":12578:12680   */\n      swap2\n      swap1\n      pop\n      jump\t// out\n        /* \"#utility.yul\":12686:12967   */\n    tag_204:\n        /* \"#utility.yul\":12769:12796   */\n      tag_361\n        /* \"#utility.yul\":12791:12795   */\n      dup3\n        /* \"#utility.yul\":12769:12796   */\n      tag_203\n      jump\t// in\n    tag_361:\n        /* \"#utility.yul\":12761:12767   */\n      dup2\n        /* \"#utility.yul\":12757:12797   */\n      add\n        /* \"#utility.yul\":12899:12905   */\n      dup2\n        /* \"#utility.yul\":12887:12897   */\n      dup2\n        /* \"#utility.yul\":12884:12906   */\n      lt\n        /* \"#utility.yul\":12863:12881   */\n      0xffffffffffffffff\n        /* \"#utility.yul\":12851:12861   */\n      dup3\n        /* \"#utility.yul\":12848:12882   */\n      gt\n        /* \"#utility.yul\":12845:12907   */\n      or\n        /* \"#utility.yul\":12842:12930   */\n      iszero\n      tag_362\n      jumpi\n        /* \"#utility.yul\":12910:12928   */\n      tag_363\n      tag_80\n      jump\t// in\n    tag_363:\n        /* \"#utility.yul\":12842:12930   */\n    tag_362:\n        /* \"#utility.yul\":12950:12960   */\n      dup1\n        /* \"#utility.yul\":12946:12948   */\n      0x40\n        /* \"#utility.yul\":12939:12961   */\n      mstore\n        /* \"#utility.yul\":12729:12967   */\n      pop\n        /* \"#utility.yul\":12686:12967   */\n      pop\n      pop\n      jump\t// out\n        /* \"#utility.yul\":12973:13102   */\n    tag_205:\n        /* \"#utility.yul\":13007:13013   */\n      0x00\n        /* \"#utility.yul\":13034:13054   */\n      tag_365\n      tag_164\n      jump\t// in\n    tag_365:\n        /* \"#utility.yul\":13024:13054   */\n      swap1\n      pop\n        /* \"#utility.yul\":13063:13096   */\n      tag_366\n        /* \"#utility.yul\":13091:13095   */\n      dup3\n        /* \"#utility.yul\":13083:13089   */\n      dup3\n        /* \"#utility.yul\":13063:13096   */\n      tag_204\n      jump\t// in\n    tag_366:\n        /* \"#utility.yul\":12973:13102   */\n      swap2\n      swap1\n      pop\n      jump\t// out\n        /* \"#utility.yul\":13108:13419   */\n    tag_206:\n        /* \"#utility.yul\":13185:13189   */\n      0x00\n        /* \"#utility.yul\":13275:13293   */\n      0xffffffffffffffff\n        /* \"#utility.yul\":13267:13273   */\n      dup3\n        /* \"#utility.yul\":13264:13294   */\n      gt\n        /* \"#utility.yul\":13261:13317   */\n      iszero\n      tag_368\n      jumpi\n        /* \"#utility.yul\":13297:13315   */\n      tag_369\n      tag_80\n      jump\t// in\n    tag_369:\n        /* \"#utility.yul\":13261:13317   */\n    tag_368:\n        /* \"#utility.yul\":13347:13351   */\n      0x20\n        /* \"#utility.yul\":13339:13345   */\n      dup3\n        /* \"#utility.yul\":13335:13352   */\n      mul\n        /* \"#utility.yul\":13327:13352   */\n      swap1\n      pop\n        /* \"#utility.yul\":13407:13411   */\n      0x20\n        /* \"#utility.yul\":13401:13405   */\n      dup2\n        /* \"#utility.yul\":13397:13412   */\n      add\n        /* \"#utility.yul\":13389:13412   */\n      swap1\n      pop\n        /* \"#utility.yul\":13108:13419   */\n      swap2\n      swap1\n      pop\n      jump\t// out\n        /* \"#utility.yul\":13425:13542   */\n    tag_207:\n        /* \"#utility.yul\":13534:13535   */\n      0x00\n        /* \"#utility.yul\":13531:13532   */\n      dup1\n        /* \"#utility.yul\":13524:13536   */\n      revert\n        /* \"#utility.yul\":13548:13691   */\n    tag_208:\n        /* \"#utility.yul\":13605:13610   */\n      0x00\n        /* \"#utility.yul\":13636:13642   */\n      dup2\n        /* \"#utility.yul\":13630:13643   */\n      mload\n        /* \"#utility.yul\":13621:13643   */\n      swap1\n      pop\n        /* \"#utility.yul\":13652:13685   */\n      tag_372\n        /* \"#utility.yul\":13679:13684   */\n      dup2\n        /* \"#utility.yul\":13652:13685   */\n      tag_168\n      jump\t// in\n    tag_372:\n        /* \"#utility.yul\":13548:13691   */\n      swap3\n      swap2\n      pop\n      pop\n      jump\t// out\n        /* \"#utility.yul\":13714:14446   */\n    tag_209:\n        /* \"#utility.yul\":13821:13826   */\n      0x00\n        /* \"#utility.yul\":13846:13927   */\n      tag_374\n        /* \"#utility.yul\":13862:13926   */\n      tag_375\n        /* \"#utility.yul\":13919:13925   */\n      dup5\n        /* \"#utility.yul\":13862:13926   */\n      tag_206\n      jump\t// in\n    tag_375:\n        /* \"#utility.yul\":13846:13927   */\n      tag_205\n      jump\t// in\n    tag_374:\n        /* \"#utility.yul\":13837:13927   */\n      swap1\n      pop\n        /* \"#utility.yul\":13947:13952   */\n      dup1\n        /* \"#utility.yul\":13976:13982   */\n      dup4\n        /* \"#utility.yul\":13969:13974   */\n      dup3\n        /* \"#utility.yul\":13962:13983   */\n      mstore\n        /* \"#utility.yul\":14010:14014   */\n      0x20\n        /* \"#utility.yul\":14003:14008   */\n      dup3\n        /* \"#utility.yul\":13999:14015   */\n      add\n        /* \"#utility.yul\":13992:14015   */\n      swap1\n      pop\n        /* \"#utility.yul\":14063:14067   */\n      0x20\n        /* \"#utility.yul\":14055:14061   */\n      dup5\n        /* \"#utility.yul\":14051:14068   */\n      mul\n        /* \"#utility.yul\":14043:14049   */\n      dup4\n        /* \"#utility.yul\":14039:14069   */\n      add\n        /* \"#utility.yul\":14092:14095   */\n      dup6\n        /* \"#utility.yul\":14084:14090   */\n      dup2\n        /* \"#utility.yul\":14081:14096   */\n      gt\n        /* \"#utility.yul\":14078:14200   */\n      iszero\n      tag_376\n      jumpi\n        /* \"#utility.yul\":14111:14190   */\n      tag_377\n      tag_207\n      jump\t// in\n    tag_377:\n        /* \"#utility.yul\":14078:14200   */\n    tag_376:\n        /* \"#utility.yul\":14226:14232   */\n      dup4\n        /* \"#utility.yul\":14209:14440   */\n    tag_378:\n        /* \"#utility.yul\":14243:14249   */\n      dup2\n        /* \"#utility.yul\":14238:14241   */\n      dup2\n        /* \"#utility.yul\":14235:14250   */\n      lt\n        /* \"#utility.yul\":14209:14440   */\n      iszero\n      tag_380\n      jumpi\n        /* \"#utility.yul\":14318:14321   */\n      dup1\n        /* \"#utility.yul\":14347:14395   */\n      tag_381\n        /* \"#utility.yul\":14391:14394   */\n      dup9\n        /* \"#utility.yul\":14379:14389   */\n      dup3\n        /* \"#utility.yul\":14347:14395   */\n      tag_208\n      jump\t// in\n    tag_381:\n        /* \"#utility.yul\":14342:14345   */\n      dup5\n        /* \"#utility.yul\":14335:14396   */\n      mstore\n        /* \"#utility.yul\":14425:14429   */\n      0x20\n        /* \"#utility.yul\":14420:14423   */\n      dup5\n        /* \"#utility.yul\":14416:14430   */\n      add\n        /* \"#utility.yul\":14409:14430   */\n      swap4\n      pop\n        /* \"#utility.yul\":14285:14440   */\n      pop\n        /* \"#utility.yul\":14269:14273   */\n      0x20\n        /* \"#utility.yul\":14264:14267   */\n      dup2\n        /* \"#utility.yul\":14260:14274   */\n      add\n        /* \"#utility.yul\":14253:14274   */\n      swap1\n      pop\n        /* \"#utility.yul\":14209:14440   */\n      jump(tag_378)\n    tag_380:\n        /* \"#utility.yul\":14213:14234   */\n      pop\n        /* \"#utility.yul\":13827:14446   */\n      pop\n      pop\n        /* \"#utility.yul\":13714:14446   */\n      swap4\n      swap3\n      pop\n      pop\n      pop\n      jump\t// out\n        /* \"#utility.yul\":14469:14854   */\n    tag_210:\n        /* \"#utility.yul\":14551:14556   */\n      0x00\n        /* \"#utility.yul\":14600:14603   */\n      dup3\n        /* \"#utility.yul\":14593:14597   */\n      0x1f\n        /* \"#utility.yul\":14585:14591   */\n      dup4\n        /* \"#utility.yul\":14581:14598   */\n      add\n        /* \"#utility.yul\":14577:14604   */\n      slt\n        /* \"#utility.yul\":14567:14689   */\n      tag_383\n      jumpi\n        /* \"#utility.yul\":14608:14687   */\n      tag_384\n      tag_202\n      jump\t// in\n    tag_384:\n        /* \"#utility.yul\":14567:14689   */\n    tag_383:\n        /* \"#utility.yul\":14718:14724   */\n      dup2\n        /* \"#utility.yul\":14712:14725   */\n      mload\n        /* \"#utility.yul\":14743:14848   */\n      tag_385\n        /* \"#utility.yul\":14844:14847   */\n      dup5\n        /* \"#utility.yul\":14836:14842   */\n      dup3\n        /* \"#utility.yul\":14829:14833   */\n      0x20\n        /* \"#utility.yul\":14821:14827   */\n      dup7\n        /* \"#utility.yul\":14817:14834   */\n      add\n        /* \"#utility.yul\":14743:14848   */\n      tag_209\n      jump\t// in\n    tag_385:\n        /* \"#utility.yul\":14734:14848   */\n      swap2\n      pop\n        /* \"#utility.yul\":14557:14854   */\n      pop\n        /* \"#utility.yul\":14469:14854   */\n      swap3\n      swap2\n      pop\n      pop\n      jump\t// out\n        /* \"#utility.yul\":14860:15414   */\n    tag_98:\n        /* \"#utility.yul\":14955:14961   */\n      0x00\n        /* \"#utility.yul\":15004:15006   */\n      0x20\n        /* \"#utility.yul\":14992:15001   */\n      dup3\n        /* \"#utility.yul\":14983:14990   */\n      dup5\n        /* \"#utility.yul\":14979:15002   */\n      sub\n        /* \"#utility.yul\":14975:15007   */\n      slt\n        /* \"#utility.yul\":14972:15091   */\n      iszero\n      tag_387\n      jumpi\n        /* \"#utility.yul\":15010:15089   */\n      tag_388\n      tag_165\n      jump\t// in\n    tag_388:\n        /* \"#utility.yul\":14972:15091   */\n    tag_387:\n        /* \"#utility.yul\":15151:15152   */\n      0x00\n        /* \"#utility.yul\":15140:15149   */\n      dup3\n        /* \"#utility.yul\":15136:15153   */\n      add\n        /* \"#utility.yul\":15130:15154   */\n      mload\n        /* \"#utility.yul\":15181:15199   */\n      0xffffffffffffffff\n        /* \"#utility.yul\":15173:15179   */\n      dup2\n        /* \"#utility.yul\":15170:15200   */\n      gt\n        /* \"#utility.yul\":15167:15284   */\n      iszero\n      tag_389\n      jumpi\n        /* \"#utility.yul\":15203:15282   */\n      tag_390\n      tag_166\n      jump\t// in\n    tag_390:\n        /* \"#utility.yul\":15167:15284   */\n    tag_389:\n        /* \"#utility.yul\":15308:15397   */\n      tag_391\n        /* \"#utility.yul\":15389:15396   */\n      dup5\n        /* \"#utility.yul\":15380:15386   */\n      dup3\n        /* \"#utility.yul\":15369:15378   */\n      dup6\n        /* \"#utility.yul\":15365:15387   */\n      add\n        /* \"#utility.yul\":15308:15397   */\n      tag_210\n      jump\t// in\n    tag_391:\n        /* \"#utility.yul\":15298:15397   */\n      swap2\n      pop\n        /* \"#utility.yul\":15101:15407   */\n      pop\n        /* \"#utility.yul\":14860:15414   */\n      swap3\n      swap2\n      pop\n      pop\n      jump\t// out\n        /* \"#utility.yul\":15420:15505   */\n    tag_211:\n        /* \"#utility.yul\":15465:15472   */\n      0x00\n        /* \"#utility.yul\":15494:15499   */\n      dup2\n        /* \"#utility.yul\":15483:15499   */\n      swap1\n      pop\n        /* \"#utility.yul\":15420:15505   */\n      swap2\n      swap1\n      pop\n      jump\t// out\n        /* \"#utility.yul\":15511:15597   */\n    tag_212:\n        /* \"#utility.yul\":15546:15553   */\n      0x00\n        /* \"#utility.yul\":15586:15590   */\n      0xff\n        /* \"#utility.yul\":15579:15584   */\n      dup3\n        /* \"#utility.yul\":15575:15591   */\n      and\n        /* \"#utility.yul\":15564:15591   */\n      swap1\n      pop\n        /* \"#utility.yul\":15511:15597   */\n      swap2\n      swap1\n      pop\n      jump\t// out\n        /* \"#utility.yul\":15603:15757   */\n    tag_213:\n        /* \"#utility.yul\":15659:15668   */\n      0x00\n        /* \"#utility.yul\":15692:15751   */\n      tag_395\n        /* \"#utility.yul\":15708:15750   */\n      tag_396\n        /* \"#utility.yul\":15717:15749   */\n      tag_397\n        /* \"#utility.yul\":15743:15748   */\n      dup5\n        /* \"#utility.yul\":15717:15749   */\n      tag_211\n      jump\t// in\n    tag_397:\n        /* \"#utility.yul\":15708:15750   */\n      tag_171\n      jump\t// in\n    tag_396:\n        /* \"#utility.yul\":15692:15751   */\n      tag_212\n      jump\t// in\n    tag_395:\n        /* \"#utility.yul\":15679:15751   */\n      swap1\n      pop\n        /* \"#utility.yul\":15603:15757   */\n      swap2\n      swap1\n      pop\n      jump\t// out\n        /* \"#utility.yul\":15763:15906   */\n    tag_214:\n        /* \"#utility.yul\":15856:15899   */\n      tag_399\n        /* \"#utility.yul\":15893:15898   */\n      dup2\n        /* \"#utility.yul\":15856:15899   */\n      tag_213\n      jump\t// in\n    tag_399:\n        /* \"#utility.yul\":15851:15854   */\n      dup3\n        /* \"#utility.yul\":15844:15900   */\n      mstore\n        /* \"#utility.yul\":15763:15906   */\n      pop\n      pop\n      jump\t// out\n        /* \"#utility.yul\":15912:16366   */\n    tag_102:\n        /* \"#utility.yul\":16067:16071   */\n      0x00\n        /* \"#utility.yul\":16105:16107   */\n      0x60\n        /* \"#utility.yul\":16094:16103   */\n      dup3\n        /* \"#utility.yul\":16090:16108   */\n      add\n        /* \"#utility.yul\":16082:16108   */\n      swap1\n      pop\n        /* \"#utility.yul\":16118:16195   */\n      tag_401\n        /* \"#utility.yul\":16192:16193   */\n      0x00\n        /* \"#utility.yul\":16181:16190   */\n      dup4\n        /* \"#utility.yul\":16177:16194   */\n      add\n        /* \"#utility.yul\":16168:16174   */\n      dup7\n        /* \"#utility.yul\":16118:16195   */\n      tag_214\n      jump\t// in\n    tag_401:\n        /* \"#utility.yul\":16205:16277   */\n      tag_402\n        /* \"#utility.yul\":16273:16275   */\n      0x20\n        /* \"#utility.yul\":16262:16271   */\n      dup4\n        /* \"#utility.yul\":16258:16276   */\n      add\n        /* \"#utility.yul\":16249:16255   */\n      dup6\n        /* \"#utility.yul\":16205:16277   */\n      tag_176\n      jump\t// in\n    tag_402:\n        /* \"#utility.yul\":16287:16359   */\n      tag_403\n        /* \"#utility.yul\":16355:16357   */\n      0x40\n        /* \"#utility.yul\":16344:16353   */\n      dup4\n        /* \"#utility.yul\":16340:16358   */\n      add\n        /* \"#utility.yul\":16331:16337   */\n      dup5\n        /* \"#utility.yul\":16287:16359   */\n      tag_176\n      jump\t// in\n    tag_403:\n        /* \"#utility.yul\":15912:16366   */\n      swap5\n      swap4\n      pop\n      pop\n      pop\n      pop\n      jump\t// out\n        /* \"#utility.yul\":16372:16531   */\n    tag_215:\n        /* \"#utility.yul\":16512:16523   */\n      0x5a45524f5f555344430000000000000000000000000000000000000000000000\n        /* \"#utility.yul\":16508:16509   */\n      0x00\n        /* \"#utility.yul\":16500:16506   */\n      dup3\n        /* \"#utility.yul\":16496:16510   */\n      add\n        /* \"#utility.yul\":16489:16524   */\n      mstore\n        /* \"#utility.yul\":16372:16531   */\n      pop\n      jump\t// out\n        /* \"#utility.yul\":16537:16902   */\n    tag_216:\n        /* \"#utility.yul\":16679:16682   */\n      0x00\n        /* \"#utility.yul\":16700:16766   */\n      tag_406\n        /* \"#utility.yul\":16764:16765   */\n      0x09\n        /* \"#utility.yul\":16759:16762   */\n      dup4\n        /* \"#utility.yul\":16700:16766   */\n      tag_183\n      jump\t// in\n    tag_406:\n        /* \"#utility.yul\":16693:16766   */\n      swap2\n      pop\n        /* \"#utility.yul\":16775:16868   */\n      tag_407\n        /* \"#utility.yul\":16864:16867   */\n      dup3\n        /* \"#utility.yul\":16775:16868   */\n      tag_215\n      jump\t// in\n    tag_407:\n        /* \"#utility.yul\":16893:16895   */\n      0x20\n        /* \"#utility.yul\":16888:16891   */\n      dup3\n        /* \"#utility.yul\":16884:16896   */\n      add\n        /* \"#utility.yul\":16877:16896   */\n      swap1\n      pop\n        /* \"#utility.yul\":16537:16902   */\n      swap2\n      swap1\n      pop\n      jump\t// out\n        /* \"#utility.yul\":16908:17327   */\n    tag_117:\n        /* \"#utility.yul\":17074:17078   */\n      0x00\n        /* \"#utility.yul\":17112:17114   */\n      0x20\n        /* \"#utility.yul\":17101:17110   */\n      dup3\n        /* \"#utility.yul\":17097:17115   */\n      add\n        /* \"#utility.yul\":17089:17115   */\n      swap1\n      pop\n        /* \"#utility.yul\":17161:17170   */\n      dup2\n        /* \"#utility.yul\":17155:17159   */\n      dup2\n        /* \"#utility.yul\":17151:17171   */\n      sub\n        /* \"#utility.yul\":17147:17148   */\n      0x00\n        /* \"#utility.yul\":17136:17145   */\n      dup4\n        /* \"#utility.yul\":17132:17149   */\n      add\n        /* \"#utility.yul\":17125:17172   */\n      mstore\n        /* \"#utility.yul\":17189:17320   */\n      tag_409\n        /* \"#utility.yul\":17315:17319   */\n      dup2\n        /* \"#utility.yul\":17189:17320   */\n      tag_216\n      jump\t// in\n    tag_409:\n        /* \"#utility.yul\":17181:17320   */\n      swap1\n      pop\n        /* \"#utility.yul\":16908:17327   */\n      swap2\n      swap1\n      pop\n      jump\t// out\n        /* \"#utility.yul\":17333:17684   */\n    tag_122:\n        /* \"#utility.yul\":17403:17409   */\n      0x00\n        /* \"#utility.yul\":17452:17454   */\n      0x20\n        /* \"#utility.yul\":17440:17449   */\n      dup3\n        /* \"#utility.yul\":17431:17438   */\n      dup5\n        /* \"#utility.yul\":17427:17450   */\n      sub\n        /* \"#utility.yul\":17423:17455   */\n      slt\n        /* \"#utility.yul\":17420:17539   */\n      iszero\n      tag_411\n      jumpi\n        /* \"#utility.yul\":17458:17537   */\n      tag_412\n      tag_165\n      jump\t// in\n    tag_412:\n        /* \"#utility.yul\":17420:17539   */\n    tag_411:\n        /* \"#utility.yul\":17578:17579   */\n      0x00\n        /* \"#utility.yul\":17603:17667   */\n      tag_413\n        /* \"#utility.yul\":17659:17666   */\n      dup5\n        /* \"#utility.yul\":17650:17656   */\n      dup3\n        /* \"#utility.yul\":17639:17648   */\n      dup6\n        /* \"#utility.yul\":17635:17657   */\n      add\n        /* \"#utility.yul\":17603:17667   */\n      tag_208\n      jump\t// in\n    tag_413:\n        /* \"#utility.yul\":17593:17667   */\n      swap2\n      pop\n        /* \"#utility.yul\":17549:17677   */\n      pop\n        /* \"#utility.yul\":17333:17684   */\n      swap3\n      swap2\n      pop\n      pop\n      jump\t// out\n        /* \"#utility.yul\":17690:17857   */\n    tag_217:\n        /* \"#utility.yul\":17830:17849   */\n      0x494e53554646494349454e545f55534443000000000000000000000000000000\n        /* \"#utility.yul\":17826:17827   */\n      0x00\n        /* \"#utility.yul\":17818:17824   */\n      dup3\n        /* \"#utility.yul\":17814:17828   */\n      add\n        /* \"#utility.yul\":17807:17850   */\n      mstore\n        /* \"#utility.yul\":17690:17857   */\n      pop\n      jump\t// out\n        /* \"#utility.yul\":17863:18229   */\n    tag_218:\n        /* \"#utility.yul\":18005:18008   */\n      0x00\n        /* \"#utility.yul\":18026:18093   */\n      tag_416\n        /* \"#utility.yul\":18090:18092   */\n      0x11\n        /* \"#utility.yul\":18085:18088   */\n      dup4\n        /* \"#utility.yul\":18026:18093   */\n      tag_183\n      jump\t// in\n    tag_416:\n        /* \"#utility.yul\":18019:18093   */\n      swap2\n      pop\n        /* \"#utility.yul\":18102:18195   */\n      tag_417\n        /* \"#utility.yul\":18191:18194   */\n      dup3\n        /* \"#utility.yul\":18102:18195   */\n      tag_217\n      jump\t// in\n    tag_417:\n        /* \"#utility.yul\":18220:18222   */\n      0x20\n        /* \"#utility.yul\":18215:18218   */\n      dup3\n        /* \"#utility.yul\":18211:18223   */\n      add\n        /* \"#utility.yul\":18204:18223   */\n      swap1\n      pop\n        /* \"#utility.yul\":17863:18229   */\n      swap2\n      swap1\n      pop\n      jump\t// out\n        /* \"#utility.yul\":18235:18654   */\n    tag_125:\n        /* \"#utility.yul\":18401:18405   */\n      0x00\n        /* \"#utility.yul\":18439:18441   */\n      0x20\n        /* \"#utility.yul\":18428:18437   */\n      dup3\n        /* \"#utility.yul\":18424:18442   */\n      add\n        /* \"#utility.yul\":18416:18442   */\n      swap1\n      pop\n        /* \"#utility.yul\":18488:18497   */\n      dup2\n        /* \"#utility.yul\":18482:18486   */\n      dup2\n        /* \"#utility.yul\":18478:18498   */\n      sub\n        /* \"#utility.yul\":18474:18475   */\n      0x00\n        /* \"#utility.yul\":18463:18472   */\n      dup4\n        /* \"#utility.yul\":18459:18476   */\n      add\n        /* \"#utility.yul\":18452:18499   */\n      mstore\n        /* \"#utility.yul\":18516:18647   */\n      tag_419\n        /* \"#utility.yul\":18642:18646   */\n      dup2\n        /* \"#utility.yul\":18516:18647   */\n      tag_218\n      jump\t// in\n    tag_419:\n        /* \"#utility.yul\":18508:18647   */\n      swap1\n      pop\n        /* \"#utility.yul\":18235:18654   */\n      swap2\n      swap1\n      pop\n      jump\t// out\n        /* \"#utility.yul\":18660:19475   */\n    tag_138:\n        /* \"#utility.yul\":18915:18919   */\n      0x00\n        /* \"#utility.yul\":18953:18956   */\n      0xa0\n        /* \"#utility.yul\":18942:18951   */\n      dup3\n        /* \"#utility.yul\":18938:18957   */\n      add\n        /* \"#utility.yul\":18930:18957   */\n      swap1\n      pop\n        /* \"#utility.yul\":18967:19038   */\n      tag_421\n        /* \"#utility.yul\":19035:19036   */\n      0x00\n        /* \"#utility.yul\":19024:19033   */\n      dup4\n        /* \"#utility.yul\":19020:19037   */\n      add\n        /* \"#utility.yul\":19011:19017   */\n      dup9\n        /* \"#utility.yul\":18967:19038   */\n      tag_176\n      jump\t// in\n    tag_421:\n        /* \"#utility.yul\":19048:19120   */\n      tag_422\n        /* \"#utility.yul\":19116:19118   */\n      0x20\n        /* \"#utility.yul\":19105:19114   */\n      dup4\n        /* \"#utility.yul\":19101:19119   */\n      add\n        /* \"#utility.yul\":19092:19098   */\n      dup8\n        /* \"#utility.yul\":19048:19120   */\n      tag_176\n      jump\t// in\n    tag_422:\n        /* \"#utility.yul\":19167:19176   */\n      dup2\n        /* \"#utility.yul\":19161:19165   */\n      dup2\n        /* \"#utility.yul\":19157:19177   */\n      sub\n        /* \"#utility.yul\":19152:19154   */\n      0x40\n        /* \"#utility.yul\":19141:19150   */\n      dup4\n        /* \"#utility.yul\":19137:19155   */\n      add\n        /* \"#utility.yul\":19130:19178   */\n      mstore\n        /* \"#utility.yul\":19195:19303   */\n      tag_423\n        /* \"#utility.yul\":19298:19302   */\n      dup2\n        /* \"#utility.yul\":19289:19295   */\n      dup7\n        /* \"#utility.yul\":19195:19303   */\n      tag_201\n      jump\t// in\n    tag_423:\n        /* \"#utility.yul\":19187:19303   */\n      swap1\n      pop\n        /* \"#utility.yul\":19313:19385   */\n      tag_424\n        /* \"#utility.yul\":19381:19383   */\n      0x60\n        /* \"#utility.yul\":19370:19379   */\n      dup4\n        /* \"#utility.yul\":19366:19384   */\n      add\n        /* \"#utility.yul\":19357:19363   */\n      dup6\n        /* \"#utility.yul\":19313:19385   */\n      tag_180\n      jump\t// in\n    tag_424:\n        /* \"#utility.yul\":19395:19468   */\n      tag_425\n        /* \"#utility.yul\":19463:19466   */\n      0x80\n        /* \"#utility.yul\":19452:19461   */\n      dup4\n        /* \"#utility.yul\":19448:19467   */\n      add\n        /* \"#utility.yul\":19439:19445   */\n      dup5\n        /* \"#utility.yul\":19395:19468   */\n      tag_176\n      jump\t// in\n    tag_425:\n        /* \"#utility.yul\":18660:19475   */\n      swap7\n      swap6\n      pop\n      pop\n      pop\n      pop\n      pop\n      pop\n      jump\t// out\n        /* \"#utility.yul\":19481:19566   */\n    tag_219:\n        /* \"#utility.yul\":19526:19533   */\n      0x00\n        /* \"#utility.yul\":19555:19560   */\n      dup2\n        /* \"#utility.yul\":19544:19560   */\n      swap1\n      pop\n        /* \"#utility.yul\":19481:19566   */\n      swap2\n      swap1\n      pop\n      jump\t// out\n        /* \"#utility.yul\":19572:19726   */\n    tag_220:\n        /* \"#utility.yul\":19628:19637   */\n      0x00\n        /* \"#utility.yul\":19661:19720   */\n      tag_428\n        /* \"#utility.yul\":19677:19719   */\n      tag_429\n        /* \"#utility.yul\":19686:19718   */\n      tag_430\n        /* \"#utility.yul\":19712:19717   */\n      dup5\n        /* \"#utility.yul\":19686:19718   */\n      tag_219\n      jump\t// in\n    tag_430:\n        /* \"#utility.yul\":19677:19719   */\n      tag_171\n      jump\t// in\n    tag_429:\n        /* \"#utility.yul\":19661:19720   */\n      tag_212\n      jump\t// in\n    tag_428:\n        /* \"#utility.yul\":19648:19720   */\n      swap1\n      pop\n        /* \"#utility.yul\":19572:19726   */\n      swap2\n      swap1\n      pop\n      jump\t// out\n        /* \"#utility.yul\":19732:19875   */\n    tag_221:\n        /* \"#utility.yul\":19825:19868   */\n      tag_432\n        /* \"#utility.yul\":19862:19867   */\n      dup2\n        /* \"#utility.yul\":19825:19868   */\n      tag_220\n      jump\t// in\n    tag_432:\n        /* \"#utility.yul\":19820:19823   */\n      dup3\n        /* \"#utility.yul\":19813:19869   */\n      mstore\n        /* \"#utility.yul\":19732:19875   */\n      pop\n      pop\n      jump\t// out\n        /* \"#utility.yul\":19881:20335   */\n    tag_145:\n        /* \"#utility.yul\":20036:20040   */\n      0x00\n        /* \"#utility.yul\":20074:20076   */\n      0x60\n        /* \"#utility.yul\":20063:20072   */\n      dup3\n        /* \"#utility.yul\":20059:20077   */\n      add\n        /* \"#utility.yul\":20051:20077   */\n      swap1\n      pop\n        /* \"#utility.yul\":20087:20164   */\n      tag_434\n        /* \"#utility.yul\":20161:20162   */\n      0x00\n        /* \"#utility.yul\":20150:20159   */\n      dup4\n        /* \"#utility.yul\":20146:20163   */\n      add\n        /* \"#utility.yul\":20137:20143   */\n      dup7\n        /* \"#utility.yul\":20087:20164   */\n      tag_221\n      jump\t// in\n    tag_434:\n        /* \"#utility.yul\":20174:20246   */\n      tag_435\n        /* \"#utility.yul\":20242:20244   */\n      0x20\n        /* \"#utility.yul\":20231:20240   */\n      dup4\n        /* \"#utility.yul\":20227:20245   */\n      add\n        /* \"#utility.yul\":20218:20224   */\n      dup6\n        /* \"#utility.yul\":20174:20246   */\n      tag_176\n      jump\t// in\n    tag_435:\n        /* \"#utility.yul\":20256:20328   */\n      tag_436\n        /* \"#utility.yul\":20324:20326   */\n      0x40\n        /* \"#utility.yul\":20313:20322   */\n      dup4\n        /* \"#utility.yul\":20309:20327   */\n      add\n        /* \"#utility.yul\":20300:20306   */\n      dup5\n        /* \"#utility.yul\":20256:20328   */\n      tag_176\n      jump\t// in\n    tag_436:\n        /* \"#utility.yul\":19881:20335   */\n      swap5\n      swap4\n      pop\n      pop\n      pop\n      pop\n      jump\t// out\n        /* \"#utility.yul\":20341:20501   */\n    tag_222:\n        /* \"#utility.yul\":20481:20493   */\n      0x616d6f756e74203d203000000000000000000000000000000000000000000000\n        /* \"#utility.yul\":20477:20478   */\n      0x00\n        /* \"#utility.yul\":20469:20475   */\n      dup3\n        /* \"#utility.yul\":20465:20479   */\n      add\n        /* \"#utility.yul\":20458:20494   */\n      mstore\n        /* \"#utility.yul\":20341:20501   */\n      pop\n      jump\t// out\n        /* \"#utility.yul\":20507:20873   */\n    tag_223:\n        /* \"#utility.yul\":20649:20652   */\n      0x00\n        /* \"#utility.yul\":20670:20737   */\n      tag_439\n        /* \"#utility.yul\":20734:20736   */\n      0x0a\n        /* \"#utility.yul\":20729:20732   */\n      dup4\n        /* \"#utility.yul\":20670:20737   */\n      tag_183\n      jump\t// in\n    tag_439:\n        /* \"#utility.yul\":20663:20737   */\n      swap2\n      pop\n        /* \"#utility.yul\":20746:20839   */\n      tag_440\n        /* \"#utility.yul\":20835:20838   */\n      dup3\n        /* \"#utility.yul\":20746:20839   */\n      tag_222\n      jump\t// in\n    tag_440:\n        /* \"#utility.yul\":20864:20866   */\n      0x20\n        /* \"#utility.yul\":20859:20862   */\n      dup3\n        /* \"#utility.yul\":20855:20867   */\n      add\n        /* \"#utility.yul\":20848:20867   */\n      swap1\n      pop\n        /* \"#utility.yul\":20507:20873   */\n      swap2\n      swap1\n      pop\n      jump\t// out\n        /* \"#utility.yul\":20879:21298   */\n    tag_152:\n        /* \"#utility.yul\":21045:21049   */\n      0x00\n        /* \"#utility.yul\":21083:21085   */\n      0x20\n        /* \"#utility.yul\":21072:21081   */\n      dup3\n        /* \"#utility.yul\":21068:21086   */\n      add\n        /* \"#utility.yul\":21060:21086   */\n      swap1\n      pop\n        /* \"#utility.yul\":21132:21141   */\n      dup2\n        /* \"#utility.yul\":21126:21130   */\n      dup2\n        /* \"#utility.yul\":21122:21142   */\n      sub\n        /* \"#utility.yul\":21118:21119   */\n      0x00\n        /* \"#utility.yul\":21107:21116   */\n      dup4\n        /* \"#utility.yul\":21103:21120   */\n      add\n        /* \"#utility.yul\":21096:21143   */\n      mstore\n        /* \"#utility.yul\":21160:21291   */\n      tag_442\n        /* \"#utility.yul\":21286:21290   */\n      dup2\n        /* \"#utility.yul\":21160:21291   */\n      tag_223\n      jump\t// in\n    tag_442:\n        /* \"#utility.yul\":21152:21291   */\n      swap1\n      pop\n        /* \"#utility.yul\":20879:21298   */\n      swap2\n      swap1\n      pop\n      jump\t// out\n        /* \"#utility.yul\":21304:21467   */\n    tag_224:\n        /* \"#utility.yul\":21444:21459   */\n      0x6e6f2045544820656e6f75676800000000000000000000000000000000000000\n        /* \"#utility.yul\":21440:21441   */\n      0x00\n        /* \"#utility.yul\":21432:21438   */\n      dup3\n        /* \"#utility.yul\":21428:21442   */\n      add\n        /* \"#utility.yul\":21421:21460   */\n      mstore\n        /* \"#utility.yul\":21304:21467   */\n      pop\n      jump\t// out\n        /* \"#utility.yul\":21473:21839   */\n    tag_225:\n        /* \"#utility.yul\":21615:21618   */\n      0x00\n        /* \"#utility.yul\":21636:21703   */\n      tag_445\n        /* \"#utility.yul\":21700:21702   */\n      0x0d\n        /* \"#utility.yul\":21695:21698   */\n      dup4\n        /* \"#utility.yul\":21636:21703   */\n      tag_183\n      jump\t// in\n    tag_445:\n        /* \"#utility.yul\":21629:21703   */\n      swap2\n      pop\n        /* \"#utility.yul\":21712:21805   */\n      tag_446\n        /* \"#utility.yul\":21801:21804   */\n      dup3\n        /* \"#utility.yul\":21712:21805   */\n      tag_224\n      jump\t// in\n    tag_446:\n        /* \"#utility.yul\":21830:21832   */\n      0x20\n        /* \"#utility.yul\":21825:21828   */\n      dup3\n        /* \"#utility.yul\":21821:21833   */\n      add\n        /* \"#utility.yul\":21814:21833   */\n      swap1\n      pop\n        /* \"#utility.yul\":21473:21839   */\n      swap2\n      swap1\n      pop\n      jump\t// out\n        /* \"#utility.yul\":21845:22264   */\n    tag_155:\n        /* \"#utility.yul\":22011:22015   */\n      0x00\n        /* \"#utility.yul\":22049:22051   */\n      0x20\n        /* \"#utility.yul\":22038:22047   */\n      dup3\n        /* \"#utility.yul\":22034:22052   */\n      add\n        /* \"#utility.yul\":22026:22052   */\n      swap1\n      pop\n        /* \"#utility.yul\":22098:22107   */\n      dup2\n        /* \"#utility.yul\":22092:22096   */\n      dup2\n        /* \"#utility.yul\":22088:22108   */\n      sub\n        /* \"#utility.yul\":22084:22085   */\n      0x00\n        /* \"#utility.yul\":22073:22082   */\n      dup4\n        /* \"#utility.yul\":22069:22086   */\n      add\n        /* \"#utility.yul\":22062:22109   */\n      mstore\n        /* \"#utility.yul\":22126:22257   */\n      tag_448\n        /* \"#utility.yul\":22252:22256   */\n      dup2\n        /* \"#utility.yul\":22126:22257   */\n      tag_225\n      jump\t// in\n    tag_448:\n        /* \"#utility.yul\":22118:22257   */\n      swap1\n      pop\n        /* \"#utility.yul\":21845:22264   */\n      swap2\n      swap1\n      pop\n      jump\t// out\n        /* \"#utility.yul\":22270:22417   */\n    tag_226:\n        /* \"#utility.yul\":22371:22382   */\n      0x00\n        /* \"#utility.yul\":22408:22411   */\n      dup2\n        /* \"#utility.yul\":22393:22411   */\n      swap1\n      pop\n        /* \"#utility.yul\":22270:22417   */\n      swap3\n      swap2\n      pop\n      pop\n      jump\t// out\n        /* \"#utility.yul\":22423:22537   */\n    tag_227:\n      pop\n      jump\t// out\n        /* \"#utility.yul\":22543:22941   */\n    tag_228:\n        /* \"#utility.yul\":22702:22705   */\n      0x00\n        /* \"#utility.yul\":22723:22806   */\n      tag_452\n        /* \"#utility.yul\":22804:22805   */\n      0x00\n        /* \"#utility.yul\":22799:22802   */\n      dup4\n        /* \"#utility.yul\":22723:22806   */\n      tag_226\n      jump\t// in\n    tag_452:\n        /* \"#utility.yul\":22716:22806   */\n      swap2\n      pop\n        /* \"#utility.yul\":22815:22908   */\n      tag_453\n        /* \"#utility.yul\":22904:22907   */\n      dup3\n        /* \"#utility.yul\":22815:22908   */\n      tag_227\n      jump\t// in\n    tag_453:\n        /* \"#utility.yul\":22933:22934   */\n      0x00\n        /* \"#utility.yul\":22928:22931   */\n      dup3\n        /* \"#utility.yul\":22924:22935   */\n      add\n        /* \"#utility.yul\":22917:22935   */\n      swap1\n      pop\n        /* \"#utility.yul\":22543:22941   */\n      swap2\n      swap1\n      pop\n      jump\t// out\n        /* \"#utility.yul\":22947:23326   */\n    tag_157:\n        /* \"#utility.yul\":23131:23134   */\n      0x00\n        /* \"#utility.yul\":23153:23300   */\n      tag_455\n        /* \"#utility.yul\":23296:23299   */\n      dup3\n        /* \"#utility.yul\":23153:23300   */\n      tag_228\n      jump\t// in\n    tag_455:\n        /* \"#utility.yul\":23146:23300   */\n      swap2\n      pop\n        /* \"#utility.yul\":23317:23320   */\n      dup2\n        /* \"#utility.yul\":23310:23320   */\n      swap1\n      pop\n        /* \"#utility.yul\":22947:23326   */\n      swap2\n      swap1\n      pop\n      jump\t// out\n        /* \"#utility.yul\":23332:23501   */\n    tag_229:\n        /* \"#utility.yul\":23472:23493   */\n      0x455448207472616e73666572206661696c656400000000000000000000000000\n        /* \"#utility.yul\":23468:23469   */\n      0x00\n        /* \"#utility.yul\":23460:23466   */\n      dup3\n        /* \"#utility.yul\":23456:23470   */\n      add\n        /* \"#utility.yul\":23449:23494   */\n      mstore\n        /* \"#utility.yul\":23332:23501   */\n      pop\n      jump\t// out\n        /* \"#utility.yul\":23507:23873   */\n    tag_230:\n        /* \"#utility.yul\":23649:23652   */\n      0x00\n        /* \"#utility.yul\":23670:23737   */\n      tag_458\n        /* \"#utility.yul\":23734:23736   */\n      0x13\n        /* \"#utility.yul\":23729:23732   */\n      dup4\n        /* \"#utility.yul\":23670:23737   */\n      tag_183\n      jump\t// in\n    tag_458:\n        /* \"#utility.yul\":23663:23737   */\n      swap2\n      pop\n        /* \"#utility.yul\":23746:23839   */\n      tag_459\n        /* \"#utility.yul\":23835:23838   */\n      dup3\n        /* \"#utility.yul\":23746:23839   */\n      tag_229\n      jump\t// in\n    tag_459:\n        /* \"#utility.yul\":23864:23866   */\n      0x20\n        /* \"#utility.yul\":23859:23862   */\n      dup3\n        /* \"#utility.yul\":23855:23867   */\n      add\n        /* \"#utility.yul\":23848:23867   */\n      swap1\n      pop\n        /* \"#utility.yul\":23507:23873   */\n      swap2\n      swap1\n      pop\n      jump\t// out\n        /* \"#utility.yul\":23879:24298   */\n    tag_163:\n        /* \"#utility.yul\":24045:24049   */\n      0x00\n        /* \"#utility.yul\":24083:24085   */\n      0x20\n        /* \"#utility.yul\":24072:24081   */\n      dup3\n        /* \"#utility.yul\":24068:24086   */\n      add\n        /* \"#utility.yul\":24060:24086   */\n      swap1\n      pop\n        /* \"#utility.yul\":24132:24141   */\n      dup2\n        /* \"#utility.yul\":24126:24130   */\n      dup2\n        /* \"#utility.yul\":24122:24142   */\n      sub\n        /* \"#utility.yul\":24118:24119   */\n      0x00\n        /* \"#utility.yul\":24107:24116   */\n      dup4\n        /* \"#utility.yul\":24103:24120   */\n      add\n        /* \"#utility.yul\":24096:24143   */\n      mstore\n        /* \"#utility.yul\":24160:24291   */\n      tag_461\n        /* \"#utility.yul\":24286:24290   */\n      dup2\n        /* \"#utility.yul\":24160:24291   */\n      tag_230\n      jump\t// in\n    tag_461:\n        /* \"#utility.yul\":24152:24291   */\n      swap1\n      pop\n        /* \"#utility.yul\":23879:24298   */\n      swap2\n      swap1\n      pop\n      jump\t// out\n\n    auxdata: 0xa26469706673582212203f72a2528f460b49f7ea7307789b000617d218ddb6de19695220d487c79e70b164736f6c634300081e0033\n}\n",
				"bytecode": {
					"linkReferences": {},
					"object": "60e060405234801561001057600080fd5b50604051611d10380380611d1083398181016040528101906100329190610138565b3373ffffffffffffffffffffffffffffffffffffffff1660808173ffffffffffffffffffffffffffffffffffffffff16815250508173ffffffffffffffffffffffffffffffffffffffff1660a08173ffffffffffffffffffffffffffffffffffffffff16815250508073ffffffffffffffffffffffffffffffffffffffff1660c08173ffffffffffffffffffffffffffffffffffffffff16815250505050610178565b600080fd5b600073ffffffffffffffffffffffffffffffffffffffff82169050919050565b6000610105826100da565b9050919050565b610115816100fa565b811461012057600080fd5b50565b6000815190506101328161010c565b92915050565b6000806040838503121561014f5761014e6100d5565b5b600061015d85828601610123565b925050602061016e85828601610123565b9150509250929050565b60805160a05160c051611af96102176000396000818161028d015281816105ad01528181610731015281816109810152610aaa0152600081816102c9015281816104d00152818161061e01528181610b1901528181610bf80152610ef00152600081816101ff0152818161036e0152818161075a015281816108040152818161088b015281816108af01528181610d0c0152610e220152611af96000f3fe60806040526004361061008a5760003560e01c80638cd4426d116100595780638cd4426d1461012c5780638da5cb5b146101555780638e0e155a14610180578063f14210a6146101a9578063f887ea40146101d257610091565b806302150afa1461009657806337c0cb16146100ad5780633e413bee146100d65780637c9aa53a1461010157610091565b3661009157005b600080fd5b3480156100a257600080fd5b506100ab6101fd565b005b3480156100b957600080fd5b506100d460048036038101906100cf9190610f5c565b61036c565b005b3480156100e257600080fd5b506100eb61072f565b6040516100f8919061101b565b60405180910390f35b34801561010d57600080fd5b50610116610753565b6040516101239190611045565b60405180910390f35b34801561013857600080fd5b50610153600480360381019061014e919061109e565b610758565b005b34801561016157600080fd5b5061016a610889565b60405161017791906110ed565b60405180910390f35b34801561018c57600080fd5b506101a760048036038101906101a29190610f5c565b6108ad565b005b3480156101b557600080fd5b506101d060048036038101906101cb9190611108565b610d0a565b005b3480156101de57600080fd5b506101e7610eee565b6040516101f49190611156565b60405180910390f35b7f000000000000000000000000000000000000000000000000000000000000000073ffffffffffffffffffffffffffffffffffffffff163373ffffffffffffffffffffffffffffffffffffffff161461028b576040517f08c379a0000000000000000000000000000000000000000000000000000000008152600401610282906111ce565b60405180910390fd5b7f000000000000000000000000000000000000000000000000000000000000000073ffffffffffffffffffffffffffffffffffffffff1663095ea7b37f00000000000000000000000000000000000000000000000000000000000000007fffffffffffffffffffffffffffffffffffffffffffffffffffffffffffffffff6040518363ffffffff1660e01b81526004016103269291906111ee565b6020604051808303816000875af1158015610345573d6000803e3d6000fd5b505050506040513d601f19601f82011682018060405250810190610369919061124f565b50565b7f000000000000000000000000000000000000000000000000000000000000000073ffffffffffffffffffffffffffffffffffffffff163373ffffffffffffffffffffffffffffffffffffffff16146103fa576040517f08c379a00000000000000000000000000000000000000000000000000000000081526004016103f1906111ce565b60405180910390fd5b6000821161043d576040517f08c379a0000000000000000000000000000000000000000000000000000000008152600401610434906112c8565b60405180910390fd5b81471015610480576040517f08c379a000000000000000000000000000000000000000000000000000000000815260040161047790611334565b60405180910390fd5b6000600267ffffffffffffffff81111561049d5761049c611354565b5b6040519080825280602002602001820160405280156104cb5781602001602082028036833780820191505090505b5090507f000000000000000000000000000000000000000000000000000000000000000073ffffffffffffffffffffffffffffffffffffffff1663ad5c46486040518163ffffffff1660e01b8152600401602060405180830381865afa158015610539573d6000803e3d6000fd5b505050506040513d601f19601f8201168201806040525081019061055d9190611398565b81600081518110610571576105706113c5565b5b602002602001019073ffffffffffffffffffffffffffffffffffffffff16908173ffffffffffffffffffffffffffffffffffffffff16815250507f0000000000000000000000000000000000000000000000000000000000000000816001815181106105e0576105df6113c5565b5b602002602001019073ffffffffffffffffffffffffffffffffffffffff16908173ffffffffffffffffffffffffffffffffffffffff168152505060007f000000000000000000000000000000000000000000000000000000000000000073ffffffffffffffffffffffffffffffffffffffff16637ff36ab585858530603c426106699190611423565b6040518663ffffffff1660e01b81526004016106889493929190611515565b60006040518083038185885af11580156106a6573d6000803e3d6000fd5b50505050506040513d6000823e3d601f19601f820116820180604052508101906106d091906116a0565b90507fcee23d1f117220edb4cb718a7bbb402a5213b9e17c5e1505fc3a4e410deb4a606000858360018151811061070a576107096113c5565b5b602002602001015160405161072193929190611731565b60405180910390a150505050565b7f000000000000000000000000000000000000000000000000000000000000000081565b603c81565b7f000000000000000000000000000000000000000000000000000000000000000073ffffffffffffffffffffffffffffffffffffffff163373ffffffffffffffffffffffffffffffffffffffff16146107e6576040517f08c379a00000000000000000000000000000000000000000000000000000000081526004016107dd906111ce565b60405180910390fd5b8173ffffffffffffffffffffffffffffffffffffffff1663a9059cbb7f0000000000000000000000000000000000000000000000000000000000000000836040518363ffffffff1660e01b81526004016108419291906111ee565b6020604051808303816000875af1158015610860573d6000803e3d6000fd5b505050506040513d601f19601f82011682018060405250810190610884919061124f565b505050565b7f000000000000000000000000000000000000000000000000000000000000000081565b7f000000000000000000000000000000000000000000000000000000000000000073ffffffffffffffffffffffffffffffffffffffff163373ffffffffffffffffffffffffffffffffffffffff161461093b576040517f08c379a0000000000000000000000000000000000000000000000000000000008152600401610932906111ce565b60405180910390fd5b6000821161097e576040517f08c379a0000000000000000000000000000000000000000000000000000000008152600401610975906117b4565b60405180910390fd5b817f000000000000000000000000000000000000000000000000000000000000000073ffffffffffffffffffffffffffffffffffffffff166370a08231306040518263ffffffff1660e01b81526004016109d891906110ed565b602060405180830381865afa1580156109f5573d6000803e3d6000fd5b505050506040513d601f19601f82011682018060405250810190610a1991906117d4565b1015610a5a576040517f08c379a0000000000000000000000000000000000000000000000000000000008152600401610a519061184d565b60405180910390fd5b6000600267ffffffffffffffff811115610a7757610a76611354565b5b604051908082528060200260200182016040528015610aa55781602001602082028036833780820191505090505b5090507f000000000000000000000000000000000000000000000000000000000000000081600081518110610add57610adc6113c5565b5b602002602001019073ffffffffffffffffffffffffffffffffffffffff16908173ffffffffffffffffffffffffffffffffffffffff16815250507f000000000000000000000000000000000000000000000000000000000000000073ffffffffffffffffffffffffffffffffffffffff1663ad5c46486040518163ffffffff1660e01b8152600401602060405180830381865afa158015610b82573d6000803e3d6000fd5b505050506040513d601f19601f82011682018060405250810190610ba69190611398565b81600181518110610bba57610bb96113c5565b5b602002602001019073ffffffffffffffffffffffffffffffffffffffff16908173ffffffffffffffffffffffffffffffffffffffff168152505060007f000000000000000000000000000000000000000000000000000000000000000073ffffffffffffffffffffffffffffffffffffffff166318cbafe585858530603c42610c439190611423565b6040518663ffffffff1660e01b8152600401610c6395949392919061186d565b6000604051808303816000875af1158015610c82573d6000803e3d6000fd5b505050506040513d6000823e3d601f19601f82011682018060405250810190610cab91906116a0565b90507fcee23d1f117220edb4cb718a7bbb402a5213b9e17c5e1505fc3a4e410deb4a6060018583600181518110610ce557610ce46113c5565b5b6020026020010151604051610cfc93929190611902565b60405180910390a150505050565b7f000000000000000000000000000000000000000000000000000000000000000073ffffffffffffffffffffffffffffffffffffffff163373ffffffffffffffffffffffffffffffffffffffff1614610d98576040517f08c379a0000000000000000000000000000000000000000000000000000000008152600401610d8f906111ce565b60405180910390fd5b60008111610ddb576040517f08c379a0000000000000000000000000000000000000000000000000000000008152600401610dd290611985565b60405180910390fd5b80471015610e1e576040517f08c379a0000000000000000000000000000000000000000000000000000000008152600401610e15906119f1565b60405180910390fd5b60007f000000000000000000000000000000000000000000000000000000000000000073ffffffffffffffffffffffffffffffffffffffff1682604051610e6490611a42565b60006040518083038185875af1925050503d8060008114610ea1576040519150601f19603f3d011682016040523d82523d6000602084013e610ea6565b606091505b5050905080610eea576040517f08c379a0000000000000000000000000000000000000000000000000000000008152600401610ee190611aa3565b60405180910390fd5b5050565b7f000000000000000000000000000000000000000000000000000000000000000081565b6000604051905090565b600080fd5b600080fd5b6000819050919050565b610f3981610f26565b8114610f4457600080fd5b50565b600081359050610f5681610f30565b92915050565b60008060408385031215610f7357610f72610f1c565b5b6000610f8185828601610f47565b9250506020610f9285828601610f47565b9150509250929050565b600073ffffffffffffffffffffffffffffffffffffffff82169050919050565b6000819050919050565b6000610fe1610fdc610fd784610f9c565b610fbc565b610f9c565b9050919050565b6000610ff382610fc6565b9050919050565b600061100582610fe8565b9050919050565b61101581610ffa565b82525050565b6000602082019050611030600083018461100c565b92915050565b61103f81610f26565b82525050565b600060208201905061105a6000830184611036565b92915050565b600061106b82610f9c565b9050919050565b61107b81611060565b811461108657600080fd5b50565b60008135905061109881611072565b92915050565b600080604083850312156110b5576110b4610f1c565b5b60006110c385828601611089565b92505060206110d485828601610f47565b9150509250929050565b6110e781611060565b82525050565b600060208201905061110260008301846110de565b92915050565b60006020828403121561111e5761111d610f1c565b5b600061112c84828501610f47565b91505092915050565b600061114082610fe8565b9050919050565b61115081611135565b82525050565b600060208201905061116b6000830184611147565b92915050565b600082825260208201905092915050565b7f4e4f545f4f574e45520000000000000000000000000000000000000000000000600082015250565b60006111b8600983611171565b91506111c382611182565b602082019050919050565b600060208201905081810360008301526111e7816111ab565b9050919050565b600060408201905061120360008301856110de565b6112106020830184611036565b9392505050565b60008115159050919050565b61122c81611217565b811461123757600080fd5b50565b60008151905061124981611223565b92915050565b60006020828403121561126557611264610f1c565b5b60006112738482850161123a565b91505092915050565b7f5a45524f5f414d4f554e54000000000000000000000000000000000000000000600082015250565b60006112b2600b83611171565b91506112bd8261127c565b602082019050919050565b600060208201905081810360008301526112e1816112a5565b9050919050565b7f494e53554646494349454e545f45544800000000000000000000000000000000600082015250565b600061131e601083611171565b9150611329826112e8565b602082019050919050565b6000602082019050818103600083015261134d81611311565b9050919050565b7f4e487b7100000000000000000000000000000000000000000000000000000000600052604160045260246000fd5b60008151905061139281611072565b92915050565b6000602082840312156113ae576113ad610f1c565b5b60006113bc84828501611383565b91505092915050565b7f4e487b7100000000000000000000000000000000000000000000000000000000600052603260045260246000fd5b7f4e487b7100000000000000000000000000000000000000000000000000000000600052601160045260246000fd5b600061142e82610f26565b915061143983610f26565b9250828201905080821115611451576114506113f4565b5b92915050565b600081519050919050565b600082825260208201905092915050565b6000819050602082019050919050565b61148c81611060565b82525050565b600061149e8383611483565b60208301905092915050565b6000602082019050919050565b60006114c282611457565b6114cc8185611462565b93506114d783611473565b8060005b838110156115085781516114ef8882611492565b97506114fa836114aa565b9250506001810190506114db565b5085935050505092915050565b600060808201905061152a6000830187611036565b818103602083015261153c81866114b7565b905061154b60408301856110de565b6115586060830184611036565b95945050505050565b600080fd5b6000601f19601f8301169050919050565b61158082611566565b810181811067ffffffffffffffff8211171561159f5761159e611354565b5b80604052505050565b60006115b2610f12565b90506115be8282611577565b919050565b600067ffffffffffffffff8211156115de576115dd611354565b5b602082029050602081019050919050565b600080fd5b60008151905061160381610f30565b92915050565b600061161c611617846115c3565b6115a8565b9050808382526020820190506020840283018581111561163f5761163e6115ef565b5b835b81811015611668578061165488826115f4565b845260208401935050602081019050611641565b5050509392505050565b600082601f83011261168757611686611561565b5b8151611697848260208601611609565b91505092915050565b6000602082840312156116b6576116b5610f1c565b5b600082015167ffffffffffffffff8111156116d4576116d3610f21565b5b6116e084828501611672565b91505092915050565b6000819050919050565b600060ff82169050919050565b600061171b611716611711846116e9565b610fbc565b6116f3565b9050919050565b61172b81611700565b82525050565b60006060820190506117466000830186611722565b6117536020830185611036565b6117606040830184611036565b949350505050565b7f5a45524f5f555344430000000000000000000000000000000000000000000000600082015250565b600061179e600983611171565b91506117a982611768565b602082019050919050565b600060208201905081810360008301526117cd81611791565b9050919050565b6000602082840312156117ea576117e9610f1c565b5b60006117f8848285016115f4565b91505092915050565b7f494e53554646494349454e545f55534443000000000000000000000000000000600082015250565b6000611837601183611171565b915061184282611801565b602082019050919050565b600060208201905081810360008301526118668161182a565b9050919050565b600060a0820190506118826000830188611036565b61188f6020830187611036565b81810360408301526118a181866114b7565b90506118b060608301856110de565b6118bd6080830184611036565b9695505050505050565b6000819050919050565b60006118ec6118e76118e2846118c7565b610fbc565b6116f3565b9050919050565b6118fc816118d1565b82525050565b600060608201905061191760008301866118f3565b6119246020830185611036565b6119316040830184611036565b949350505050565b7f616d6f756e74203d203000000000000000000000000000000000000000000000600082015250565b600061196f600a83611171565b915061197a82611939565b602082019050919050565b6000602082019050818103600083015261199e81611962565b9050919050565b7f6e6f2045544820656e6f75676800000000000000000000000000000000000000600082015250565b60006119db600d83611171565b91506119e6826119a5565b602082019050919050565b60006020820190508181036000830152611a0a816119ce565b9050919050565b600081905092915050565b50565b6000611a2c600083611a11565b9150611a3782611a1c565b600082019050919050565b6000611a4d82611a1f565b9150819050919050565b7f455448207472616e73666572206661696c656400000000000000000000000000600082015250565b6000611a8d601383611171565b9150611a9882611a57565b602082019050919050565b60006020820190508181036000830152611abc81611a80565b905091905056fea26469706673582212203f72a2528f460b49f7ea7307789b000617d218ddb6de19695220d487c79e70b164736f6c634300081e0033",
					"opcodes": "PUSH1 0xE0 PUSH1 0x40 MSTORE CALLVALUE DUP1 ISZERO PUSH2 0x10 JUMPI PUSH1 0x0 DUP1 REVERT JUMPDEST POP PUSH1 0x40 MLOAD PUSH2 0x1D10 CODESIZE SUB DUP1 PUSH2 0x1D10 DUP4 CODECOPY DUP2 DUP2 ADD PUSH1 0x40 MSTORE DUP2 ADD SWAP1 PUSH2 0x32 SWAP2 SWAP1 PUSH2 0x138 JUMP JUMPDEST CALLER PUSH20 0xFFFFFFFFFFFFFFFFFFFFFFFFFFFFFFFFFFFFFFFF AND PUSH1 0x80 DUP2 PUSH20 0xFFFFFFFFFFFFFFFFFFFFFFFFFFFFFFFFFFFFFFFF AND DUP2 MSTORE POP POP DUP2 PUSH20 0xFFFFFFFFFFFFFFFFFFFFFFFFFFFFFFFFFFFFFFFF AND PUSH1 0xA0 DUP2 PUSH20 0xFFFFFFFFFFFFFFFFFFFFFFFFFFFFFFFFFFFFFFFF AND DUP2 MSTORE POP POP DUP1 PUSH20 0xFFFFFFFFFFFFFFFFFFFFFFFFFFFFFFFFFFFFFFFF AND PUSH1 0xC0 DUP2 PUSH20 0xFFFFFFFFFFFFFFFFFFFFFFFFFFFFFFFFFFFFFFFF AND DUP2 MSTORE POP POP POP POP PUSH2 0x178 JUMP JUMPDEST PUSH1 0x0 DUP1 REVERT JUMPDEST PUSH1 0x0 PUSH20 0xFFFFFFFFFFFFFFFFFFFFFFFFFFFFFFFFFFFFFFFF DUP3 AND SWAP1 POP SWAP2 SWAP1 POP JUMP JUMPDEST PUSH1 0x0 PUSH2 0x105 DUP3 PUSH2 0xDA JUMP JUMPDEST SWAP1 POP SWAP2 SWAP1 POP JUMP JUMPDEST PUSH2 0x115 DUP2 PUSH2 0xFA JUMP JUMPDEST DUP2 EQ PUSH2 0x120 JUMPI PUSH1 0x0 DUP1 REVERT JUMPDEST POP JUMP JUMPDEST PUSH1 0x0 DUP2 MLOAD SWAP1 POP PUSH2 0x132 DUP2 PUSH2 0x10C JUMP JUMPDEST SWAP3 SWAP2 POP POP JUMP JUMPDEST PUSH1 0x0 DUP1 PUSH1 0x40 DUP4 DUP6 SUB SLT ISZERO PUSH2 0x14F JUMPI PUSH2 0x14E PUSH2 0xD5 JUMP JUMPDEST JUMPDEST PUSH1 0x0 PUSH2 0x15D DUP6 DUP3 DUP7 ADD PUSH2 0x123 JUMP JUMPDEST SWAP3 POP POP PUSH1 0x20 PUSH2 0x16E DUP6 DUP3 DUP7 ADD PUSH2 0x123 JUMP JUMPDEST SWAP2 POP POP SWAP3 POP SWAP3 SWAP1 POP JUMP JUMPDEST PUSH1 0x80 MLOAD PUSH1 0xA0 MLOAD PUSH1 0xC0 MLOAD PUSH2 0x1AF9 PUSH2 0x217 PUSH1 0x0 CODECOPY PUSH1 0x0 DUP2 DUP2 PUSH2 0x28D ADD MSTORE DUP2 DUP2 PUSH2 0x5AD ADD MSTORE DUP2 DUP2 PUSH2 0x731 ADD MSTORE DUP2 DUP2 PUSH2 0x981 ADD MSTORE PUSH2 0xAAA ADD MSTORE PUSH1 0x0 DUP2 DUP2 PUSH2 0x2C9 ADD MSTORE DUP2 DUP2 PUSH2 0x4D0 ADD MSTORE DUP2 DUP2 PUSH2 0x61E ADD MSTORE DUP2 DUP2 PUSH2 0xB19 ADD MSTORE DUP2 DUP2 PUSH2 0xBF8 ADD MSTORE PUSH2 0xEF0 ADD MSTORE PUSH1 0x0 DUP2 DUP2 PUSH2 0x1FF ADD MSTORE DUP2 DUP2 PUSH2 0x36E ADD MSTORE DUP2 DUP2 PUSH2 0x75A ADD MSTORE DUP2 DUP2 PUSH2 0x804 ADD MSTORE DUP2 DUP2 PUSH2 0x88B ADD MSTORE DUP2 DUP2 PUSH2 0x8AF ADD MSTORE DUP2 DUP2 PUSH2 0xD0C ADD MSTORE PUSH2 0xE22 ADD MSTORE PUSH2 0x1AF9 PUSH1 0x0 RETURN INVALID PUSH1 0x80 PUSH1 0x40 MSTORE PUSH1 0x4 CALLDATASIZE LT PUSH2 0x8A JUMPI PUSH1 0x0 CALLDATALOAD PUSH1 0xE0 SHR DUP1 PUSH4 0x8CD4426D GT PUSH2 0x59 JUMPI DUP1 PUSH4 0x8CD4426D EQ PUSH2 0x12C JUMPI DUP1 PUSH4 0x8DA5CB5B EQ PUSH2 0x155 JUMPI DUP1 PUSH4 0x8E0E155A EQ PUSH2 0x180 JUMPI DUP1 PUSH4 0xF14210A6 EQ PUSH2 0x1A9 JUMPI DUP1 PUSH4 0xF887EA40 EQ PUSH2 0x1D2 JUMPI PUSH2 0x91 JUMP JUMPDEST DUP1 PUSH4 0x2150AFA EQ PUSH2 0x96 JUMPI DUP1 PUSH4 0x37C0CB16 EQ PUSH2 0xAD JUMPI DUP1 PUSH4 0x3E413BEE EQ PUSH2 0xD6 JUMPI DUP1 PUSH4 0x7C9AA53A EQ PUSH2 0x101 JUMPI PUSH2 0x91 JUMP JUMPDEST CALLDATASIZE PUSH2 0x91 JUMPI STOP JUMPDEST PUSH1 0x0 DUP1 REVERT JUMPDEST CALLVALUE DUP1 ISZERO PUSH2 0xA2 JUMPI PUSH1 0x0 DUP1 REVERT JUMPDEST POP PUSH2 0xAB PUSH2 0x1FD JUMP JUMPDEST STOP JUMPDEST CALLVALUE DUP1 ISZERO PUSH2 0xB9 JUMPI PUSH1 0x0 DUP1 REVERT JUMPDEST POP PUSH2 0xD4 PUSH1 0x4 DUP1 CALLDATASIZE SUB DUP2 ADD SWAP1 PUSH2 0xCF SWAP2 SWAP1 PUSH2 0xF5C JUMP JUMPDEST PUSH2 0x36C JUMP JUMPDEST STOP JUMPDEST CALLVALUE DUP1 ISZERO PUSH2 0xE2 JUMPI PUSH1 0x0 DUP1 REVERT JUMPDEST POP PUSH2 0xEB PUSH2 0x72F JUMP JUMPDEST PUSH1 0x40 MLOAD PUSH2 0xF8 SWAP2 SWAP1 PUSH2 0x101B JUMP JUMPDEST PUSH1 0x40 MLOAD DUP1 SWAP2 SUB SWAP1 RETURN JUMPDEST CALLVALUE DUP1 ISZERO PUSH2 0x10D JUMPI PUSH1 0x0 DUP1 REVERT JUMPDEST POP PUSH2 0x116 PUSH2 0x753 JUMP JUMPDEST PUSH1 0x40 MLOAD PUSH2 0x123 SWAP2 SWAP1 PUSH2 0x1045 JUMP JUMPDEST PUSH1 0x40 MLOAD DUP1 SWAP2 SUB SWAP1 RETURN JUMPDEST CALLVALUE DUP1 ISZERO PUSH2 0x138 JUMPI PUSH1 0x0 DUP1 REVERT JUMPDEST POP PUSH2 0x153 PUSH1 0x4 DUP1 CALLDATASIZE SUB DUP2 ADD SWAP1 PUSH2 0x14E SWAP2 SWAP1 PUSH2 0x109E JUMP JUMPDEST PUSH2 0x758 JUMP JUMPDEST STOP JUMPDEST CALLVALUE DUP1 ISZERO PUSH2 0x161 JUMPI PUSH1 0x0 DUP1 REVERT JUMPDEST POP PUSH2 0x16A PUSH2 0x889 JUMP JUMPDEST PUSH1 0x40 MLOAD PUSH2 0x177 SWAP2 SWAP1 PUSH2 0x10ED JUMP JUMPDEST PUSH1 0x40 MLOAD DUP1 SWAP2 SUB SWAP1 RETURN JUMPDEST CALLVALUE DUP1 ISZERO PUSH2 0x18C JUMPI PUSH1 0x0 DUP1 REVERT JUMPDEST POP PUSH2 0x1A7 PUSH1 0x4 DUP1 CALLDATASIZE SUB DUP2 ADD SWAP1 PUSH2 0x1A2 SWAP2 SWAP1 PUSH2 0xF5C JUMP JUMPDEST PUSH2 0x8AD JUMP JUMPDEST STOP JUMPDEST CALLVALUE DUP1 ISZERO PUSH2 0x1B5 JUMPI PUSH1 0x0 DUP1 REVERT JUMPDEST POP PUSH2 0x1D0 PUSH1 0x4 DUP1 CALLDATASIZE SUB DUP2 ADD SWAP1 PUSH2 0x1CB SWAP2 SWAP1 PUSH2 0x1108 JUMP JUMPDEST PUSH2 0xD0A JUMP JUMPDEST STOP JUMPDEST CALLVALUE DUP1 ISZERO PUSH2 0x1DE JUMPI PUSH1 0x0 DUP1 REVERT JUMPDEST POP PUSH2 0x1E7 PUSH2 0xEEE JUMP JUMPDEST PUSH1 0x40 MLOAD PUSH2 0x1F4 SWAP2 SWAP1 PUSH2 0x1156 JUMP JUMPDEST PUSH1 0x40 MLOAD DUP1 SWAP2 SUB SWAP1 RETURN JUMPDEST PUSH32 0x0 PUSH20 0xFFFFFFFFFFFFFFFFFFFFFFFFFFFFFFFFFFFFFFFF AND CALLER PUSH20 0xFFFFFFFFFFFFFFFFFFFFFFFFFFFFFFFFFFFFFFFF AND EQ PUSH2 0x28B JUMPI PUSH1 0x40 MLOAD PUSH32 0x8C379A000000000000000000000000000000000000000000000000000000000 DUP2 MSTORE PUSH1 0x4 ADD PUSH2 0x282 SWAP1 PUSH2 0x11CE JUMP JUMPDEST PUSH1 0x40 MLOAD DUP1 SWAP2 SUB SWAP1 REVERT JUMPDEST PUSH32 0x0 PUSH20 0xFFFFFFFFFFFFFFFFFFFFFFFFFFFFFFFFFFFFFFFF AND PUSH4 0x95EA7B3 PUSH32 0x0 PUSH32 0xFFFFFFFFFFFFFFFFFFFFFFFFFFFFFFFFFFFFFFFFFFFFFFFFFFFFFFFFFFFFFFFF PUSH1 0x40 MLOAD DUP4 PUSH4 0xFFFFFFFF AND PUSH1 0xE0 SHL DUP2 MSTORE PUSH1 0x4 ADD PUSH2 0x326 SWAP3 SWAP2 SWAP1 PUSH2 0x11EE JUMP JUMPDEST PUSH1 0x20 PUSH1 0x40 MLOAD DUP1 DUP4 SUB DUP2 PUSH1 0x0 DUP8 GAS CALL ISZERO DUP1 ISZERO PUSH2 0x345 JUMPI RETURNDATASIZE PUSH1 0x0 DUP1 RETURNDATACOPY RETURNDATASIZE PUSH1 0x0 REVERT JUMPDEST POP POP POP POP PUSH1 0x40 MLOAD RETURNDATASIZE PUSH1 0x1F NOT PUSH1 0x1F DUP3 ADD AND DUP3 ADD DUP1 PUSH1 0x40 MSTORE POP DUP2 ADD SWAP1 PUSH2 0x369 SWAP2 SWAP1 PUSH2 0x124F JUMP JUMPDEST POP JUMP JUMPDEST PUSH32 0x0 PUSH20 0xFFFFFFFFFFFFFFFFFFFFFFFFFFFFFFFFFFFFFFFF AND CALLER PUSH20 0xFFFFFFFFFFFFFFFFFFFFFFFFFFFFFFFFFFFFFFFF AND EQ PUSH2 0x3FA JUMPI PUSH1 0x40 MLOAD PUSH32 0x8C379A000000000000000000000000000000000000000000000000000000000 DUP2 MSTORE PUSH1 0x4 ADD PUSH2 0x3F1 SWAP1 PUSH2 0x11CE JUMP JUMPDEST PUSH1 0x40 MLOAD DUP1 SWAP2 SUB SWAP1 REVERT JUMPDEST PUSH1 0x0 DUP3 GT PUSH2 0x43D JUMPI PUSH1 0x40 MLOAD PUSH32 0x8C379A000000000000000000000000000000000000000000000000000000000 DUP2 MSTORE PUSH1 0x4 ADD PUSH2 0x434 SWAP1 PUSH2 0x12C8 JUMP JUMPDEST PUSH1 0x40 MLOAD DUP1 SWAP2 SUB SWAP1 REVERT JUMPDEST DUP2 SELFBALANCE LT ISZERO PUSH2 0x480 JUMPI PUSH1 0x40 MLOAD PUSH32 0x8C379A000000000000000000000000000000000000000000000000000000000 DUP2 MSTORE PUSH1 0x4 ADD PUSH2 0x477 SWAP1 PUSH2 0x1334 JUMP JUMPDEST PUSH1 0x40 MLOAD DUP1 SWAP2 SUB SWAP1 REVERT JUMPDEST PUSH1 0x0 PUSH1 0x2 PUSH8 0xFFFFFFFFFFFFFFFF DUP2 GT ISZERO PUSH2 0x49D JUMPI PUSH2 0x49C PUSH2 0x1354 JUMP JUMPDEST JUMPDEST PUSH1 0x40 MLOAD SWAP1 DUP1 DUP3 MSTORE DUP1 PUSH1 0x20 MUL PUSH1 0x20 ADD DUP3 ADD PUSH1 0x40 MSTORE DUP1 ISZERO PUSH2 0x4CB JUMPI DUP2 PUSH1 0x20 ADD PUSH1 0x20 DUP3 MUL DUP1 CALLDATASIZE DUP4 CALLDATACOPY DUP1 DUP3 ADD SWAP2 POP POP SWAP1 POP JUMPDEST POP SWAP1 POP PUSH32 0x0 PUSH20 0xFFFFFFFFFFFFFFFFFFFFFFFFFFFFFFFFFFFFFFFF AND PUSH4 0xAD5C4648 PUSH1 0x40 MLOAD DUP2 PUSH4 0xFFFFFFFF AND PUSH1 0xE0 SHL DUP2 MSTORE PUSH1 0x4 ADD PUSH1 0x20 PUSH1 0x40 MLOAD DUP1 DUP4 SUB DUP2 DUP7 GAS STATICCALL ISZERO DUP1 ISZERO PUSH2 0x539 JUMPI RETURNDATASIZE PUSH1 0x0 DUP1 RETURNDATACOPY RETURNDATASIZE PUSH1 0x0 REVERT JUMPDEST POP POP POP POP PUSH1 0x40 MLOAD RETURNDATASIZE PUSH1 0x1F NOT PUSH1 0x1F DUP3 ADD AND DUP3 ADD DUP1 PUSH1 0x40 MSTORE POP DUP2 ADD SWAP1 PUSH2 0x55D SWAP2 SWAP1 PUSH2 0x1398 JUMP JUMPDEST DUP2 PUSH1 0x0 DUP2 MLOAD DUP2 LT PUSH2 0x571 JUMPI PUSH2 0x570 PUSH2 0x13C5 JUMP JUMPDEST JUMPDEST PUSH1 0x20 MUL PUSH1 0x20 ADD ADD SWAP1 PUSH20 0xFFFFFFFFFFFFFFFFFFFFFFFFFFFFFFFFFFFFFFFF AND SWAP1 DUP2 PUSH20 0xFFFFFFFFFFFFFFFFFFFFFFFFFFFFFFFFFFFFFFFF AND DUP2 MSTORE POP POP PUSH32 0x0 DUP2 PUSH1 0x1 DUP2 MLOAD DUP2 LT PUSH2 0x5E0 JUMPI PUSH2 0x5DF PUSH2 0x13C5 JUMP JUMPDEST JUMPDEST PUSH1 0x20 MUL PUSH1 0x20 ADD ADD SWAP1 PUSH20 0xFFFFFFFFFFFFFFFFFFFFFFFFFFFFFFFFFFFFFFFF AND SWAP1 DUP2 PUSH20 0xFFFFFFFFFFFFFFFFFFFFFFFFFFFFFFFFFFFFFFFF AND DUP2 MSTORE POP POP PUSH1 0x0 PUSH32 0x0 PUSH20 0xFFFFFFFFFFFFFFFFFFFFFFFFFFFFFFFFFFFFFFFF AND PUSH4 0x7FF36AB5 DUP6 DUP6 DUP6 ADDRESS PUSH1 0x3C TIMESTAMP PUSH2 0x669 SWAP2 SWAP1 PUSH2 0x1423 JUMP JUMPDEST PUSH1 0x40 MLOAD DUP7 PUSH4 0xFFFFFFFF AND PUSH1 0xE0 SHL DUP2 MSTORE PUSH1 0x4 ADD PUSH2 0x688 SWAP5 SWAP4 SWAP3 SWAP2 SWAP1 PUSH2 0x1515 JUMP JUMPDEST PUSH1 0x0 PUSH1 0x40 MLOAD DUP1 DUP4 SUB DUP2 DUP6 DUP9 GAS CALL ISZERO DUP1 ISZERO PUSH2 0x6A6 JUMPI RETURNDATASIZE PUSH1 0x0 DUP1 RETURNDATACOPY RETURNDATASIZE PUSH1 0x0 REVERT JUMPDEST POP POP POP POP POP PUSH1 0x40 MLOAD RETURNDATASIZE PUSH1 0x0 DUP3 RETURNDATACOPY RETURNDATASIZE PUSH1 0x1F NOT PUSH1 0x1F DUP3 ADD AND DUP3 ADD DUP1 PUSH1 0x40 MSTORE POP DUP2 ADD SWAP1 PUSH2 0x6D0 SWAP2 SWAP1 PUSH2 0x16A0 JUMP JUMPDEST SWAP1 POP PUSH32 0xCEE23D1F117220EDB4CB718A7BBB402A5213B9E17C5E1505FC3A4E410DEB4A60 PUSH1 0x0 DUP6 DUP4 PUSH1 0x1 DUP2 MLOAD DUP2 LT PUSH2 0x70A JUMPI PUSH2 0x709 PUSH2 0x13C5 JUMP JUMPDEST JUMPDEST PUSH1 0x20 MUL PUSH1 0x20 ADD ADD MLOAD PUSH1 0x40 MLOAD PUSH2 0x721 SWAP4 SWAP3 SWAP2 SWAP1 PUSH2 0x1731 JUMP JUMPDEST PUSH1 0x40 MLOAD DUP1 SWAP2 SUB SWAP1 LOG1 POP POP POP POP JUMP JUMPDEST PUSH32 0x0 DUP2 JUMP JUMPDEST PUSH1 0x3C DUP2 JUMP JUMPDEST PUSH32 0x0 PUSH20 0xFFFFFFFFFFFFFFFFFFFFFFFFFFFFFFFFFFFFFFFF AND CALLER PUSH20 0xFFFFFFFFFFFFFFFFFFFFFFFFFFFFFFFFFFFFFFFF AND EQ PUSH2 0x7E6 JUMPI PUSH1 0x40 MLOAD PUSH32 0x8C379A000000000000000000000000000000000000000000000000000000000 DUP2 MSTORE PUSH1 0x4 ADD PUSH2 0x7DD SWAP1 PUSH2 0x11CE JUMP JUMPDEST PUSH1 0x40 MLOAD DUP1 SWAP2 SUB SWAP1 REVERT JUMPDEST DUP2 PUSH20 0xFFFFFFFFFFFFFFFFFFFFFFFFFFFFFFFFFFFFFFFF AND PUSH4 0xA9059CBB PUSH32 0x0 DUP4 PUSH1 0x40 MLOAD DUP4 PUSH4 0xFFFFFFFF AND PUSH1 0xE0 SHL DUP2 MSTORE PUSH1 0x4 ADD PUSH2 0x841 SWAP3 SWAP2 SWAP1 PUSH2 0x11EE JUMP JUMPDEST PUSH1 0x20 PUSH1 0x40 MLOAD DUP1 DUP4 SUB DUP2 PUSH1 0x0 DUP8 GAS CALL ISZERO DUP1 ISZERO PUSH2 0x860 JUMPI RETURNDATASIZE PUSH1 0x0 DUP1 RETURNDATACOPY RETURNDATASIZE PUSH1 0x0 REVERT JUMPDEST POP POP POP POP PUSH1 0x40 MLOAD RETURNDATASIZE PUSH1 0x1F NOT PUSH1 0x1F DUP3 ADD AND DUP3 ADD DUP1 PUSH1 0x40 MSTORE POP DUP2 ADD SWAP1 PUSH2 0x884 SWAP2 SWAP1 PUSH2 0x124F JUMP JUMPDEST POP POP POP JUMP JUMPDEST PUSH32 0x0 DUP2 JUMP JUMPDEST PUSH32 0x0 PUSH20 0xFFFFFFFFFFFFFFFFFFFFFFFFFFFFFFFFFFFFFFFF AND CALLER PUSH20 0xFFFFFFFFFFFFFFFFFFFFFFFFFFFFFFFFFFFFFFFF AND EQ PUSH2 0x93B JUMPI PUSH1 0x40 MLOAD PUSH32 0x8C379A000000000000000000000000000000000000000000000000000000000 DUP2 MSTORE PUSH1 0x4 ADD PUSH2 0x932 SWAP1 PUSH2 0x11CE JUMP JUMPDEST PUSH1 0x40 MLOAD DUP1 SWAP2 SUB SWAP1 REVERT JUMPDEST PUSH1 0x0 DUP3 GT PUSH2 0x97E JUMPI PUSH1 0x40 MLOAD PUSH32 0x8C379A000000000000000000000000000000000000000000000000000000000 DUP2 MSTORE PUSH1 0x4 ADD PUSH2 0x975 SWAP1 PUSH2 0x17B4 JUMP JUMPDEST PUSH1 0x40 MLOAD DUP1 SWAP2 SUB SWAP1 REVERT JUMPDEST DUP2 PUSH32 0x0 PUSH20 0xFFFFFFFFFFFFFFFFFFFFFFFFFFFFFFFFFFFFFFFF AND PUSH4 0x70A08231 ADDRESS PUSH1 0x40 MLOAD DUP3 PUSH4 0xFFFFFFFF AND PUSH1 0xE0 SHL DUP2 MSTORE PUSH1 0x4 ADD PUSH2 0x9D8 SWAP2 SWAP1 PUSH2 0x10ED JUMP JUMPDEST PUSH1 0x20 PUSH1 0x40 MLOAD DUP1 DUP4 SUB DUP2 DUP7 GAS STATICCALL ISZERO DUP1 ISZERO PUSH2 0x9F5 JUMPI RETURNDATASIZE PUSH1 0x0 DUP1 RETURNDATACOPY RETURNDATASIZE PUSH1 0x0 REVERT JUMPDEST POP POP POP POP PUSH1 0x40 MLOAD RETURNDATASIZE PUSH1 0x1F NOT PUSH1 0x1F DUP3 ADD AND DUP3 ADD DUP1 PUSH1 0x40 MSTORE POP DUP2 ADD SWAP1 PUSH2 0xA19 SWAP2 SWAP1 PUSH2 0x17D4 JUMP JUMPDEST LT ISZERO PUSH2 0xA5A JUMPI PUSH1 0x40 MLOAD PUSH32 0x8C379A000000000000000000000000000000000000000000000000000000000 DUP2 MSTORE PUSH1 0x4 ADD PUSH2 0xA51 SWAP1 PUSH2 0x184D JUMP JUMPDEST PUSH1 0x40 MLOAD DUP1 SWAP2 SUB SWAP1 REVERT JUMPDEST PUSH1 0x0 PUSH1 0x2 PUSH8 0xFFFFFFFFFFFFFFFF DUP2 GT ISZERO PUSH2 0xA77 JUMPI PUSH2 0xA76 PUSH2 0x1354 JUMP JUMPDEST JUMPDEST PUSH1 0x40 MLOAD SWAP1 DUP1 DUP3 MSTORE DUP1 PUSH1 0x20 MUL PUSH1 0x20 ADD DUP3 ADD PUSH1 0x40 MSTORE DUP1 ISZERO PUSH2 0xAA5 JUMPI DUP2 PUSH1 0x20 ADD PUSH1 0x20 DUP3 MUL DUP1 CALLDATASIZE DUP4 CALLDATACOPY DUP1 DUP3 ADD SWAP2 POP POP SWAP1 POP JUMPDEST POP SWAP1 POP PUSH32 0x0 DUP2 PUSH1 0x0 DUP2 MLOAD DUP2 LT PUSH2 0xADD JUMPI PUSH2 0xADC PUSH2 0x13C5 JUMP JUMPDEST JUMPDEST PUSH1 0x20 MUL PUSH1 0x20 ADD ADD SWAP1 PUSH20 0xFFFFFFFFFFFFFFFFFFFFFFFFFFFFFFFFFFFFFFFF AND SWAP1 DUP2 PUSH20 0xFFFFFFFFFFFFFFFFFFFFFFFFFFFFFFFFFFFFFFFF AND DUP2 MSTORE POP POP PUSH32 0x0 PUSH20 0xFFFFFFFFFFFFFFFFFFFFFFFFFFFFFFFFFFFFFFFF AND PUSH4 0xAD5C4648 PUSH1 0x40 MLOAD DUP2 PUSH4 0xFFFFFFFF AND PUSH1 0xE0 SHL DUP2 MSTORE PUSH1 0x4 ADD PUSH1 0x20 PUSH1 0x40 MLOAD DUP1 DUP4 SUB DUP2 DUP7 GAS STATICCALL ISZERO DUP1 ISZERO PUSH2 0xB82 JUMPI RETURNDATASIZE PUSH1 0x0 DUP1 RETURNDATACOPY RETURNDATASIZE PUSH1 0x0 REVERT JUMPDEST POP POP POP POP PUSH1 0x40 MLOAD RETURNDATASIZE PUSH1 0x1F NOT PUSH1 0x1F DUP3 ADD AND DUP3 ADD DUP1 PUSH1 0x40 MSTORE POP DUP2 ADD SWAP1 PUSH2 0xBA6 SWAP2 SWAP1 PUSH2 0x1398 JUMP JUMPDEST DUP2 PUSH1 0x1 DUP2 MLOAD DUP2 LT PUSH2 0xBBA JUMPI PUSH2 0xBB9 PUSH2 0x13C5 JUMP JUMPDEST JUMPDEST PUSH1 0x20 MUL PUSH1 0x20 ADD ADD SWAP1 PUSH20 0xFFFFFFFFFFFFFFFFFFFFFFFFFFFFFFFFFFFFFFFF AND SWAP1 DUP2 PUSH20 0xFFFFFFFFFFFFFFFFFFFFFFFFFFFFFFFFFFFFFFFF AND DUP2 MSTORE POP POP PUSH1 0x0 PUSH32 0x0 PUSH20 0xFFFFFFFFFFFFFFFFFFFFFFFFFFFFFFFFFFFFFFFF AND PUSH4 0x18CBAFE5 DUP6 DUP6 DUP6 ADDRESS PUSH1 0x3C TIMESTAMP PUSH2 0xC43 SWAP2 SWAP1 PUSH2 0x1423 JUMP JUMPDEST PUSH1 0x40 MLOAD DUP7 PUSH4 0xFFFFFFFF AND PUSH1 0xE0 SHL DUP2 MSTORE PUSH1 0x4 ADD PUSH2 0xC63 SWAP6 SWAP5 SWAP4 SWAP3 SWAP2 SWAP1 PUSH2 0x186D JUMP JUMPDEST PUSH1 0x0 PUSH1 0x40 MLOAD DUP1 DUP4 SUB DUP2 PUSH1 0x0 DUP8 GAS CALL ISZERO DUP1 ISZERO PUSH2 0xC82 JUMPI RETURNDATASIZE PUSH1 0x0 DUP1 RETURNDATACOPY RETURNDATASIZE PUSH1 0x0 REVERT JUMPDEST POP POP POP POP PUSH1 0x40 MLOAD RETURNDATASIZE PUSH1 0x0 DUP3 RETURNDATACOPY RETURNDATASIZE PUSH1 0x1F NOT PUSH1 0x1F DUP3 ADD AND DUP3 ADD DUP1 PUSH1 0x40 MSTORE POP DUP2 ADD SWAP1 PUSH2 0xCAB SWAP2 SWAP1 PUSH2 0x16A0 JUMP JUMPDEST SWAP1 POP PUSH32 0xCEE23D1F117220EDB4CB718A7BBB402A5213B9E17C5E1505FC3A4E410DEB4A60 PUSH1 0x1 DUP6 DUP4 PUSH1 0x1 DUP2 MLOAD DUP2 LT PUSH2 0xCE5 JUMPI PUSH2 0xCE4 PUSH2 0x13C5 JUMP JUMPDEST JUMPDEST PUSH1 0x20 MUL PUSH1 0x20 ADD ADD MLOAD PUSH1 0x40 MLOAD PUSH2 0xCFC SWAP4 SWAP3 SWAP2 SWAP1 PUSH2 0x1902 JUMP JUMPDEST PUSH1 0x40 MLOAD DUP1 SWAP2 SUB SWAP1 LOG1 POP POP POP POP JUMP JUMPDEST PUSH32 0x0 PUSH20 0xFFFFFFFFFFFFFFFFFFFFFFFFFFFFFFFFFFFFFFFF AND CALLER PUSH20 0xFFFFFFFFFFFFFFFFFFFFFFFFFFFFFFFFFFFFFFFF AND EQ PUSH2 0xD98 JUMPI PUSH1 0x40 MLOAD PUSH32 0x8C379A000000000000000000000000000000000000000000000000000000000 DUP2 MSTORE PUSH1 0x4 ADD PUSH2 0xD8F SWAP1 PUSH2 0x11CE JUMP JUMPDEST PUSH1 0x40 MLOAD DUP1 SWAP2 SUB SWAP1 REVERT JUMPDEST PUSH1 0x0 DUP2 GT PUSH2 0xDDB JUMPI PUSH1 0x40 MLOAD PUSH32 0x8C379A000000000000000000000000000000000000000000000000000000000 DUP2 MSTORE PUSH1 0x4 ADD PUSH2 0xDD2 SWAP1 PUSH2 0x1985 JUMP JUMPDEST PUSH1 0x40 MLOAD DUP1 SWAP2 SUB SWAP1 REVERT JUMPDEST DUP1 SELFBALANCE LT ISZERO PUSH2 0xE1E JUMPI PUSH1 0x40 MLOAD PUSH32 0x8C379A000000000000000000000000000000000000000000000000000000000 DUP2 MSTORE PUSH1 0x4 ADD PUSH2 0xE15 SWAP1 PUSH2 0x19F1 JUMP JUMPDEST PUSH1 0x40 MLOAD DUP1 SWAP2 SUB SWAP1 REVERT JUMPDEST PUSH1 0x0 PUSH32 0x0 PUSH20 0xFFFFFFFFFFFFFFFFFFFFFFFFFFFFFFFFFFFFFFFF AND DUP3 PUSH1 0x40 MLOAD PUSH2 0xE64 SWAP1 PUSH2 0x1A42 JUMP JUMPDEST PUSH1 0x0 PUSH1 0x40 MLOAD DUP1 DUP4 SUB DUP2 DUP6 DUP8 GAS CALL SWAP3 POP POP POP RETURNDATASIZE DUP1 PUSH1 0x0 DUP2 EQ PUSH2 0xEA1 JUMPI PUSH1 0x40 MLOAD SWAP2 POP PUSH1 0x1F NOT PUSH1 0x3F RETURNDATASIZE ADD AND DUP3 ADD PUSH1 0x40 MSTORE RETURNDATASIZE DUP3 MSTORE RETURNDATASIZE PUSH1 0x0 PUSH1 0x20 DUP5 ADD RETURNDATACOPY PUSH2 0xEA6 JUMP JUMPDEST PUSH1 0x60 SWAP2 POP JUMPDEST POP POP SWAP1 POP DUP1 PUSH2 0xEEA JUMPI PUSH1 0x40 MLOAD PUSH32 0x8C379A000000000000000000000000000000000000000000000000000000000 DUP2 MSTORE PUSH1 0x4 ADD PUSH2 0xEE1 SWAP1 PUSH2 0x1AA3 JUMP JUMPDEST PUSH1 0x40 MLOAD DUP1 SWAP2 SUB SWAP1 REVERT JUMPDEST POP POP JUMP JUMPDEST PUSH32 0x0 DUP2 JUMP JUMPDEST PUSH1 0x0 PUSH1 0x40 MLOAD SWAP1 POP SWAP1 JUMP JUMPDEST PUSH1 0x0 DUP1 REVERT JUMPDEST PUSH1 0x0 DUP1 REVERT JUMPDEST PUSH1 0x0 DUP2 SWAP1 POP SWAP2 SWAP1 POP JUMP JUMPDEST PUSH2 0xF39 DUP2 PUSH2 0xF26 JUMP JUMPDEST DUP2 EQ PUSH2 0xF44 JUMPI PUSH1 0x0 DUP1 REVERT JUMPDEST POP JUMP JUMPDEST PUSH1 0x0 DUP2 CALLDATALOAD SWAP1 POP PUSH2 0xF56 DUP2 PUSH2 0xF30 JUMP JUMPDEST SWAP3 SWAP2 POP POP JUMP JUMPDEST PUSH1 0x0 DUP1 PUSH1 0x40 DUP4 DUP6 SUB SLT ISZERO PUSH2 0xF73 JUMPI PUSH2 0xF72 PUSH2 0xF1C JUMP JUMPDEST JUMPDEST PUSH1 0x0 PUSH2 0xF81 DUP6 DUP3 DUP7 ADD PUSH2 0xF47 JUMP JUMPDEST SWAP3 POP POP PUSH1 0x20 PUSH2 0xF92 DUP6 DUP3 DUP7 ADD PUSH2 0xF47 JUMP JUMPDEST SWAP2 POP POP SWAP3 POP SWAP3 SWAP1 POP JUMP JUMPDEST PUSH1 0x0 PUSH20 0xFFFFFFFFFFFFFFFFFFFFFFFFFFFFFFFFFFFFFFFF DUP3 AND SWAP1 POP SWAP2 SWAP1 POP JUMP JUMPDEST PUSH1 0x0 DUP2 SWAP1 POP SWAP2 SWAP1 POP JUMP JUMPDEST PUSH1 0x0 PUSH2 0xFE1 PUSH2 0xFDC PUSH2 0xFD7 DUP5 PUSH2 0xF9C JUMP JUMPDEST PUSH2 0xFBC JUMP JUMPDEST PUSH2 0xF9C JUMP JUMPDEST SWAP1 POP SWAP2 SWAP1 POP JUMP JUMPDEST PUSH1 0x0 PUSH2 0xFF3 DUP3 PUSH2 0xFC6 JUMP JUMPDEST SWAP1 POP SWAP2 SWAP1 POP JUMP JUMPDEST PUSH1 0x0 PUSH2 0x1005 DUP3 PUSH2 0xFE8 JUMP JUMPDEST SWAP1 POP SWAP2 SWAP1 POP JUMP JUMPDEST PUSH2 0x1015 DUP2 PUSH2 0xFFA JUMP JUMPDEST DUP3 MSTORE POP POP JUMP JUMPDEST PUSH1 0x0 PUSH1 0x20 DUP3 ADD SWAP1 POP PUSH2 0x1030 PUSH1 0x0 DUP4 ADD DUP5 PUSH2 0x100C JUMP JUMPDEST SWAP3 SWAP2 POP POP JUMP JUMPDEST PUSH2 0x103F DUP2 PUSH2 0xF26 JUMP JUMPDEST DUP3 MSTORE POP POP JUMP JUMPDEST PUSH1 0x0 PUSH1 0x20 DUP3 ADD SWAP1 POP PUSH2 0x105A PUSH1 0x0 DUP4 ADD DUP5 PUSH2 0x1036 JUMP JUMPDEST SWAP3 SWAP2 POP POP JUMP JUMPDEST PUSH1 0x0 PUSH2 0x106B DUP3 PUSH2 0xF9C JUMP JUMPDEST SWAP1 POP SWAP2 SWAP1 POP JUMP JUMPDEST PUSH2 0x107B DUP2 PUSH2 0x1060 JUMP JUMPDEST DUP2 EQ PUSH2 0x1086 JUMPI PUSH1 0x0 DUP1 REVERT JUMPDEST POP JUMP JUMPDEST PUSH1 0x0 DUP2 CALLDATALOAD SWAP1 POP PUSH2 0x1098 DUP2 PUSH2 0x1072 JUMP JUMPDEST SWAP3 SWAP2 POP POP JUMP JUMPDEST PUSH1 0x0 DUP1 PUSH1 0x40 DUP4 DUP6 SUB SLT ISZERO PUSH2 0x10B5 JUMPI PUSH2 0x10B4 PUSH2 0xF1C JUMP JUMPDEST JUMPDEST PUSH1 0x0 PUSH2 0x10C3 DUP6 DUP3 DUP7 ADD PUSH2 0x1089 JUMP JUMPDEST SWAP3 POP POP PUSH1 0x20 PUSH2 0x10D4 DUP6 DUP3 DUP7 ADD PUSH2 0xF47 JUMP JUMPDEST SWAP2 POP POP SWAP3 POP SWAP3 SWAP1 POP JUMP JUMPDEST PUSH2 0x10E7 DUP2 PUSH2 0x1060 JUMP JUMPDEST DUP3 MSTORE POP POP JUMP JUMPDEST PUSH1 0x0 PUSH1 0x20 DUP3 ADD SWAP1 POP PUSH2 0x1102 PUSH1 0x0 DUP4 ADD DUP5 PUSH2 0x10DE JUMP JUMPDEST SWAP3 SWAP2 POP POP JUMP JUMPDEST PUSH1 0x0 PUSH1 0x20 DUP3 DUP5 SUB SLT ISZERO PUSH2 0x111E JUMPI PUSH2 0x111D PUSH2 0xF1C JUMP JUMPDEST JUMPDEST PUSH1 0x0 PUSH2 0x112C DUP5 DUP3 DUP6 ADD PUSH2 0xF47 JUMP JUMPDEST SWAP2 POP POP SWAP3 SWAP2 POP POP JUMP JUMPDEST PUSH1 0x0 PUSH2 0x1140 DUP3 PUSH2 0xFE8 JUMP JUMPDEST SWAP1 POP SWAP2 SWAP1 POP JUMP JUMPDEST PUSH2 0x1150 DUP2 PUSH2 0x1135 JUMP JUMPDEST DUP3 MSTORE POP POP JUMP JUMPDEST PUSH1 0x0 PUSH1 0x20 DUP3 ADD SWAP1 POP PUSH2 0x116B PUSH1 0x0 DUP4 ADD DUP5 PUSH2 0x1147 JUMP JUMPDEST SWAP3 SWAP2 POP POP JUMP JUMPDEST PUSH1 0x0 DUP3 DUP3 MSTORE PUSH1 0x20 DUP3 ADD SWAP1 POP SWAP3 SWAP2 POP POP JUMP JUMPDEST PUSH32 0x4E4F545F4F574E45520000000000000000000000000000000000000000000000 PUSH1 0x0 DUP3 ADD MSTORE POP JUMP JUMPDEST PUSH1 0x0 PUSH2 0x11B8 PUSH1 0x9 DUP4 PUSH2 0x1171 JUMP JUMPDEST SWAP2 POP PUSH2 0x11C3 DUP3 PUSH2 0x1182 JUMP JUMPDEST PUSH1 0x20 DUP3 ADD SWAP1 POP SWAP2 SWAP1 POP JUMP JUMPDEST PUSH1 0x0 PUSH1 0x20 DUP3 ADD SWAP1 POP DUP2 DUP2 SUB PUSH1 0x0 DUP4 ADD MSTORE PUSH2 0x11E7 DUP2 PUSH2 0x11AB JUMP JUMPDEST SWAP1 POP SWAP2 SWAP1 POP JUMP JUMPDEST PUSH1 0x0 PUSH1 0x40 DUP3 ADD SWAP1 POP PUSH2 0x1203 PUSH1 0x0 DUP4 ADD DUP6 PUSH2 0x10DE JUMP JUMPDEST PUSH2 0x1210 PUSH1 0x20 DUP4 ADD DUP5 PUSH2 0x1036 JUMP JUMPDEST SWAP4 SWAP3 POP POP POP JUMP JUMPDEST PUSH1 0x0 DUP2 ISZERO ISZERO SWAP1 POP SWAP2 SWAP1 POP JUMP JUMPDEST PUSH2 0x122C DUP2 PUSH2 0x1217 JUMP JUMPDEST DUP2 EQ PUSH2 0x1237 JUMPI PUSH1 0x0 DUP1 REVERT JUMPDEST POP JUMP JUMPDEST PUSH1 0x0 DUP2 MLOAD SWAP1 POP PUSH2 0x1249 DUP2 PUSH2 0x1223 JUMP JUMPDEST SWAP3 SWAP2 POP POP JUMP JUMPDEST PUSH1 0x0 PUSH1 0x20 DUP3 DUP5 SUB SLT ISZERO PUSH2 0x1265 JUMPI PUSH2 0x1264 PUSH2 0xF1C JUMP JUMPDEST JUMPDEST PUSH1 0x0 PUSH2 0x1273 DUP5 DUP3 DUP6 ADD PUSH2 0x123A JUMP JUMPDEST SWAP2 POP POP SWAP3 SWAP2 POP POP JUMP JUMPDEST PUSH32 0x5A45524F5F414D4F554E54000000000000000000000000000000000000000000 PUSH1 0x0 DUP3 ADD MSTORE POP JUMP JUMPDEST PUSH1 0x0 PUSH2 0x12B2 PUSH1 0xB DUP4 PUSH2 0x1171 JUMP JUMPDEST SWAP2 POP PUSH2 0x12BD DUP3 PUSH2 0x127C JUMP JUMPDEST PUSH1 0x20 DUP3 ADD SWAP1 POP SWAP2 SWAP1 POP JUMP JUMPDEST PUSH1 0x0 PUSH1 0x20 DUP3 ADD SWAP1 POP DUP2 DUP2 SUB PUSH1 0x0 DUP4 ADD MSTORE PUSH2 0x12E1 DUP2 PUSH2 0x12A5 JUMP JUMPDEST SWAP1 POP SWAP2 SWAP1 POP JUMP JUMPDEST PUSH32 0x494E53554646494349454E545F45544800000000000000000000000000000000 PUSH1 0x0 DUP3 ADD MSTORE POP JUMP JUMPDEST PUSH1 0x0 PUSH2 0x131E PUSH1 0x10 DUP4 PUSH2 0x1171 JUMP JUMPDEST SWAP2 POP PUSH2 0x1329 DUP3 PUSH2 0x12E8 JUMP JUMPDEST PUSH1 0x20 DUP3 ADD SWAP1 POP SWAP2 SWAP1 POP JUMP JUMPDEST PUSH1 0x0 PUSH1 0x20 DUP3 ADD SWAP1 POP DUP2 DUP2 SUB PUSH1 0x0 DUP4 ADD MSTORE PUSH2 0x134D DUP2 PUSH2 0x1311 JUMP JUMPDEST SWAP1 POP SWAP2 SWAP1 POP JUMP JUMPDEST PUSH32 0x4E487B7100000000000000000000000000000000000000000000000000000000 PUSH1 0x0 MSTORE PUSH1 0x41 PUSH1 0x4 MSTORE PUSH1 0x24 PUSH1 0x0 REVERT JUMPDEST PUSH1 0x0 DUP2 MLOAD SWAP1 POP PUSH2 0x1392 DUP2 PUSH2 0x1072 JUMP JUMPDEST SWAP3 SWAP2 POP POP JUMP JUMPDEST PUSH1 0x0 PUSH1 0x20 DUP3 DUP5 SUB SLT ISZERO PUSH2 0x13AE JUMPI PUSH2 0x13AD PUSH2 0xF1C JUMP JUMPDEST JUMPDEST PUSH1 0x0 PUSH2 0x13BC DUP5 DUP3 DUP6 ADD PUSH2 0x1383 JUMP JUMPDEST SWAP2 POP POP SWAP3 SWAP2 POP POP JUMP JUMPDEST PUSH32 0x4E487B7100000000000000000000000000000000000000000000000000000000 PUSH1 0x0 MSTORE PUSH1 0x32 PUSH1 0x4 MSTORE PUSH1 0x24 PUSH1 0x0 REVERT JUMPDEST PUSH32 0x4E487B7100000000000000000000000000000000000000000000000000000000 PUSH1 0x0 MSTORE PUSH1 0x11 PUSH1 0x4 MSTORE PUSH1 0x24 PUSH1 0x0 REVERT JUMPDEST PUSH1 0x0 PUSH2 0x142E DUP3 PUSH2 0xF26 JUMP JUMPDEST SWAP2 POP PUSH2 0x1439 DUP4 PUSH2 0xF26 JUMP JUMPDEST SWAP3 POP DUP3 DUP3 ADD SWAP1 POP DUP1 DUP3 GT ISZERO PUSH2 0x1451 JUMPI PUSH2 0x1450 PUSH2 0x13F4 JUMP JUMPDEST JUMPDEST SWAP3 SWAP2 POP POP JUMP JUMPDEST PUSH1 0x0 DUP2 MLOAD SWAP1 POP SWAP2 SWAP1 POP JUMP JUMPDEST PUSH1 0x0 DUP3 DUP3 MSTORE PUSH1 0x20 DUP3 ADD SWAP1 POP SWAP3 SWAP2 POP POP JUMP JUMPDEST PUSH1 0x0 DUP2 SWAP1 POP PUSH1 0x20 DUP3 ADD SWAP1 POP SWAP2 SWAP1 POP JUMP JUMPDEST PUSH2 0x148C DUP2 PUSH2 0x1060 JUMP JUMPDEST DUP3 MSTORE POP POP JUMP JUMPDEST PUSH1 0x0 PUSH2 0x149E DUP4 DUP4 PUSH2 0x1483 JUMP JUMPDEST PUSH1 0x20 DUP4 ADD SWAP1 POP SWAP3 SWAP2 POP POP JUMP JUMPDEST PUSH1 0x0 PUSH1 0x20 DUP3 ADD SWAP1 POP SWAP2 SWAP1 POP JUMP JUMPDEST PUSH1 0x0 PUSH2 0x14C2 DUP3 PUSH2 0x1457 JUMP JUMPDEST PUSH2 0x14CC DUP2 DUP6 PUSH2 0x1462 JUMP JUMPDEST SWAP4 POP PUSH2 0x14D7 DUP4 PUSH2 0x1473 JUMP JUMPDEST DUP1 PUSH1 0x0 JUMPDEST DUP4 DUP2 LT ISZERO PUSH2 0x1508 JUMPI DUP2 MLOAD PUSH2 0x14EF DUP9 DUP3 PUSH2 0x1492 JUMP JUMPDEST SWAP8 POP PUSH2 0x14FA DUP4 PUSH2 0x14AA JUMP JUMPDEST SWAP3 POP POP PUSH1 0x1 DUP2 ADD SWAP1 POP PUSH2 0x14DB JUMP JUMPDEST POP DUP6 SWAP4 POP POP POP POP SWAP3 SWAP2 POP POP JUMP JUMPDEST PUSH1 0x0 PUSH1 0x80 DUP3 ADD SWAP1 POP PUSH2 0x152A PUSH1 0x0 DUP4 ADD DUP8 PUSH2 0x1036 JUMP JUMPDEST DUP2 DUP2 SUB PUSH1 0x20 DUP4 ADD MSTORE PUSH2 0x153C DUP2 DUP7 PUSH2 0x14B7 JUMP JUMPDEST SWAP1 POP PUSH2 0x154B PUSH1 0x40 DUP4 ADD DUP6 PUSH2 0x10DE JUMP JUMPDEST PUSH2 0x1558 PUSH1 0x60 DUP4 ADD DUP5 PUSH2 0x1036 JUMP JUMPDEST SWAP6 SWAP5 POP POP POP POP POP JUMP JUMPDEST PUSH1 0x0 DUP1 REVERT JUMPDEST PUSH1 0x0 PUSH1 0x1F NOT PUSH1 0x1F DUP4 ADD AND SWAP1 POP SWAP2 SWAP1 POP JUMP JUMPDEST PUSH2 0x1580 DUP3 PUSH2 0x1566 JUMP JUMPDEST DUP2 ADD DUP2 DUP2 LT PUSH8 0xFFFFFFFFFFFFFFFF DUP3 GT OR ISZERO PUSH2 0x159F JUMPI PUSH2 0x159E PUSH2 0x1354 JUMP JUMPDEST JUMPDEST DUP1 PUSH1 0x40 MSTORE POP POP POP JUMP JUMPDEST PUSH1 0x0 PUSH2 0x15B2 PUSH2 0xF12 JUMP JUMPDEST SWAP1 POP PUSH2 0x15BE DUP3 DUP3 PUSH2 0x1577 JUMP JUMPDEST SWAP2 SWAP1 POP JUMP JUMPDEST PUSH1 0x0 PUSH8 0xFFFFFFFFFFFFFFFF DUP3 GT ISZERO PUSH2 0x15DE JUMPI PUSH2 0x15DD PUSH2 0x1354 JUMP JUMPDEST JUMPDEST PUSH1 0x20 DUP3 MUL SWAP1 POP PUSH1 0x20 DUP2 ADD SWAP1 POP SWAP2 SWAP1 POP JUMP JUMPDEST PUSH1 0x0 DUP1 REVERT JUMPDEST PUSH1 0x0 DUP2 MLOAD SWAP1 POP PUSH2 0x1603 DUP2 PUSH2 0xF30 JUMP JUMPDEST SWAP3 SWAP2 POP POP JUMP JUMPDEST PUSH1 0x0 PUSH2 0x161C PUSH2 0x1617 DUP5 PUSH2 0x15C3 JUMP JUMPDEST PUSH2 0x15A8 JUMP JUMPDEST SWAP1 POP DUP1 DUP4 DUP3 MSTORE PUSH1 0x20 DUP3 ADD SWAP1 POP PUSH1 0x20 DUP5 MUL DUP4 ADD DUP6 DUP2 GT ISZERO PUSH2 0x163F JUMPI PUSH2 0x163E PUSH2 0x15EF JUMP JUMPDEST JUMPDEST DUP4 JUMPDEST DUP2 DUP2 LT ISZERO PUSH2 0x1668 JUMPI DUP1 PUSH2 0x1654 DUP9 DUP3 PUSH2 0x15F4 JUMP JUMPDEST DUP5 MSTORE PUSH1 0x20 DUP5 ADD SWAP4 POP POP PUSH1 0x20 DUP2 ADD SWAP1 POP PUSH2 0x1641 JUMP JUMPDEST POP POP POP SWAP4 SWAP3 POP POP POP JUMP JUMPDEST PUSH1 0x0 DUP3 PUSH1 0x1F DUP4 ADD SLT PUSH2 0x1687 JUMPI PUSH2 0x1686 PUSH2 0x1561 JUMP JUMPDEST JUMPDEST DUP2 MLOAD PUSH2 0x1697 DUP5 DUP3 PUSH1 0x20 DUP7 ADD PUSH2 0x1609 JUMP JUMPDEST SWAP2 POP POP SWAP3 SWAP2 POP POP JUMP JUMPDEST PUSH1 0x0 PUSH1 0x20 DUP3 DUP5 SUB SLT ISZERO PUSH2 0x16B6 JUMPI PUSH2 0x16B5 PUSH2 0xF1C JUMP JUMPDEST JUMPDEST PUSH1 0x0 DUP3 ADD MLOAD PUSH8 0xFFFFFFFFFFFFFFFF DUP2 GT ISZERO PUSH2 0x16D4 JUMPI PUSH2 0x16D3 PUSH2 0xF21 JUMP JUMPDEST JUMPDEST PUSH2 0x16E0 DUP5 DUP3 DUP6 ADD PUSH2 0x1672 JUMP JUMPDEST SWAP2 POP POP SWAP3 SWAP2 POP POP JUMP JUMPDEST PUSH1 0x0 DUP2 SWAP1 POP SWAP2 SWAP1 POP JUMP JUMPDEST PUSH1 0x0 PUSH1 0xFF DUP3 AND SWAP1 POP SWAP2 SWAP1 POP JUMP JUMPDEST PUSH1 0x0 PUSH2 0x171B PUSH2 0x1716 PUSH2 0x1711 DUP5 PUSH2 0x16E9 JUMP JUMPDEST PUSH2 0xFBC JUMP JUMPDEST PUSH2 0x16F3 JUMP JUMPDEST SWAP1 POP SWAP2 SWAP1 POP JUMP JUMPDEST PUSH2 0x172B DUP2 PUSH2 0x1700 JUMP JUMPDEST DUP3 MSTORE POP POP JUMP JUMPDEST PUSH1 0x0 PUSH1 0x60 DUP3 ADD SWAP1 POP PUSH2 0x1746 PUSH1 0x0 DUP4 ADD DUP7 PUSH2 0x1722 JUMP JUMPDEST PUSH2 0x1753 PUSH1 0x20 DUP4 ADD DUP6 PUSH2 0x1036 JUMP JUMPDEST PUSH2 0x1760 PUSH1 0x40 DUP4 ADD DUP5 PUSH2 0x1036 JUMP JUMPDEST SWAP5 SWAP4 POP POP POP POP JUMP JUMPDEST PUSH32 0x5A45524F5F555344430000000000000000000000000000000000000000000000 PUSH1 0x0 DUP3 ADD MSTORE POP JUMP JUMPDEST PUSH1 0x0 PUSH2 0x179E PUSH1 0x9 DUP4 PUSH2 0x1171 JUMP JUMPDEST SWAP2 POP PUSH2 0x17A9 DUP3 PUSH2 0x1768 JUMP JUMPDEST PUSH1 0x20 DUP3 ADD SWAP1 POP SWAP2 SWAP1 POP JUMP JUMPDEST PUSH1 0x0 PUSH1 0x20 DUP3 ADD SWAP1 POP DUP2 DUP2 SUB PUSH1 0x0 DUP4 ADD MSTORE PUSH2 0x17CD DUP2 PUSH2 0x1791 JUMP JUMPDEST SWAP1 POP SWAP2 SWAP1 POP JUMP JUMPDEST PUSH1 0x0 PUSH1 0x20 DUP3 DUP5 SUB SLT ISZERO PUSH2 0x17EA JUMPI PUSH2 0x17E9 PUSH2 0xF1C JUMP JUMPDEST JUMPDEST PUSH1 0x0 PUSH2 0x17F8 DUP5 DUP3 DUP6 ADD PUSH2 0x15F4 JUMP JUMPDEST SWAP2 POP POP SWAP3 SWAP2 POP POP JUMP JUMPDEST PUSH32 0x494E53554646494349454E545F55534443000000000000000000000000000000 PUSH1 0x0 DUP3 ADD MSTORE POP JUMP JUMPDEST PUSH1 0x0 PUSH2 0x1837 PUSH1 0x11 DUP4 PUSH2 0x1171 JUMP JUMPDEST SWAP2 POP PUSH2 0x1842 DUP3 PUSH2 0x1801 JUMP JUMPDEST PUSH1 0x20 DUP3 ADD SWAP1 POP SWAP2 SWAP1 POP JUMP JUMPDEST PUSH1 0x0 PUSH1 0x20 DUP3 ADD SWAP1 POP DUP2 DUP2 SUB PUSH1 0x0 DUP4 ADD MSTORE PUSH2 0x1866 DUP2 PUSH2 0x182A JUMP JUMPDEST SWAP1 POP SWAP2 SWAP1 POP JUMP JUMPDEST PUSH1 0x0 PUSH1 0xA0 DUP3 ADD SWAP1 POP PUSH2 0x1882 PUSH1 0x0 DUP4 ADD DUP9 PUSH2 0x1036 JUMP JUMPDEST PUSH2 0x188F PUSH1 0x20 DUP4 ADD DUP8 PUSH2 0x1036 JUMP JUMPDEST DUP2 DUP2 SUB PUSH1 0x40 DUP4 ADD MSTORE PUSH2 0x18A1 DUP2 DUP7 PUSH2 0x14B7 JUMP JUMPDEST SWAP1 POP PUSH2 0x18B0 PUSH1 0x60 DUP4 ADD DUP6 PUSH2 0x10DE JUMP JUMPDEST PUSH2 0x18BD PUSH1 0x80 DUP4 ADD DUP5 PUSH2 0x1036 JUMP JUMPDEST SWAP7 SWAP6 POP POP POP POP POP POP JUMP JUMPDEST PUSH1 0x0 DUP2 SWAP1 POP SWAP2 SWAP1 POP JUMP JUMPDEST PUSH1 0x0 PUSH2 0x18EC PUSH2 0x18E7 PUSH2 0x18E2 DUP5 PUSH2 0x18C7 JUMP JUMPDEST PUSH2 0xFBC JUMP JUMPDEST PUSH2 0x16F3 JUMP JUMPDEST SWAP1 POP SWAP2 SWAP1 POP JUMP JUMPDEST PUSH2 0x18FC DUP2 PUSH2 0x18D1 JUMP JUMPDEST DUP3 MSTORE POP POP JUMP JUMPDEST PUSH1 0x0 PUSH1 0x60 DUP3 ADD SWAP1 POP PUSH2 0x1917 PUSH1 0x0 DUP4 ADD DUP7 PUSH2 0x18F3 JUMP JUMPDEST PUSH2 0x1924 PUSH1 0x20 DUP4 ADD DUP6 PUSH2 0x1036 JUMP JUMPDEST PUSH2 0x1931 PUSH1 0x40 DUP4 ADD DUP5 PUSH2 0x1036 JUMP JUMPDEST SWAP5 SWAP4 POP POP POP POP JUMP JUMPDEST PUSH32 0x616D6F756E74203D203000000000000000000000000000000000000000000000 PUSH1 0x0 DUP3 ADD MSTORE POP JUMP JUMPDEST PUSH1 0x0 PUSH2 0x196F PUSH1 0xA DUP4 PUSH2 0x1171 JUMP JUMPDEST SWAP2 POP PUSH2 0x197A DUP3 PUSH2 0x1939 JUMP JUMPDEST PUSH1 0x20 DUP3 ADD SWAP1 POP SWAP2 SWAP1 POP JUMP JUMPDEST PUSH1 0x0 PUSH1 0x20 DUP3 ADD SWAP1 POP DUP2 DUP2 SUB PUSH1 0x0 DUP4 ADD MSTORE PUSH2 0x199E DUP2 PUSH2 0x1962 JUMP JUMPDEST SWAP1 POP SWAP2 SWAP1 POP JUMP JUMPDEST PUSH32 0x6E6F2045544820656E6F75676800000000000000000000000000000000000000 PUSH1 0x0 DUP3 ADD MSTORE POP JUMP JUMPDEST PUSH1 0x0 PUSH2 0x19DB PUSH1 0xD DUP4 PUSH2 0x1171 JUMP JUMPDEST SWAP2 POP PUSH2 0x19E6 DUP3 PUSH2 0x19A5 JUMP JUMPDEST PUSH1 0x20 DUP3 ADD SWAP1 POP SWAP2 SWAP1 POP JUMP JUMPDEST PUSH1 0x0 PUSH1 0x20 DUP3 ADD SWAP1 POP DUP2 DUP2 SUB PUSH1 0x0 DUP4 ADD MSTORE PUSH2 0x1A0A DUP2 PUSH2 0x19CE JUMP JUMPDEST SWAP1 POP SWAP2 SWAP1 POP JUMP JUMPDEST PUSH1 0x0 DUP2 SWAP1 POP SWAP3 SWAP2 POP POP JUMP JUMPDEST POP JUMP JUMPDEST PUSH1 0x0 PUSH2 0x1A2C PUSH1 0x0 DUP4 PUSH2 0x1A11 JUMP JUMPDEST SWAP2 POP PUSH2 0x1A37 DUP3 PUSH2 0x1A1C JUMP JUMPDEST PUSH1 0x0 DUP3 ADD SWAP1 POP SWAP2 SWAP1 POP JUMP JUMPDEST PUSH1 0x0 PUSH2 0x1A4D DUP3 PUSH2 0x1A1F JUMP JUMPDEST SWAP2 POP DUP2 SWAP1 POP SWAP2 SWAP1 POP JUMP JUMPDEST PUSH32 0x455448207472616E73666572206661696C656400000000000000000000000000 PUSH1 0x0 DUP3 ADD MSTORE POP JUMP JUMPDEST PUSH1 0x0 PUSH2 0x1A8D PUSH1 0x13 DUP4 PUSH2 0x1171 JUMP JUMPDEST SWAP2 POP PUSH2 0x1A98 DUP3 PUSH2 0x1A57 JUMP JUMPDEST PUSH1 0x20 DUP3 ADD SWAP1 POP SWAP2 SWAP1 POP JUMP JUMPDEST PUSH1 0x0 PUSH1 0x20 DUP3 ADD SWAP1 POP DUP2 DUP2 SUB PUSH1 0x0 DUP4 ADD MSTORE PUSH2 0x1ABC DUP2 PUSH2 0x1A80 JUMP JUMPDEST SWAP1 POP SWAP2 SWAP1 POP JUMP INVALID LOG2 PUSH5 0x6970667358 0x22 SLT KECCAK256 EXTCODEHASH PUSH19 0xA2528F460B49F7EA7307789B000617D218DDB6 0xDE NOT PUSH10 0x5220D487C79E70B16473 PUSH16 0x6C634300081E00330000000000000000 "
				},
				"gasEstimates": {
					"creation": {
						"codeDepositCost": "1381000",
						"executionCost": "infinite",
						"totalCost": "infinite"
					},
					"external": {
						"DEADLINE_OFFSET()": "396",
						"approveUSDC()": "infinite",
						"owner()": "infinite",
						"rescueERC20(address,uint256)": "infinite",
						"router()": "infinite",
						"swapETHToUSDC(uint256,uint256)": "infinite",
						"swapUSDCToETH(uint256,uint256)": "infinite",
						"usdc()": "infinite",
						"withdrawETH(uint256)": "infinite"
					}
				},
				"methodIdentifiers": {
					"DEADLINE_OFFSET()": "7c9aa53a",
					"approveUSDC()": "02150afa",
					"owner()": "8da5cb5b",
					"rescueERC20(address,uint256)": "8cd4426d",
					"router()": "f887ea40",
					"swapETHToUSDC(uint256,uint256)": "37c0cb16",
					"swapUSDCToETH(uint256,uint256)": "8e0e155a",
					"usdc()": "3e413bee",
					"withdrawETH(uint256)": "f14210a6"
				}
			},
			"storageLayout": {
				"storage": [],
				"types": null
			},
			"userdoc": {
				"events": {
					"SwapExecuted(uint8,uint256,uint256)": {
						"notice": "Emitted after a successful swap execution"
					}
				},
				"kind": "user",
				"methods": {
					"DEADLINE_OFFSET()": {
						"notice": "Maximum execution delay to reduce price manipulation risk"
					},
					"approveUSDC()": {
						"notice": "Approves router to spend USDC (call once after deploy)"
					},
					"owner()": {
						"notice": "Contract owner with exclusive execution rights"
					},
					"rescueERC20(address,uint256)": {
						"notice": "Rescue any ERC20 tokens sent to the contract by mistake"
					},
					"router()": {
						"notice": "Uniswap V2 router"
					},
					"swapETHToUSDC(uint256,uint256)": {
						"notice": "Swaps ETH for USDC"
					},
					"swapUSDCToETH(uint256,uint256)": {
						"notice": "Swaps USDC for ETH"
					},
					"usdc()": {
						"notice": "USDC token used for swaps"
					},
					"withdrawETH(uint256)": {
						"notice": "Withdraws ETH from the contract"
					}
				},
				"version": 1
			}
		}
	}
}